{
  "_format": "hh-sol-artifact-1",
  "contractName": "BondingCurve",
  "sourceName": "contracts/BondingCurve.sol",
  "abi": [
    {
      "inputs": [
        {
          "internalType": "address",
          "name": "_assetToken",
          "type": "address"
        },
        {
          "internalType": "address",
          "name": "_uniswapFactory",
          "type": "address"
        },
        {
          "internalType": "address",
          "name": "_uniswapRouter",
          "type": "address"
        },
        {
          "internalType": "address",
          "name": "_stonkToken",
          "type": "address"
        },
        {
          "internalType": "uint256",
          "name": "_graduationThreshold",
          "type": "uint256"
        },
        {
          "internalType": "uint256",
          "name": "_feeBasisPoints",
          "type": "uint256"
        },
        {
          "internalType": "address",
          "name": "_treasury",
          "type": "address"
        }
      ],
      "stateMutability": "nonpayable",
      "type": "constructor"
    },
    {
      "inputs": [],
      "name": "AlreadyGraduated",
      "type": "error"
    },
    {
      "inputs": [],
      "name": "DivisionByZero",
      "type": "error"
    },
    {
      "inputs": [],
      "name": "InsufficientAssetBalance",
      "type": "error"
    },
    {
      "inputs": [],
      "name": "InsufficientTokenBalance",
      "type": "error"
    },
    {
      "inputs": [],
      "name": "InvalidAmount",
      "type": "error"
    },
    {
      "inputs": [],
      "name": "InvalidFee",
      "type": "error"
    },
    {
      "inputs": [],
      "name": "NotGraduated",
      "type": "error"
    },
    {
      "inputs": [],
      "name": "NotInitialized",
      "type": "error"
    },
    {
      "inputs": [
        {
          "internalType": "address",
          "name": "owner",
          "type": "address"
        }
      ],
      "name": "OwnableInvalidOwner",
      "type": "error"
    },
    {
      "inputs": [
        {
          "internalType": "address",
          "name": "account",
          "type": "address"
        }
      ],
      "name": "OwnableUnauthorizedAccount",
      "type": "error"
    },
    {
      "inputs": [],
      "name": "ReentrancyGuardReentrantCall",
      "type": "error"
    },
    {
      "inputs": [
        {
          "internalType": "address",
          "name": "token",
          "type": "address"
        }
      ],
      "name": "SafeERC20FailedOperation",
      "type": "error"
    },
    {
      "inputs": [],
      "name": "SlippageTooHigh",
      "type": "error"
    },
    {
      "inputs": [],
      "name": "TokenAlreadySet",
      "type": "error"
    },
    {
      "anonymous": false,
      "inputs": [
        {
          "indexed": true,
          "internalType": "address",
          "name": "treasury",
          "type": "address"
        },
        {
          "indexed": false,
          "internalType": "uint256",
          "name": "amount",
          "type": "uint256"
        },
        {
          "indexed": false,
          "internalType": "string",
          "name": "operation",
          "type": "string"
        }
      ],
      "name": "FeeCollected",
      "type": "event"
    },
    {
      "anonymous": false,
      "inputs": [
        {
          "indexed": false,
          "internalType": "uint256",
          "name": "tokenAmount",
          "type": "uint256"
        },
        {
          "indexed": false,
          "internalType": "uint256",
          "name": "assetAmount",
          "type": "uint256"
        }
      ],
      "name": "LiquidityAdded",
      "type": "event"
    },
    {
      "anonymous": false,
      "inputs": [
        {
          "indexed": true,
          "internalType": "address",
          "name": "previousOwner",
          "type": "address"
        },
        {
          "indexed": true,
          "internalType": "address",
          "name": "newOwner",
          "type": "address"
        }
      ],
      "name": "OwnershipTransferred",
      "type": "event"
    },
    {
      "anonymous": false,
      "inputs": [
        {
          "indexed": true,
          "internalType": "address",
          "name": "token",
          "type": "address"
        }
      ],
      "name": "TokenAddressSet",
      "type": "event"
    },
    {
      "anonymous": false,
      "inputs": [
        {
          "indexed": true,
          "internalType": "address",
          "name": "token",
          "type": "address"
        },
        {
          "indexed": true,
          "internalType": "address",
          "name": "pair",
          "type": "address"
        }
      ],
      "name": "TokenGraduated",
      "type": "event"
    },
    {
      "anonymous": false,
      "inputs": [
        {
          "indexed": true,
          "internalType": "address",
          "name": "buyer",
          "type": "address"
        },
        {
          "indexed": false,
          "internalType": "uint256",
          "name": "amount",
          "type": "uint256"
        },
        {
          "indexed": false,
          "internalType": "uint256",
          "name": "cost",
          "type": "uint256"
        },
        {
          "indexed": false,
          "internalType": "uint256",
          "name": "fee",
          "type": "uint256"
        }
      ],
      "name": "TokensPurchased",
      "type": "event"
    },
    {
      "anonymous": false,
      "inputs": [
        {
          "indexed": true,
          "internalType": "address",
          "name": "seller",
          "type": "address"
        },
        {
          "indexed": false,
          "internalType": "uint256",
          "name": "amount",
          "type": "uint256"
        },
        {
          "indexed": false,
          "internalType": "uint256",
          "name": "proceeds",
          "type": "uint256"
        },
        {
          "indexed": false,
          "internalType": "uint256",
          "name": "fee",
          "type": "uint256"
        }
      ],
      "name": "TokensSold",
      "type": "event"
    },
    {
      "inputs": [],
      "name": "BASIS_POINTS",
      "outputs": [
        {
          "internalType": "uint256",
          "name": "",
          "type": "uint256"
        }
      ],
      "stateMutability": "view",
      "type": "function"
    },
    {
      "inputs": [],
      "name": "DEAD_ADDRESS",
      "outputs": [
        {
          "internalType": "address",
          "name": "",
          "type": "address"
        }
      ],
      "stateMutability": "view",
      "type": "function"
    },
    {
      "inputs": [],
      "name": "MIN_ASSET_LIQUIDITY",
      "outputs": [
        {
          "internalType": "uint256",
          "name": "",
          "type": "uint256"
        }
      ],
      "stateMutability": "view",
      "type": "function"
    },
    {
      "inputs": [],
      "name": "MIN_LIQUIDITY",
      "outputs": [
        {
          "internalType": "uint256",
          "name": "",
          "type": "uint256"
        }
      ],
      "stateMutability": "view",
      "type": "function"
    },
    {
      "inputs": [],
      "name": "PRECISION",
      "outputs": [
        {
          "internalType": "uint256",
          "name": "",
          "type": "uint256"
        }
      ],
      "stateMutability": "view",
      "type": "function"
    },
    {
      "inputs": [],
      "name": "assetToken",
      "outputs": [
        {
          "internalType": "contract IERC20",
          "name": "",
          "type": "address"
        }
      ],
      "stateMutability": "view",
      "type": "function"
    },
    {
      "inputs": [
        {
          "internalType": "address",
          "name": "to",
          "type": "address"
        },
        {
          "internalType": "uint256",
          "name": "maxAssetAmount",
          "type": "uint256"
        },
        {
          "internalType": "uint256",
          "name": "minTokenAmount",
          "type": "uint256"
        }
      ],
      "name": "buyTokens",
      "outputs": [
        {
          "internalType": "uint256",
          "name": "tokensReceived",
          "type": "uint256"
        }
      ],
      "stateMutability": "nonpayable",
      "type": "function"
    },
    {
      "inputs": [
        {
          "internalType": "uint256",
          "name": "tokenAmount",
          "type": "uint256"
        }
      ],
      "name": "calculateBuyFee",
      "outputs": [
        {
          "internalType": "uint256",
          "name": "assetAmount",
          "type": "uint256"
        },
        {
          "internalType": "uint256",
          "name": "fee",
          "type": "uint256"
        }
      ],
      "stateMutability": "view",
      "type": "function"
    },
    {
      "inputs": [
        {
          "internalType": "uint256",
          "name": "tokenAmount",
          "type": "uint256"
        }
      ],
      "name": "calculatePurchasePrice",
      "outputs": [
        {
          "internalType": "uint256",
          "name": "",
          "type": "uint256"
        }
      ],
      "stateMutability": "view",
      "type": "function"
    },
    {
      "inputs": [
        {
          "internalType": "uint256",
          "name": "tokenAmount",
          "type": "uint256"
        }
      ],
      "name": "calculateSaleProceeds",
      "outputs": [
        {
          "internalType": "uint256",
          "name": "",
          "type": "uint256"
        }
      ],
      "stateMutability": "view",
      "type": "function"
    },
    {
      "inputs": [
        {
          "internalType": "uint256",
          "name": "tokenAmount",
          "type": "uint256"
        }
      ],
      "name": "calculateSellFee",
      "outputs": [
        {
          "internalType": "uint256",
          "name": "assetAmount",
          "type": "uint256"
        },
        {
          "internalType": "uint256",
          "name": "fee",
          "type": "uint256"
        }
      ],
      "stateMutability": "view",
      "type": "function"
    },
    {
      "inputs": [
        {
          "internalType": "uint256",
          "name": "assetAmount",
          "type": "uint256"
        }
      ],
      "name": "calculateTokenAmountForAssetAmount",
      "outputs": [
        {
          "internalType": "uint256",
          "name": "",
          "type": "uint256"
        }
      ],
      "stateMutability": "view",
      "type": "function"
    },
    {
      "inputs": [],
      "name": "feeBasisPoints",
      "outputs": [
        {
          "internalType": "uint256",
          "name": "",
          "type": "uint256"
        }
      ],
      "stateMutability": "view",
      "type": "function"
    },
    {
      "inputs": [],
      "name": "getCurrentPrice",
      "outputs": [
        {
          "internalType": "uint256",
          "name": "",
          "type": "uint256"
        }
      ],
      "stateMutability": "view",
      "type": "function"
    },
    {
      "inputs": [],
      "name": "getFeeInfo",
      "outputs": [
        {
          "internalType": "uint256",
          "name": "feeBasisPoints_",
          "type": "uint256"
        },
        {
          "internalType": "address",
          "name": "treasury_",
          "type": "address"
        }
      ],
      "stateMutability": "view",
      "type": "function"
    },
    {
      "inputs": [],
      "name": "getGraduationStatus",
      "outputs": [
        {
          "internalType": "bool",
          "name": "",
          "type": "bool"
        }
      ],
      "stateMutability": "view",
      "type": "function"
    },
    {
      "inputs": [],
      "name": "getGraduationThreshold",
      "outputs": [
        {
          "internalType": "uint256",
          "name": "",
          "type": "uint256"
        }
      ],
      "stateMutability": "view",
      "type": "function"
    },
    {
      "inputs": [],
      "name": "graduationThreshold",
      "outputs": [
        {
          "internalType": "uint256",
          "name": "",
          "type": "uint256"
        }
      ],
      "stateMutability": "view",
      "type": "function"
    },
    {
      "inputs": [],
      "name": "initialTokenSupply",
      "outputs": [
        {
          "internalType": "uint256",
          "name": "",
          "type": "uint256"
        }
      ],
      "stateMutability": "view",
      "type": "function"
    },
    {
      "inputs": [],
      "name": "isGraduated",
      "outputs": [
        {
          "internalType": "bool",
          "name": "",
          "type": "bool"
        }
      ],
      "stateMutability": "view",
      "type": "function"
    },
    {
      "inputs": [],
      "name": "owner",
      "outputs": [
        {
          "internalType": "address",
          "name": "",
          "type": "address"
        }
      ],
      "stateMutability": "view",
      "type": "function"
    },
    {
      "inputs": [],
      "name": "renounceOwnership",
      "outputs": [],
      "stateMutability": "nonpayable",
      "type": "function"
    },
    {
      "inputs": [
        {
          "internalType": "address",
          "name": "to",
          "type": "address"
        },
        {
          "internalType": "uint256",
          "name": "tokenAmount",
          "type": "uint256"
        },
        {
          "internalType": "uint256",
          "name": "minAssetAmount",
          "type": "uint256"
        }
      ],
      "name": "sellTokens",
      "outputs": [
        {
          "internalType": "uint256",
          "name": "assetsReceived",
          "type": "uint256"
        }
      ],
      "stateMutability": "nonpayable",
      "type": "function"
    },
    {
      "inputs": [
        {
          "internalType": "address",
          "name": "_tokenAddress",
          "type": "address"
        }
      ],
      "name": "setTokenAddress",
      "outputs": [],
      "stateMutability": "nonpayable",
      "type": "function"
    },
    {
      "inputs": [],
      "name": "stonkToken",
      "outputs": [
        {
          "internalType": "contract IStonkToken",
          "name": "",
          "type": "address"
        }
      ],
      "stateMutability": "view",
      "type": "function"
    },
    {
      "inputs": [
        {
          "internalType": "address",
          "name": "newOwner",
          "type": "address"
        }
      ],
      "name": "transferOwnership",
      "outputs": [],
      "stateMutability": "nonpayable",
      "type": "function"
    },
    {
      "inputs": [],
      "name": "treasury",
      "outputs": [
        {
          "internalType": "address",
          "name": "",
          "type": "address"
        }
      ],
      "stateMutability": "view",
      "type": "function"
    },
    {
      "inputs": [],
      "name": "uniswapFactory",
      "outputs": [
        {
          "internalType": "contract IUniswapV2Factory",
          "name": "",
          "type": "address"
        }
      ],
      "stateMutability": "view",
      "type": "function"
    },
    {
      "inputs": [],
      "name": "uniswapRouter",
      "outputs": [
        {
          "internalType": "contract IUniswapV2Router02",
          "name": "",
          "type": "address"
        }
      ],
      "stateMutability": "view",
      "type": "function"
    }
  ],
  "bytecode": "0x6080604090808252346200023957610100816200209d80380380916200002682856200023e565b83398101031262000239576200003c8162000278565b906200004b6020820162000278565b916200005984830162000278565b92620000686060840162000278565b60808401519360a0810151906200008760e060c0830151920162000278565b913315620002215760008054336001600160a01b0319808316821784558c51939b90996001600160a01b0399919491939092908a167f8be0079c531659141344cd1fd0a4f28419497f9722a3daafe3b4186f6b6457e08e80a36001805584156200021257509187809695949392818094168b6002541617600255168960035416176003551687600454161760045587600655600755600b551683600c541617600c5560ff19600854166008551690816200014b575b8451611d6e90816200032f8239f35b8160249260209260055416176005558551928380926370a0823160e01b82523060048301525afa92831562000207578093620001c8575b50508115620001b75790620001a481620001a4620001aa9482600a556200028d565b620002fb565b600955388080806200013c565b82516323d359a360e01b8152600490fd5b909192506020823d8211620001fe575b81620001e7602093836200023e565b81010312620001fb57505190388062000182565b80fd5b3d9150620001d8565b8451903d90823e3d90fd5b6379bced3560e01b8152600490fd5b8851631e4fbdf760e01b815260006004820152602490fd5b600080fd5b601f909101601f19168101906001600160401b038211908210176200026257604052565b634e487b7160e01b600052604160045260246000fd5b51906001600160a01b03821682036200023957565b600019600282098160011b90818082109103818114620002f1570360031115620002de57600360027faaaaaaaaaaaaaaaaaaaaaaaaaaaaaaaaaaaaaaaaaaaaaaaaaaaaaaaaaaaaaaab930990030290565b634e487b7160005260116020526024601cfd5b5050600391500490565b600019828209918082029283808210910381811462000327570360011115620002de5760019109900390565b505050509056fe6080604081815260048036101561001557600080fd5b600092833560e01c90816202eab714610ed1575080630422e87d14610eb15780630cad026714610b645780631083f76114610e88578063145f101914610e6857806320689fe514610e0a57806321b77d6314610cdf57806326a4e8d214610ce45780633c502e1814610cdf5780634e6fd6c414610cc257806361d027b314610c99578063715018a614610c3f578063735de9f714610c1857806384e568b014610bf95780638b0bc50114610bf95780638b1dd58914610bd95780638bdb2afa14610bb05780638da5cb5b14610b885780639e5f260214610b64578063a932492f14610b40578063aaf5eb6814610b1d578063b7c3f62214610af4578063b8606eef14610ad5578063d2395dcd146106c0578063ddaf4c981461051e578063e1f1c4a714610501578063e4e57b9e14610317578063e8e6ed69146102f8578063eb13a7d2146102d5578063eb91d37e146102005763f2fde38b1461017757600080fd5b346101fc5760203660031901126101fc57610190610f25565b90610199610f65565b6001600160a01b039182169283156101e657505082546001600160a01b0319811683178455167f8be0079c531659141344cd1fd0a4f28419497f9722a3daafe3b4186f6b6457e08380a380f35b51631e4fbdf760e01b8152908101849052602490fd5b8280fd5b50346101fc57826003193601126101fc5761021961137e565b60055482516370a0823160e01b8152308382015290602090829060249082906001600160a01b03165afa9384156102ca578094610291575b50508215610283575061027c8261027661026f60209560095461111f565b918061125e565b90610fc9565b9051908152f35b90516323d359a360e01b8152fd5b909193506020823d82116102c2575b816102ad60209383610f91565b810103126102bf575051913880610251565b80fd5b3d91506102a0565b8351903d90823e3d90fd5b5050346102f457816003193601126102f457602090600a549051908152f35b5080fd5b5050346102f457816003193601126102f4576020906007549051908152f35b509190346102f45761032836610f3b565b939091610333611775565b60ff600854166104f15782156104e15760055484516370a0823160e01b815230818901526020976001600160a01b03949290919089908290602490829089165afa9081156104d75790869184916104a4575b506103966103bd9261039c9261123b565b87611798565b600b549093811561049b57506103b5612710918561125e565b04809361123b565b96871061048d578291610420916103fb8987967f6db63bebf1e6540277744df32846ebdb98385b1a73f2d5de49b28348add63f5098600254166116e2565b8161042d575b5086519586526020860188905260408601529116929081906060820190565b0390a26001805551908152f35b61044182866002541687600c5416906116e2565b7fbde344b6f67c3bf7e0ecbbf22b04267d5d3ae0aa1909c0000b812f6b14ce45b960808b87600c5416938b8051928784528301528b820152631cd95b1b60e21b6060820152a238610401565b855163428637bb60e11b8152fd5b9050809361123b565b8092508a8092503d83116104d0575b6104bd8183610f91565b810103126101fc57518590610396610385565b503d6104b3565b87513d85823e3d90fd5b835163162908e360e11b81528690fd5b835163e6a0d45f60e01b81528690fd5b5050346102f457816003193601126102f457602090516127108152f35b5091346102bf576020806003193601126102f457833560ff600854166106b05761054661137e565b60055484516370a0823160e01b81523087820152908390829060249082906001600160a01b03165afa9081156106a6578491610675575b5080156106655760095491806105c4575050509080929350915b600b549081156105bc57506105af612710918461125e565b04905b8351928352820152f35b9050906105b2565b8181106105db57855163162908e360e11b81528790fd5b61026f6105f06105f79284999697989961123b565b928061125e565b6001600160ff1b0393908481168103610652576106179060011b84611086565b938216820361063f575061063992916106339160011b90611086565b9061123b565b91610597565b634e487b7160e01b865260119052602485fd5b634e487b7160e01b875260118252602487fd5b84516323d359a360e01b81528690fd5b90508281813d831161069f575b61068c8183610f91565b8101031261069b57513861057d565b8380fd5b503d610682565b85513d86823e3d90fd5b5050505163e6a0d45f60e01b8152fd5b5090346101fc576106d036610f3b565b92919490936106dd611775565b60ff60085416610ac7578415610ab9576106f68561145a565b938410610aab57600b548015610aa357610713612710918761125e565b04905b610720828761123b565b60018060a01b0390816005541693865180996370a0823160e01b96878352308784015282602460209d8e935afa918215610a99578892610a66575b5084600254169189519088825230888301528c82602481875afa918215610a5c57908c9392918b92610a24575b5061079c662386f26fc1000094859261123b565b10610a1457906107ab9161139a565b10610a045781806109a9575b5050600554875163a9059cbb60e01b81526001600160a01b038c16868201908152602081018b905290918b91839187169082908b90829060400103925af1801561099f579a6108517f0d1a0d5e3d583a0e92588799dd06e50fd78c07daf05f0cc06d7b848b1ca445f1938c879460249b9c9d9e9f610971575b50508b5193849316958d846040919493926060820195825260208201520152565b0390a287816002541687519586809287825230878301525afa9384156109675790889291869561092f575b50602490600554169387519485938492835230908301525afa9283156109245780936108f2575b505060065411908115916108e2575b50806108d5575b6108c8575b6001805551908152f35b6108d06117df565b6108be565b5060ff60085416156108b9565b9050600a5460011c1015386108b2565b909192508582813d831161091d575b61090b8183610f91565b810103126102bf5750519038806108a3565b503d610901565b8451903d90823e3d90fd5b838193949296503d8311610960575b6109488183610f91565b8101031261095c575192879190602461087c565b8480fd5b503d61093e565b86513d87823e3d90fd5b8161099092903d10610998575b6109888183610f91565b8101906116ca565b508d38610830565b503d61097e565b88513d89823e3d90fd5b6109b89185600c5416906116e2565b82600c54167fbde344b6f67c3bf7e0ecbbf22b04267d5d3ae0aa1909c0000b812f6b14ce45b9608089518481528a8d82015260038b8201526262757960e81b6060820152a238816107b7565b8751639a845eb760e01b81528590fd5b8a51637222ae5760e11b81528890fd5b8e80929495508193503d8311610a55575b610a3f8183610f91565b81010312610a5157518b929138610788565b8980fd5b503d610a35565b8b513d8c823e3d90fd5b9091508a81813d8311610a92575b610a7e8183610f91565b81010312610a8e5751903861075b565b8780fd5b503d610a74565b89513d8a823e3d90fd5b508190610716565b825163428637bb60e11b8152fd5b825163162908e360e11b8152fd5b825163e6a0d45f60e01b8152fd5b5050346102f457816003193601126102f457602090600b549051908152f35b5050346102f457816003193601126102f45760055490516001600160a01b039091168152602090f35b5050346102f457816003193601126102f45760209051670de0b6b3a76400008152f35b5050346102f457816003193601126102f4576020905168a2a15d09519be000008152f35b5050346102f457816003193601126102f45760209060ff6008541690519015158152f35b5050346102f457816003193601126102f457905490516001600160a01b039091168152602090f35b5050346102f457816003193601126102f45760035490516001600160a01b039091168152602090f35b5091346102bf5760203660031901126102bf575061027c6020923561145a565b5050346102f457816003193601126102f4576020906006549051908152f35b50346101fc57826003193601126101fc575490516001600160a01b03909116815260209150f35b83346102bf57806003193601126102bf57610c58610f65565b80546001600160a01b03198116825581906001600160a01b03167f8be0079c531659141344cd1fd0a4f28419497f9722a3daafe3b4186f6b6457e08280a380f35b5050346102f457816003193601126102f457600c5490516001600160a01b039091168152602090f35b5050346102f457816003193601126102f4576020905161dead8152f35b610efe565b508290346102f45760203660031901126102f457610d00610f25565b92610d09610f65565b600554936001600160a01b0390818616610dfb5794602091602495961680916bffffffffffffffffffffffff60a01b1617600555825194858281937fd82cad5fdc98633445b90f806f2e1a61a5409f92187ee9cd87f1da18c90692668a80a26370a0823160e01b825230878301525afa928315610df1578493610dbe575b508215610db15783610dab8480600a55610da681610da6600654610fe9565b611055565b60095580f35b516323d359a360e01b8152fd5b9092506020813d8211610de9575b81610dd960209383610f91565b8101031261069b57519184610d87565b3d9150610dcc565b81513d86823e3d90fd5b5050516371168e4f60e11b8152fd5b508290346102f45760203660031901126102f45760ff60085416610ac757610e3a90610e3461137e565b356113a7565b600b5490918115610e615750610e53612710918361125e565b045b82519182526020820152f35b9050610e55565b5091346102bf5760203660031901126102bf575061027c60209235611271565b5050346102f457816003193601126102f45760025490516001600160a01b039091168152602090f35b5091346102bf5760203660031901126102bf575061027c602092356113a7565b839085346102bf57806003193601126102bf5750600b54600c549082526001600160a01b03166020820152f35b34610f20576000366003190112610f20576020604051662386f26fc100008152f35b600080fd5b600435906001600160a01b0382168203610f2057565b6060906003190112610f20576004356001600160a01b0381168103610f2057906024359060443590565b6000546001600160a01b03163303610f7957565b60405163118cdaa760e01b8152336004820152602490fd5b90601f8019910116810190811067ffffffffffffffff821117610fb357604052565b634e487b7160e01b600052604160045260246000fd5b8115610fd3570490565b634e487b7160e01b600052601260045260246000fd5b600019600282098160011b9081808210910381811461104b57036003111561103857600360027faaaaaaaaaaaaaaaaaaaaaaaaaaaaaaaaaaaaaaaaaaaaaaaaaaaaaaaaaaaaaaab930990030290565b634e487b7160005260116020526024601cfd5b5050600391500490565b600019828209918082029283808210910381811461107f5703600111156110385760019109900390565b5050505090565b600019600182099181808410930392808403931461111157828111156110f957806001830981600003821680920460028082600302188083028203028083028203028083028203028083028203028083028203028092029003029360018380600003040190848311900302920304170290565b634e487b71600052156003026011186020526024601cfd5b9061111c9250610fc9565b90565b670de0b6b3a76400009160001983830992808302928380861095039480860395146111b7578483111561119e579082910981600003821680920460028082600302188083028203028083028203028083028203028083028203028083028203028092029003029360018380600003040190848311900302920304170290565b82634e487b71600052156003026011186020526024601cfd5b50509061111c9250610fc9565b909160001983830992808302928380861095039480860395146111b7578483111561119e579082910981600003821680920460028082600302188083028203028083028203028083028203028083028203028083028203028092029003029360018380600003040190848311900302920304170290565b9190820391821161124857565b634e487b7160e01b600052601160045260246000fd5b8181029291811591840414171561124857565b61127961137e565b6005546040516370a0823160e01b815230600482015290602090829060249082906001600160a01b03165afa90811561137257600091611341575b50801561132f5781156113285780821015611316576112dc61026f6105f0600954948461123b565b6001600160ff1b0391908281168103611248576112fc9060011b84611086565b91811681036112485761111c926106339160011b90611086565b60405163162908e360e11b8152600490fd5b5050600090565b6040516323d359a360e01b8152600490fd5b906020823d821161136a575b8161135a60209383610f91565b810103126102bf575051386112b4565b3d915061134d565b6040513d6000823e3d90fd5b6009541561138857565b6040516321c4e35760e21b8152600490fd5b9190820180921161124857565b6113af61137e565b6005546040516370a0823160e01b815230600482015290602090829060249082906001600160a01b03165afa90811561137257600091611429575b50801561132f5781156113285761140a61026f6105f0600954948461139a565b6001600160ff1b03918083168103611248576112fc9060011b84611086565b906020823d8211611452575b8161144260209383610f91565b810103126102bf575051386113ea565b3d9150611435565b60ff600854166115985760249061146f61137e565b6005546040516370a0823160e01b81523060048201529260209184919082906001600160a01b03165afa91821561137257600092611565575b50811561132f57600b546114d491906000811561155d57506114cd612710918361125e565b049061123b565b8015611328576114f1600954916114eb848061125e565b90611055565b8060011b90808204600214901517156112485761151a61151f91611514846115aa565b9361139a565b6115aa565b90811561132f5761153a9161153491846111c4565b8261123b565b9080821015611547575090565b662386f26fc0ffff198101915081116112485790565b90509061123b565b90916020823d8211611590575b8161157f60209383610f91565b810103126102bf57505190386114a8565b3d9150611572565b60405163e6a0d45f60e01b8152600490fd5b6001808211156116c657611667908083600160801b8110156116b4575b80600160401b60049210156116a7575b64010000000081101561169a575b6201000081101561168d575b610100811015611681575b6010811015611675575b101561166e575b600302811c61161c8185610fc9565b01811c6116298185610fc9565b01811c6116368185610fc9565b01811c6116438185610fc9565b01811c6116508185610fc9565b01811c61165d8185610fc9565b01901c8092610fc9565b8111900390565b811b61160d565b811c9160021b91611606565b60081c91811b916115fc565b60101c9160081b916115f1565b60201c9160101b916115e5565b60401c9160201b916115d7565b50600160401b9050608084901c6115c7565b5090565b90816020910312610f2057518015158103610f205790565b60405163a9059cbb60e01b60208083019182526001600160a01b039490941660248301526044808301959095529381529092600091611722606482610f91565b519082855af115611372576000513d61176c57506001600160a01b0381163b155b61174a5750565b604051635274afe760e01b81526001600160a01b039091166004820152602490fd5b60011415611743565b600260015414611786576002600155565b604051633ee5aeb560e01b8152600490fd5b906117a161137e565b801561132f5781156113285761140a61026f6105f0600954948461139a565b90816020910312610f2057516001600160a01b0381168103610f205790565b60085460ff8116611d355760ff19166001176008556003546005546002546040805163e6a4390560e01b81526001600160a01b039384166004808301829052938516602483018190529195602094939291908616908588604481855afa978815611b3557600098611d16575b5086881615611c94575b505060055482516370a0823160e01b8082523082870152602495935091871686828781845afa918215611c8957908691600093611c57575b50878960025416875193848092888252308a8301525afa918215611b6f57600092611c28575b5082151580611c1f575b6118f9575b505050505050505080600554169116907f806ef27e0c58d1db68e3780cb50bde63b59139693b61ab9fdff83126acc3a9a0600080a3565b61191b61191561190b8560095461111f565b610276868061125e565b8361111f565b92662386f26fc100008401808511611c0b5791818a92889411611bd3575b508254885163095ea7b360e01b808252918d166001600160a01b03169481019485526020850187905290939092918391829060009082906040015b03925af18015611bc8576119c1928a928592611bab575b508b600254169060008d8a5416918b519687958694859384528d840160209093929193604081019460018060a01b031681520152565b03925af18015611b6f57611b8e575b50878454168860055416908960025416610384420190814211611b7a578760006060948c9694610104948d51988997889662e8e33760e81b88528701528501528960448501528860648501528960848501528860a48501523060c485015260e48401525af18015611b6f5790869291611b40575b508151928352878301527f38f8a0c92f4c5b0b6877f878cb4c0c8d348a47b76d716c8e78f425043df9515b91a185600554168351918252308383015285828681845afa918215611b3557600092611b06575b5081611aa4575b80806118c2565b8592600060449261dead948751988996879563a9059cbb60e01b87528601528401525af1908115611afc5750611ade575b80808080611a9d565b81611af492903d10610998576109888183610f91565b503880611ad5565b513d6000823e3d90fd5b90918682813d8311611b2e575b611b1d8183610f91565b810103126102bf5750519038611a96565b503d611b13565b84513d6000823e3d90fd5b6060809293503d8111611b68575b611b588183610f91565b81010312610f2057849038611a44565b503d611b4e565b86513d6000823e3d90fd5b89601189634e487b7160e01b600052526000fd5b611ba490883d8a11610998576109888183610f91565b50386119d0565b611bc190843d8611610998576109888183610f91565b503861198b565b87513d6000823e3d90fd5b9250935050662386f26fc0ffff198101908111611bf7579184908890611974611939565b86601186634e487b7160e01b600052526000fd5b88601188634e487b7160e01b600052526000fd5b508115156118bd565b90918882813d8311611c50575b611c3f8183610f91565b810103126102bf57505190386118b3565b503d611c35565b9150918782813d8311611c82575b611c6f8183610f91565b810103126102bf5750859051913861188d565b503d611c65565b85513d6000823e3d90fd5b83516364e329cb60e11b81526001600160a01b0391821686820190815293909116602084015292965084918391908290600090829060400103925af1908115611c8957600091611ce9575b5093388080611855565b611d099150833d8511611d0f575b611d018183610f91565b8101906117c0565b38611cdf565b503d611cf7565b611d2e919850863d8811611d0f57611d018183610f91565b963861184b565b5056fea26469706673582212202f3be12df185e86451ab9202ac516153793bd4474492ad72236b30adc9f26b5264736f6c63430008140033",
  "linkReferences": {},
  "deployedLinkReferences": {}
}