{
  "_format": "hh-sol-artifact-1",
  "contractName": "BondingCurve",
  "sourceName": "contracts/BondingCurve.sol",
  "abi": [
    {
      "inputs": [
        {
          "internalType": "address",
          "name": "_assetToken",
          "type": "address"
        },
        {
          "internalType": "address",
          "name": "_uniswapFactory",
          "type": "address"
        },
        {
          "internalType": "address",
          "name": "_uniswapRouter",
          "type": "address"
        },
        {
          "internalType": "address",
          "name": "_stonkToken",
          "type": "address"
        },
        {
          "internalType": "uint256",
          "name": "_graduationThreshold",
          "type": "uint256"
        },
        {
          "internalType": "uint256",
          "name": "_assetRate",
          "type": "uint256"
        },
        {
          "internalType": "uint256",
          "name": "_feeBasisPoints",
          "type": "uint256"
        },
        {
          "internalType": "address",
          "name": "_treasury",
          "type": "address"
        }
      ],
      "stateMutability": "nonpayable",
      "type": "constructor"
    },
    {
      "inputs": [],
      "name": "AlreadyGraduated",
      "type": "error"
    },
    {
      "inputs": [],
      "name": "InsufficientAssetBalance",
      "type": "error"
    },
    {
      "inputs": [],
      "name": "InsufficientTokenBalance",
      "type": "error"
    },
    {
      "inputs": [],
      "name": "InvalidAmount",
      "type": "error"
    },
    {
      "inputs": [],
      "name": "InvalidFee",
      "type": "error"
    },
    {
      "inputs": [],
      "name": "NotGraduated",
      "type": "error"
    },
    {
      "inputs": [
        {
          "internalType": "address",
          "name": "owner",
          "type": "address"
        }
      ],
      "name": "OwnableInvalidOwner",
      "type": "error"
    },
    {
      "inputs": [
        {
          "internalType": "address",
          "name": "account",
          "type": "address"
        }
      ],
      "name": "OwnableUnauthorizedAccount",
      "type": "error"
    },
    {
      "inputs": [],
      "name": "ReentrancyGuardReentrantCall",
      "type": "error"
    },
    {
      "inputs": [
        {
          "internalType": "address",
          "name": "token",
          "type": "address"
        }
      ],
      "name": "SafeERC20FailedOperation",
      "type": "error"
    },
    {
      "inputs": [],
      "name": "SlippageTooHigh",
      "type": "error"
    },
    {
      "inputs": [],
      "name": "TokenAlreadySet",
      "type": "error"
    },
    {
      "anonymous": false,
      "inputs": [
        {
          "indexed": true,
          "internalType": "address",
          "name": "treasury",
          "type": "address"
        },
        {
          "indexed": false,
          "internalType": "uint256",
          "name": "amount",
          "type": "uint256"
        },
        {
          "indexed": false,
          "internalType": "string",
          "name": "operation",
          "type": "string"
        }
      ],
      "name": "FeeCollected",
      "type": "event"
    },
    {
      "anonymous": false,
      "inputs": [
        {
          "indexed": false,
          "internalType": "uint256",
          "name": "tokenAmount",
          "type": "uint256"
        },
        {
          "indexed": false,
          "internalType": "uint256",
          "name": "assetAmount",
          "type": "uint256"
        }
      ],
      "name": "LiquidityAdded",
      "type": "event"
    },
    {
      "anonymous": false,
      "inputs": [
        {
          "indexed": true,
          "internalType": "address",
          "name": "previousOwner",
          "type": "address"
        },
        {
          "indexed": true,
          "internalType": "address",
          "name": "newOwner",
          "type": "address"
        }
      ],
      "name": "OwnershipTransferred",
      "type": "event"
    },
    {
      "anonymous": false,
      "inputs": [
        {
          "indexed": true,
          "internalType": "address",
          "name": "token",
          "type": "address"
        }
      ],
      "name": "TokenAddressSet",
      "type": "event"
    },
    {
      "anonymous": false,
      "inputs": [
        {
          "indexed": true,
          "internalType": "address",
          "name": "token",
          "type": "address"
        },
        {
          "indexed": true,
          "internalType": "address",
          "name": "pair",
          "type": "address"
        }
      ],
      "name": "TokenGraduated",
      "type": "event"
    },
    {
      "anonymous": false,
      "inputs": [
        {
          "indexed": true,
          "internalType": "address",
          "name": "buyer",
          "type": "address"
        },
        {
          "indexed": false,
          "internalType": "uint256",
          "name": "amount",
          "type": "uint256"
        },
        {
          "indexed": false,
          "internalType": "uint256",
          "name": "cost",
          "type": "uint256"
        },
        {
          "indexed": false,
          "internalType": "uint256",
          "name": "fee",
          "type": "uint256"
        }
      ],
      "name": "TokensPurchased",
      "type": "event"
    },
    {
      "anonymous": false,
      "inputs": [
        {
          "indexed": true,
          "internalType": "address",
          "name": "seller",
          "type": "address"
        },
        {
          "indexed": false,
          "internalType": "uint256",
          "name": "amount",
          "type": "uint256"
        },
        {
          "indexed": false,
          "internalType": "uint256",
          "name": "proceeds",
          "type": "uint256"
        },
        {
          "indexed": false,
          "internalType": "uint256",
          "name": "fee",
          "type": "uint256"
        }
      ],
      "name": "TokensSold",
      "type": "event"
    },
    {
      "inputs": [],
      "name": "BASIS_POINTS",
      "outputs": [
        {
          "internalType": "uint256",
          "name": "",
          "type": "uint256"
        }
      ],
      "stateMutability": "view",
      "type": "function"
    },
    {
      "inputs": [],
      "name": "K",
      "outputs": [
        {
          "internalType": "uint256",
          "name": "",
          "type": "uint256"
        }
      ],
      "stateMutability": "view",
      "type": "function"
    },
    {
      "inputs": [],
      "name": "MIN_ASSET_LIQUIDITY",
      "outputs": [
        {
          "internalType": "uint256",
          "name": "",
          "type": "uint256"
        }
      ],
      "stateMutability": "view",
      "type": "function"
    },
    {
      "inputs": [],
      "name": "MIN_LIQUIDITY",
      "outputs": [
        {
          "internalType": "uint256",
          "name": "",
          "type": "uint256"
        }
      ],
      "stateMutability": "view",
      "type": "function"
    },
    {
      "inputs": [],
      "name": "PRECISION",
      "outputs": [
        {
          "internalType": "uint256",
          "name": "",
          "type": "uint256"
        }
      ],
      "stateMutability": "view",
      "type": "function"
    },
    {
      "inputs": [],
      "name": "assetRate",
      "outputs": [
        {
          "internalType": "uint256",
          "name": "",
          "type": "uint256"
        }
      ],
      "stateMutability": "view",
      "type": "function"
    },
    {
      "inputs": [],
      "name": "assetToken",
      "outputs": [
        {
          "internalType": "contract IERC20",
          "name": "",
          "type": "address"
        }
      ],
      "stateMutability": "view",
      "type": "function"
    },
    {
      "inputs": [
        {
          "internalType": "address",
          "name": "to",
          "type": "address"
        },
        {
          "internalType": "uint256",
          "name": "tokenAmount",
          "type": "uint256"
        },
        {
          "internalType": "uint256",
          "name": "maxAssetAmount",
          "type": "uint256"
        }
      ],
      "name": "buyTokens",
      "outputs": [],
      "stateMutability": "nonpayable",
      "type": "function"
    },
    {
      "inputs": [
        {
          "internalType": "uint256",
          "name": "tokenAmount",
          "type": "uint256"
        }
      ],
      "name": "calculateBuyFee",
      "outputs": [
        {
          "internalType": "uint256",
          "name": "assetAmount",
          "type": "uint256"
        },
        {
          "internalType": "uint256",
          "name": "fee",
          "type": "uint256"
        }
      ],
      "stateMutability": "view",
      "type": "function"
    },
    {
      "inputs": [
        {
          "internalType": "uint256",
          "name": "tokenAmount",
          "type": "uint256"
        }
      ],
      "name": "calculatePurchasePrice",
      "outputs": [
        {
          "internalType": "uint256",
          "name": "",
          "type": "uint256"
        }
      ],
      "stateMutability": "view",
      "type": "function"
    },
    {
      "inputs": [
        {
          "internalType": "uint256",
          "name": "tokenAmount",
          "type": "uint256"
        }
      ],
      "name": "calculateSaleProceeds",
      "outputs": [
        {
          "internalType": "uint256",
          "name": "",
          "type": "uint256"
        }
      ],
      "stateMutability": "view",
      "type": "function"
    },
    {
      "inputs": [
        {
          "internalType": "uint256",
          "name": "tokenAmount",
          "type": "uint256"
        }
      ],
      "name": "calculateSellFee",
      "outputs": [
        {
          "internalType": "uint256",
          "name": "assetAmount",
          "type": "uint256"
        },
        {
          "internalType": "uint256",
          "name": "fee",
          "type": "uint256"
        }
      ],
      "stateMutability": "view",
      "type": "function"
    },
    {
      "inputs": [],
      "name": "feeBasisPoints",
      "outputs": [
        {
          "internalType": "uint256",
          "name": "",
          "type": "uint256"
        }
      ],
      "stateMutability": "view",
      "type": "function"
    },
    {
      "inputs": [],
      "name": "getCurrentPrice",
      "outputs": [
        {
          "internalType": "uint256",
          "name": "",
          "type": "uint256"
        }
      ],
      "stateMutability": "view",
      "type": "function"
    },
    {
      "inputs": [],
      "name": "getFeeInfo",
      "outputs": [
        {
          "internalType": "uint256",
          "name": "feeBasisPoints_",
          "type": "uint256"
        },
        {
          "internalType": "address",
          "name": "treasury_",
          "type": "address"
        }
      ],
      "stateMutability": "view",
      "type": "function"
    },
    {
      "inputs": [],
      "name": "getGraduationStatus",
      "outputs": [
        {
          "internalType": "bool",
          "name": "",
          "type": "bool"
        }
      ],
      "stateMutability": "view",
      "type": "function"
    },
    {
      "inputs": [],
      "name": "getGraduationThreshold",
      "outputs": [
        {
          "internalType": "uint256",
          "name": "",
          "type": "uint256"
        }
      ],
      "stateMutability": "view",
      "type": "function"
    },
    {
      "inputs": [],
      "name": "graduationThreshold",
      "outputs": [
        {
          "internalType": "uint256",
          "name": "",
          "type": "uint256"
        }
      ],
      "stateMutability": "view",
      "type": "function"
    },
    {
      "inputs": [],
      "name": "isGraduated",
      "outputs": [
        {
          "internalType": "bool",
          "name": "",
          "type": "bool"
        }
      ],
      "stateMutability": "view",
      "type": "function"
    },
    {
      "inputs": [],
      "name": "owner",
      "outputs": [
        {
          "internalType": "address",
          "name": "",
          "type": "address"
        }
      ],
      "stateMutability": "view",
      "type": "function"
    },
    {
      "inputs": [],
      "name": "renounceOwnership",
      "outputs": [],
      "stateMutability": "nonpayable",
      "type": "function"
    },
    {
      "inputs": [
        {
          "internalType": "address",
          "name": "to",
          "type": "address"
        },
        {
          "internalType": "uint256",
          "name": "tokenAmount",
          "type": "uint256"
        },
        {
          "internalType": "uint256",
          "name": "minAssetAmount",
          "type": "uint256"
        }
      ],
      "name": "sellTokens",
      "outputs": [],
      "stateMutability": "nonpayable",
      "type": "function"
    },
    {
      "inputs": [
        {
          "internalType": "address",
          "name": "_tokenAddress",
          "type": "address"
        }
      ],
      "name": "setTokenAddress",
      "outputs": [],
      "stateMutability": "nonpayable",
      "type": "function"
    },
    {
      "inputs": [],
      "name": "stonkToken",
      "outputs": [
        {
          "internalType": "contract IStonkToken",
          "name": "",
          "type": "address"
        }
      ],
      "stateMutability": "view",
      "type": "function"
    },
    {
      "inputs": [
        {
          "internalType": "address",
          "name": "newOwner",
          "type": "address"
        }
      ],
      "name": "transferOwnership",
      "outputs": [],
      "stateMutability": "nonpayable",
      "type": "function"
    },
    {
      "inputs": [],
      "name": "treasury",
      "outputs": [
        {
          "internalType": "address",
          "name": "",
          "type": "address"
        }
      ],
      "stateMutability": "view",
      "type": "function"
    },
    {
      "inputs": [],
      "name": "uniswapFactory",
      "outputs": [
        {
          "internalType": "contract IUniswapV2Factory",
          "name": "",
          "type": "address"
        }
      ],
      "stateMutability": "view",
      "type": "function"
    },
    {
      "inputs": [],
      "name": "uniswapRouter",
      "outputs": [
        {
          "internalType": "contract IUniswapV2Router02",
          "name": "",
          "type": "address"
        }
      ],
      "stateMutability": "view",
      "type": "function"
    }
  ],
  "bytecode": "0x6080346200017057601f620014cb38819003918201601f19168301916001600160401b0383118484101762000175578084926101009460405283398101031262000170576200004e816200018b565b906200005d602082016200018b565b6200006b604083016200018b565b926200007a606084016200018b565b9060808401519360a0810151906200009a60e060c083015192016200018b565b91331562000157576000549660018060a01b03199733898216176000556040519960018060a01b0380998180998195823391167f8be0079c531659141344cd1fd0a4f28419497f9722a3daafe3b4186f6b6457e0600080a360018055168c6002541617600255168a6003541617600355168860045416176004556006556007556009551683600a541617600a5560ff196008541660085516908162000147575b61132a8381620001a18239f35b600554161760055538806200013a565b604051631e4fbdf760e01b815260006004820152602490fd5b600080fd5b634e487b7160e01b600052604160045260246000fd5b51906001600160a01b0382168203620001705756fe6080604081815260048036101561001557600080fd5b600092833560e01c90816202eab714610b47575080630422e87d14610b275780630cad0267146108df5780631083f76114610afe578063145f101914610ade57806320689fe514610ac057806321b77d63146108b957806326a4e8d214610a3b5780633c502e1814610a1d57806361d027b3146109f4578063715018a61461099a578063735de9f71461097357806384e568b0146109545780638b0bc501146109545780638bdb2afa1461092b5780638da5cb5b146109035780639e5f2602146108df578063a932492f146108be578063aaf5eb68146108b9578063b7c3f62214610890578063b8606eef14610871578063d2395dcd146104ac578063ddaf4c9814610460578063e1f1c4a714610443578063e4e57b9e146102dd578063e8e6ed69146102be578063eb91d37e146101df5763f2fde38b1461015657600080fd5b346101db5760203660031901126101db5761016f610b9c565b90610178610bdc565b6001600160a01b039182169283156101c557505082546001600160a01b0319811683178455167f8be0079c531659141344cd1fd0a4f28419497f9722a3daafe3b4186f6b6457e08380a380f35b51631e4fbdf760e01b8152908101849052602490fd5b8280fd5b5091346102bb57806003193601126102bb5760055482516370a0823160e01b815230858201529190602090839060249082906001600160a01b03165afa9182156102af578192610278575b50610236600754610c76565b90670de0b6b3a7640000918281029281840414901517156102655760208461025e8585610c9e565b9051908152f35b634e487b7160e01b815260118552602490fd5b9091506020813d82116102a7575b8161029360209383610c08565b810103126102a35751903861022a565b5080fd5b3d9150610286565b508251903d90823e3d90fd5b80fd5b5050346102a357816003193601126102a3576020906007549051908152f35b50346101db576102ec36610bb2565b6102f7949194610eae565b60ff600854166104335784156104235761031085610d8c565b60095490929080156104175761271061032c6103349286610c63565b048094610c40565b918210610408579161039d917f6db63bebf1e6540277744df32846ebdb98385b1a73f2d5de49b28348add63f5095949360018060a01b039561037b83878960025416610e1b565b836103a7575b5051968752602087015260408601529116929081906060820190565b0390a26001805580f35b6103bb84886002541689600a541690610e1b565b7fbde344b6f67c3bf7e0ecbbf22b04267d5d3ae0aa1909c0000b812f6b14ce45b9608088600a54169284519087825285602083015285820152631cd95b1b60e21b6060820152a238610381565b5163428637bb60e11b81528490fd5b50610334878094610c40565b815163162908e360e11b81528490fd5b815163e6a0d45f60e01b81528490fd5b5050346102a357816003193601126102a357602090516127108152f35b508290346102a35760203660031901126102a35761047e9035610cb5565b600954909181156104a557506104976127109183610c63565b045b82519182526020820152f35b9050610499565b50346101db576104bb36610bb2565b90926104c5610eae565b60ff60085416610863578315610855576104de84610cb5565b600954909290801561084d576104f76127109185610c63565b04935b6105048585610ca8565b82811161083d5760018060a01b0392836005541697895197886370a0823160e01b9a8b8252308983015281602460209c8d935afa908115610833578d91610802575b508660025416908d8d51918d8352308b8401528c83602481875afa9283156107f5578692936107b6575b50670de0b6b3a76400009161058491610c40565b106107a65761059786620f424092610ca8565b106107965791818a828f8f979596846105ee9c9b9a9861073b575b5050600554885163a9059cbb60e01b81526001600160a01b038b16818f0190815260208101949094529b8c93918c169284929091839160400190565b03925af190811561072f578b9a61064e610656978d60249c7f0d1a0d5e3d583a0e92588799dd06e50fd78c07daf05f0cc06d7b848b1ca445f196610701575b5050519283928b8b1696846040919493926060820195825260208201520152565b0390a2610c40565b806106ec575b5050600254169486519586938492835230908301525afa9283156106e3575083926106b5575b50506006541115806106a8575b61069b575b6001805580f35b6106a3610ef0565b610694565b5060ff600854161561068f565b90809250813d83116106dc575b6106cc8183610c08565b810103126102a357513880610682565b503d6106c2565b513d85823e3d90fd5b6106fa918360025416610e1b565b388061065c565b8161072092903d10610728575b6107188183610c08565b810190610e03565b508d3861062d565b503d61070e565b8e8651903d90823e3d90fd5b61074a918c600a541690610e1b565b89600a54167fbde344b6f67c3bf7e0ecbbf22b04267d5d3ae0aa1909c0000b812f6b14ce45b960808a518781528b8782015260038c8201526262757960e81b6060820152a238846105b2565b8b51639a845eb760e01b81528890fd5b8c51637222ae5760e11b81528990fd5b8d809294508193503d83116107ee575b6107d08183610c08565b810103126107ea5751908490670de0b6b3a7640000610570565b8e80fd5b503d6107c6565b50508d51903d90823e3d90fd5b90508981813d831161082c575b6108198183610c08565b81010312610828575138610546565b8c80fd5b503d61080f565b8c513d8f823e3d90fd5b875163428637bb60e11b81528490fd5b5086936104fa565b845163162908e360e11b8152fd5b845163e6a0d45f60e01b8152fd5b5050346102a357816003193601126102a3576020906009549051908152f35b5050346102a357816003193601126102a35760055490516001600160a01b039091168152602090f35b610b74565b5050346102a357816003193601126102a357602090516502ba7def30008152f35b5050346102a357816003193601126102a35760209060ff6008541690519015158152f35b5050346102a357816003193601126102a357905490516001600160a01b039091168152602090f35b5050346102a357816003193601126102a35760035490516001600160a01b039091168152602090f35b5050346102a357816003193601126102a3576020906006549051908152f35b50346101db57826003193601126101db575490516001600160a01b03909116815260209150f35b83346102bb57806003193601126102bb576109b3610bdc565b80546001600160a01b03198116825581906001600160a01b03167f8be0079c531659141344cd1fd0a4f28419497f9722a3daafe3b4186f6b6457e08280a380f35b5050346102a357816003193601126102a357600a5490516001600160a01b039091168152602090f35b5050346102a357816003193601126102a35760209051620f42408152f35b5090346101db5760203660031901126101db57610a56610b9c565b610a5e610bdc565b600554926001600160a01b0392838516610ab35750501680916bffffffffffffffffffffffff60a01b16176005557fd82cad5fdc98633445b90f806f2e1a61a5409f92187ee9cd87f1da18c90692668280a280f35b516371168e4f60e11b8152fd5b508290346102a35760203660031901126102a35761047e9035610d8c565b5091346102bb5760203660031901126102bb575061025e60209235610cb5565b5050346102a357816003193601126102a35760025490516001600160a01b039091168152602090f35b5091346102bb5760203660031901126102bb575061025e60209235610d8c565b839085346102bb57806003193601126102bb5750600954600a549082526001600160a01b03166020820152f35b34610b97576000366003190112610b97576020604051670de0b6b3a76400008152f35b600080fd5b600435906001600160a01b0382168203610b9757565b6060906003190112610b97576004356001600160a01b0381168103610b9757906024359060443590565b6000546001600160a01b03163303610bf057565b60405163118cdaa760e01b8152336004820152602490fd5b90601f8019910116810190811067ffffffffffffffff821117610c2a57604052565b634e487b7160e01b600052604160045260246000fd5b91908203918211610c4d57565b634e487b7160e01b600052601160045260246000fd5b81810292918115918404141715610c4d57565b8015610c8857666a94d74f4300000490565b634e487b7160e01b600052601260045260246000fd5b8115610c88570490565b91908201809211610c4d57565b6005546040516370a0823160e01b815230600482015290602090829060249082906001600160a01b03165afa908115610d8057600091610d4f575b50610cfb8282610c40565b91610d07600754610c76565b92670de0b6b3a76400009384810290808204861490151715610c4d57610d3d610d4392610d37610d4b9684610c9e565b92610c9e565b90610ca8565b60011c610c63565b0490565b906020823d8211610d78575b81610d6860209383610c08565b810103126102bb57505138610cf0565b3d9150610d5b565b6040513d6000823e3d90fd5b6005546040516370a0823160e01b815230600482015290602090829060249082906001600160a01b03165afa908115610d8057600091610dd2575b50610cfb8282610ca8565b906020823d8211610dfb575b81610deb60209383610c08565b810103126102bb57505138610dc7565b3d9150610dde565b90816020910312610b9757518015158103610b975790565b60405163a9059cbb60e01b60208083019182526001600160a01b039490941660248301526044808301959095529381529092600091610e5b606482610c08565b519082855af115610d80576000513d610ea557506001600160a01b0381163b155b610e835750565b604051635274afe760e01b81526001600160a01b039091166004820152602490fd5b60011415610e7c565b600260015414610ebf576002600155565b604051633ee5aeb560e01b8152600490fd5b90816020910312610b9757516001600160a01b0381168103610b975790565b60085460ff81166112f15760ff19166001176008556003546005546002546040805163e6a4390560e01b81526001600160a01b0393841660048083018290529385166024830181905291956020949291908616908588604481855afa9788156111ab576000986112d2575b5086881615611245575b50505083600554168251916370a0823160e01b9182845230828501528584602481845afa9384156111ab57600094611216575b50858760025416936024875180968193825230878301525afa9283156111ab576000936111e7575b50831515806111de575b611004575b50505050505080600554169116907f806ef27e0c58d1db68e3780cb50bde63b59139693b61ab9fdff83126acc3a9a0600080a3565b868254169086865180928160008161103f8b63095ea7b360e01b998a84528b840160209093929193604081019460018060a01b031681520152565b03925af180156111d35761108c92889286926111b6575b5089600254169060008b875416918a519687958694859384528a840160209093929193604081019460018060a01b031681520152565b03925af180156111ab5761118e575b50858154169086600554169087600254169261038442018042116111795791600061010492606095948a51978896879562e8e33760e81b875286015260248501528960448501528860648501528960848501528860a48501523060c485015260e48401525af1801561116e57611143575b507f38f8a0c92f4c5b0b6877f878cb4c0c8d348a47b76d716c8e78f425043df9515b938351928352820152a1388080808080610fcf565b606090813d8111611167575b6111598183610c08565b81010312610b97573861110c565b503d61114f565b84513d6000823e3d90fd5b601183634e487b7160e01b6000525260246000fd5b6111a490863d8811610728576107188183610c08565b503861109b565b85513d6000823e3d90fd5b6111cc90843d8611610728576107188183610c08565b5038611056565b86513d6000823e3d90fd5b50821515610fca565b90928682813d831161120f575b6111fe8183610c08565b810103126102bb5750519138610fc0565b503d6111f4565b90938682813d831161123e575b61122d8183610c08565b810103126102bb5750519238610f98565b503d611223565b84516364e329cb60e11b81526001600160a01b0391821685820190815293909116602084015292965084918391908290600090829060400103925af19081156112c75760009161129a575b5093388080610f65565b6112ba9150833d85116112c0575b6112b28183610c08565b810190610ed1565b38611290565b503d6112a8565b82513d6000823e3d90fd5b6112ea919850863d88116112c0576112b28183610c08565b9638610f5b565b5056fea26469706673582212208fedf0a525324d7cc637e377188686ab6a9618890a123dbdf2d049288fd9e47e64736f6c63430008140033",
  "linkReferences": {},
  "deployedLinkReferences": {}
}