{
  "_format": "hh-sol-artifact-1",
  "contractName": "BondingCurve",
  "sourceName": "contracts/BondingCurve.sol",
  "abi": [
    {
      "inputs": [
        {
          "internalType": "address",
          "name": "_assetToken",
          "type": "address"
        },
        {
          "internalType": "address",
          "name": "_uniswapFactory",
          "type": "address"
        },
        {
          "internalType": "address",
          "name": "_uniswapRouter",
          "type": "address"
        },
        {
          "internalType": "address",
          "name": "_stonkToken",
          "type": "address"
        },
        {
          "internalType": "uint256",
          "name": "_graduationThreshold",
          "type": "uint256"
        },
        {
          "internalType": "uint256",
          "name": "_assetRate",
          "type": "uint256"
        }
      ],
      "stateMutability": "nonpayable",
      "type": "constructor"
    },
    {
      "inputs": [],
      "name": "AlreadyGraduated",
      "type": "error"
    },
    {
      "inputs": [],
      "name": "InsufficientAssetBalance",
      "type": "error"
    },
    {
      "inputs": [],
      "name": "InsufficientTokenBalance",
      "type": "error"
    },
    {
      "inputs": [],
      "name": "InvalidAmount",
      "type": "error"
    },
    {
      "inputs": [],
      "name": "NotGraduated",
      "type": "error"
    },
    {
      "inputs": [
        {
          "internalType": "address",
          "name": "owner",
          "type": "address"
        }
      ],
      "name": "OwnableInvalidOwner",
      "type": "error"
    },
    {
      "inputs": [
        {
          "internalType": "address",
          "name": "account",
          "type": "address"
        }
      ],
      "name": "OwnableUnauthorizedAccount",
      "type": "error"
    },
    {
      "inputs": [],
      "name": "ReentrancyGuardReentrantCall",
      "type": "error"
    },
    {
      "inputs": [
        {
          "internalType": "address",
          "name": "token",
          "type": "address"
        }
      ],
      "name": "SafeERC20FailedOperation",
      "type": "error"
    },
    {
      "inputs": [],
      "name": "SlippageTooHigh",
      "type": "error"
    },
    {
      "anonymous": false,
      "inputs": [
        {
          "indexed": false,
          "internalType": "uint256",
          "name": "tokenAmount",
          "type": "uint256"
        },
        {
          "indexed": false,
          "internalType": "uint256",
          "name": "assetAmount",
          "type": "uint256"
        }
      ],
      "name": "LiquidityAdded",
      "type": "event"
    },
    {
      "anonymous": false,
      "inputs": [
        {
          "indexed": true,
          "internalType": "address",
          "name": "previousOwner",
          "type": "address"
        },
        {
          "indexed": true,
          "internalType": "address",
          "name": "newOwner",
          "type": "address"
        }
      ],
      "name": "OwnershipTransferred",
      "type": "event"
    },
    {
      "anonymous": false,
      "inputs": [
        {
          "indexed": true,
          "internalType": "address",
          "name": "token",
          "type": "address"
        },
        {
          "indexed": false,
          "internalType": "uint256",
          "name": "timestamp",
          "type": "uint256"
        },
        {
          "indexed": true,
          "internalType": "address",
          "name": "pair",
          "type": "address"
        }
      ],
      "name": "TokenGraduated",
      "type": "event"
    },
    {
      "anonymous": false,
      "inputs": [
        {
          "indexed": true,
          "internalType": "address",
          "name": "buyer",
          "type": "address"
        },
        {
          "indexed": false,
          "internalType": "uint256",
          "name": "amount",
          "type": "uint256"
        },
        {
          "indexed": false,
          "internalType": "uint256",
          "name": "cost",
          "type": "uint256"
        }
      ],
      "name": "TokensPurchased",
      "type": "event"
    },
    {
      "anonymous": false,
      "inputs": [
        {
          "indexed": true,
          "internalType": "address",
          "name": "seller",
          "type": "address"
        },
        {
          "indexed": false,
          "internalType": "uint256",
          "name": "amount",
          "type": "uint256"
        },
        {
          "indexed": false,
          "internalType": "uint256",
          "name": "proceeds",
          "type": "uint256"
        }
      ],
      "name": "TokensSold",
      "type": "event"
    },
    {
      "inputs": [],
      "name": "K",
      "outputs": [
        {
          "internalType": "uint256",
          "name": "",
          "type": "uint256"
        }
      ],
      "stateMutability": "view",
      "type": "function"
    },
    {
      "inputs": [],
      "name": "PRECISION",
      "outputs": [
        {
          "internalType": "uint256",
          "name": "",
          "type": "uint256"
        }
      ],
      "stateMutability": "view",
      "type": "function"
    },
    {
      "inputs": [],
      "name": "assetRate",
      "outputs": [
        {
          "internalType": "uint256",
          "name": "",
          "type": "uint256"
        }
      ],
      "stateMutability": "view",
      "type": "function"
    },
    {
      "inputs": [],
      "name": "assetToken",
      "outputs": [
        {
          "internalType": "contract IERC20",
          "name": "",
          "type": "address"
        }
      ],
      "stateMutability": "view",
      "type": "function"
    },
    {
      "inputs": [
        {
          "internalType": "uint256",
          "name": "tokenAmount",
          "type": "uint256"
        },
        {
          "internalType": "uint256",
          "name": "maxAssetAmount",
          "type": "uint256"
        }
      ],
      "name": "buyTokens",
      "outputs": [],
      "stateMutability": "nonpayable",
      "type": "function"
    },
    {
      "inputs": [
        {
          "internalType": "uint256",
          "name": "tokenAmount",
          "type": "uint256"
        }
      ],
      "name": "calculatePurchasePrice",
      "outputs": [
        {
          "internalType": "uint256",
          "name": "",
          "type": "uint256"
        }
      ],
      "stateMutability": "view",
      "type": "function"
    },
    {
      "inputs": [
        {
          "internalType": "uint256",
          "name": "tokenAmount",
          "type": "uint256"
        }
      ],
      "name": "calculateSaleProceeds",
      "outputs": [
        {
          "internalType": "uint256",
          "name": "",
          "type": "uint256"
        }
      ],
      "stateMutability": "view",
      "type": "function"
    },
    {
      "inputs": [],
      "name": "getCurrentPrice",
      "outputs": [
        {
          "internalType": "uint256",
          "name": "",
          "type": "uint256"
        }
      ],
      "stateMutability": "view",
      "type": "function"
    },
    {
      "inputs": [],
      "name": "getGraduationStatus",
      "outputs": [
        {
          "internalType": "bool",
          "name": "",
          "type": "bool"
        }
      ],
      "stateMutability": "view",
      "type": "function"
    },
    {
      "inputs": [],
      "name": "graduationThreshold",
      "outputs": [
        {
          "internalType": "uint256",
          "name": "",
          "type": "uint256"
        }
      ],
      "stateMutability": "view",
      "type": "function"
    },
    {
      "inputs": [],
      "name": "isGraduated",
      "outputs": [
        {
          "internalType": "bool",
          "name": "",
          "type": "bool"
        }
      ],
      "stateMutability": "view",
      "type": "function"
    },
    {
      "inputs": [],
      "name": "owner",
      "outputs": [
        {
          "internalType": "address",
          "name": "",
          "type": "address"
        }
      ],
      "stateMutability": "view",
      "type": "function"
    },
    {
      "inputs": [],
      "name": "renounceOwnership",
      "outputs": [],
      "stateMutability": "nonpayable",
      "type": "function"
    },
    {
      "inputs": [
        {
          "internalType": "uint256",
          "name": "tokenAmount",
          "type": "uint256"
        },
        {
          "internalType": "uint256",
          "name": "minAssetAmount",
          "type": "uint256"
        }
      ],
      "name": "sellTokens",
      "outputs": [],
      "stateMutability": "nonpayable",
      "type": "function"
    },
    {
      "inputs": [],
      "name": "stonkToken",
      "outputs": [
        {
          "internalType": "contract IStonkToken",
          "name": "",
          "type": "address"
        }
      ],
      "stateMutability": "view",
      "type": "function"
    },
    {
      "inputs": [
        {
          "internalType": "address",
          "name": "newOwner",
          "type": "address"
        }
      ],
      "name": "transferOwnership",
      "outputs": [],
      "stateMutability": "nonpayable",
      "type": "function"
    },
    {
      "inputs": [],
      "name": "uniswapFactory",
      "outputs": [
        {
          "internalType": "contract IUniswapV2Factory",
          "name": "",
          "type": "address"
        }
      ],
      "stateMutability": "view",
      "type": "function"
    },
    {
      "inputs": [],
      "name": "uniswapRouter",
      "outputs": [
        {
          "internalType": "contract IUniswapV2Router02",
          "name": "",
          "type": "address"
        }
      ],
      "stateMutability": "view",
      "type": "function"
    }
  ],
  "bytecode": "0x60806040523480156200001157600080fd5b50604051620011453803806200114583398101604081905262000034916200013f565b33806200005b57604051631e4fbdf760e01b81526000600482015260240160405180910390fd5b6200006681620000d2565b5060018055600280546001600160a01b039788166001600160a01b03199182161790915560038054968816968216969096179095556004805494871694861694909417909355600580549290951691909316179092556006556007556008805460ff19169055620001ae565b600080546001600160a01b038381166001600160a01b0319831681178455604051919092169283917f8be0079c531659141344cd1fd0a4f28419497f9722a3daafe3b4186f6b6457e09190a35050565b80516001600160a01b03811681146200013a57600080fd5b919050565b60008060008060008060c087890312156200015957600080fd5b620001648762000122565b9550620001746020880162000122565b9450620001846040880162000122565b9350620001946060880162000122565b92506080870151915060a087015190509295509295509295565b610f8780620001be6000396000f3fe608060405234801561001057600080fd5b50600436106101165760003560e01c80638da5cb5b116100a2578063b7c3f62211610071578063b7c3f6221461021c578063e8e6ed691461022f578063eb91d37e14610238578063ed9772b614610240578063f2fde38b1461025357600080fd5b80638da5cb5b146101e25780639e5f2602146101f3578063a932492f14610200578063aaf5eb681461020d57600080fd5b8063715018a6116100e9578063715018a614610196578063735de9f7146101a05780637975ce28146101b35780638b0bc501146101c65780638bdb2afa146101cf57600080fd5b80630422e87d1461011b5780630cad0267146101415780631083f76114610158578063145f101914610183575b600080fd5b61012e610129366004610ddc565b610266565b6040519081526020015b60405180910390f35b60085460ff165b6040519015158152602001610138565b60025461016b906001600160a01b031681565b6040516001600160a01b039091168152602001610138565b61012e610191366004610ddc565b610394565b61019e610413565b005b60045461016b906001600160a01b031681565b61019e6101c1366004610df5565b610427565b61012e60065481565b60035461016b906001600160a01b031681565b6000546001600160a01b031661016b565b6008546101489060ff1681565b61012e6502ba7def300081565b61012e670de0b6b3a764000081565b60055461016b906001600160a01b031681565b61012e60075481565b61012e6105fa565b61019e61024e366004610df5565b6106b6565b61019e610261366004610e2c565b610809565b6005546040516370a0823160e01b815230600482015260009182916001600160a01b03909116906370a0823190602401602060405180830381865afa1580156102b3573d6000803e3d6000fd5b505050506040513d601f19601f820116820180604052508101906102d79190610e50565b905060006102e58483610e7f565b905060006007546502ba7def30006127106103009190610e98565b61030a9190610eaf565b9050600083610321670de0b6b3a764000084610e98565b61032b9190610eaf565b9050600083610342670de0b6b3a764000085610e98565b61034c9190610eaf565b90506000600261035c8385610e7f565b6103669190610eaf565b90506000670de0b6b3a764000061037d8a84610e98565b6103879190610eaf565b9998505050505050505050565b6005546040516370a0823160e01b815230600482015260009182916001600160a01b03909116906370a0823190602401602060405180830381865afa1580156103e1573d6000803e3d6000fd5b505050506040513d601f19601f820116820180604052508101906104059190610e50565b905060006102e58483610ed1565b61041b61084c565b6104256000610879565b565b61042f6108c9565b60085460ff16156104535760405163e6a0d45f60e01b815260040160405180910390fd5b816000036104745760405163162908e360e11b815260040160405180910390fd5b600061047f83610394565b9050818111156104a25760405163428637bb60e11b815260040160405180910390fd5b6002546104ba906001600160a01b03163330846108f3565b60055460405163a9059cbb60e01b8152336004820152602481018590526001600160a01b039091169063a9059cbb906044016020604051808303816000875af115801561050b573d6000803e3d6000fd5b505050506040513d601f19601f8201168201806040525081019061052f9190610ee4565b506002546040516370a0823160e01b81523060048201526000916001600160a01b0316906370a0823190602401602060405180830381865afa158015610579573d6000803e3d6000fd5b505050506040513d601f19601f8201168201806040525081019061059d9190610e50565b905060065481106105b0576105b0610960565b604080518581526020810184905233917f8fafebcaf9d154343dad25669bfa277f4fbacd7ac6b0c4fed522580e040a0f33910160405180910390a250506105f660018055565b5050565b6005546040516370a0823160e01b815230600482015260009182916001600160a01b03909116906370a0823190602401602060405180830381865afa158015610647573d6000803e3d6000fd5b505050506040513d601f19601f8201168201806040525081019061066b9190610e50565b905060006007546502ba7def30006127106106869190610e98565b6106909190610eaf565b9050816106a5670de0b6b3a764000083610e98565b6106af9190610eaf565b9250505090565b6106be6108c9565b60085460ff16156106e25760405163e6a0d45f60e01b815260040160405180910390fd5b816000036107035760405163162908e360e11b815260040160405180910390fd5b600061070e83610266565b9050818110156107315760405163428637bb60e11b815260040160405180910390fd5b6005546040516323b872dd60e01b8152336004820152306024820152604481018590526001600160a01b03909116906323b872dd906064016020604051808303816000875af1158015610788573d6000803e3d6000fd5b505050506040513d601f19601f820116820180604052508101906107ac9190610ee4565b506002546107c4906001600160a01b03163383610d35565b604080518481526020810183905233917f2dcf9433d75db0d8b1c172641f85e319ffe4ad22e108a95d1847ceb906e5195d910160405180910390a2506105f660018055565b61081161084c565b6001600160a01b03811661084057604051631e4fbdf760e01b8152600060048201526024015b60405180910390fd5b61084981610879565b50565b6000546001600160a01b031633146104255760405163118cdaa760e01b8152336004820152602401610837565b600080546001600160a01b038381166001600160a01b0319831681178455604051919092169283917f8be0079c531659141344cd1fd0a4f28419497f9722a3daafe3b4186f6b6457e09190a35050565b6002600154036108ec57604051633ee5aeb560e01b815260040160405180910390fd5b6002600155565b6040516001600160a01b03848116602483015283811660448301526064820183905261095a9186918216906323b872dd906084015b604051602081830303815290604052915060e01b6020820180516001600160e01b038381831617835250505050610d6b565b50505050565b60085460ff161561096d57565b6008805460ff191660011790556003546005546002546040516364e329cb60e11b81526001600160a01b0392831660048201529082166024820152600092919091169063c9c65396906044016020604051808303816000875af11580156109d8573d6000803e3d6000fd5b505050506040513d601f19601f820116820180604052508101906109fc9190610f06565b6005546040516370a0823160e01b81523060048201529192506000916001600160a01b03909116906370a0823190602401602060405180830381865afa158015610a4a573d6000803e3d6000fd5b505050506040513d601f19601f82011682018060405250810190610a6e9190610e50565b6002546040516370a0823160e01b81523060048201529192506000916001600160a01b03909116906370a0823190602401602060405180830381865afa158015610abc573d6000803e3d6000fd5b505050506040513d601f19601f82011682018060405250810190610ae09190610e50565b6005546004805460405163095ea7b360e01b81526001600160a01b03918216928101929092526024820186905292935091169063095ea7b3906044016020604051808303816000875af1158015610b3b573d6000803e3d6000fd5b505050506040513d601f19601f82011682018060405250810190610b5f9190610ee4565b506002546004805460405163095ea7b360e01b81526001600160a01b0391821692810192909252602482018490529091169063095ea7b3906044016020604051808303816000875af1158015610bb9573d6000803e3d6000fd5b505050506040513d601f19601f82011682018060405250810190610bdd9190610ee4565b506004546005546002546001600160a01b039283169263e8e3370092811691168585818130610c0e42610384610e7f565b60405160e08a901b6001600160e01b03191681526001600160a01b039889166004820152968816602488015260448701959095526064860193909352608485019190915260a484015290921660c482015260e4810191909152610104016060604051808303816000875af1158015610c8a573d6000803e3d6000fd5b505050506040513d601f19601f82011682018060405250810190610cae9190610f23565b50506005546040514281526001600160a01b038681169350909116907fd746a893de4e12067ef4a3b08937ae3e7bd69f3872a69af45cb1ef5493d9aa529060200160405180910390a360408051838152602081018390527f38f8a0c92f4c5b0b6877f878cb4c0c8d348a47b76d716c8e78f425043df9515b910160405180910390a1505050565b6040516001600160a01b03838116602483015260448201839052610d6691859182169063a9059cbb90606401610928565b505050565b600080602060008451602086016000885af180610d8e576040513d6000823e3d81fd5b50506000513d91508115610da6578060011415610db3565b6001600160a01b0384163b155b1561095a57604051635274afe760e01b81526001600160a01b0385166004820152602401610837565b600060208284031215610dee57600080fd5b5035919050565b60008060408385031215610e0857600080fd5b50508035926020909101359150565b6001600160a01b038116811461084957600080fd5b600060208284031215610e3e57600080fd5b8135610e4981610e17565b9392505050565b600060208284031215610e6257600080fd5b5051919050565b634e487b7160e01b600052601160045260246000fd5b80820180821115610e9257610e92610e69565b92915050565b8082028115828204841417610e9257610e92610e69565b600082610ecc57634e487b7160e01b600052601260045260246000fd5b500490565b81810381811115610e9257610e92610e69565b600060208284031215610ef657600080fd5b81518015158114610e4957600080fd5b600060208284031215610f1857600080fd5b8151610e4981610e17565b600080600060608486031215610f3857600080fd5b835192506020840151915060408401519050925092509256fea2646970667358221220764315f2d0390c278d172bdcbb53c77901ef28eb4f36f9478ced8e518476ee9064736f6c63430008140033",
  "linkReferences": {},
  "deployedLinkReferences": {}
}