{
  "_format": "hh-sol-artifact-1",
  "contractName": "BondingCurve",
  "sourceName": "contracts/BondingCurve.sol",
  "abi": [
    {
      "inputs": [
        {
          "internalType": "address",
          "name": "_assetToken",
          "type": "address"
        },
        {
          "internalType": "address",
          "name": "_uniswapFactory",
          "type": "address"
        },
        {
          "internalType": "address",
          "name": "_uniswapRouter",
          "type": "address"
        },
        {
          "internalType": "address",
          "name": "_stonkToken",
          "type": "address"
        },
        {
          "internalType": "uint256",
          "name": "_graduationThreshold",
          "type": "uint256"
        },
        {
          "internalType": "uint256",
          "name": "_assetRate",
          "type": "uint256"
        },
        {
          "internalType": "uint256",
          "name": "_feeBasisPoints",
          "type": "uint256"
        },
        {
          "internalType": "address",
          "name": "_treasury",
          "type": "address"
        }
      ],
      "stateMutability": "nonpayable",
      "type": "constructor"
    },
    {
      "inputs": [],
      "name": "AlreadyGraduated",
      "type": "error"
    },
    {
      "inputs": [],
      "name": "DivisionByZero",
      "type": "error"
    },
    {
      "inputs": [],
      "name": "InsufficientAssetBalance",
      "type": "error"
    },
    {
      "inputs": [],
      "name": "InsufficientTokenBalance",
      "type": "error"
    },
    {
      "inputs": [],
      "name": "InvalidAmount",
      "type": "error"
    },
    {
      "inputs": [],
      "name": "InvalidAssetRate",
      "type": "error"
    },
    {
      "inputs": [],
      "name": "InvalidFee",
      "type": "error"
    },
    {
      "inputs": [],
      "name": "NotGraduated",
      "type": "error"
    },
    {
      "inputs": [],
      "name": "NotInitialized",
      "type": "error"
    },
    {
      "inputs": [
        {
          "internalType": "address",
          "name": "owner",
          "type": "address"
        }
      ],
      "name": "OwnableInvalidOwner",
      "type": "error"
    },
    {
      "inputs": [
        {
          "internalType": "address",
          "name": "account",
          "type": "address"
        }
      ],
      "name": "OwnableUnauthorizedAccount",
      "type": "error"
    },
    {
      "inputs": [],
      "name": "ReentrancyGuardReentrantCall",
      "type": "error"
    },
    {
      "inputs": [
        {
          "internalType": "address",
          "name": "token",
          "type": "address"
        }
      ],
      "name": "SafeERC20FailedOperation",
      "type": "error"
    },
    {
      "inputs": [],
      "name": "SlippageTooHigh",
      "type": "error"
    },
    {
      "inputs": [],
      "name": "TokenAlreadySet",
      "type": "error"
    },
    {
      "anonymous": false,
      "inputs": [
        {
          "indexed": true,
          "internalType": "address",
          "name": "treasury",
          "type": "address"
        },
        {
          "indexed": false,
          "internalType": "uint256",
          "name": "amount",
          "type": "uint256"
        },
        {
          "indexed": false,
          "internalType": "string",
          "name": "operation",
          "type": "string"
        }
      ],
      "name": "FeeCollected",
      "type": "event"
    },
    {
      "anonymous": false,
      "inputs": [
        {
          "indexed": false,
          "internalType": "uint256",
          "name": "tokenAmount",
          "type": "uint256"
        },
        {
          "indexed": false,
          "internalType": "uint256",
          "name": "assetAmount",
          "type": "uint256"
        }
      ],
      "name": "LiquidityAdded",
      "type": "event"
    },
    {
      "anonymous": false,
      "inputs": [
        {
          "indexed": true,
          "internalType": "address",
          "name": "previousOwner",
          "type": "address"
        },
        {
          "indexed": true,
          "internalType": "address",
          "name": "newOwner",
          "type": "address"
        }
      ],
      "name": "OwnershipTransferred",
      "type": "event"
    },
    {
      "anonymous": false,
      "inputs": [
        {
          "indexed": true,
          "internalType": "address",
          "name": "token",
          "type": "address"
        }
      ],
      "name": "TokenAddressSet",
      "type": "event"
    },
    {
      "anonymous": false,
      "inputs": [
        {
          "indexed": true,
          "internalType": "address",
          "name": "token",
          "type": "address"
        },
        {
          "indexed": true,
          "internalType": "address",
          "name": "pair",
          "type": "address"
        }
      ],
      "name": "TokenGraduated",
      "type": "event"
    },
    {
      "anonymous": false,
      "inputs": [
        {
          "indexed": true,
          "internalType": "address",
          "name": "buyer",
          "type": "address"
        },
        {
          "indexed": false,
          "internalType": "uint256",
          "name": "amount",
          "type": "uint256"
        },
        {
          "indexed": false,
          "internalType": "uint256",
          "name": "cost",
          "type": "uint256"
        },
        {
          "indexed": false,
          "internalType": "uint256",
          "name": "fee",
          "type": "uint256"
        }
      ],
      "name": "TokensPurchased",
      "type": "event"
    },
    {
      "anonymous": false,
      "inputs": [
        {
          "indexed": true,
          "internalType": "address",
          "name": "seller",
          "type": "address"
        },
        {
          "indexed": false,
          "internalType": "uint256",
          "name": "amount",
          "type": "uint256"
        },
        {
          "indexed": false,
          "internalType": "uint256",
          "name": "proceeds",
          "type": "uint256"
        },
        {
          "indexed": false,
          "internalType": "uint256",
          "name": "fee",
          "type": "uint256"
        }
      ],
      "name": "TokensSold",
      "type": "event"
    },
    {
      "inputs": [],
      "name": "BASIS_POINTS",
      "outputs": [
        {
          "internalType": "uint256",
          "name": "",
          "type": "uint256"
        }
      ],
      "stateMutability": "view",
      "type": "function"
    },
    {
      "inputs": [],
      "name": "DEAD_ADDRESS",
      "outputs": [
        {
          "internalType": "address",
          "name": "",
          "type": "address"
        }
      ],
      "stateMutability": "view",
      "type": "function"
    },
    {
      "inputs": [],
      "name": "K",
      "outputs": [
        {
          "internalType": "uint256",
          "name": "",
          "type": "uint256"
        }
      ],
      "stateMutability": "view",
      "type": "function"
    },
    {
      "inputs": [],
      "name": "MIN_ASSET_LIQUIDITY",
      "outputs": [
        {
          "internalType": "uint256",
          "name": "",
          "type": "uint256"
        }
      ],
      "stateMutability": "view",
      "type": "function"
    },
    {
      "inputs": [],
      "name": "MIN_LIQUIDITY",
      "outputs": [
        {
          "internalType": "uint256",
          "name": "",
          "type": "uint256"
        }
      ],
      "stateMutability": "view",
      "type": "function"
    },
    {
      "inputs": [],
      "name": "PRECISION",
      "outputs": [
        {
          "internalType": "uint256",
          "name": "",
          "type": "uint256"
        }
      ],
      "stateMutability": "view",
      "type": "function"
    },
    {
      "inputs": [],
      "name": "assetRate",
      "outputs": [
        {
          "internalType": "uint256",
          "name": "",
          "type": "uint256"
        }
      ],
      "stateMutability": "view",
      "type": "function"
    },
    {
      "inputs": [],
      "name": "assetToken",
      "outputs": [
        {
          "internalType": "contract IERC20",
          "name": "",
          "type": "address"
        }
      ],
      "stateMutability": "view",
      "type": "function"
    },
    {
      "inputs": [
        {
          "internalType": "address",
          "name": "to",
          "type": "address"
        },
        {
          "internalType": "uint256",
          "name": "maxAssetAmount",
          "type": "uint256"
        },
        {
          "internalType": "uint256",
          "name": "minTokenAmount",
          "type": "uint256"
        }
      ],
      "name": "buyTokens",
      "outputs": [
        {
          "internalType": "uint256",
          "name": "tokensReceived",
          "type": "uint256"
        }
      ],
      "stateMutability": "nonpayable",
      "type": "function"
    },
    {
      "inputs": [
        {
          "internalType": "uint256",
          "name": "tokenAmount",
          "type": "uint256"
        }
      ],
      "name": "calculateBuyFee",
      "outputs": [
        {
          "internalType": "uint256",
          "name": "assetAmount",
          "type": "uint256"
        },
        {
          "internalType": "uint256",
          "name": "fee",
          "type": "uint256"
        }
      ],
      "stateMutability": "view",
      "type": "function"
    },
    {
      "inputs": [
        {
          "internalType": "uint256",
          "name": "tokenAmount",
          "type": "uint256"
        }
      ],
      "name": "calculatePurchasePrice",
      "outputs": [
        {
          "internalType": "uint256",
          "name": "",
          "type": "uint256"
        }
      ],
      "stateMutability": "view",
      "type": "function"
    },
    {
      "inputs": [
        {
          "internalType": "uint256",
          "name": "tokenAmount",
          "type": "uint256"
        }
      ],
      "name": "calculateSaleProceeds",
      "outputs": [
        {
          "internalType": "uint256",
          "name": "",
          "type": "uint256"
        }
      ],
      "stateMutability": "view",
      "type": "function"
    },
    {
      "inputs": [
        {
          "internalType": "uint256",
          "name": "tokenAmount",
          "type": "uint256"
        }
      ],
      "name": "calculateSellFee",
      "outputs": [
        {
          "internalType": "uint256",
          "name": "assetAmount",
          "type": "uint256"
        },
        {
          "internalType": "uint256",
          "name": "fee",
          "type": "uint256"
        }
      ],
      "stateMutability": "view",
      "type": "function"
    },
    {
      "inputs": [
        {
          "internalType": "uint256",
          "name": "assetAmount",
          "type": "uint256"
        }
      ],
      "name": "calculateTokenAmountForAssetAmount",
      "outputs": [
        {
          "internalType": "uint256",
          "name": "",
          "type": "uint256"
        }
      ],
      "stateMutability": "view",
      "type": "function"
    },
    {
      "inputs": [],
      "name": "feeBasisPoints",
      "outputs": [
        {
          "internalType": "uint256",
          "name": "",
          "type": "uint256"
        }
      ],
      "stateMutability": "view",
      "type": "function"
    },
    {
      "inputs": [],
      "name": "getCurrentPrice",
      "outputs": [
        {
          "internalType": "uint256",
          "name": "",
          "type": "uint256"
        }
      ],
      "stateMutability": "view",
      "type": "function"
    },
    {
      "inputs": [],
      "name": "getFeeInfo",
      "outputs": [
        {
          "internalType": "uint256",
          "name": "feeBasisPoints_",
          "type": "uint256"
        },
        {
          "internalType": "address",
          "name": "treasury_",
          "type": "address"
        }
      ],
      "stateMutability": "view",
      "type": "function"
    },
    {
      "inputs": [],
      "name": "getGraduationStatus",
      "outputs": [
        {
          "internalType": "bool",
          "name": "",
          "type": "bool"
        }
      ],
      "stateMutability": "view",
      "type": "function"
    },
    {
      "inputs": [],
      "name": "getGraduationThreshold",
      "outputs": [
        {
          "internalType": "uint256",
          "name": "",
          "type": "uint256"
        }
      ],
      "stateMutability": "view",
      "type": "function"
    },
    {
      "inputs": [],
      "name": "graduationThreshold",
      "outputs": [
        {
          "internalType": "uint256",
          "name": "",
          "type": "uint256"
        }
      ],
      "stateMutability": "view",
      "type": "function"
    },
    {
      "inputs": [],
      "name": "initialTokenSupply",
      "outputs": [
        {
          "internalType": "uint256",
          "name": "",
          "type": "uint256"
        }
      ],
      "stateMutability": "view",
      "type": "function"
    },
    {
      "inputs": [],
      "name": "isGraduated",
      "outputs": [
        {
          "internalType": "bool",
          "name": "",
          "type": "bool"
        }
      ],
      "stateMutability": "view",
      "type": "function"
    },
    {
      "inputs": [],
      "name": "owner",
      "outputs": [
        {
          "internalType": "address",
          "name": "",
          "type": "address"
        }
      ],
      "stateMutability": "view",
      "type": "function"
    },
    {
      "inputs": [],
      "name": "renounceOwnership",
      "outputs": [],
      "stateMutability": "nonpayable",
      "type": "function"
    },
    {
      "inputs": [
        {
          "internalType": "address",
          "name": "to",
          "type": "address"
        },
        {
          "internalType": "uint256",
          "name": "tokenAmount",
          "type": "uint256"
        },
        {
          "internalType": "uint256",
          "name": "minAssetAmount",
          "type": "uint256"
        }
      ],
      "name": "sellTokens",
      "outputs": [
        {
          "internalType": "uint256",
          "name": "assetsReceived",
          "type": "uint256"
        }
      ],
      "stateMutability": "nonpayable",
      "type": "function"
    },
    {
      "inputs": [
        {
          "internalType": "address",
          "name": "_tokenAddress",
          "type": "address"
        }
      ],
      "name": "setTokenAddress",
      "outputs": [],
      "stateMutability": "nonpayable",
      "type": "function"
    },
    {
      "inputs": [],
      "name": "stonkToken",
      "outputs": [
        {
          "internalType": "contract IStonkToken",
          "name": "",
          "type": "address"
        }
      ],
      "stateMutability": "view",
      "type": "function"
    },
    {
      "inputs": [
        {
          "internalType": "address",
          "name": "newOwner",
          "type": "address"
        }
      ],
      "name": "transferOwnership",
      "outputs": [],
      "stateMutability": "nonpayable",
      "type": "function"
    },
    {
      "inputs": [],
      "name": "treasury",
      "outputs": [
        {
          "internalType": "address",
          "name": "",
          "type": "address"
        }
      ],
      "stateMutability": "view",
      "type": "function"
    },
    {
      "inputs": [],
      "name": "uniswapFactory",
      "outputs": [
        {
          "internalType": "contract IUniswapV2Factory",
          "name": "",
          "type": "address"
        }
      ],
      "stateMutability": "view",
      "type": "function"
    },
    {
      "inputs": [],
      "name": "uniswapRouter",
      "outputs": [
        {
          "internalType": "contract IUniswapV2Router02",
          "name": "",
          "type": "address"
        }
      ],
      "stateMutability": "view",
      "type": "function"
    }
  ],
  "bytecode": "0x60806040908082523462000239576101008162001fd980380380916200002682856200023e565b83398101031262000239576200003c8162000278565b906200004b6020820162000278565b916200005984830162000278565b92620000686060840162000278565b60808401519360a0810151906200008760e060c0830151920162000278565b913315620002215760008054336001600160a01b0319808316821784558c51939b90996001600160a01b0399919491939092908a167f8be0079c531659141344cd1fd0a4f28419497f9722a3daafe3b4186f6b6457e08e80a36001805584156200021257509187809695949392818094168b6002541617600255168960035416176003551687600454161760045587600655600755600b551683600c541617600c5560ff19600854166008551690816200014b575b8451611caa90816200032f8239f35b8160249260209260055416176005558551928380926370a0823160e01b82523060048301525afa92831562000207578093620001c8575b50508115620001b75790620001a481620001a4620001aa9482600a556200028d565b620002fb565b600955388080806200013c565b82516323d359a360e01b8152600490fd5b909192506020823d8211620001fe575b81620001e7602093836200023e565b81010312620001fb57505190388062000182565b80fd5b3d9150620001d8565b8451903d90823e3d90fd5b6379bced3560e01b8152600490fd5b8851631e4fbdf760e01b815260006004820152602490fd5b600080fd5b601f909101601f19168101906001600160401b038211908210176200026257604052565b634e487b7160e01b600052604160045260246000fd5b51906001600160a01b03821682036200023957565b600019600282098160011b90818082109103818114620002f1570360031115620002de57600360027faaaaaaaaaaaaaaaaaaaaaaaaaaaaaaaaaaaaaaaaaaaaaaaaaaaaaaaaaaaaaaab930990030290565b634e487b7160005260116020526024601cfd5b5050600391500490565b600019828209918082029283808210910381811462000327570360011115620002de5760019109900390565b505050509056fe6080604081815260048036101561001557600080fd5b600092833560e01c90816202eab714610e31575080630422e87d14610e115780630cad026714610ac95780631083f76114610de8578063145f101914610dc857806320689fe514610d6a57806321b77d6314610aa057806326a4e8d214610c445780633c502e1814610aa05780634e6fd6c414610c2757806361d027b314610bfe578063715018a614610ba4578063735de9f714610b7d57806384e568b014610b5e5780638b0bc50114610b5e5780638b1dd58914610b3e5780638bdb2afa14610b155780638da5cb5b14610aed5780639e5f260214610ac9578063a932492f14610aa5578063aaf5eb6814610aa0578063b7c3f62214610a77578063b8606eef14610a58578063d2395dcd14610642578063ddaf4c98146104a0578063e1f1c4a714610483578063e4e57b9e14610317578063e8e6ed69146102f8578063eb13a7d2146102d5578063eb91d37e146102005763f2fde38b1461017757600080fd5b346101fc5760203660031901126101fc57610190610e86565b90610199610ec6565b6001600160a01b039182169283156101e657505082546001600160a01b0319811683178455167f8be0079c531659141344cd1fd0a4f28419497f9722a3daafe3b4186f6b6457e08380a380f35b51631e4fbdf760e01b8152908101849052602490fd5b8280fd5b50346101fc57826003193601126101fc576102196112df565b60055482516370a0823160e01b8152308382015290602090829060249082906001600160a01b03165afa9384156102ca578094610291575b50508215610283575061027c8261027661026f602095600954611080565b91806111bf565b90610f2a565b9051908152f35b90516323d359a360e01b8152fd5b909193506020823d82116102c2575b816102ad60209383610ef2565b810103126102bf575051913880610251565b80fd5b3d91506102a0565b8351903d90823e3d90fd5b5050346102f457816003193601126102f457602090600a549051908152f35b5080fd5b5050346102f457816003193601126102f4576020906007549051908152f35b509190346102f45761032836610e9c565b936103349291926116d7565b60ff600854166104735782156104635761037161035084611308565b600b549092811561045a575061036961271091846111bf565b04809261119c565b94851061044a57947f6db63bebf1e6540277744df32846ebdb98385b1a73f2d5de49b28348add63f50916103dd60209760018060a01b03936103b889858760025416611644565b816103ea575b5086519586526020860188905260408601529116929081906060820190565b0390a26001805551908152f35b6103fe82866002541687600c541690611644565b7fbde344b6f67c3bf7e0ecbbf22b04267d5d3ae0aa1909c0000b812f6b14ce45b9608086600c5416928a51908582528b8e8301528b820152631cd95b1b60e21b6060820152a2386103be565b835163428637bb60e11b81528690fd5b9050809261119c565b835163162908e360e11b81528690fd5b835163e6a0d45f60e01b81528690fd5b5050346102f457816003193601126102f457602090516127108152f35b5091346102bf576020806003193601126102f457833560ff60085416610632576104c86112df565b60055484516370a0823160e01b81523087820152908390829060249082906001600160a01b03165afa9081156106285784916105f7575b5080156105e7576009549180610546575050509080929350915b600b5490811561053e575061053161271091846111bf565b04905b8351928352820152f35b905090610534565b81811061055d57855163162908e360e11b81528790fd5b61026f6105726105799284999697989961119c565b92806111bf565b6001600160ff1b03939084811681036105d4576105999060011b84610fe7565b93821682036105c157506105bb92916105b59160011b90610fe7565b9061119c565b91610519565b634e487b7160e01b865260119052602485fd5b634e487b7160e01b875260118252602487fd5b84516323d359a360e01b81528690fd5b90508281813d8311610621575b61060e8183610ef2565b8101031261061d5751386104ff565b8380fd5b503d610604565b85513d86823e3d90fd5b5050505163e6a0d45f60e01b8152fd5b5090346101fc5761065236610e9c565b929194909361065f6116d7565b60ff60085416610a4a578415610a3c57610678856113bb565b938410610a2e57600b548015610a265761069561271091876111bf565b04905b6106a2828761119c565b60018060a01b0390816005541693865180996370a0823160e01b96878352308784015282602460209d8e935afa918215610a1c5788926109e9575b5084600254169189519088825230888301528c82602481875afa9182156109df57908c9392918b926109a7575b5061071f670de0b6b3a764000094859261119c565b10610997579061072e916112fb565b1061098757818061092c575b5050600554875163a9059cbb60e01b81526001600160a01b038c16868201908152602081018b905290918b91839187169082908b90829060400103925af18015610922579a6107d47f0d1a0d5e3d583a0e92588799dd06e50fd78c07daf05f0cc06d7b848b1ca445f1938c879460249b9c9d9e9f6108f4575b50508b5193849316958d846040919493926060820195825260208201520152565b0390a287816002541687519586809287825230878301525afa9384156108ea579088929186956108b2575b50602490600554169387519485938492835230908301525afa9283156108a7578093610875575b50506006541190811591610865575b5080610858575b61084b575b6001805551908152f35b610853611719565b610841565b5060ff600854161561083c565b9050600a5460011c101538610835565b909192508582813d83116108a0575b61088e8183610ef2565b810103126102bf575051903880610826565b503d610884565b8451903d90823e3d90fd5b838193949296503d83116108e3575b6108cb8183610ef2565b810103126108df57519287919060246107ff565b8480fd5b503d6108c1565b86513d87823e3d90fd5b8161091392903d1061091b575b61090b8183610ef2565b81019061162c565b508d386107b3565b503d610901565b88513d89823e3d90fd5b61093b9185600c541690611644565b82600c54167fbde344b6f67c3bf7e0ecbbf22b04267d5d3ae0aa1909c0000b812f6b14ce45b9608089518481528a8d82015260038b8201526262757960e81b6060820152a2388161073a565b8751639a845eb760e01b81528590fd5b8a51637222ae5760e11b81528890fd5b8e80929495508193503d83116109d8575b6109c28183610ef2565b810103126109d457518b92913861070a565b8980fd5b503d6109b8565b8b513d8c823e3d90fd5b9091508a81813d8311610a15575b610a018183610ef2565b81010312610a11575190386106dd565b8780fd5b503d6109f7565b89513d8a823e3d90fd5b508190610698565b825163428637bb60e11b8152fd5b825163162908e360e11b8152fd5b825163e6a0d45f60e01b8152fd5b5050346102f457816003193601126102f457602090600b549051908152f35b5050346102f457816003193601126102f45760055490516001600160a01b039091168152602090f35b610e5e565b5050346102f457816003193601126102f4576020905168a2a15d09519be000008152f35b5050346102f457816003193601126102f45760209060ff6008541690519015158152f35b5050346102f457816003193601126102f457905490516001600160a01b039091168152602090f35b5050346102f457816003193601126102f45760035490516001600160a01b039091168152602090f35b5091346102bf5760203660031901126102bf575061027c602092356113bb565b5050346102f457816003193601126102f4576020906006549051908152f35b50346101fc57826003193601126101fc575490516001600160a01b03909116815260209150f35b83346102bf57806003193601126102bf57610bbd610ec6565b80546001600160a01b03198116825581906001600160a01b03167f8be0079c531659141344cd1fd0a4f28419497f9722a3daafe3b4186f6b6457e08280a380f35b5050346102f457816003193601126102f457600c5490516001600160a01b039091168152602090f35b5050346102f457816003193601126102f4576020905161dead8152f35b508290346102f45760203660031901126102f457610c60610e86565b92610c69610ec6565b600554936001600160a01b0390818616610d5b5794602091602495961680916bffffffffffffffffffffffff60a01b1617600555825194858281937fd82cad5fdc98633445b90f806f2e1a61a5409f92187ee9cd87f1da18c90692668a80a26370a0823160e01b825230878301525afa928315610d51578493610d1e575b508215610d115783610d0b8480600a55610d0681610d06600654610f4a565b610fb6565b60095580f35b516323d359a360e01b8152fd5b9092506020813d8211610d49575b81610d3960209383610ef2565b8101031261061d57519184610ce7565b3d9150610d2c565b81513d86823e3d90fd5b5050516371168e4f60e11b8152fd5b508290346102f45760203660031901126102f45760ff60085416610a4a57610d9a90610d946112df565b35611308565b600b5490918115610dc15750610db361271091836111bf565b045b82519182526020820152f35b9050610db5565b5091346102bf5760203660031901126102bf575061027c602092356111d2565b5050346102f457816003193601126102f45760025490516001600160a01b039091168152602090f35b5091346102bf5760203660031901126102bf575061027c60209235611308565b839085346102bf57806003193601126102bf5750600b54600c549082526001600160a01b03166020820152f35b34610e81576000366003190112610e81576020604051670de0b6b3a76400008152f35b600080fd5b600435906001600160a01b0382168203610e8157565b6060906003190112610e81576004356001600160a01b0381168103610e8157906024359060443590565b6000546001600160a01b03163303610eda57565b60405163118cdaa760e01b8152336004820152602490fd5b90601f8019910116810190811067ffffffffffffffff821117610f1457604052565b634e487b7160e01b600052604160045260246000fd5b8115610f34570490565b634e487b7160e01b600052601260045260246000fd5b600019600282098160011b90818082109103818114610fac570360031115610f9957600360027faaaaaaaaaaaaaaaaaaaaaaaaaaaaaaaaaaaaaaaaaaaaaaaaaaaaaaaaaaaaaaab930990030290565b634e487b7160005260116020526024601cfd5b5050600391500490565b6000198282099180820292838082109103818114610fe0570360011115610f995760019109900390565b5050505090565b6000196001820991818084109303928084039314611072578281111561105a57806001830981600003821680920460028082600302188083028203028083028203028083028203028083028203028083028203028092029003029360018380600003040190848311900302920304170290565b634e487b71600052156003026011186020526024601cfd5b9061107d9250610f2a565b90565b670de0b6b3a764000091600019838309928083029283808610950394808603951461111857848311156110ff579082910981600003821680920460028082600302188083028203028083028203028083028203028083028203028083028203028092029003029360018380600003040190848311900302920304170290565b82634e487b71600052156003026011186020526024601cfd5b50509061107d9250610f2a565b9091600019838309928083029283808610950394808603951461111857848311156110ff579082910981600003821680920460028082600302188083028203028083028203028083028203028083028203028083028203028092029003029360018380600003040190848311900302920304170290565b919082039182116111a957565b634e487b7160e01b600052601160045260246000fd5b818102929181159184041417156111a957565b6111da6112df565b6005546040516370a0823160e01b815230600482015290602090829060249082906001600160a01b03165afa9081156112d3576000916112a2575b50801561129057811561128957808210156112775761123d61026f610572600954948461119c565b6001600160ff1b03919082811681036111a95761125d9060011b84610fe7565b91811681036111a95761107d926105b59160011b90610fe7565b60405163162908e360e11b8152600490fd5b5050600090565b6040516323d359a360e01b8152600490fd5b906020823d82116112cb575b816112bb60209383610ef2565b810103126102bf57505138611215565b3d91506112ae565b6040513d6000823e3d90fd5b600954156112e957565b6040516321c4e35760e21b8152600490fd5b919082018092116111a957565b6113106112df565b6005546040516370a0823160e01b815230600482015290602090829060249082906001600160a01b03165afa9081156112d35760009161138a575b5080156112905781156112895761136b61026f61057260095494846112fb565b6001600160ff1b039180831681036111a95761125d9060011b84610fe7565b906020823d82116113b3575b816113a360209383610ef2565b810103126102bf5750513861134b565b3d9150611396565b60ff600854166114fa576024906113d06112df565b6005546040516370a0823160e01b81523060048201529260209184919082906001600160a01b03165afa9182156112d3576000926114c7575b50811561129057600b546114359190600081156114bf575061142e61271091836111bf565b049061119c565b8015611289576114526009549161144c84806111bf565b90610fb6565b8060011b90808204600214901517156111a95761147b611480916114758461150c565b936112fb565b61150c565b9081156112905761149b916114959184611125565b8261119c565b90808210156114a8575090565b670de0b6b3a763ffff198101915081116111a95790565b90509061119c565b90916020823d82116114f2575b816114e160209383610ef2565b810103126102bf5750519038611409565b3d91506114d4565b60405163e6a0d45f60e01b8152600490fd5b600180821115611628576115c9908083600160801b811015611616575b80600160401b6004921015611609575b6401000000008110156115fc575b620100008110156115ef575b6101008110156115e3575b60108110156115d7575b10156115d0575b600302811c61157e8185610f2a565b01811c61158b8185610f2a565b01811c6115988185610f2a565b01811c6115a58185610f2a565b01811c6115b28185610f2a565b01811c6115bf8185610f2a565b01901c8092610f2a565b8111900390565b811b61156f565b811c9160021b91611568565b60081c91811b9161155e565b60101c9160081b91611553565b60201c9160101b91611547565b60401c9160201b91611539565b50600160401b9050608084901c611529565b5090565b90816020910312610e8157518015158103610e815790565b60405163a9059cbb60e01b60208083019182526001600160a01b039490941660248301526044808301959095529381529092600091611684606482610ef2565b519082855af1156112d3576000513d6116ce57506001600160a01b0381163b155b6116ac5750565b604051635274afe760e01b81526001600160a01b039091166004820152602490fd5b600114156116a5565b6002600154146116e8576002600155565b604051633ee5aeb560e01b8152600490fd5b90816020910312610e8157516001600160a01b0381168103610e815790565b60085460ff8116611c715760ff19166001176008556003546005546002546040805163e6a4390560e01b81526001600160a01b039384166004808301829052938516602483018190529195602094939291908616908588604481855afa978815611a7057600098611c52575b5086881615611bd0575b505060055482516370a0823160e01b8082523082870152602495935091871686828781845afa918215611bc557908691600093611b93575b50878960025416875193848092888252308a8301525afa918215611aaa57600092611b64575b5082151580611b5b575b611833575b505050505050505080600554169116907f806ef27e0c58d1db68e3780cb50bde63b59139693b61ab9fdff83126acc3a9a0600080a3565b61185561184f61184585600954611080565b61027686806111bf565b83611080565b92670de0b6b3a76400008401808511611b475791818a92889411611b0e575b508254885163095ea7b360e01b808252918d166001600160a01b03169481019485526020850187905290939092918391829060009082906040015b03925af18015611b03576118fc928a928592611ae6575b508b600254169060008d8a5416918b519687958694859384528d840160209093929193604081019460018060a01b031681520152565b03925af18015611aaa57611ac9575b50878454168860055416908960025416610384420190814211611ab5578760006060948c9694610104948d51988997889662e8e33760e81b88528701528501528960448501528860648501528960848501528860a48501523060c485015260e48401525af18015611aaa5790869291611a7b575b508151928352878301527f38f8a0c92f4c5b0b6877f878cb4c0c8d348a47b76d716c8e78f425043df9515b91a185600554168351918252308383015285828681845afa918215611a7057600092611a41575b50816119df575b80806117fc565b8592600060449261dead948751988996879563a9059cbb60e01b87528601528401525af1908115611a375750611a19575b808080806119d8565b81611a2f92903d1061091b5761090b8183610ef2565b503880611a10565b513d6000823e3d90fd5b90918682813d8311611a69575b611a588183610ef2565b810103126102bf57505190386119d1565b503d611a4e565b84513d6000823e3d90fd5b6060809293503d8111611aa3575b611a938183610ef2565b81010312610e815784903861197f565b503d611a89565b86513d6000823e3d90fd5b89601189634e487b7160e01b600052526000fd5b611adf90883d8a1161091b5761090b8183610ef2565b503861190b565b611afc90843d861161091b5761090b8183610ef2565b50386118c6565b87513d6000823e3d90fd5b9250935050670de0b6b3a763ffff198101908111611b335791849088906118af611874565b86601186634e487b7160e01b600052526000fd5b88601188634e487b7160e01b600052526000fd5b508115156117f7565b90918882813d8311611b8c575b611b7b8183610ef2565b810103126102bf57505190386117ed565b503d611b71565b9150918782813d8311611bbe575b611bab8183610ef2565b810103126102bf575085905191386117c7565b503d611ba1565b85513d6000823e3d90fd5b83516364e329cb60e11b81526001600160a01b0391821686820190815293909116602084015292965084918391908290600090829060400103925af1908115611bc557600091611c25575b509338808061178f565b611c459150833d8511611c4b575b611c3d8183610ef2565b8101906116fa565b38611c1b565b503d611c33565b611c6a919850863d8811611c4b57611c3d8183610ef2565b9638611785565b5056fea2646970667358221220addb9bcec26d0a45cfe7d0a7663598b8160cdf2249bcdb3b37f7e235bafdd88464736f6c63430008140033",
  "linkReferences": {},
  "deployedLinkReferences": {}
}