{
  "_format": "hh-sol-artifact-1",
  "contractName": "StonkTradingRouter",
  "sourceName": "contracts/StonkTradingRouter.sol",
  "abi": [
    {
      "inputs": [
        {
          "internalType": "address",
          "name": "_factory",
          "type": "address"
        },
        {
          "internalType": "address",
          "name": "_uniswapRouter",
          "type": "address"
        },
        {
          "internalType": "address",
          "name": "_uniswapFactory",
          "type": "address"
        },
        {
          "internalType": "address",
          "name": "_assetToken",
          "type": "address"
        }
      ],
      "stateMutability": "nonpayable",
      "type": "constructor"
    },
    {
      "inputs": [],
      "name": "AlreadyGraduated",
      "type": "error"
    },
    {
      "inputs": [],
      "name": "ContractPaused",
      "type": "error"
    },
    {
      "inputs": [],
      "name": "DeadlinePassed",
      "type": "error"
    },
    {
      "inputs": [],
      "name": "InvalidAmount",
      "type": "error"
    },
    {
      "inputs": [],
      "name": "NotGraduated",
      "type": "error"
    },
    {
      "inputs": [],
      "name": "OnlyFactory",
      "type": "error"
    },
    {
      "inputs": [
        {
          "internalType": "address",
          "name": "owner",
          "type": "address"
        }
      ],
      "name": "OwnableInvalidOwner",
      "type": "error"
    },
    {
      "inputs": [
        {
          "internalType": "address",
          "name": "account",
          "type": "address"
        }
      ],
      "name": "OwnableUnauthorizedAccount",
      "type": "error"
    },
    {
      "inputs": [],
      "name": "ReentrancyGuardReentrantCall",
      "type": "error"
    },
    {
      "inputs": [
        {
          "internalType": "address",
          "name": "token",
          "type": "address"
        }
      ],
      "name": "SafeERC20FailedOperation",
      "type": "error"
    },
    {
      "inputs": [],
      "name": "TokenNotFound",
      "type": "error"
    },
    {
      "anonymous": false,
      "inputs": [
        {
          "indexed": true,
          "internalType": "address",
          "name": "previousOwner",
          "type": "address"
        },
        {
          "indexed": true,
          "internalType": "address",
          "name": "newOwner",
          "type": "address"
        }
      ],
      "name": "OwnershipTransferred",
      "type": "event"
    },
    {
      "anonymous": false,
      "inputs": [
        {
          "indexed": true,
          "internalType": "address",
          "name": "by",
          "type": "address"
        },
        {
          "indexed": false,
          "internalType": "uint256",
          "name": "timestamp",
          "type": "uint256"
        }
      ],
      "name": "RouterPaused",
      "type": "event"
    },
    {
      "anonymous": false,
      "inputs": [
        {
          "indexed": true,
          "internalType": "address",
          "name": "by",
          "type": "address"
        },
        {
          "indexed": false,
          "internalType": "uint256",
          "name": "timestamp",
          "type": "uint256"
        }
      ],
      "name": "RouterUnpaused",
      "type": "event"
    },
    {
      "anonymous": false,
      "inputs": [
        {
          "indexed": true,
          "internalType": "address",
          "name": "tokenAddress",
          "type": "address"
        },
        {
          "indexed": true,
          "internalType": "address",
          "name": "uniswapPair",
          "type": "address"
        },
        {
          "indexed": true,
          "internalType": "uint256",
          "name": "timestamp",
          "type": "uint256"
        },
        {
          "indexed": false,
          "internalType": "uint256",
          "name": "tokenBalance",
          "type": "uint256"
        },
        {
          "indexed": false,
          "internalType": "uint256",
          "name": "assetBalance",
          "type": "uint256"
        }
      ],
      "name": "TokenGraduated",
      "type": "event"
    },
    {
      "anonymous": false,
      "inputs": [
        {
          "indexed": true,
          "internalType": "address",
          "name": "tokenAddress",
          "type": "address"
        },
        {
          "indexed": true,
          "internalType": "address",
          "name": "bondingCurveAddress",
          "type": "address"
        },
        {
          "indexed": true,
          "internalType": "uint256",
          "name": "timestamp",
          "type": "uint256"
        }
      ],
      "name": "TokenRegistered",
      "type": "event"
    },
    {
      "anonymous": false,
      "inputs": [
        {
          "indexed": true,
          "internalType": "address",
          "name": "tokenAddress",
          "type": "address"
        },
        {
          "indexed": true,
          "internalType": "address",
          "name": "buyer",
          "type": "address"
        },
        {
          "indexed": true,
          "internalType": "uint256",
          "name": "tokenAmount",
          "type": "uint256"
        },
        {
          "indexed": false,
          "internalType": "uint256",
          "name": "assetAmount",
          "type": "uint256"
        },
        {
          "indexed": false,
          "internalType": "bool",
          "name": "isBondingCurve",
          "type": "bool"
        },
        {
          "indexed": false,
          "internalType": "uint256",
          "name": "timestamp",
          "type": "uint256"
        }
      ],
      "name": "TokensPurchased",
      "type": "event"
    },
    {
      "anonymous": false,
      "inputs": [
        {
          "indexed": true,
          "internalType": "address",
          "name": "tokenAddress",
          "type": "address"
        },
        {
          "indexed": true,
          "internalType": "address",
          "name": "seller",
          "type": "address"
        },
        {
          "indexed": true,
          "internalType": "uint256",
          "name": "tokenAmount",
          "type": "uint256"
        },
        {
          "indexed": false,
          "internalType": "uint256",
          "name": "assetAmount",
          "type": "uint256"
        },
        {
          "indexed": false,
          "internalType": "bool",
          "name": "isBondingCurve",
          "type": "bool"
        },
        {
          "indexed": false,
          "internalType": "uint256",
          "name": "timestamp",
          "type": "uint256"
        }
      ],
      "name": "TokensSold",
      "type": "event"
    },
    {
      "inputs": [],
      "name": "assetToken",
      "outputs": [
        {
          "internalType": "contract IERC20",
          "name": "",
          "type": "address"
        }
      ],
      "stateMutability": "view",
      "type": "function"
    },
    {
      "inputs": [
        {
          "internalType": "address",
          "name": "",
          "type": "address"
        }
      ],
      "name": "bondingCurveAddress",
      "outputs": [
        {
          "internalType": "address",
          "name": "",
          "type": "address"
        }
      ],
      "stateMutability": "view",
      "type": "function"
    },
    {
      "inputs": [
        {
          "internalType": "address",
          "name": "tokenAddress",
          "type": "address"
        },
        {
          "internalType": "uint256",
          "name": "tokenAmount",
          "type": "uint256"
        },
        {
          "internalType": "uint256",
          "name": "maxAssetAmount",
          "type": "uint256"
        },
        {
          "internalType": "uint256",
          "name": "deadline",
          "type": "uint256"
        }
      ],
      "name": "buyTokens",
      "outputs": [
        {
          "internalType": "uint256",
          "name": "tokensReceived",
          "type": "uint256"
        }
      ],
      "stateMutability": "nonpayable",
      "type": "function"
    },
    {
      "inputs": [
        {
          "internalType": "address",
          "name": "tokenAddress",
          "type": "address"
        },
        {
          "internalType": "uint256",
          "name": "tokenAmount",
          "type": "uint256"
        }
      ],
      "name": "calculateBuyPrice",
      "outputs": [
        {
          "internalType": "uint256",
          "name": "assetAmount",
          "type": "uint256"
        }
      ],
      "stateMutability": "view",
      "type": "function"
    },
    {
      "inputs": [
        {
          "internalType": "address",
          "name": "tokenAddress",
          "type": "address"
        },
        {
          "internalType": "uint256",
          "name": "tokenAmount",
          "type": "uint256"
        }
      ],
      "name": "calculateSellProceeds",
      "outputs": [
        {
          "internalType": "uint256",
          "name": "assetAmount",
          "type": "uint256"
        }
      ],
      "stateMutability": "view",
      "type": "function"
    },
    {
      "inputs": [],
      "name": "factory",
      "outputs": [
        {
          "internalType": "contract StonkTokenFactory",
          "name": "",
          "type": "address"
        }
      ],
      "stateMutability": "view",
      "type": "function"
    },
    {
      "inputs": [
        {
          "internalType": "address",
          "name": "tokenAddress",
          "type": "address"
        }
      ],
      "name": "getBondingCurveAddress",
      "outputs": [
        {
          "internalType": "address",
          "name": "",
          "type": "address"
        }
      ],
      "stateMutability": "view",
      "type": "function"
    },
    {
      "inputs": [
        {
          "internalType": "address",
          "name": "tokenAddress",
          "type": "address"
        }
      ],
      "name": "getTokenTradingState",
      "outputs": [
        {
          "internalType": "bool",
          "name": "graduated",
          "type": "bool"
        },
        {
          "internalType": "address",
          "name": "bondingCurve",
          "type": "address"
        },
        {
          "internalType": "address",
          "name": "uniswapPair",
          "type": "address"
        }
      ],
      "stateMutability": "view",
      "type": "function"
    },
    {
      "inputs": [
        {
          "internalType": "address",
          "name": "tokenAddress",
          "type": "address"
        }
      ],
      "name": "isTokenGraduated",
      "outputs": [
        {
          "internalType": "bool",
          "name": "",
          "type": "bool"
        }
      ],
      "stateMutability": "view",
      "type": "function"
    },
    {
      "inputs": [],
      "name": "owner",
      "outputs": [
        {
          "internalType": "address",
          "name": "",
          "type": "address"
        }
      ],
      "stateMutability": "view",
      "type": "function"
    },
    {
      "inputs": [],
      "name": "pause",
      "outputs": [],
      "stateMutability": "nonpayable",
      "type": "function"
    },
    {
      "inputs": [],
      "name": "paused",
      "outputs": [
        {
          "internalType": "bool",
          "name": "",
          "type": "bool"
        }
      ],
      "stateMutability": "view",
      "type": "function"
    },
    {
      "inputs": [
        {
          "internalType": "address",
          "name": "tokenAddress",
          "type": "address"
        },
        {
          "internalType": "address",
          "name": "bondingCurveAddr",
          "type": "address"
        }
      ],
      "name": "registerToken",
      "outputs": [],
      "stateMutability": "nonpayable",
      "type": "function"
    },
    {
      "inputs": [],
      "name": "renounceOwnership",
      "outputs": [],
      "stateMutability": "nonpayable",
      "type": "function"
    },
    {
      "inputs": [
        {
          "internalType": "address",
          "name": "tokenAddress",
          "type": "address"
        },
        {
          "internalType": "uint256",
          "name": "tokenAmount",
          "type": "uint256"
        },
        {
          "internalType": "uint256",
          "name": "minAssetAmount",
          "type": "uint256"
        },
        {
          "internalType": "uint256",
          "name": "deadline",
          "type": "uint256"
        }
      ],
      "name": "sellTokens",
      "outputs": [
        {
          "internalType": "uint256",
          "name": "assetsReceived",
          "type": "uint256"
        }
      ],
      "stateMutability": "nonpayable",
      "type": "function"
    },
    {
      "inputs": [
        {
          "internalType": "address",
          "name": "newOwner",
          "type": "address"
        }
      ],
      "name": "transferOwnership",
      "outputs": [],
      "stateMutability": "nonpayable",
      "type": "function"
    },
    {
      "inputs": [],
      "name": "uniswapFactory",
      "outputs": [
        {
          "internalType": "contract IUniswapV2Factory",
          "name": "",
          "type": "address"
        }
      ],
      "stateMutability": "view",
      "type": "function"
    },
    {
      "inputs": [],
      "name": "uniswapRouter",
      "outputs": [
        {
          "internalType": "contract IUniswapV2Router02",
          "name": "",
          "type": "address"
        }
      ],
      "stateMutability": "view",
      "type": "function"
    },
    {
      "inputs": [],
      "name": "unpause",
      "outputs": [],
      "stateMutability": "nonpayable",
      "type": "function"
    }
  ],
  "bytecode": "0x6080346200012a57601f620015f938819003918201601f19168301916001600160401b038311848410176200012f578084926080946040528339810103126200012a576200004d8162000145565b906200005c6020820162000145565b620000786060620000706040850162000145565b930162000145565b331562000111576000549360018060a01b03199333858716176000556040519560018060a01b03948580948193823391167f8be0079c531659141344cd1fd0a4f28419497f9722a3daafe3b4186f6b6457e0600080a3600180551687600254161760025516856003541617600355168360045416176004551690600554161760055560ff196007541660075561149e90816200015b8239f35b604051631e4fbdf760e01b815260006004820152602490fd5b600080fd5b634e487b7160e01b600052604160045260246000fd5b51906001600160a01b03821682036200012a5756fe6080604081815260048036101561001557600080fd5b600092833560e01c9081631083f76114610eca575080631a68d17014610d6a5780631ecbbfe114610187578063388e8fd214610d3b5780633a12c26814610c505780633e903b83146109225780633f4ba83a146108d15780634739f7e5146108405780635c975abb1461081c578063715018a6146107c2578063735de9f7146107995780638456cb59146107455780638bdb2afa1461071e5780638da5cb5b146106f65780638fd0b051146103885780639e52270b146101ef578063c45a0155146101c6578063e1ff8abb146101875763f2fde38b146100f457600080fd5b346101835760203660031901126101835761010d610eef565b90610116610f33565b6001600160a01b0391821692831561016d575050600054826bffffffffffffffffffffffff60a01b821617600055167f8be0079c531659141344cd1fd0a4f28419497f9722a3daafe3b4186f6b6457e0600080a380f35b51631e4fbdf760e01b8152908101849052602490fd5b8280fd5b5050346101c25760203660031901126101c2576020916001600160a01b03908290826101b1610eef565b168152600685522054169051908152f35b5080fd5b5050346101c257816003193601126101c25760025490516001600160a01b039091168152602090f35b5034610183578160031936011261018357610208610eef565b90602435610215836113f0565b156102e35791849161028a9385519261022d84610fac565b60028452863660208601376005546001600160a01b039190821661025086610fea565b528161025b8661100d565b9116905260035416918651958694859384936307c0329d60e21b85528401528860248401526044830190611099565b03915afa9081156102d757906102ab9184602095926102b4575b5050610fea565b51905b51908152f35b6102d092503d8091833e6102c88183610fc8565b81019061101d565b38806102a4565b505051903d90823e3d90fd5b6001600160a01b039283168552600660205283852054909216939190841561037a579060246020928551968793849263145f101960e01b84528301525afa90811561036f5790610338575b60209250906102ae565b506020823d8211610367575b8161035160209383610fc8565b81010312610362576020915161032e565b600080fd5b3d9150610344565b8251903d90823e3d90fd5b8351630cbdb7b360e41b8152fd5b509190346101c25761039936610f05565b949092916103a5610f5f565b60ff600754166106e6574286106106d65780156106c6576103c5836113f0565b156105cc5784516103d581610fac565b600281526020968636898401376005546001600160a01b03939061041a90889086168061040187610fea565b528661040c8761100d565b9916809952309033906110f5565b600554600354895163095ea7b360e01b81529086166001600160a01b03168c8201908152602081018a905290918b91839188169082908a90829060400103925af180156105c2579786809695938c839a9996948f9c610594575b505061049b8760035416948d519c8d9788968795634401edf760e11b8752339387016111d0565b03925af194851561058a57829561056e575b506104c16104ba8661100d565b5195610fea565b51908185039185831161055b5760209950850361051b575b50508395855193845283015242848301527fbc98daff0e5e0a087f864e3dc29da4055121c74489de9d2cb58fa8b1cf05384260603393a45b6001805551908152f35b600554875163a9059cbb60e01b8a82015233602482015260448082019490945292835261055492911661054f606483610fc8565b611150565b38806104d9565b634e487b7160e01b845260118a52602484fd5b6105839195503d8084833e6102c88183610fc8565b93386104ad565b86513d84823e3d90fd5b816105b392903d106105bb575b6105ab8183610fc8565b8101906111b8565b508c38610474565b503d6105a1565b89513d88823e3d90fd5b6001600160a01b0380841680845260066020528684205494989097509194938116919082156106b7578483610606926005541633906110f5565b813b1561018357855163d2395dcd60e01b815233918101918252602082018690526040820185905291839183919082908490829060600103925af180156106ad57610696575b5050610659602095611209565b8193835191825260018683015242848301527fbc98daff0e5e0a087f864e3dc29da4055121c74489de9d2cb58fa8b1cf05384260603393a4610511565b6106a08291610f82565b6106aa578061064c565b80fd5b85513d84823e3d90fd5b508551630cbdb7b360e41b8152fd5b845163162908e360e11b81528790fd5b845163387b2e5560e11b81528790fd5b845163ab35696f60e01b81528790fd5b5050346101c257816003193601126101c257905490516001600160a01b039091168152602090f35b50346101835782600319360112610183575490516001600160a01b03909116815260209150f35b5050346101c257816003193601126101c25761075f610f33565b600160ff196007541617600755514281527f786725cc28b379159ac609041d30797904a3bc3beda70ec73dffc6ad8768d60960203392a280f35b5050346101c257816003193601126101c25760035490516001600160a01b039091168152602090f35b83346106aa57806003193601126106aa576107db610f33565b600080546001600160a01b0319811682556001600160a01b03167f8be0079c531659141344cd1fd0a4f28419497f9722a3daafe3b4186f6b6457e08280a380f35b5050346101c257816003193601126101c25760209060ff6007541690519015158152f35b5034610183578160031936011261018357610859610eef565b6024356001600160a01b038181169390929184900361036257826002541633036108c3575016808452600660205291832080546001600160a01b0319168217905542917ff8e444c42a5a7ea760a42d30d8fa8ccd8915208c2fb7dfe353501d7322d2e1328480a480f35b8451630636a15760e11b8152fd5b5050346101c257816003193601126101c2576108eb610f33565b60ff1960075416600755514281527fc6f88918b3d6174312d93d433873bebafd6cd3ff5aed6ed05dc3dd904b7af4a860203392a280f35b5090346101835761093236610f05565b9192949061093e610f5f565b60ff60075416610c4157428310610c32578315610c235761095e866113f0565b15610ac257908691855161097181610fac565b600281528636602083013761098581610fea565b6001600160a01b039889169081905260055490989081166109a58361100d565b526109b28730338c6110f5565b600354885163095ea7b360e01b81529082166001600160a01b031685820190815260208082018a90529082906040908290030181898e5af180156105c25790869291610aa4575b506003541692610a1f8951978896879586946338ed173960e01b86528c339387016111d0565b03925af1908115610a9a578591610a3f9160209791610a80575b5061100d565b51938351918583528683015242848301527fa6f97d63ff07714d2aedb0b86bbaefa62ca582407ca7bbcdcb26b2598aa5c42460603393a46001805551908152f35b610a9491503d8085833e6102c88183610fc8565b38610a39565b83513d87823e3d90fd5b610abb9060203d81116105bb576105ab8183610fc8565b50386109f9565b9495915060018060a01b03908187169182845260209660068852818786205416908115610c1357610af5878333886110f5565b813b15610c0f578751637272bdcf60e11b81523385820190815260208101899052604081019290925291869183919082908490829060600103925af18015610c055790889291610bf2575b50600554169160248751809481936370a0823160e01b835233908301525afa928315610be75792610bb4575b50610b78602096611209565b60018295855193845283015242848301527fa6f97d63ff07714d2aedb0b86bbaefa62ca582407ca7bbcdcb26b2598aa5c42460603393a4610511565b9591508486813d8311610be0575b610bcc8183610fc8565b810103126103625794519094610b78610b6c565b503d610bc2565b8551903d90823e3d90fd5b610bfe90959195610f82565b9338610b40565b87513d87823e3d90fd5b8580fd5b8751630cbdb7b360e41b81528490fd5b50835163162908e360e11b8152fd5b50835163387b2e5560e11b8152fd5b50835163ab35696f60e01b8152fd5b509190346101c257602091826003193601126106aa57610c6e610eef565b610c77816113f0565b93829185610cae575b6001600160a01b03908116845260068252928490205484519515158652831690850152169082015260609150f35b8654600554865163e6a4390560e01b81526001600160a01b038481169a82019a8b5291821660208b0152989294508392899290839003604001918391165afa8015610d31576060968491610d04575b5091610c80565b610d249150823d8411610d2a575b610d1c8183610fc8565b8101906110d6565b38610cfd565b503d610d12565b84513d85823e3d90fd5b5050346101c25760203660031901126101c257602090610d61610d5c610eef565b6113f0565b90519015158152f35b503461018357816003193601126101835782610d84610eef565b602435610d90826113f0565b15610e3d5792610e0193855192610da684610fac565b6002845286366020860137610dba84610fea565b6001600160a01b0391821690526005548116610dd58561100d565b52600354169186519586948593849363d06ca61f60e01b85528401528860248401526044830190611099565b03915afa9081156102d757906102ab918460209592610e22575b505061100d565b610e3692503d8091833e6102c88183610fc8565b3880610e1b565b6001600160a01b03918216865260066020528486205490911692909150821561037a5790602460209285519485938492630422e87d60e01b84528301525afa9081156102d7578391610e95575b5060209250906102ae565b90506020813d8211610ec2575b81610eaf60209383610fc8565b8101031261018357602092505138610e8a565b3d9150610ea2565b8490346101c257816003193601126101c2576005546001600160a01b03168152602090f35b600435906001600160a01b038216820361036257565b6080906003190112610362576004356001600160a01b03811681036103625790602435906044359060643590565b6000546001600160a01b03163303610f4757565b60405163118cdaa760e01b8152336004820152602490fd5b600260015414610f70576002600155565b604051633ee5aeb560e01b8152600490fd5b67ffffffffffffffff8111610f9657604052565b634e487b7160e01b600052604160045260246000fd5b6060810190811067ffffffffffffffff821117610f9657604052565b90601f8019910116810190811067ffffffffffffffff821117610f9657604052565b805115610ff75760200190565b634e487b7160e01b600052603260045260246000fd5b805160011015610ff75760400190565b90602090818382031261036257825167ffffffffffffffff93848211610362570181601f82011215610362578051938411610f96578360051b906040519461106785840187610fc8565b85528380860192820101928311610362578301905b82821061108a575050505090565b8151815290830190830161107c565b90815180825260208080930193019160005b8281106110b9575050505090565b83516001600160a01b0316855293810193928101926001016110ab565b9081602091031261036257516001600160a01b03811681036103625790565b6040516323b872dd60e01b60208201526001600160a01b03928316602482015292909116604483015260648083019390935291815260a081019181831067ffffffffffffffff841117610f965761114e92604052611150565b565b906000602091828151910182855af1156111ac576000513d6111a357506001600160a01b0381163b155b6111815750565b604051635274afe760e01b81526001600160a01b039091166004820152602490fd5b6001141561117a565b6040513d6000823e3d90fd5b90816020910312610362575180151581036103625790565b91926080936111f592979695978452602084015260a0604084015260a0830190611099565b6001600160a01b0390951660608201520152565b60018060a01b0380821660008181526020926006845260409181838220541680156113df5785600491855192838092630cad026760e01b82525afa9081156113d55782916113b8575b50611260575b505050505050565b60048054600554855163e6a4390560e01b81526001600160a01b038a811694820194909452908516928316602482015297908416908789604481855afa9889156113ae57849961138f575b50848916156112f5575b5050509082917f5ec1e9daf7affe04984801e0d07de6448f00139d72977b7c948bf698bd353f7693519581875286015242951693a4388080808080611258565b85516364e329cb60e11b81526001600160a01b03918216600482015292166024830152919650908590829060449082908a905af190811561138557907f5ec1e9daf7affe04984801e0d07de6448f00139d72977b7c948bf698bd353f769392918791611368575b509590919238806112b5565b61137f9150863d8811610d2a57610d1c8183610fc8565b3861135c565b83513d88823e3d90fd5b6113a7919950883d8a11610d2a57610d1c8183610fc8565b97386112ab565b86513d86823e3d90fd5b6113cf9150863d88116105bb576105ab8183610fc8565b38611252565b84513d84823e3d90fd5b8351630cbdb7b360e41b8152600490fd5b6001600160a01b0390811660009081526006602052604090205416801561145657602060049160405192838092630cad026760e01b82525afa9081156111ac5760009161143b575090565b611453915060203d81116105bb576105ab8183610fc8565b90565b604051630cbdb7b360e41b8152600490fdfea2646970667358221220b3b85110329fe579a3110fdbde38d9df5bce55dc50cece1c35c599d96db0880964736f6c63430008140033",
  "linkReferences": {},
  "deployedLinkReferences": {}
}