{
  "_format": "hh-sol-artifact-1",
  "contractName": "StonkTradingRouter",
  "sourceName": "contracts/StonkTradingRouter.sol",
  "abi": [
    {
      "inputs": [
        {
          "internalType": "address",
          "name": "_factory",
          "type": "address"
        },
        {
          "internalType": "address",
          "name": "_uniswapRouter",
          "type": "address"
        },
        {
          "internalType": "address",
          "name": "_uniswapFactory",
          "type": "address"
        },
        {
          "internalType": "address",
          "name": "_assetToken",
          "type": "address"
        }
      ],
      "stateMutability": "nonpayable",
      "type": "constructor"
    },
    {
      "inputs": [],
      "name": "AlreadyGraduated",
      "type": "error"
    },
    {
      "inputs": [],
      "name": "ContractPaused",
      "type": "error"
    },
    {
      "inputs": [],
      "name": "DeadlinePassed",
      "type": "error"
    },
    {
      "inputs": [],
      "name": "InvalidAmount",
      "type": "error"
    },
    {
      "inputs": [],
      "name": "NotGraduated",
      "type": "error"
    },
    {
      "inputs": [],
      "name": "OnlyFactory",
      "type": "error"
    },
    {
      "inputs": [
        {
          "internalType": "address",
          "name": "owner",
          "type": "address"
        }
      ],
      "name": "OwnableInvalidOwner",
      "type": "error"
    },
    {
      "inputs": [
        {
          "internalType": "address",
          "name": "account",
          "type": "address"
        }
      ],
      "name": "OwnableUnauthorizedAccount",
      "type": "error"
    },
    {
      "inputs": [],
      "name": "ReentrancyGuardReentrantCall",
      "type": "error"
    },
    {
      "inputs": [
        {
          "internalType": "address",
          "name": "token",
          "type": "address"
        }
      ],
      "name": "SafeERC20FailedOperation",
      "type": "error"
    },
    {
      "inputs": [],
      "name": "TokenNotFound",
      "type": "error"
    },
    {
      "anonymous": false,
      "inputs": [
        {
          "indexed": true,
          "internalType": "address",
          "name": "previousOwner",
          "type": "address"
        },
        {
          "indexed": true,
          "internalType": "address",
          "name": "newOwner",
          "type": "address"
        }
      ],
      "name": "OwnershipTransferred",
      "type": "event"
    },
    {
      "anonymous": false,
      "inputs": [
        {
          "indexed": true,
          "internalType": "address",
          "name": "by",
          "type": "address"
        }
      ],
      "name": "RouterPaused",
      "type": "event"
    },
    {
      "anonymous": false,
      "inputs": [
        {
          "indexed": true,
          "internalType": "address",
          "name": "by",
          "type": "address"
        }
      ],
      "name": "RouterUnpaused",
      "type": "event"
    },
    {
      "anonymous": false,
      "inputs": [
        {
          "indexed": true,
          "internalType": "address",
          "name": "tokenAddress",
          "type": "address"
        },
        {
          "indexed": true,
          "internalType": "address",
          "name": "uniswapPair",
          "type": "address"
        },
        {
          "indexed": false,
          "internalType": "uint256",
          "name": "tokenBalance",
          "type": "uint256"
        },
        {
          "indexed": false,
          "internalType": "uint256",
          "name": "assetBalance",
          "type": "uint256"
        }
      ],
      "name": "TokenGraduated",
      "type": "event"
    },
    {
      "anonymous": false,
      "inputs": [
        {
          "indexed": true,
          "internalType": "address",
          "name": "tokenAddress",
          "type": "address"
        },
        {
          "indexed": true,
          "internalType": "address",
          "name": "bondingCurveAddress",
          "type": "address"
        }
      ],
      "name": "TokenRegistered",
      "type": "event"
    },
    {
      "anonymous": false,
      "inputs": [
        {
          "indexed": true,
          "internalType": "address",
          "name": "tokenAddress",
          "type": "address"
        },
        {
          "indexed": true,
          "internalType": "address",
          "name": "buyer",
          "type": "address"
        },
        {
          "indexed": true,
          "internalType": "uint256",
          "name": "tokenAmount",
          "type": "uint256"
        },
        {
          "indexed": false,
          "internalType": "uint256",
          "name": "assetAmount",
          "type": "uint256"
        },
        {
          "indexed": false,
          "internalType": "bool",
          "name": "isBondingCurve",
          "type": "bool"
        }
      ],
      "name": "TokensPurchased",
      "type": "event"
    },
    {
      "anonymous": false,
      "inputs": [
        {
          "indexed": true,
          "internalType": "address",
          "name": "tokenAddress",
          "type": "address"
        },
        {
          "indexed": true,
          "internalType": "address",
          "name": "seller",
          "type": "address"
        },
        {
          "indexed": true,
          "internalType": "uint256",
          "name": "tokenAmount",
          "type": "uint256"
        },
        {
          "indexed": false,
          "internalType": "uint256",
          "name": "assetAmount",
          "type": "uint256"
        },
        {
          "indexed": false,
          "internalType": "bool",
          "name": "isBondingCurve",
          "type": "bool"
        }
      ],
      "name": "TokensSold",
      "type": "event"
    },
    {
      "inputs": [],
      "name": "assetToken",
      "outputs": [
        {
          "internalType": "contract IERC20",
          "name": "",
          "type": "address"
        }
      ],
      "stateMutability": "view",
      "type": "function"
    },
    {
      "inputs": [
        {
          "internalType": "address",
          "name": "",
          "type": "address"
        }
      ],
      "name": "bondingCurveAddress",
      "outputs": [
        {
          "internalType": "address",
          "name": "",
          "type": "address"
        }
      ],
      "stateMutability": "view",
      "type": "function"
    },
    {
      "inputs": [
        {
          "internalType": "address",
          "name": "tokenAddress",
          "type": "address"
        },
        {
          "internalType": "uint256",
          "name": "tokenAmount",
          "type": "uint256"
        },
        {
          "internalType": "uint256",
          "name": "maxAssetAmount",
          "type": "uint256"
        },
        {
          "internalType": "uint256",
          "name": "deadline",
          "type": "uint256"
        }
      ],
      "name": "buyTokens",
      "outputs": [
        {
          "internalType": "uint256",
          "name": "tokensReceived",
          "type": "uint256"
        }
      ],
      "stateMutability": "nonpayable",
      "type": "function"
    },
    {
      "inputs": [
        {
          "internalType": "address",
          "name": "tokenAddress",
          "type": "address"
        },
        {
          "internalType": "uint256",
          "name": "tokenAmount",
          "type": "uint256"
        }
      ],
      "name": "calculateBuyPrice",
      "outputs": [
        {
          "internalType": "uint256",
          "name": "assetAmount",
          "type": "uint256"
        }
      ],
      "stateMutability": "view",
      "type": "function"
    },
    {
      "inputs": [
        {
          "internalType": "address",
          "name": "tokenAddress",
          "type": "address"
        },
        {
          "internalType": "uint256",
          "name": "tokenAmount",
          "type": "uint256"
        }
      ],
      "name": "calculateSellProceeds",
      "outputs": [
        {
          "internalType": "uint256",
          "name": "assetAmount",
          "type": "uint256"
        }
      ],
      "stateMutability": "view",
      "type": "function"
    },
    {
      "inputs": [],
      "name": "factory",
      "outputs": [
        {
          "internalType": "contract StonkTokenFactory",
          "name": "",
          "type": "address"
        }
      ],
      "stateMutability": "view",
      "type": "function"
    },
    {
      "inputs": [
        {
          "internalType": "address",
          "name": "tokenAddress",
          "type": "address"
        }
      ],
      "name": "getBondingCurveAddress",
      "outputs": [
        {
          "internalType": "address",
          "name": "",
          "type": "address"
        }
      ],
      "stateMutability": "view",
      "type": "function"
    },
    {
      "inputs": [
        {
          "internalType": "address",
          "name": "tokenAddress",
          "type": "address"
        }
      ],
      "name": "getTokenTradingState",
      "outputs": [
        {
          "internalType": "bool",
          "name": "graduated",
          "type": "bool"
        },
        {
          "internalType": "address",
          "name": "bondingCurve",
          "type": "address"
        },
        {
          "internalType": "address",
          "name": "uniswapPair",
          "type": "address"
        }
      ],
      "stateMutability": "view",
      "type": "function"
    },
    {
      "inputs": [
        {
          "internalType": "address",
          "name": "tokenAddress",
          "type": "address"
        }
      ],
      "name": "isTokenGraduated",
      "outputs": [
        {
          "internalType": "bool",
          "name": "",
          "type": "bool"
        }
      ],
      "stateMutability": "view",
      "type": "function"
    },
    {
      "inputs": [],
      "name": "owner",
      "outputs": [
        {
          "internalType": "address",
          "name": "",
          "type": "address"
        }
      ],
      "stateMutability": "view",
      "type": "function"
    },
    {
      "inputs": [],
      "name": "pause",
      "outputs": [],
      "stateMutability": "nonpayable",
      "type": "function"
    },
    {
      "inputs": [],
      "name": "paused",
      "outputs": [
        {
          "internalType": "bool",
          "name": "",
          "type": "bool"
        }
      ],
      "stateMutability": "view",
      "type": "function"
    },
    {
      "inputs": [
        {
          "internalType": "address",
          "name": "tokenAddress",
          "type": "address"
        },
        {
          "internalType": "address",
          "name": "bondingCurveAddr",
          "type": "address"
        }
      ],
      "name": "registerToken",
      "outputs": [],
      "stateMutability": "nonpayable",
      "type": "function"
    },
    {
      "inputs": [],
      "name": "renounceOwnership",
      "outputs": [],
      "stateMutability": "nonpayable",
      "type": "function"
    },
    {
      "inputs": [
        {
          "internalType": "address",
          "name": "tokenAddress",
          "type": "address"
        },
        {
          "internalType": "uint256",
          "name": "tokenAmount",
          "type": "uint256"
        },
        {
          "internalType": "uint256",
          "name": "minAssetAmount",
          "type": "uint256"
        },
        {
          "internalType": "uint256",
          "name": "deadline",
          "type": "uint256"
        }
      ],
      "name": "sellTokens",
      "outputs": [
        {
          "internalType": "uint256",
          "name": "assetsReceived",
          "type": "uint256"
        }
      ],
      "stateMutability": "nonpayable",
      "type": "function"
    },
    {
      "inputs": [
        {
          "internalType": "address",
          "name": "newOwner",
          "type": "address"
        }
      ],
      "name": "transferOwnership",
      "outputs": [],
      "stateMutability": "nonpayable",
      "type": "function"
    },
    {
      "inputs": [],
      "name": "uniswapFactory",
      "outputs": [
        {
          "internalType": "contract IUniswapV2Factory",
          "name": "",
          "type": "address"
        }
      ],
      "stateMutability": "view",
      "type": "function"
    },
    {
      "inputs": [],
      "name": "uniswapRouter",
      "outputs": [
        {
          "internalType": "contract IUniswapV2Router02",
          "name": "",
          "type": "address"
        }
      ],
      "stateMutability": "view",
      "type": "function"
    },
    {
      "inputs": [],
      "name": "unpause",
      "outputs": [],
      "stateMutability": "nonpayable",
      "type": "function"
    }
  ],
  "bytecode": "0x6080346200012a57601f620015d838819003918201601f19168301916001600160401b038311848410176200012f578084926080946040528339810103126200012a576200004d8162000145565b906200005c6020820162000145565b620000786060620000706040850162000145565b930162000145565b331562000111576000549360018060a01b03199333858716176000556040519560018060a01b03948580948193823391167f8be0079c531659141344cd1fd0a4f28419497f9722a3daafe3b4186f6b6457e0600080a3600180551687600254161760025516856003541617600355168360045416176004551690600554161760055560ff196007541660075561147d90816200015b8239f35b604051631e4fbdf760e01b815260006004820152602490fd5b600080fd5b634e487b7160e01b600052604160045260246000fd5b51906001600160a01b03821682036200012a5756fe6080604081815260048036101561001557600080fd5b600092833560e01c9081631083f76114610ea5575080631a68d17014610d455780631ecbbfe114610187578063388e8fd214610d165780633a12c26814610c2b5780633e903b83146109095780633f4ba83a146108be5780634739f7e51461082e5780635c975abb1461080a578063715018a6146107b0578063735de9f7146107875780638456cb59146107395780638bdb2afa146107125780638da5cb5b146106ea5780638fd0b051146103885780639e52270b146101ef578063c45a0155146101c6578063e1ff8abb146101875763f2fde38b146100f457600080fd5b346101835760203660031901126101835761010d610eca565b90610116610f0e565b6001600160a01b0391821692831561016d575050600054826bffffffffffffffffffffffff60a01b821617600055167f8be0079c531659141344cd1fd0a4f28419497f9722a3daafe3b4186f6b6457e0600080a380f35b51631e4fbdf760e01b8152908101849052602490fd5b8280fd5b5050346101c25760203660031901126101c2576020916001600160a01b03908290826101b1610eca565b168152600685522054169051908152f35b5080fd5b5050346101c257816003193601126101c25760025490516001600160a01b039091168152602090f35b5034610183578160031936011261018357610208610eca565b90602435610215836113cf565b156102e35791849161028a9385519261022d84610f87565b60028452863660208601376005546001600160a01b039190821661025086610fc5565b528161025b86610fe8565b9116905260035416918651958694859384936307c0329d60e21b85528401528860248401526044830190611074565b03915afa9081156102d757906102ab9184602095926102b4575b5050610fc5565b51905b51908152f35b6102d092503d8091833e6102c88183610fa3565b810190610ff8565b38806102a4565b505051903d90823e3d90fd5b6001600160a01b039283168552600660205283852054909216939190841561037a579060246020928551968793849263145f101960e01b84528301525afa90811561036f5790610338575b60209250906102ae565b506020823d8211610367575b8161035160209383610fa3565b81010312610362576020915161032e565b600080fd5b3d9150610344565b8251903d90823e3d90fd5b8351630cbdb7b360e41b8152fd5b509190346101c25761039936610ee0565b949092916103a5610f3a565b60ff600754166106da574286106106ca5780156106ba576103c5836113cf565b156105c65784516103d581610f87565b600281526020968636898401376005546001600160a01b03939061041a90889086168061040187610fc5565b528661040c87610fe8565b9916809952309033906110d0565b600554600354895163095ea7b360e01b81529086166001600160a01b03168c8201908152602081018a905290918b91839188169082908a90829060400103925af180156105bc579786809695938c839a9996948f9c61058e575b505061049b8760035416948d519c8d9788968795634401edf760e11b8752339387016111ab565b03925af1948515610584578295610568575b506104c16104ba86610fe8565b5195610fc5565b51908185039185831161055557602099508503610515575b5050839585519384528301527fa189a0f1a3407cd1b0e4e1c9cc4c01478b3a72ab777414e94cf32d6930d9926d843393a45b6001805551908152f35b600554875163a9059cbb60e01b8a82015233602482015260448082019490945292835261054e929116610549606483610fa3565b61112b565b38806104d9565b634e487b7160e01b845260118a52602484fd5b61057d9195503d8084833e6102c88183610fa3565b93386104ad565b86513d84823e3d90fd5b816105ad92903d106105b5575b6105a58183610fa3565b810190611193565b508c38610474565b503d61059b565b89513d88823e3d90fd5b6001600160a01b0380841680845260066020528684205494989097509194938116919082156106ab578483610600926005541633906110d0565b813b1561018357855163d2395dcd60e01b815233918101918252602082018690526040820185905291839183919082908490829060600103925af180156106a15761068a575b50506106536020956111e4565b819383519182526001868301527fa189a0f1a3407cd1b0e4e1c9cc4c01478b3a72ab777414e94cf32d6930d9926d843393a461050b565b6106948291610f5d565b61069e5780610646565b80fd5b85513d84823e3d90fd5b508551630cbdb7b360e41b8152fd5b845163162908e360e11b81528790fd5b845163387b2e5560e11b81528790fd5b845163ab35696f60e01b81528790fd5b5050346101c257816003193601126101c257905490516001600160a01b039091168152602090f35b50346101835782600319360112610183575490516001600160a01b03909116815260209150f35b833461069e578060031936011261069e57610752610f0e565b600160ff196007541617600755337f674ad97e2b9b3896f06036c10c99d1781b1ed61ef687b6003eac1418c7d565c48280a280f35b5050346101c257816003193601126101c25760035490516001600160a01b039091168152602090f35b833461069e578060031936011261069e576107c9610f0e565b600080546001600160a01b0319811682556001600160a01b03167f8be0079c531659141344cd1fd0a4f28419497f9722a3daafe3b4186f6b6457e08280a380f35b5050346101c257816003193601126101c25760209060ff6007541690519015158152f35b509034610183578060031936011261018357610848610eca565b6024356001600160a01b038181169490929185900361036257826002541633036108b0575016808452600660205290832080546001600160a01b031916831790557f487c37289624c10056468f1f98ebffbad01edce11374975179672e32e2543bf08380a380f35b8351630636a15760e11b8152fd5b833461069e578060031936011261069e576108d7610f0e565b60ff1960075416600755337f926cb4ef9e25dcd7d899f15f60469adf044af85226fcb1ec2127fd26a91ff4968280a280f35b5090346101835761091936610ee0565b91929490610925610f3a565b60ff60075416610c1c57428310610c0d578315610bfe57610945866113cf565b15610aa357908691855161095881610f87565b600281528636602083013761096c81610fc5565b6001600160a01b0398891690819052600554909890811661098c83610fe8565b526109998730338c6110d0565b600354885163095ea7b360e01b81529082166001600160a01b031685820190815260208082018a90529082906040908290030181898e5af180156105bc5790869291610a85575b506003541692610a068951978896879586946338ed173960e01b86528c339387016111ab565b03925af1908115610a7b578591610a269160209791610a61575b50610fe8565b5193835191858352868301527fe753f7cbd77e3aa8c124e53af2291d11a7808bd8fc5af4eac4002ac6dbf4b420843393a46001805551908152f35b610a7591503d8085833e6102c88183610fa3565b38610a20565b83513d87823e3d90fd5b610a9c9060203d81116105b5576105a58183610fa3565b50386109e0565b9495915060018060a01b03908187169182845260209660068852818786205416908115610bee57610ad6878333886110d0565b813b15610bea578751637272bdcf60e11b81523385820190815260208101899052604081019290925291869183919082908490829060600103925af18015610be05790889291610bcd575b50600554169160248751809481936370a0823160e01b835233908301525afa928315610bc25792610b8f575b50610b596020966111e4565b6001829585519384528301527fe753f7cbd77e3aa8c124e53af2291d11a7808bd8fc5af4eac4002ac6dbf4b420843393a461050b565b9591508486813d8311610bbb575b610ba78183610fa3565b810103126103625794519094610b59610b4d565b503d610b9d565b8551903d90823e3d90fd5b610bd990959195610f5d565b9338610b21565b87513d87823e3d90fd5b8580fd5b8751630cbdb7b360e41b81528490fd5b50835163162908e360e11b8152fd5b50835163387b2e5560e11b8152fd5b50835163ab35696f60e01b8152fd5b509190346101c2576020918260031936011261069e57610c49610eca565b610c52816113cf565b93829185610c89575b6001600160a01b03908116845260068252928490205484519515158652831690850152169082015260609150f35b8654600554865163e6a4390560e01b81526001600160a01b038481169a82019a8b5291821660208b0152989294508392899290839003604001918391165afa8015610d0c576060968491610cdf575b5091610c5b565b610cff9150823d8411610d05575b610cf78183610fa3565b8101906110b1565b38610cd8565b503d610ced565b84513d85823e3d90fd5b5050346101c25760203660031901126101c257602090610d3c610d37610eca565b6113cf565b90519015158152f35b503461018357816003193601126101835782610d5f610eca565b602435610d6b826113cf565b15610e185792610ddc93855192610d8184610f87565b6002845286366020860137610d9584610fc5565b6001600160a01b0391821690526005548116610db085610fe8565b52600354169186519586948593849363d06ca61f60e01b85528401528860248401526044830190611074565b03915afa9081156102d757906102ab918460209592610dfd575b5050610fe8565b610e1192503d8091833e6102c88183610fa3565b3880610df6565b6001600160a01b03918216865260066020528486205490911692909150821561037a5790602460209285519485938492630422e87d60e01b84528301525afa9081156102d7578391610e70575b5060209250906102ae565b90506020813d8211610e9d575b81610e8a60209383610fa3565b8101031261018357602092505138610e65565b3d9150610e7d565b8490346101c257816003193601126101c2576005546001600160a01b03168152602090f35b600435906001600160a01b038216820361036257565b6080906003190112610362576004356001600160a01b03811681036103625790602435906044359060643590565b6000546001600160a01b03163303610f2257565b60405163118cdaa760e01b8152336004820152602490fd5b600260015414610f4b576002600155565b604051633ee5aeb560e01b8152600490fd5b67ffffffffffffffff8111610f7157604052565b634e487b7160e01b600052604160045260246000fd5b6060810190811067ffffffffffffffff821117610f7157604052565b90601f8019910116810190811067ffffffffffffffff821117610f7157604052565b805115610fd25760200190565b634e487b7160e01b600052603260045260246000fd5b805160011015610fd25760400190565b90602090818382031261036257825167ffffffffffffffff93848211610362570181601f82011215610362578051938411610f71578360051b906040519461104285840187610fa3565b85528380860192820101928311610362578301905b828210611065575050505090565b81518152908301908301611057565b90815180825260208080930193019160005b828110611094575050505090565b83516001600160a01b031685529381019392810192600101611086565b9081602091031261036257516001600160a01b03811681036103625790565b6040516323b872dd60e01b60208201526001600160a01b03928316602482015292909116604483015260648083019390935291815260a081019181831067ffffffffffffffff841117610f71576111299260405261112b565b565b906000602091828151910182855af115611187576000513d61117e57506001600160a01b0381163b155b61115c5750565b604051635274afe760e01b81526001600160a01b039091166004820152602490fd5b60011415611155565b6040513d6000823e3d90fd5b90816020910312610362575180151581036103625790565b91926080936111d092979695978452602084015260a0604084015260a0830190611074565b6001600160a01b0390951660608201520152565b9060018060a01b0380831660008181526020926006845260409181838220541680156113be5785600491855192838092630cad026760e01b82525afa9081156113b4578291611397575b5061123d575b50505050509050565b60048054600554855163e6a4390560e01b81526001600160a01b038b811694820194909452908516928316602482015292919084168784604481845afa93841561138d57839461136e575b50848416156112d1575b50507f5d5e32a9db9d7b2e8a648cbabb24e8b703a4581f3c2a8d7a888671cedc308ccf94959697508351968188528701521693a3803880808080611234565b85516364e329cb60e11b81526001600160a01b039a8b1660048201529190991660248201529790915085908890604490829085905af18015611362577f5d5e32a9db9d7b2e8a648cbabb24e8b703a4581f3c2a8d7a888671cedc308ccf949596978291611345575b50908796959438611292565b61135c9150873d8911610d0557610cf78183610fa3565b38611339565b508251903d90823e3d90fd5b611386919450883d8a11610d0557610cf78183610fa3565b9238611288565b86513d85823e3d90fd5b6113ae9150863d88116105b5576105a58183610fa3565b3861122e565b84513d84823e3d90fd5b8351630cbdb7b360e41b8152600490fd5b6001600160a01b0390811660009081526006602052604090205416801561143557602060049160405192838092630cad026760e01b82525afa9081156111875760009161141a575090565b611432915060203d81116105b5576105a58183610fa3565b90565b604051630cbdb7b360e41b8152600490fdfea264697066735822122005fb25c07797ab240c4569b500736ad8d4e902d40479574c9c1fed314a0bd80164736f6c63430008140033",
  "linkReferences": {},
  "deployedLinkReferences": {}
}