{
  "_format": "hh-sol-artifact-1",
  "contractName": "StonkTradingRouter",
  "sourceName": "contracts/StonkTradingRouter.sol",
  "abi": [
    {
      "inputs": [
        {
          "internalType": "address",
          "name": "_factory",
          "type": "address"
        },
        {
          "internalType": "address",
          "name": "_uniswapRouter",
          "type": "address"
        },
        {
          "internalType": "address",
          "name": "_uniswapFactory",
          "type": "address"
        },
        {
          "internalType": "address",
          "name": "_assetToken",
          "type": "address"
        }
      ],
      "stateMutability": "nonpayable",
      "type": "constructor"
    },
    {
      "inputs": [],
      "name": "AlreadyGraduated",
      "type": "error"
    },
    {
      "inputs": [],
      "name": "AssetNotWETH",
      "type": "error"
    },
    {
      "inputs": [],
      "name": "ContractPaused",
      "type": "error"
    },
    {
      "inputs": [],
      "name": "DeadlinePassed",
      "type": "error"
    },
    {
      "inputs": [],
      "name": "ETHTransferFailed",
      "type": "error"
    },
    {
      "inputs": [],
      "name": "InvalidAmount",
      "type": "error"
    },
    {
      "inputs": [],
      "name": "NotGraduated",
      "type": "error"
    },
    {
      "inputs": [],
      "name": "OnlyFactory",
      "type": "error"
    },
    {
      "inputs": [
        {
          "internalType": "address",
          "name": "owner",
          "type": "address"
        }
      ],
      "name": "OwnableInvalidOwner",
      "type": "error"
    },
    {
      "inputs": [
        {
          "internalType": "address",
          "name": "account",
          "type": "address"
        }
      ],
      "name": "OwnableUnauthorizedAccount",
      "type": "error"
    },
    {
      "inputs": [],
      "name": "ReentrancyGuardReentrantCall",
      "type": "error"
    },
    {
      "inputs": [
        {
          "internalType": "address",
          "name": "token",
          "type": "address"
        }
      ],
      "name": "SafeERC20FailedOperation",
      "type": "error"
    },
    {
      "inputs": [],
      "name": "SlippageTooHigh",
      "type": "error"
    },
    {
      "inputs": [],
      "name": "TokenAlreadyRegistered",
      "type": "error"
    },
    {
      "inputs": [],
      "name": "TokenNotFound",
      "type": "error"
    },
    {
      "inputs": [],
      "name": "ZeroAddress",
      "type": "error"
    },
    {
      "anonymous": false,
      "inputs": [
        {
          "indexed": true,
          "internalType": "address",
          "name": "oldAsset",
          "type": "address"
        },
        {
          "indexed": true,
          "internalType": "address",
          "name": "newAsset",
          "type": "address"
        }
      ],
      "name": "AssetTokenUpdated",
      "type": "event"
    },
    {
      "anonymous": false,
      "inputs": [
        {
          "indexed": true,
          "internalType": "address",
          "name": "oldFactory",
          "type": "address"
        },
        {
          "indexed": true,
          "internalType": "address",
          "name": "newFactory",
          "type": "address"
        }
      ],
      "name": "FactoryUpdated",
      "type": "event"
    },
    {
      "anonymous": false,
      "inputs": [
        {
          "indexed": true,
          "internalType": "address",
          "name": "previousOwner",
          "type": "address"
        },
        {
          "indexed": true,
          "internalType": "address",
          "name": "newOwner",
          "type": "address"
        }
      ],
      "name": "OwnershipTransferred",
      "type": "event"
    },
    {
      "anonymous": false,
      "inputs": [
        {
          "indexed": true,
          "internalType": "address",
          "name": "by",
          "type": "address"
        },
        {
          "indexed": false,
          "internalType": "uint256",
          "name": "timestamp",
          "type": "uint256"
        }
      ],
      "name": "RouterPaused",
      "type": "event"
    },
    {
      "anonymous": false,
      "inputs": [
        {
          "indexed": true,
          "internalType": "address",
          "name": "by",
          "type": "address"
        },
        {
          "indexed": false,
          "internalType": "uint256",
          "name": "timestamp",
          "type": "uint256"
        }
      ],
      "name": "RouterUnpaused",
      "type": "event"
    },
    {
      "anonymous": false,
      "inputs": [
        {
          "indexed": true,
          "internalType": "address",
          "name": "tokenAddress",
          "type": "address"
        },
        {
          "indexed": true,
          "internalType": "address",
          "name": "uniswapPair",
          "type": "address"
        },
        {
          "indexed": false,
          "internalType": "uint256",
          "name": "tokenBalance",
          "type": "uint256"
        },
        {
          "indexed": false,
          "internalType": "uint256",
          "name": "assetBalance",
          "type": "uint256"
        },
        {
          "indexed": false,
          "internalType": "uint256",
          "name": "timestamp",
          "type": "uint256"
        }
      ],
      "name": "TokenGraduated",
      "type": "event"
    },
    {
      "anonymous": false,
      "inputs": [
        {
          "indexed": true,
          "internalType": "address",
          "name": "tokenAddress",
          "type": "address"
        },
        {
          "indexed": true,
          "internalType": "address",
          "name": "bondingCurveAddress",
          "type": "address"
        },
        {
          "indexed": false,
          "internalType": "uint256",
          "name": "timestamp",
          "type": "uint256"
        }
      ],
      "name": "TokenRegistered",
      "type": "event"
    },
    {
      "anonymous": false,
      "inputs": [
        {
          "indexed": true,
          "internalType": "address",
          "name": "tokenAddress",
          "type": "address"
        },
        {
          "indexed": true,
          "internalType": "address",
          "name": "buyer",
          "type": "address"
        },
        {
          "indexed": false,
          "internalType": "uint256",
          "name": "tokenAmount",
          "type": "uint256"
        },
        {
          "indexed": false,
          "internalType": "uint256",
          "name": "assetAmount",
          "type": "uint256"
        },
        {
          "indexed": false,
          "internalType": "uint256",
          "name": "fee",
          "type": "uint256"
        },
        {
          "indexed": false,
          "internalType": "bool",
          "name": "isBondingCurve",
          "type": "bool"
        },
        {
          "indexed": false,
          "internalType": "uint256",
          "name": "timestamp",
          "type": "uint256"
        }
      ],
      "name": "TokensPurchased",
      "type": "event"
    },
    {
      "anonymous": false,
      "inputs": [
        {
          "indexed": true,
          "internalType": "address",
          "name": "tokenAddress",
          "type": "address"
        },
        {
          "indexed": true,
          "internalType": "address",
          "name": "seller",
          "type": "address"
        },
        {
          "indexed": false,
          "internalType": "uint256",
          "name": "tokenAmount",
          "type": "uint256"
        },
        {
          "indexed": false,
          "internalType": "uint256",
          "name": "assetAmount",
          "type": "uint256"
        },
        {
          "indexed": false,
          "internalType": "uint256",
          "name": "fee",
          "type": "uint256"
        },
        {
          "indexed": false,
          "internalType": "bool",
          "name": "isBondingCurve",
          "type": "bool"
        },
        {
          "indexed": false,
          "internalType": "uint256",
          "name": "timestamp",
          "type": "uint256"
        }
      ],
      "name": "TokensSold",
      "type": "event"
    },
    {
      "anonymous": false,
      "inputs": [
        {
          "indexed": true,
          "internalType": "address",
          "name": "oldFactory",
          "type": "address"
        },
        {
          "indexed": true,
          "internalType": "address",
          "name": "newFactory",
          "type": "address"
        }
      ],
      "name": "UniswapFactoryUpdated",
      "type": "event"
    },
    {
      "anonymous": false,
      "inputs": [
        {
          "indexed": true,
          "internalType": "address",
          "name": "oldRouter",
          "type": "address"
        },
        {
          "indexed": true,
          "internalType": "address",
          "name": "newRouter",
          "type": "address"
        }
      ],
      "name": "UniswapRouterUpdated",
      "type": "event"
    },
    {
      "inputs": [],
      "name": "assetToken",
      "outputs": [
        {
          "internalType": "contract IERC20",
          "name": "",
          "type": "address"
        }
      ],
      "stateMutability": "view",
      "type": "function"
    },
    {
      "inputs": [
        {
          "internalType": "address",
          "name": "",
          "type": "address"
        }
      ],
      "name": "bondingCurveAddress",
      "outputs": [
        {
          "internalType": "address",
          "name": "",
          "type": "address"
        }
      ],
      "stateMutability": "view",
      "type": "function"
    },
    {
      "inputs": [
        {
          "internalType": "address",
          "name": "tokenAddress",
          "type": "address"
        },
        {
          "internalType": "uint256",
          "name": "maxAssetAmount",
          "type": "uint256"
        },
        {
          "internalType": "uint256",
          "name": "minTokenAmount",
          "type": "uint256"
        },
        {
          "internalType": "uint256",
          "name": "deadline",
          "type": "uint256"
        }
      ],
      "name": "buyTokens",
      "outputs": [
        {
          "internalType": "uint256",
          "name": "tokensReceived",
          "type": "uint256"
        }
      ],
      "stateMutability": "nonpayable",
      "type": "function"
    },
    {
      "inputs": [
        {
          "internalType": "address",
          "name": "tokenAddress",
          "type": "address"
        },
        {
          "internalType": "uint256",
          "name": "minTokenAmount",
          "type": "uint256"
        },
        {
          "internalType": "uint256",
          "name": "deadline",
          "type": "uint256"
        }
      ],
      "name": "buyTokensWithETH",
      "outputs": [
        {
          "internalType": "uint256",
          "name": "tokensReceived",
          "type": "uint256"
        }
      ],
      "stateMutability": "payable",
      "type": "function"
    },
    {
      "inputs": [
        {
          "internalType": "address",
          "name": "tokenAddress",
          "type": "address"
        },
        {
          "internalType": "uint256",
          "name": "maxAssetAmount",
          "type": "uint256"
        }
      ],
      "name": "calculateBuyPrice",
      "outputs": [
        {
          "internalType": "uint256",
          "name": "tokenAmount",
          "type": "uint256"
        }
      ],
      "stateMutability": "view",
      "type": "function"
    },
    {
      "inputs": [
        {
          "internalType": "address",
          "name": "tokenAddress",
          "type": "address"
        },
        {
          "internalType": "uint256",
          "name": "maxAssetAmount",
          "type": "uint256"
        }
      ],
      "name": "calculateBuyWithFees",
      "outputs": [
        {
          "internalType": "uint256",
          "name": "tokenAmount",
          "type": "uint256"
        },
        {
          "internalType": "uint256",
          "name": "assetAmount",
          "type": "uint256"
        },
        {
          "internalType": "uint256",
          "name": "fee",
          "type": "uint256"
        },
        {
          "internalType": "bool",
          "name": "isBondingCurve",
          "type": "bool"
        }
      ],
      "stateMutability": "view",
      "type": "function"
    },
    {
      "inputs": [
        {
          "internalType": "address",
          "name": "tokenAddress",
          "type": "address"
        },
        {
          "internalType": "uint256",
          "name": "tokenAmount",
          "type": "uint256"
        }
      ],
      "name": "calculateSellProceeds",
      "outputs": [
        {
          "internalType": "uint256",
          "name": "assetAmount",
          "type": "uint256"
        }
      ],
      "stateMutability": "view",
      "type": "function"
    },
    {
      "inputs": [
        {
          "internalType": "address",
          "name": "tokenAddress",
          "type": "address"
        },
        {
          "internalType": "uint256",
          "name": "tokenAmount",
          "type": "uint256"
        }
      ],
      "name": "calculateSellWithFees",
      "outputs": [
        {
          "internalType": "uint256",
          "name": "assetAmount",
          "type": "uint256"
        },
        {
          "internalType": "uint256",
          "name": "fee",
          "type": "uint256"
        },
        {
          "internalType": "bool",
          "name": "isBondingCurve",
          "type": "bool"
        }
      ],
      "stateMutability": "view",
      "type": "function"
    },
    {
      "inputs": [],
      "name": "factory",
      "outputs": [
        {
          "internalType": "contract StonkTokenFactory",
          "name": "",
          "type": "address"
        }
      ],
      "stateMutability": "view",
      "type": "function"
    },
    {
      "inputs": [],
      "name": "getAllRegisteredTokens",
      "outputs": [
        {
          "internalType": "address[]",
          "name": "",
          "type": "address[]"
        }
      ],
      "stateMutability": "view",
      "type": "function"
    },
    {
      "inputs": [
        {
          "internalType": "address",
          "name": "tokenAddress",
          "type": "address"
        }
      ],
      "name": "getBondingCurveAddress",
      "outputs": [
        {
          "internalType": "address",
          "name": "",
          "type": "address"
        }
      ],
      "stateMutability": "view",
      "type": "function"
    },
    {
      "inputs": [
        {
          "internalType": "address",
          "name": "",
          "type": "address"
        }
      ],
      "name": "getERC20Metadata",
      "outputs": [
        {
          "internalType": "string",
          "name": "name",
          "type": "string"
        },
        {
          "internalType": "string",
          "name": "symbol",
          "type": "string"
        },
        {
          "internalType": "uint8",
          "name": "decimals",
          "type": "uint8"
        }
      ],
      "stateMutability": "pure",
      "type": "function"
    },
    {
      "inputs": [
        {
          "internalType": "address",
          "name": "tokenAddress",
          "type": "address"
        }
      ],
      "name": "getFeeInfo",
      "outputs": [
        {
          "internalType": "uint256",
          "name": "feeBasisPoints",
          "type": "uint256"
        },
        {
          "internalType": "address",
          "name": "treasury",
          "type": "address"
        }
      ],
      "stateMutability": "view",
      "type": "function"
    },
    {
      "inputs": [],
      "name": "getRegisteredTokensCount",
      "outputs": [
        {
          "internalType": "uint256",
          "name": "",
          "type": "uint256"
        }
      ],
      "stateMutability": "view",
      "type": "function"
    },
    {
      "inputs": [
        {
          "internalType": "address",
          "name": "tokenAddress",
          "type": "address"
        }
      ],
      "name": "getTokenDisplayInfo",
      "outputs": [
        {
          "internalType": "string",
          "name": "name",
          "type": "string"
        },
        {
          "internalType": "string",
          "name": "symbol",
          "type": "string"
        },
        {
          "internalType": "uint8",
          "name": "decimals",
          "type": "uint8"
        },
        {
          "internalType": "bool",
          "name": "graduated",
          "type": "bool"
        },
        {
          "internalType": "address",
          "name": "bondingCurve",
          "type": "address"
        },
        {
          "internalType": "address",
          "name": "uniswapPair",
          "type": "address"
        },
        {
          "internalType": "uint256",
          "name": "currentPrice",
          "type": "uint256"
        },
        {
          "internalType": "uint256",
          "name": "totalSupply",
          "type": "uint256"
        },
        {
          "internalType": "uint256",
          "name": "assetBalance",
          "type": "uint256"
        },
        {
          "internalType": "uint256",
          "name": "feeBasisPoints",
          "type": "uint256"
        },
        {
          "internalType": "address",
          "name": "treasury",
          "type": "address"
        }
      ],
      "stateMutability": "view",
      "type": "function"
    },
    {
      "inputs": [
        {
          "internalType": "address",
          "name": "tokenAddress",
          "type": "address"
        }
      ],
      "name": "getTokenTradingInfo",
      "outputs": [
        {
          "internalType": "bool",
          "name": "graduated",
          "type": "bool"
        },
        {
          "internalType": "address",
          "name": "bondingCurve",
          "type": "address"
        },
        {
          "internalType": "address",
          "name": "uniswapPair",
          "type": "address"
        },
        {
          "internalType": "uint256",
          "name": "currentPrice",
          "type": "uint256"
        },
        {
          "internalType": "uint256",
          "name": "totalSupply",
          "type": "uint256"
        },
        {
          "internalType": "uint256",
          "name": "assetBalance",
          "type": "uint256"
        }
      ],
      "stateMutability": "view",
      "type": "function"
    },
    {
      "inputs": [
        {
          "internalType": "address",
          "name": "tokenAddress",
          "type": "address"
        }
      ],
      "name": "getTokenTradingState",
      "outputs": [
        {
          "internalType": "bool",
          "name": "graduated",
          "type": "bool"
        },
        {
          "internalType": "address",
          "name": "bondingCurve",
          "type": "address"
        },
        {
          "internalType": "address",
          "name": "uniswapPair",
          "type": "address"
        }
      ],
      "stateMutability": "view",
      "type": "function"
    },
    {
      "inputs": [
        {
          "internalType": "address",
          "name": "tokenAddress",
          "type": "address"
        }
      ],
      "name": "isTokenGraduated",
      "outputs": [
        {
          "internalType": "bool",
          "name": "",
          "type": "bool"
        }
      ],
      "stateMutability": "view",
      "type": "function"
    },
    {
      "inputs": [
        {
          "internalType": "address",
          "name": "",
          "type": "address"
        }
      ],
      "name": "isTokenRegistered",
      "outputs": [
        {
          "internalType": "bool",
          "name": "",
          "type": "bool"
        }
      ],
      "stateMutability": "view",
      "type": "function"
    },
    {
      "inputs": [],
      "name": "owner",
      "outputs": [
        {
          "internalType": "address",
          "name": "",
          "type": "address"
        }
      ],
      "stateMutability": "view",
      "type": "function"
    },
    {
      "inputs": [],
      "name": "pause",
      "outputs": [],
      "stateMutability": "nonpayable",
      "type": "function"
    },
    {
      "inputs": [],
      "name": "paused",
      "outputs": [
        {
          "internalType": "bool",
          "name": "",
          "type": "bool"
        }
      ],
      "stateMutability": "view",
      "type": "function"
    },
    {
      "inputs": [
        {
          "internalType": "address",
          "name": "tokenAddress",
          "type": "address"
        },
        {
          "internalType": "address",
          "name": "bondingCurveAddr",
          "type": "address"
        }
      ],
      "name": "registerToken",
      "outputs": [],
      "stateMutability": "nonpayable",
      "type": "function"
    },
    {
      "inputs": [
        {
          "internalType": "uint256",
          "name": "",
          "type": "uint256"
        }
      ],
      "name": "registeredTokens",
      "outputs": [
        {
          "internalType": "address",
          "name": "",
          "type": "address"
        }
      ],
      "stateMutability": "view",
      "type": "function"
    },
    {
      "inputs": [],
      "name": "renounceOwnership",
      "outputs": [],
      "stateMutability": "nonpayable",
      "type": "function"
    },
    {
      "inputs": [
        {
          "internalType": "address",
          "name": "tokenAddress",
          "type": "address"
        },
        {
          "internalType": "uint256",
          "name": "tokenAmount",
          "type": "uint256"
        },
        {
          "internalType": "uint256",
          "name": "minAssetAmount",
          "type": "uint256"
        },
        {
          "internalType": "uint256",
          "name": "deadline",
          "type": "uint256"
        }
      ],
      "name": "sellTokens",
      "outputs": [
        {
          "internalType": "uint256",
          "name": "assetsReceived",
          "type": "uint256"
        }
      ],
      "stateMutability": "nonpayable",
      "type": "function"
    },
    {
      "inputs": [
        {
          "internalType": "address",
          "name": "tokenAddress",
          "type": "address"
        },
        {
          "internalType": "uint256",
          "name": "tokenAmount",
          "type": "uint256"
        },
        {
          "internalType": "uint256",
          "name": "minEthAmount",
          "type": "uint256"
        },
        {
          "internalType": "uint256",
          "name": "deadline",
          "type": "uint256"
        }
      ],
      "name": "sellTokensForETH",
      "outputs": [
        {
          "internalType": "uint256",
          "name": "ethReceived",
          "type": "uint256"
        }
      ],
      "stateMutability": "nonpayable",
      "type": "function"
    },
    {
      "inputs": [
        {
          "internalType": "address",
          "name": "_asset",
          "type": "address"
        }
      ],
      "name": "setAssetToken",
      "outputs": [],
      "stateMutability": "nonpayable",
      "type": "function"
    },
    {
      "inputs": [
        {
          "internalType": "address",
          "name": "_factory",
          "type": "address"
        }
      ],
      "name": "setFactory",
      "outputs": [],
      "stateMutability": "nonpayable",
      "type": "function"
    },
    {
      "inputs": [
        {
          "internalType": "address",
          "name": "_factory",
          "type": "address"
        }
      ],
      "name": "setUniswapFactory",
      "outputs": [],
      "stateMutability": "nonpayable",
      "type": "function"
    },
    {
      "inputs": [
        {
          "internalType": "address",
          "name": "_router",
          "type": "address"
        }
      ],
      "name": "setUniswapRouter",
      "outputs": [],
      "stateMutability": "nonpayable",
      "type": "function"
    },
    {
      "inputs": [
        {
          "internalType": "address",
          "name": "newOwner",
          "type": "address"
        }
      ],
      "name": "transferOwnership",
      "outputs": [],
      "stateMutability": "nonpayable",
      "type": "function"
    },
    {
      "inputs": [],
      "name": "uniswapFactory",
      "outputs": [
        {
          "internalType": "contract IUniswapV2Factory",
          "name": "",
          "type": "address"
        }
      ],
      "stateMutability": "view",
      "type": "function"
    },
    {
      "inputs": [],
      "name": "uniswapRouter",
      "outputs": [
        {
          "internalType": "contract IUniswapV2Router02",
          "name": "",
          "type": "address"
        }
      ],
      "stateMutability": "view",
      "type": "function"
    },
    {
      "inputs": [],
      "name": "unpause",
      "outputs": [],
      "stateMutability": "nonpayable",
      "type": "function"
    },
    {
      "stateMutability": "payable",
      "type": "receive"
    }
  ],
  "bytecode": "0x6080346200012a57601f62002d2138819003918201601f19168301916001600160401b038311848410176200012f578084926080946040528339810103126200012a576200004d8162000145565b906200005c6020820162000145565b620000786060620000706040850162000145565b930162000145565b331562000111576000549360018060a01b03199333858716176000556040519560018060a01b03948580948193823391167f8be0079c531659141344cd1fd0a4f28419497f9722a3daafe3b4186f6b6457e0600080a3600180551687600254161760025516856003541617600355168360045416176004551690600554161760055560ff1960095416600955612bc690816200015b8239f35b604051631e4fbdf760e01b815260006004820152602490fd5b600080fd5b634e487b7160e01b600052604160045260246000fd5b51906001600160a01b03821682036200012a5756fe608080604052600436101561001d575b50361561001b57600080fd5b005b600090813560e01c9081631083f761146123c1575080631a68d170146122f85780631ecbbfe1146104f257806326aa101f146122b957806326bde5aa14612248578063388e8fd21461221a5780633a12c268146121375780633e903b8314611e7a5780633f4ba83a14611e285780634739f7e514611d025780635bb4780814611c915780635c975abb14611c6e5780636dfb526214611c50578063715018a614611bf6578063735de9f714611bcd5780637439459b14611b945780638456cb5914611b3f5780638bdb2afa14611b165780638da5cb5b14611aef5780638fd0b051146117825780639a0ba2ea1461173e5780639adb0974146114515780639d53dcd0146113b95780639e52270b14611269578063ad90736014611069578063b3e9e15214610ec7578063bea9849e14610e56578063bed530a7146109e0578063c45a0155146109b7578063cb31659c146105b1578063e04b677f1461052e578063e1ff8abb146104f2578063f2fde38b14610467578063fa278ed9146103f95763fa57ef2f0361000f57346102a1576020806003193601126103f5576101c16123e6565b906101cb82612aed565b6001600160a01b038084168086526006845260408620549294869485948594939192908416918589156102b75750506004805460055460405163e6a4390560e01b81526001600160a01b039485169381019390935286169092166024820152989083908a90604490829088165afa9081156102ab578091610270575b5060c09850915b60405197151588528701521660408501526060840152608083015260a0820152f35b90508289813d83116102a4575b610287818361258a565b810103126102a1575061029b60c0986125ac565b38610247565b80fd5b503d61027d565b604051903d90823e3d90fd5b93915098826102cb575b5060c0985061024e565b6040516375c8e9bf60e11b815299828b600481875afa8083916103c5575b60049c506103bd575b5082906040519b8c80926318160ddd60e01b82525afa80829161038d575b60249b50610385575b508185600554166040519b8c80926370a0823160e01b82528760048301525afa80610350575b60c09a50156102c1579650386102c1565b9050818a813d831161037e575b610367818361258a565b810103126103795760c099519061033f565b600080fd5b503d61035d565b965038610319565b9050828b813d83116103b6575b6103a4818361258a565b810103126103795760249a5190610310565b503d61039a565b9650826102f2565b9050838c813d83116103ee575b6103dc818361258a565b810103126103795760049b51906102e9565b503d6103d2565b5080fd5b50346102a15760203660031901126102a15761044e906104176123e6565b5061045c604051916104288361256e565b808352604051906104388261256e565b81526040519384936060855260608501906124d7565b9083820360208501526124d7565b601260408301520390f35b50346102a15760203660031901126102a1576104816123e6565b6104896124fc565b6001600160a01b039081169081156104d957600054826001600160601b0360a01b821617600055167f8be0079c531659141344cd1fd0a4f28419497f9722a3daafe3b4186f6b6457e0600080a380f35b604051631e4fbdf760e01b815260048101849052602490fd5b50346102a15760203660031901126102a1576020906001600160a01b03906040908261051c6123e6565b16815260068452205416604051908152f35b50346102a15760203660031901126102a1576105486123e6565b6105506124fc565b6001600160a01b0390811690811561059f57600454826001600160601b0360a01b821617600455167f3f0919e87161339285575950372e04371730e6f01153cd67e6dc6eb40ad7232f8380a380f35b60405163d92e233d60e01b8152600490fd5b50346102a15760203660031901126102a1576105cb6123e6565b60405163fa278ed960e01b81526001600160a01b0382166004820152908282602481305afa838185948693610938575b5061093057505090506040516106108161256e565b828152906040516106208161256e565b8381526012915b61063081612aed565b6001600160a01b0382811687526006602052604087205487948594859485948594169184821561076257506004805460055460405163e6a4390560e01b81526001600160a01b039485169381019390935283166024830152909160209183916044918391165afa9b8c156102ab57809c61071d575b505060ff6106d56106c79c945b6040519d8e9d8e6101609081815201906124d7565b8d810360208f0152906124d7565b991660408b0152151560608a0152608089015260018060a01b031660a088015260c087015260e086015261010085015261012084015260018060a01b03166101408301520390f35b909b5060208c3d60201161075a575b816107396020938361258a565b810103126102a1575060ff6106d56107536106c79d6125ac565b9c506106a5565b3d915061072c565b93909b8361077c575b506106c79b506106d560ff916106b2565b6040516375c8e9bf60e11b81529c60208e600481885afa8083916108ff575b60049f506108f6575b506040516318160ddd60e01b81529d6020918f919082906001600160a01b03165afa8082916108c5575b60249e506108bd575b506005546040516370a0823160e01b8152600481018690529d6020918f919082906001600160a01b03165afa80829161088b575b6106c79e50610883575b50604080516202eab760e01b8152919082600481885afa80928293610850575b50610841575b5061076b565b90995097506106d560ff61083b565b909250610875915060403d60401161087c575b61086d818361258a565b8101906127a6565b9138610835565b503d610863565b975038610815565b905060208e813d83116108b6575b6108a3818361258a565b81010312610379576106c79d519061080b565b503d610899565b9650386107d7565b905060208e813d83116108ef575b6108dd818361258a565b810103126103795760249d51906107ce565b503d6108d3565b965060206107a4565b905060208f813d8311610929575b610917818361258a565b810103126103795760049e519061079b565b503d61090d565b929091610627565b94509150503d8085853e61094c818561258a565b8301926060818503126109b35780519367ffffffffffffffff948581116109af578161097991840161285c565b9460208301519081116109af5760409161099491840161285c565b9101519360ff851685036109ab57909391386105fb565b8580fd5b8680fd5b8480fd5b50346102a157806003193601126102a1576002546040516001600160a01b039091168152602090f35b50346102a1576109ef366123fc565b906109f8612659565b60ff60095416610e4457428210610e32578215610e2057610a1884612aed565b15610c1657600491859160405190610a2f82612552565b60028252602060403682850137610a45836125c0565b9760018060a01b03809116809952818160035416604051988980926315ab88c960e31b82525afa8015610bd5578690610be0575b610ace975081610a88866125cd565b91169052610a988830338c6126cd565b60035460405163095ea7b360e01b81529082166001600160a01b0316600482015260248101899052968290889081906044820190565b0381898d5af1918215610bd557610b0d978793610ba7575b50506003541692604051968795869485936318cbafe560e01b855233918c60048701612694565b03925af1908115610b9c5790610b2e918560209692610b79575b50506125cd565b51604080519283526020830182905260009083018190526060830152426080830152913391600080516020612b71833981519152908060a081015b0390a35b60018055604051908152f35b610b9592503d8091833e610b8d818361258a565b8101906125dd565b3880610b27565b6040513d86823e3d90fd5b81610bc692903d10610bce575b610bbe818361258a565b81019061267c565b503880610ae6565b503d610bb4565b6040513d88823e3d90fd5b508187813d8311610c0f575b610bf6818361258a565b810103126109ab57610c0a610ace976125ac565b610a79565b503d610bec565b905060018060a0959394951b0380851680845260209260068452826040862054168015610e0e5783600554166004868660035416604051928380926315ab88c960e31b82525afa908115610e03579086918991610dc7575b501603610db55786610c87610cbc9883889633906126cd565b604051637272bdcf60e11b81523060048201526024810191909152604481019290925290958691908290879082906064820190565b03925af1938415610d77578394610d86575b5060055416803b15610d8257828091602460405180948193632e1a7d4d60e01b83528960048401525af18015610d7757908391610d63575b5080808086335af1913d15610d5c573d91610d2083612840565b92610d2e604051948561258a565b83523d92013e5b15610d4a57610d4560209261289e565b610b6d565b60405163b12d13eb60e01b8152600490fd5b5050610d35565b610d6c90612528565b6103f5578138610d06565b6040513d85823e3d90fd5b8280fd5b9093508181813d8311610dae575b610d9e818361258a565b8101031261037957519238610cce565b503d610d94565b604051630b7113f760e31b8152600490fd5b809250888092503d8311610dfc575b610de0818361258a565b81010312610df857610df286916125ac565b38610c6e565b8780fd5b503d610dd6565b6040513d8a823e3d90fd5b604051630cbdb7b360e41b8152600490fd5b60405163162908e360e11b8152600490fd5b60405163387b2e5560e11b8152600490fd5b60405163ab35696f60e01b8152600490fd5b50346102a15760203660031901126102a157610e706123e6565b610e786124fc565b6001600160a01b0390811690811561059f57600354826001600160601b0360a01b821617600355167fe7295f605b21e8c0803de3b127af76ce45d81732d075acf86e5959e923605bdc8380a380f35b50346102a15760403660031901126102a157610ee16123e6565b6024359190819081610ef282612aed565b928315610fc257505082610f6f9160609560405191610f1083612552565b600283526040366020850137610f25836125c0565b6001600160a01b0391821690526005548116610f40846125cd565b52600354169060405180958194829363d06ca61f60e01b84526004840152604060248401526044830190612477565b03915afa839181610fa6575b50610f965750815b6040519283526020830152156040820152f35b610f9f906125cd565b5191610f83565b610fbb9192503d8086833e610b8d818361258a565b9038610f7b565b6001600160a01b039283168552600660205260408520549092169490939085610ff1575b505060609350610f83565b9093506040915060248251809681936320689fe560e01b835260048301525afa801561105e576060938391611029575b503880610fe6565b905061104e91925060403d604011611057575b611046818361258a565b810190612790565b91909138611021565b503d61103c565b6040513d84823e3d90fd5b50346102a15760403660031901126102a1576110836123e6565b60243591908190818061109583612aed565b938415611171575050509261111483608095604051906110b482612552565b6002825260403660208401376005546001600160a01b03919082166110d8846125c0565b52816110e3846125cd565b9116905260035416604051808095819463d06ca61f60e01b8352886004840152604060248401526044830190612477565b03915afa849181611155575b5061114257505081805b60405193845260208401526040830152156060820152f35b61114e909391936125cd565b519261112a565b61116a9192503d8087833e610b8d818361258a565b9038611120565b6001600160a01b0393841686526006602052604086205490931695919490929190866111a3575b50506080945061112a565b925093505060405192638b1dd58960e01b84526004840152602083602481875afa928315611229578193611236575b506040836024825180978193631bb5e99360e31b835260048301525afa8015611229576080948291611208575b50903880611198565b9050611223915060403d60401161105757611046818361258a565b386111ff565b50604051903d90823e3d90fd5b9092506020813d8211611261575b816112516020938361258a565b81010312610379575191386111d2565b3d9150611244565b50346102a15760403660031901126102a1576112836123e6565b906024359161129181612aed565b15611335579061130b918193604051916112aa83612552565b6002835260403660208501376005546001600160a01b03919082166112ce856125c0565b52816112d9856125cd565b91169052600354169060405180958194829363d06ca61f60e01b84526004840152604060248401526044830190612477565b03915afa90811561105e579061132b918360209492610b795750506125cd565b515b604051908152f35b6001600160a01b0390811682526006602052604082205416918215610e0e57602090602460405180958193638b1dd58960e01b835260048301525afa9081156102ab5790611387575b6020915061132d565b506020813d82116113b1575b816113a06020938361258a565b81010312610379576020905161137e565b3d9150611393565b50346102a157806003193601126102a157604051809182600754808452602080940190600784527fa66cc928b5edb82af9bd49922954155ab7b0942694bea4ce44661d9a8736c688935b858282106114325750505061141a9250038361258a565b61142e604051928284938452830190612477565b0390f35b85546001600160a01b0316845260019586019588955093019201611403565b5060603660031901126102a1576114666123e6565b604435602435611474612659565b60ff60095416610e4457428210610e32573415610e2057839061149684612aed565b156115df57604051906114a882612552565b6002825260403660208401376003546040516315ab88c960e31b8152926001600160a01b03918216929091602085600481875afa8015610bd55786906115a5575b6115349550816114f8856125c0565b91169052611505836125cd565b971680975260405195869485938493637ff36ab560e01b85526004850152608060248501526084840190612477565b903360448401526064830152039134905af1908115610d775790611562918460209592610b795750506125cd565b519060405190600080516020612b51833981519152339280610b694234888460809194939260a08201958252602082015260006040820152600060608201520152565b506020853d82116115d7575b816115be6020938361258a565b810103126109ab576115d2611534956125ac565b6114e9565b3d91506115b1565b6001600160a01b038481168652600660209081526040872054909450811692508215610e0e578060055416803b15610db55786813b156102a157604051630d0e30db60e41b8152918290600490829034905af1801561173357611711575b5060055460405163a9059cbb60e01b868201526001600160a01b038516602482015234604480830191909152815287959485946116bf949193909261168f9290911661168a60648361258a565b612728565b60405163d2395dcd60e01b8152336004820152346024820152604481019190915294859283919082906064820190565b03925af19384156102ab57936116de575b505090610d4560209261289e565b90809350813d831161170a575b6116f5818361258a565b8101031261037957610d4560209251926116d0565b503d6116eb565b9284939261168f976117276116bf949795612528565b9750925092939061163d565b6040513d89823e3d90fd5b50346102a15760203660031901126102a157600435906007548210156102a15760206117698361242a565b905460405160039290921b1c6001600160a01b03168152f35b50346102a157611791366123fc565b61179c929192612659565b60ff60095416610e4457428110610e32578115610e205784906117be85612aed565b156119215761185a9293604051906117d582612552565b6002825260403660208401376005546001600160a01b03906118189088908316806117ff876125c0565b528361180a876125cd565b9b16809b52309033906126cd565b60055460035460405163095ea7b360e01b81529083166001600160a01b0316600482015260248101899052966020918891908416908290899082906044820190565b03925af1908115611916576118969686926118f8575b506003541692604051968795869485936338ed173960e01b855233918c60048701612694565b03925af1908115610b9c57906118b6918560209692610b795750506125cd565b5191600080516020612b5183398151915260405180610b6933954290888460809194939260a08201958252602082015260006040820152600060608201520152565b61190f9060203d8111610bce57610bbe818361258a565b5038611870565b6040513d87823e3d90fd5b505060018060a01b03908184169081865260209360068552836040882054168015610e0e5761198f81899361195e868a958a6005541633906126cd565b60405163d2395dcd60e01b8152336004820152602481018790526044810191909152998a9283919082906064820190565b03925af1918215611229578192611abd575b602097506119ae8761289e565b6119b88397612aed565b918195819785151580611ab5575b611a12575b5050604080519485526020850196909652505092810193909352901560608301524260808301523391600080516020612b51833981519152908060a081015b0390a3610b6d565b60249398508297506006908760409452528187205416815192838092631bb5e99360e31b82528760048301525afa908186918793611a92575b50611a73575050611a0a600080516020612b518339815191529394915b9195949338806119cb565b611a0a919650600080516020612b518339815191529495509591611a68565b909250611aae915060403d60401161105757611046818361258a565b9138611a4b565b5084156119c6565b9150958481813d8311611ae8575b611ad5818361258a565b810103126109af579560209651916119a1565b503d611acb565b50346102a157806003193601126102a157546040516001600160a01b039091168152602090f35b50346102a157806003193601126102a1576004546040516001600160a01b039091168152602090f35b50346102a157806003193601126102a157611b586124fc565b600160ff1960095416176009556040514281527f786725cc28b379159ac609041d30797904a3bc3beda70ec73dffc6ad8768d60960203392a280f35b50346102a15760203660031901126102a1576040611bb8611bb36123e6565b6127c3565b82519182526001600160a01b03166020820152f35b50346102a157806003193601126102a1576003546040516001600160a01b039091168152602090f35b50346102a157806003193601126102a157611c0f6124fc565b80546001600160a01b03198116825581906001600160a01b03167f8be0079c531659141344cd1fd0a4f28419497f9722a3daafe3b4186f6b6457e08280a380f35b50346102a157806003193601126102a1576020600754604051908152f35b50346102a157806003193601126102a157602060ff600954166040519015158152f35b50346102a15760203660031901126102a157611cab6123e6565b611cb36124fc565b6001600160a01b0390811690811561059f57600254826001600160601b0360a01b821617600255167f333c7678baf16017cf31e1d2f90143a62aab01a67a0807f6836a4304ceabb5558380a380f35b50346102a15760403660031901126102a157611d1c6123e6565b6001600160a01b036024358181169290839003611e245781600254163303611e1257811690818452600860205260ff604085205416611e005781845260066020526040842080546001600160a01b0319168417905560075468010000000000000000811015611dec57806001611d95920160075561242a565b819291549060031b9184831b921b1916179055808352600860205260408320600160ff198254161790557ff8e444c42a5a7ea760a42d30d8fa8ccd8915208c2fb7dfe353501d7322d2e1326020604051428152a380f35b634e487b7160e01b85526041600452602485fd5b604051633ea7ffd960e11b8152600490fd5b604051630636a15760e11b8152600490fd5b8380fd5b50346102a157806003193601126102a157611e416124fc565b60ff19600954166009556040514281527fc6f88918b3d6174312d93d433873bebafd6cd3ff5aed6ed05dc3dd904b7af4a860203392a280f35b50346102a157611e89366123fc565b611e94929192612659565b60ff60095416610e4457428110610e32578115610e20578490611eb685612aed565b15611f8357611f46929360405190611ecd82612552565b600282526040366020840137611ee2826125c0565b6001600160a01b03978816908190526005549097908116611f02846125cd565b52611f0f8730338b6126cd565b60035460405163095ea7b360e01b81529082166001600160a01b031660048201526024810188905295602090879081906044820190565b0381888c5af190811561191657610b0d9686926118f857506003541692604051968795869485936338ed173960e01b855233918c60048701612694565b505060018060a01b03908184169081865260209060068252836040882054168015610e0e57611fec818997611fbb858795338a6126cd565b604051637272bdcf60e11b8152336004820152602481018690526044810191909152998a9283919082906064820190565b03925af18015611916578590612109575b6020975061200a8761289e565b6120148197612aed565b9581958197159485612066575b50506040805193845260208401969096525050928301939093529115156060820152426080820152339190600080516020612b71833981519152908060a08101611a0a565b602493985082975060069087604094525281872054168151928380926320689fe560e01b82528660048301525afa9081869187936120e6575b506120c7575050611a0a600080516020612b718339815191529394915b919594933880612021565b611a0a919650600080516020612b7183398151915294955095916120bc565b909250612102915060403d60401161105757611046818361258a565b913861209f565b508187813d8311612130575b61211f818361258a565b810103126109b35760209651611ffd565b503d612115565b50346102a1576020806003193601126103f5576121526123e6565b9161215c83612aed565b80928291612193575b606094604060018060a01b039485809316815260068452205416906040519415158552840152166040820152f35b6004805460055460405163e6a4390560e01b81526001600160a01b03898116948201949094529083166024820152969350829187916044918391165afa8015610d775783906121e5575b919450612165565b508085813d8311612213575b6121fb818361258a565b81010312610d825761220e6060956125ac565b6121dd565b503d6121f1565b50346102a15760203660031901126102a157602061223e6122396123e6565b612aed565b6040519015158152f35b50346102a15760203660031901126102a1576122626123e6565b61226a6124fc565b6001600160a01b0390811690811561059f57600554826001600160601b0360a01b821617600555167f50139ab9391115e25270f9b542e15fd1cea5174f8b012edd814aebc582061e1b8380a380f35b50346102a15760203660031901126102a15760209060ff906040906001600160a01b036122e46123e6565b168152600884522054166040519015158152f35b50346102a15760403660031901126102a1576123126123e6565b816024359161232081612aed565b156123365761130b9260405191610f1083612552565b6001600160a01b03908116845260066020526040842054169190508115610e0e57602090602460405180948193630422e87d60e01b835260048301525afa90811561105e57829161238c575b506020915061132d565b90506020813d82116123b9575b816123a66020938361258a565b810103126103f557602091505138612382565b3d9150612399565b9050346103f557816003193601126103f5576005546001600160a01b03168152602090f35b600435906001600160a01b038216820361037957565b6080906003190112610379576004356001600160a01b03811681036103795790602435906044359060643590565b6007548110156124615760076000527fa66cc928b5edb82af9bd49922954155ab7b0942694bea4ce44661d9a8736c6880190600090565b634e487b7160e01b600052603260045260246000fd5b90815180825260208080930193019160005b828110612497575050505090565b83516001600160a01b031685529381019392810192600101612489565b60005b8381106124c75750506000910152565b81810151838201526020016124b7565b906020916124f0815180928185528580860191016124b4565b601f01601f1916010190565b6000546001600160a01b0316330361251057565b60405163118cdaa760e01b8152336004820152602490fd5b67ffffffffffffffff811161253c57604052565b634e487b7160e01b600052604160045260246000fd5b6060810190811067ffffffffffffffff82111761253c57604052565b6020810190811067ffffffffffffffff82111761253c57604052565b90601f8019910116810190811067ffffffffffffffff82111761253c57604052565b51906001600160a01b038216820361037957565b8051156124615760200190565b8051600110156124615760400190565b90602090818382031261037957825167ffffffffffffffff93848211610379570181601f8201121561037957805193841161253c578360051b90604051946126278584018761258a565b85528380860192820101928311610379578301905b82821061264a575050505090565b8151815290830190830161263c565b60026001541461266a576002600155565b604051633ee5aeb560e01b8152600490fd5b90816020910312610379575180151581036103795790565b91926080936126b992979695978452602084015260a0604084015260a0830190612477565b6001600160a01b0390951660608201520152565b6040516323b872dd60e01b60208201526001600160a01b03928316602482015292909116604483015260648083019390935291815260a081019181831067ffffffffffffffff84111761253c5761272692604052612728565b565b906000602091828151910182855af115612784576000513d61277b57506001600160a01b0381163b155b6127595750565b604051635274afe760e01b81526001600160a01b039091166004820152602490fd5b60011415612752565b6040513d6000823e3d90fd5b9190826040910312610379576020825192015190565b9190826040910312610379576127c06020835193016125ac565b90565b6001600160a01b0390811660009081526006602052604081205490929116801561283b57604080516202eab760e01b815291829060049082905afa908184918593612819575b506128145750508190565b925090565b909250612834915060403d811161087c5761086d818361258a565b9138612809565b508190565b67ffffffffffffffff811161253c57601f01601f191660200190565b81601f8201121561037957805161287281612840565b92612880604051948561258a565b81845260208284010111610379576127c091602080850191016124b4565b60018060a01b0380821690600092828452602093600685526040908382822054168015612adc5786600491845192838092630cad026760e01b82525afa908115612ad2578291612ab5575b506128f7575b505050505050565b60048054600554845163e6a4390560e01b81526001600160a01b0387811694820194909452908716928316602482015294908616908886604481855afa958615612aab5790899392918597612a6f575b5087871615612998575b5050505091816060937f5ec1e9daf7affe04984801e0d07de6448f00139d72977b7c948bf698bd353f769593519781895288015242908701521693a33880808080806128ef565b85516364e329cb60e11b81526001600160a01b03918216600482015292166024830152929450918290604490829087905af1908115612a63578391612a04575b50918560607f5ec1e9daf7affe04984801e0d07de6448f00139d72977b7c948bf698bd353f7638612951565b90508581813d8311612a5c575b612a1b818361258a565b81010312610d8257917f5ec1e9daf7affe04984801e0d07de6448f00139d72977b7c948bf698bd353f769391612a526060946125ac565b91935091936129d8565b503d612a11565b505051903d90823e3d90fd5b84819394959298503d8311612aa4575b612a89818361258a565b81010312611e245790612a9d8993926125ac565b9538612947565b503d612a7f565b85513d86823e3d90fd5b612acc9150873d8911610bce57610bbe818361258a565b386128e9565b83513d84823e3d90fd5b8251630cbdb7b360e41b8152600490fd5b6001600160a01b03908116600090815260066020526040902054168015610e0e57602060049160405192838092630cad026760e01b82525afa90811561278457600091612b38575090565b6127c0915060203d8111610bce57610bbe818361258a56fe715ca240e9739497cdc340055c2002ffafc9ac48ab005ea302dce878f8c10d0d56599a2a11a1c04b41b0daa47c64eed2f9fe350024644ebd2dcd37158529e7d6a2646970667358221220b32ac52d6f424f99c1a51a6f34112e9551c6dcf4fa8e76c58a2da66a2bca1cf964736f6c63430008140033",
  "linkReferences": {},
  "deployedLinkReferences": {}
}