{
  "_format": "hh-sol-artifact-1",
  "contractName": "StonkTradingRouter",
  "sourceName": "contracts/StonkTradingRouter.sol",
  "abi": [
    {
      "inputs": [
        {
          "internalType": "address",
          "name": "_factory",
          "type": "address"
        },
        {
          "internalType": "address",
          "name": "_uniswapRouter",
          "type": "address"
        },
        {
          "internalType": "address",
          "name": "_uniswapFactory",
          "type": "address"
        },
        {
          "internalType": "address",
          "name": "_assetToken",
          "type": "address"
        }
      ],
      "stateMutability": "nonpayable",
      "type": "constructor"
    },
    {
      "inputs": [],
      "name": "AlreadyGraduated",
      "type": "error"
    },
    {
      "inputs": [],
      "name": "AssetNotWETH",
      "type": "error"
    },
    {
      "inputs": [],
      "name": "ContractPaused",
      "type": "error"
    },
    {
      "inputs": [],
      "name": "DeadlinePassed",
      "type": "error"
    },
    {
      "inputs": [],
      "name": "ETHTransferFailed",
      "type": "error"
    },
    {
      "inputs": [],
      "name": "InvalidAmount",
      "type": "error"
    },
    {
      "inputs": [],
      "name": "NotGraduated",
      "type": "error"
    },
    {
      "inputs": [],
      "name": "OnlyFactory",
      "type": "error"
    },
    {
      "inputs": [
        {
          "internalType": "address",
          "name": "owner",
          "type": "address"
        }
      ],
      "name": "OwnableInvalidOwner",
      "type": "error"
    },
    {
      "inputs": [
        {
          "internalType": "address",
          "name": "account",
          "type": "address"
        }
      ],
      "name": "OwnableUnauthorizedAccount",
      "type": "error"
    },
    {
      "inputs": [],
      "name": "ReentrancyGuardReentrantCall",
      "type": "error"
    },
    {
      "inputs": [
        {
          "internalType": "address",
          "name": "token",
          "type": "address"
        }
      ],
      "name": "SafeERC20FailedOperation",
      "type": "error"
    },
    {
      "inputs": [],
      "name": "SlippageTooHigh",
      "type": "error"
    },
    {
      "inputs": [],
      "name": "TokenAlreadyRegistered",
      "type": "error"
    },
    {
      "inputs": [],
      "name": "TokenNotFound",
      "type": "error"
    },
    {
      "inputs": [],
      "name": "ZeroAddress",
      "type": "error"
    },
    {
      "anonymous": false,
      "inputs": [
        {
          "indexed": true,
          "internalType": "address",
          "name": "oldAsset",
          "type": "address"
        },
        {
          "indexed": true,
          "internalType": "address",
          "name": "newAsset",
          "type": "address"
        }
      ],
      "name": "AssetTokenUpdated",
      "type": "event"
    },
    {
      "anonymous": false,
      "inputs": [
        {
          "indexed": true,
          "internalType": "address",
          "name": "to",
          "type": "address"
        },
        {
          "indexed": false,
          "internalType": "uint256",
          "name": "amount",
          "type": "uint256"
        },
        {
          "indexed": false,
          "internalType": "uint256",
          "name": "timestamp",
          "type": "uint256"
        }
      ],
      "name": "ETHWithdrawn",
      "type": "event"
    },
    {
      "anonymous": false,
      "inputs": [
        {
          "indexed": true,
          "internalType": "address",
          "name": "oldFactory",
          "type": "address"
        },
        {
          "indexed": true,
          "internalType": "address",
          "name": "newFactory",
          "type": "address"
        }
      ],
      "name": "FactoryUpdated",
      "type": "event"
    },
    {
      "anonymous": false,
      "inputs": [
        {
          "indexed": true,
          "internalType": "address",
          "name": "previousOwner",
          "type": "address"
        },
        {
          "indexed": true,
          "internalType": "address",
          "name": "newOwner",
          "type": "address"
        }
      ],
      "name": "OwnershipTransferred",
      "type": "event"
    },
    {
      "anonymous": false,
      "inputs": [
        {
          "indexed": true,
          "internalType": "address",
          "name": "by",
          "type": "address"
        },
        {
          "indexed": false,
          "internalType": "uint256",
          "name": "timestamp",
          "type": "uint256"
        }
      ],
      "name": "RouterPaused",
      "type": "event"
    },
    {
      "anonymous": false,
      "inputs": [
        {
          "indexed": true,
          "internalType": "address",
          "name": "by",
          "type": "address"
        },
        {
          "indexed": false,
          "internalType": "uint256",
          "name": "timestamp",
          "type": "uint256"
        }
      ],
      "name": "RouterUnpaused",
      "type": "event"
    },
    {
      "anonymous": false,
      "inputs": [
        {
          "indexed": true,
          "internalType": "address",
          "name": "tokenAddress",
          "type": "address"
        },
        {
          "indexed": true,
          "internalType": "address",
          "name": "uniswapPair",
          "type": "address"
        },
        {
          "indexed": false,
          "internalType": "uint256",
          "name": "tokenBalance",
          "type": "uint256"
        },
        {
          "indexed": false,
          "internalType": "uint256",
          "name": "assetBalance",
          "type": "uint256"
        },
        {
          "indexed": false,
          "internalType": "uint256",
          "name": "timestamp",
          "type": "uint256"
        }
      ],
      "name": "TokenGraduated",
      "type": "event"
    },
    {
      "anonymous": false,
      "inputs": [
        {
          "indexed": true,
          "internalType": "address",
          "name": "tokenAddress",
          "type": "address"
        },
        {
          "indexed": true,
          "internalType": "address",
          "name": "bondingCurveAddress",
          "type": "address"
        },
        {
          "indexed": false,
          "internalType": "uint256",
          "name": "timestamp",
          "type": "uint256"
        }
      ],
      "name": "TokenRegistered",
      "type": "event"
    },
    {
      "anonymous": false,
      "inputs": [
        {
          "indexed": true,
          "internalType": "address",
          "name": "tokenAddress",
          "type": "address"
        },
        {
          "indexed": true,
          "internalType": "address",
          "name": "buyer",
          "type": "address"
        },
        {
          "indexed": false,
          "internalType": "uint256",
          "name": "tokenAmount",
          "type": "uint256"
        },
        {
          "indexed": false,
          "internalType": "uint256",
          "name": "assetAmount",
          "type": "uint256"
        },
        {
          "indexed": false,
          "internalType": "uint256",
          "name": "fee",
          "type": "uint256"
        },
        {
          "indexed": false,
          "internalType": "bool",
          "name": "isBondingCurve",
          "type": "bool"
        },
        {
          "indexed": false,
          "internalType": "uint256",
          "name": "timestamp",
          "type": "uint256"
        }
      ],
      "name": "TokensPurchased",
      "type": "event"
    },
    {
      "anonymous": false,
      "inputs": [
        {
          "indexed": true,
          "internalType": "address",
          "name": "tokenAddress",
          "type": "address"
        },
        {
          "indexed": true,
          "internalType": "address",
          "name": "seller",
          "type": "address"
        },
        {
          "indexed": false,
          "internalType": "uint256",
          "name": "tokenAmount",
          "type": "uint256"
        },
        {
          "indexed": false,
          "internalType": "uint256",
          "name": "assetAmount",
          "type": "uint256"
        },
        {
          "indexed": false,
          "internalType": "uint256",
          "name": "fee",
          "type": "uint256"
        },
        {
          "indexed": false,
          "internalType": "bool",
          "name": "isBondingCurve",
          "type": "bool"
        },
        {
          "indexed": false,
          "internalType": "uint256",
          "name": "timestamp",
          "type": "uint256"
        }
      ],
      "name": "TokensSold",
      "type": "event"
    },
    {
      "anonymous": false,
      "inputs": [
        {
          "indexed": true,
          "internalType": "address",
          "name": "oldFactory",
          "type": "address"
        },
        {
          "indexed": true,
          "internalType": "address",
          "name": "newFactory",
          "type": "address"
        }
      ],
      "name": "UniswapFactoryUpdated",
      "type": "event"
    },
    {
      "anonymous": false,
      "inputs": [
        {
          "indexed": true,
          "internalType": "address",
          "name": "oldRouter",
          "type": "address"
        },
        {
          "indexed": true,
          "internalType": "address",
          "name": "newRouter",
          "type": "address"
        }
      ],
      "name": "UniswapRouterUpdated",
      "type": "event"
    },
    {
      "inputs": [],
      "name": "assetToken",
      "outputs": [
        {
          "internalType": "contract IERC20",
          "name": "",
          "type": "address"
        }
      ],
      "stateMutability": "view",
      "type": "function"
    },
    {
      "inputs": [
        {
          "internalType": "address",
          "name": "",
          "type": "address"
        }
      ],
      "name": "bondingCurveAddress",
      "outputs": [
        {
          "internalType": "address",
          "name": "",
          "type": "address"
        }
      ],
      "stateMutability": "view",
      "type": "function"
    },
    {
      "inputs": [
        {
          "internalType": "address",
          "name": "tokenAddress",
          "type": "address"
        },
        {
          "internalType": "uint256",
          "name": "maxAssetAmount",
          "type": "uint256"
        },
        {
          "internalType": "uint256",
          "name": "minTokenAmount",
          "type": "uint256"
        },
        {
          "internalType": "uint256",
          "name": "deadline",
          "type": "uint256"
        }
      ],
      "name": "buyTokens",
      "outputs": [
        {
          "internalType": "uint256",
          "name": "tokensReceived",
          "type": "uint256"
        }
      ],
      "stateMutability": "nonpayable",
      "type": "function"
    },
    {
      "inputs": [
        {
          "internalType": "address",
          "name": "tokenAddress",
          "type": "address"
        },
        {
          "internalType": "uint256",
          "name": "minTokenAmount",
          "type": "uint256"
        },
        {
          "internalType": "uint256",
          "name": "deadline",
          "type": "uint256"
        }
      ],
      "name": "buyTokensWithETH",
      "outputs": [
        {
          "internalType": "uint256",
          "name": "tokensReceived",
          "type": "uint256"
        }
      ],
      "stateMutability": "payable",
      "type": "function"
    },
    {
      "inputs": [
        {
          "internalType": "address",
          "name": "tokenAddress",
          "type": "address"
        },
        {
          "internalType": "uint256",
          "name": "maxAssetAmount",
          "type": "uint256"
        }
      ],
      "name": "calculateBuyPrice",
      "outputs": [
        {
          "internalType": "uint256",
          "name": "tokenAmount",
          "type": "uint256"
        }
      ],
      "stateMutability": "view",
      "type": "function"
    },
    {
      "inputs": [
        {
          "internalType": "address",
          "name": "tokenAddress",
          "type": "address"
        },
        {
          "internalType": "uint256",
          "name": "maxAssetAmount",
          "type": "uint256"
        }
      ],
      "name": "calculateBuyWithFees",
      "outputs": [
        {
          "internalType": "uint256",
          "name": "tokenAmount",
          "type": "uint256"
        },
        {
          "internalType": "uint256",
          "name": "assetAmount",
          "type": "uint256"
        },
        {
          "internalType": "uint256",
          "name": "fee",
          "type": "uint256"
        },
        {
          "internalType": "bool",
          "name": "isBondingCurve",
          "type": "bool"
        }
      ],
      "stateMutability": "view",
      "type": "function"
    },
    {
      "inputs": [
        {
          "internalType": "address",
          "name": "tokenAddress",
          "type": "address"
        },
        {
          "internalType": "uint256",
          "name": "tokenAmount",
          "type": "uint256"
        }
      ],
      "name": "calculateSellProceeds",
      "outputs": [
        {
          "internalType": "uint256",
          "name": "assetAmount",
          "type": "uint256"
        }
      ],
      "stateMutability": "view",
      "type": "function"
    },
    {
      "inputs": [
        {
          "internalType": "address",
          "name": "tokenAddress",
          "type": "address"
        },
        {
          "internalType": "uint256",
          "name": "tokenAmount",
          "type": "uint256"
        }
      ],
      "name": "calculateSellWithFees",
      "outputs": [
        {
          "internalType": "uint256",
          "name": "assetAmount",
          "type": "uint256"
        },
        {
          "internalType": "uint256",
          "name": "fee",
          "type": "uint256"
        },
        {
          "internalType": "bool",
          "name": "isBondingCurve",
          "type": "bool"
        }
      ],
      "stateMutability": "view",
      "type": "function"
    },
    {
      "inputs": [],
      "name": "factory",
      "outputs": [
        {
          "internalType": "contract StonkTokenFactory",
          "name": "",
          "type": "address"
        }
      ],
      "stateMutability": "view",
      "type": "function"
    },
    {
      "inputs": [
        {
          "internalType": "address",
          "name": "tokenAddress",
          "type": "address"
        }
      ],
      "name": "getBondingCurveAddress",
      "outputs": [
        {
          "internalType": "address",
          "name": "",
          "type": "address"
        }
      ],
      "stateMutability": "view",
      "type": "function"
    },
    {
      "inputs": [
        {
          "internalType": "address",
          "name": "tokenAddress",
          "type": "address"
        }
      ],
      "name": "getFeeInfo",
      "outputs": [
        {
          "internalType": "uint256",
          "name": "feeBasisPoints",
          "type": "uint256"
        },
        {
          "internalType": "address",
          "name": "treasury",
          "type": "address"
        }
      ],
      "stateMutability": "view",
      "type": "function"
    },
    {
      "inputs": [
        {
          "internalType": "address",
          "name": "tokenAddress",
          "type": "address"
        }
      ],
      "name": "getTokenDisplayInfo",
      "outputs": [
        {
          "internalType": "bool",
          "name": "graduated",
          "type": "bool"
        },
        {
          "internalType": "address",
          "name": "bondingCurve",
          "type": "address"
        },
        {
          "internalType": "address",
          "name": "uniswapPair",
          "type": "address"
        },
        {
          "internalType": "uint256",
          "name": "currentPrice",
          "type": "uint256"
        },
        {
          "internalType": "uint256",
          "name": "totalSupply",
          "type": "uint256"
        },
        {
          "internalType": "uint256",
          "name": "assetBalance",
          "type": "uint256"
        },
        {
          "internalType": "uint256",
          "name": "feeBasisPoints",
          "type": "uint256"
        },
        {
          "internalType": "address",
          "name": "treasury",
          "type": "address"
        }
      ],
      "stateMutability": "view",
      "type": "function"
    },
    {
      "inputs": [
        {
          "internalType": "address",
          "name": "tokenAddress",
          "type": "address"
        }
      ],
      "name": "getTokenTradingInfo",
      "outputs": [
        {
          "internalType": "bool",
          "name": "graduated",
          "type": "bool"
        },
        {
          "internalType": "address",
          "name": "bondingCurve",
          "type": "address"
        },
        {
          "internalType": "address",
          "name": "uniswapPair",
          "type": "address"
        },
        {
          "internalType": "uint256",
          "name": "currentPrice",
          "type": "uint256"
        },
        {
          "internalType": "uint256",
          "name": "totalSupply",
          "type": "uint256"
        },
        {
          "internalType": "uint256",
          "name": "assetBalance",
          "type": "uint256"
        }
      ],
      "stateMutability": "view",
      "type": "function"
    },
    {
      "inputs": [
        {
          "internalType": "address",
          "name": "tokenAddress",
          "type": "address"
        }
      ],
      "name": "getTokenTradingState",
      "outputs": [
        {
          "internalType": "bool",
          "name": "graduated",
          "type": "bool"
        },
        {
          "internalType": "address",
          "name": "bondingCurve",
          "type": "address"
        },
        {
          "internalType": "address",
          "name": "uniswapPair",
          "type": "address"
        }
      ],
      "stateMutability": "view",
      "type": "function"
    },
    {
      "inputs": [
        {
          "internalType": "address",
          "name": "tokenAddress",
          "type": "address"
        }
      ],
      "name": "isTokenGraduated",
      "outputs": [
        {
          "internalType": "bool",
          "name": "",
          "type": "bool"
        }
      ],
      "stateMutability": "view",
      "type": "function"
    },
    {
      "inputs": [
        {
          "internalType": "address",
          "name": "",
          "type": "address"
        }
      ],
      "name": "isTokenRegistered",
      "outputs": [
        {
          "internalType": "bool",
          "name": "",
          "type": "bool"
        }
      ],
      "stateMutability": "view",
      "type": "function"
    },
    {
      "inputs": [],
      "name": "owner",
      "outputs": [
        {
          "internalType": "address",
          "name": "",
          "type": "address"
        }
      ],
      "stateMutability": "view",
      "type": "function"
    },
    {
      "inputs": [],
      "name": "pause",
      "outputs": [],
      "stateMutability": "nonpayable",
      "type": "function"
    },
    {
      "inputs": [],
      "name": "paused",
      "outputs": [
        {
          "internalType": "bool",
          "name": "",
          "type": "bool"
        }
      ],
      "stateMutability": "view",
      "type": "function"
    },
    {
      "inputs": [
        {
          "internalType": "address",
          "name": "tokenAddress",
          "type": "address"
        },
        {
          "internalType": "address",
          "name": "bondingCurveAddr",
          "type": "address"
        }
      ],
      "name": "registerToken",
      "outputs": [],
      "stateMutability": "nonpayable",
      "type": "function"
    },
    {
      "inputs": [
        {
          "internalType": "uint256",
          "name": "",
          "type": "uint256"
        }
      ],
      "name": "registeredTokens",
      "outputs": [
        {
          "internalType": "address",
          "name": "",
          "type": "address"
        }
      ],
      "stateMutability": "view",
      "type": "function"
    },
    {
      "inputs": [],
      "name": "registeredTokensLength",
      "outputs": [
        {
          "internalType": "uint256",
          "name": "",
          "type": "uint256"
        }
      ],
      "stateMutability": "view",
      "type": "function"
    },
    {
      "inputs": [],
      "name": "renounceOwnership",
      "outputs": [],
      "stateMutability": "nonpayable",
      "type": "function"
    },
    {
      "inputs": [
        {
          "internalType": "address",
          "name": "tokenAddress",
          "type": "address"
        },
        {
          "internalType": "uint256",
          "name": "tokenAmount",
          "type": "uint256"
        },
        {
          "internalType": "uint256",
          "name": "minAssetAmount",
          "type": "uint256"
        },
        {
          "internalType": "uint256",
          "name": "deadline",
          "type": "uint256"
        }
      ],
      "name": "sellTokens",
      "outputs": [
        {
          "internalType": "uint256",
          "name": "assetsReceived",
          "type": "uint256"
        }
      ],
      "stateMutability": "nonpayable",
      "type": "function"
    },
    {
      "inputs": [
        {
          "internalType": "address",
          "name": "tokenAddress",
          "type": "address"
        },
        {
          "internalType": "uint256",
          "name": "tokenAmount",
          "type": "uint256"
        },
        {
          "internalType": "uint256",
          "name": "minEthAmount",
          "type": "uint256"
        },
        {
          "internalType": "uint256",
          "name": "deadline",
          "type": "uint256"
        }
      ],
      "name": "sellTokensForETH",
      "outputs": [
        {
          "internalType": "uint256",
          "name": "ethReceived",
          "type": "uint256"
        }
      ],
      "stateMutability": "nonpayable",
      "type": "function"
    },
    {
      "inputs": [
        {
          "internalType": "address",
          "name": "_asset",
          "type": "address"
        }
      ],
      "name": "setAssetToken",
      "outputs": [],
      "stateMutability": "nonpayable",
      "type": "function"
    },
    {
      "inputs": [
        {
          "internalType": "address",
          "name": "_factory",
          "type": "address"
        }
      ],
      "name": "setFactory",
      "outputs": [],
      "stateMutability": "nonpayable",
      "type": "function"
    },
    {
      "inputs": [
        {
          "internalType": "address",
          "name": "_factory",
          "type": "address"
        }
      ],
      "name": "setUniswapFactory",
      "outputs": [],
      "stateMutability": "nonpayable",
      "type": "function"
    },
    {
      "inputs": [
        {
          "internalType": "address",
          "name": "_router",
          "type": "address"
        }
      ],
      "name": "setUniswapRouter",
      "outputs": [],
      "stateMutability": "nonpayable",
      "type": "function"
    },
    {
      "inputs": [
        {
          "internalType": "address",
          "name": "newOwner",
          "type": "address"
        }
      ],
      "name": "transferOwnership",
      "outputs": [],
      "stateMutability": "nonpayable",
      "type": "function"
    },
    {
      "inputs": [],
      "name": "uniswapFactory",
      "outputs": [
        {
          "internalType": "contract IUniswapV2Factory",
          "name": "",
          "type": "address"
        }
      ],
      "stateMutability": "view",
      "type": "function"
    },
    {
      "inputs": [],
      "name": "uniswapRouter",
      "outputs": [
        {
          "internalType": "contract IUniswapV2Router02",
          "name": "",
          "type": "address"
        }
      ],
      "stateMutability": "view",
      "type": "function"
    },
    {
      "inputs": [],
      "name": "unpause",
      "outputs": [],
      "stateMutability": "nonpayable",
      "type": "function"
    },
    {
      "inputs": [
        {
          "internalType": "uint256",
          "name": "amount",
          "type": "uint256"
        }
      ],
      "name": "withdrawETH",
      "outputs": [],
      "stateMutability": "nonpayable",
      "type": "function"
    },
    {
      "stateMutability": "payable",
      "type": "receive"
    }
  ],
  "bytecode": "0x6080346200012a57601f62002e8b38819003918201601f19168301916001600160401b038311848410176200012f578084926080946040528339810103126200012a576200004d8162000145565b906200005c6020820162000145565b620000786060620000706040850162000145565b930162000145565b331562000111576000549360018060a01b03199333858716176000556040519560018060a01b03948580948193823391167f8be0079c531659141344cd1fd0a4f28419497f9722a3daafe3b4186f6b6457e0600080a3600180551687600254161760025516856003541617600355168360045416176004551690600554161760055560ff1960095416600955612d3090816200015b8239f35b604051631e4fbdf760e01b815260006004820152602490fd5b600080fd5b634e487b7160e01b600052604160045260246000fd5b51906001600160a01b03821682036200012a5756fe608080604052600436101561001d575b50361561001b57600080fd5b005b600090813560e01c9081631083f76114612508575080631a68d170146123815780631ecbbfe1146104f257806326aa101f1461234257806326bde5aa146122d1578063388e8fd2146122a35780633a12c268146121c05780633e903b8314611f035780633f4ba83a14611eb15780634739f7e514611d8b5780635bb4780814611d1a5780635c975abb14611cf75780636dfb526214611cd9578063715018a614611c7f578063735de9f714611c565780637439459b14611c1d5780638456cb5914611bc85780638bdb2afa14611b9f5780638da5cb5b14611b785780638fd0b0511461180b5780639a0ba2ea146117c75780639adb0974146114da5780639d53dcd0146114425780639e52270b14611269578063ad90736014611069578063b3e9e15214610ec7578063bea9849e14610e56578063bed530a7146109e0578063c45a0155146109b7578063cb31659c146105b1578063e04b677f1461052e578063e1ff8abb146104f2578063f2fde38b14610467578063fa278ed9146103f95763fa57ef2f0361000f57346102a1576020806003193601126103f5576101c161252d565b906101cb82612c57565b6001600160a01b038084168086526006845260408620549294869485948594939192908416918589156102b75750506004805460055460405163e6a4390560e01b81526001600160a01b039485169381019390935286169092166024820152989083908a90604490829088165afa9081156102ab578091610270575b5060c09850915b60405197151588528701521660408501526060840152608083015260a0820152f35b90508289813d83116102a4575b61028781836126d1565b810103126102a1575061029b60c0986126f3565b38610247565b80fd5b503d61027d565b604051903d90823e3d90fd5b93915098826102cb575b5060c0985061024e565b6040516375c8e9bf60e11b815299828b600481875afa8083916103c5575b60049c506103bd575b5082906040519b8c80926318160ddd60e01b82525afa80829161038d575b60249b50610385575b508185600554166040519b8c80926370a0823160e01b82528760048301525afa80610350575b60c09a50156102c1579650386102c1565b9050818a813d831161037e575b61036781836126d1565b810103126103795760c099519061033f565b600080fd5b503d61035d565b965038610319565b9050828b813d83116103b6575b6103a481836126d1565b810103126103795760249a5190610310565b503d61039a565b9650826102f2565b9050838c813d83116103ee575b6103dc81836126d1565b810103126103795760049b51906102e9565b503d6103d2565b5080fd5b50346102a15760203660031901126102a15761044e9061041761252d565b5061045c60405191610428836126b5565b80835260405190610438826126b5565b815260405193849360608552606085019061261e565b90838203602085015261261e565b601260408301520390f35b50346102a15760203660031901126102a15761048161252d565b610489612643565b6001600160a01b039081169081156104d957600054826001600160601b0360a01b821617600055167f8be0079c531659141344cd1fd0a4f28419497f9722a3daafe3b4186f6b6457e0600080a380f35b604051631e4fbdf760e01b815260048101849052602490fd5b50346102a15760203660031901126102a1576020906001600160a01b03906040908261051c61252d565b16815260068452205416604051908152f35b50346102a15760203660031901126102a15761054861252d565b610550612643565b6001600160a01b0390811690811561059f57600454826001600160601b0360a01b821617600455167f3f0919e87161339285575950372e04371730e6f01153cd67e6dc6eb40ad7232f8380a380f35b60405163d92e233d60e01b8152600490fd5b50346102a15760203660031901126102a1576105cb61252d565b60405163fa278ed960e01b81526001600160a01b0382166004820152908282602481305afa838185948693610938575b506109305750509050604051610610816126b5565b82815290604051610620816126b5565b8381526012915b61063081612c57565b6001600160a01b0382811687526006602052604087205487948594859485948594169184821561076257506004805460055460405163e6a4390560e01b81526001600160a01b039485169381019390935283166024830152909160209183916044918391165afa9b8c156102ab57809c61071d575b505060ff6106d56106c79c945b6040519d8e9d8e61016090818152019061261e565b8d810360208f01529061261e565b991660408b0152151560608a0152608089015260018060a01b031660a088015260c087015260e086015261010085015261012084015260018060a01b03166101408301520390f35b909b5060208c3d60201161075a575b81610739602093836126d1565b810103126102a1575060ff6106d56107536106c79d6126f3565b9c506106a5565b3d915061072c565b93909b8361077c575b506106c79b506106d560ff916106b2565b6040516375c8e9bf60e11b81529c60208e600481885afa8083916108ff575b60049f506108f6575b506040516318160ddd60e01b81529d6020918f919082906001600160a01b03165afa8082916108c5575b60249e506108bd575b506005546040516370a0823160e01b8152600481018690529d6020918f919082906001600160a01b03165afa80829161088b575b6106c79e50610883575b50604080516202eab760e01b8152919082600481885afa80928293610850575b50610841575b5061076b565b90995097506106d560ff61083b565b909250610875915060403d60401161087c575b61086d81836126d1565b810190612910565b9138610835565b503d610863565b975038610815565b905060208e813d83116108b6575b6108a381836126d1565b81010312610379576106c79d519061080b565b503d610899565b9650386107d7565b905060208e813d83116108ef575b6108dd81836126d1565b810103126103795760249d51906107ce565b503d6108d3565b965060206107a4565b905060208f813d8311610929575b61091781836126d1565b810103126103795760049e519061079b565b503d61090d565b929091610627565b94509150503d8085853e61094c81856126d1565b8301926060818503126109b35780519367ffffffffffffffff948581116109af57816109799184016129c6565b9460208301519081116109af576040916109949184016129c6565b9101519360ff851685036109ab57909391386105fb565b8580fd5b8680fd5b8480fd5b50346102a157806003193601126102a1576002546040516001600160a01b039091168152602090f35b50346102a1576109ef36612543565b906109f86127a0565b60ff60095416610e4457428210610e32578215610e2057610a1884612c57565b15610c1657600491859160405190610a2f82612699565b60028252602060403682850137610a4583612707565b9760018060a01b03809116809952818160035416604051988980926315ab88c960e31b82525afa8015610bd5578690610be0575b610ace975081610a8886612714565b91169052610a988830338c612814565b60035460405163095ea7b360e01b81529082166001600160a01b0316600482015260248101899052968290889081906044820190565b0381898d5af1918215610bd557610b0d978793610ba7575b50506003541692604051968795869485936318cbafe560e01b855233918c600487016127db565b03925af1908115610b9c5790610b2e918560209692610b79575b5050612714565b51604080519283526020830182905260009083018190526060830152426080830152913391600080516020612cdb833981519152908060a081015b0390a35b60018055604051908152f35b610b9592503d8091833e610b8d81836126d1565b810190612724565b3880610b27565b6040513d86823e3d90fd5b81610bc692903d10610bce575b610bbe81836126d1565b8101906127c3565b503880610ae6565b503d610bb4565b6040513d88823e3d90fd5b508187813d8311610c0f575b610bf681836126d1565b810103126109ab57610c0a610ace976126f3565b610a79565b503d610bec565b905060018060a0959394951b0380851680845260209260068452826040862054168015610e0e5783600554166004868660035416604051928380926315ab88c960e31b82525afa908115610e03579086918991610dc7575b501603610db55786610c87610cbc988388963390612814565b604051637272bdcf60e11b81523060048201526024810191909152604481019290925290958691908290879082906064820190565b03925af1938415610d77578394610d86575b5060055416803b15610d8257828091602460405180948193632e1a7d4d60e01b83528960048401525af18015610d7757908391610d63575b5080808086335af1913d15610d5c573d91610d20836129aa565b92610d2e60405194856126d1565b83523d92013e5b15610d4a57610d45602092612a08565b610b6d565b60405163b12d13eb60e01b8152600490fd5b5050610d35565b610d6c9061266f565b6103f5578138610d06565b6040513d85823e3d90fd5b8280fd5b9093508181813d8311610dae575b610d9e81836126d1565b8101031261037957519238610cce565b503d610d94565b604051630b7113f760e31b8152600490fd5b809250888092503d8311610dfc575b610de081836126d1565b81010312610df857610df286916126f3565b38610c6e565b8780fd5b503d610dd6565b6040513d8a823e3d90fd5b604051630cbdb7b360e41b8152600490fd5b60405163162908e360e11b8152600490fd5b60405163387b2e5560e11b8152600490fd5b60405163ab35696f60e01b8152600490fd5b50346102a15760203660031901126102a157610e7061252d565b610e78612643565b6001600160a01b0390811690811561059f57600354826001600160601b0360a01b821617600355167fe7295f605b21e8c0803de3b127af76ce45d81732d075acf86e5959e923605bdc8380a380f35b50346102a15760403660031901126102a157610ee161252d565b6024359190819081610ef282612c57565b928315610fc257505082610f6f9160609560405191610f1083612699565b600283526040366020850137610f2583612707565b6001600160a01b0391821690526005548116610f4084612714565b52600354169060405180958194829363d06ca61f60e01b845260048401526040602484015260448301906125be565b03915afa839181610fa6575b50610f965750815b6040519283526020830152156040820152f35b610f9f90612714565b5191610f83565b610fbb9192503d8086833e610b8d81836126d1565b9038610f7b565b6001600160a01b039283168552600660205260408520549092169490939085610ff1575b505060609350610f83565b9093506040915060248251809681936320689fe560e01b835260048301525afa801561105e576060938391611029575b503880610fe6565b905061104e91925060403d604011611057575b61104681836126d1565b8101906128d7565b91909138611021565b503d61103c565b6040513d84823e3d90fd5b50346102a15760403660031901126102a15761108361252d565b60243591908190818061109583612c57565b938415611171575050509261111483608095604051906110b482612699565b6002825260403660208401376005546001600160a01b03919082166110d884612707565b52816110e384612714565b9116905260035416604051808095819463d06ca61f60e01b83528860048401526040602484015260448301906125be565b03915afa849181611155575b5061114257505081805b60405193845260208401526040830152156060820152f35b61114e90939193612714565b519261112a565b61116a9192503d8087833e610b8d81836126d1565b9038611120565b6001600160a01b0393841686526006602052604086205490931695919490929190866111a3575b50506080945061112a565b925093505060405192638b1dd58960e01b84526004840152602083602481875afa928315611229578193611236575b506040836024825180978193631bb5e99360e31b835260048301525afa8015611229576080948291611208575b50903880611198565b9050611223915060403d6040116110575761104681836126d1565b386111ff565b50604051903d90823e3d90fd5b9092506020813d8211611261575b81611251602093836126d1565b81010312610379575191386111d2565b3d9150611244565b50346102a15760403660031901126102a15761128361252d565b906024359160018060a01b038091168083526020936006855282604085205416928315610e0e5785928591604051630cad026760e01b815285816004818a5afa849181611423575b5061133b5750505050602460405180948193638b1dd58960e01b835260048301525afa82918161130c575b5061130557505b604051908152f35b90506112fd565b9091508381813d8311611334575b61132481836126d1565b81010312610379575190386112f6565b503d61131a565b9490919392946000146113c2575061137e94506040519261135b84612699565b6002845260403689860137816005541661137485612707565b52610f4084612714565b03915afa8291816113a6575b5061139657505b6112fd565b6113a09150612714565b516112fd565b6113bb9192503d8085833e610b8d81836126d1565b903861138a565b9350509050602460405180948193638b1dd58960e01b835260048301525afa8291816113f4575b5061130557506112fd565b9091508381813d831161141c575b61140c81836126d1565b81010312610379575190386113e9565b503d611402565b61143b919250873d8911610bce57610bbe81836126d1565b90386112cb565b50346102a157806003193601126102a157604051809182600754808452602080940190600784527fa66cc928b5edb82af9bd49922954155ab7b0942694bea4ce44661d9a8736c688935b858282106114bb575050506114a3925003836126d1565b6114b76040519282849384528301906125be565b0390f35b85546001600160a01b031684526001958601958895509301920161148c565b5060603660031901126102a1576114ef61252d565b6044356024356114fd6127a0565b60ff60095416610e4457428210610e32573415610e2057839061151f84612c57565b15611668576040519061153182612699565b6002825260403660208401376003546040516315ab88c960e31b8152926001600160a01b03918216929091602085600481875afa8015610bd557869061162e575b6115bd95508161158185612707565b9116905261158e83612714565b971680975260405195869485938493637ff36ab560e01b855260048501526080602485015260848401906125be565b903360448401526064830152039134905af1908115610d7757906115eb918460209592610b79575050612714565b519060405190600080516020612cbb833981519152339280610b694234888460809194939260a08201958252602082015260006040820152600060608201520152565b506020853d8211611660575b81611647602093836126d1565b810103126109ab5761165b6115bd956126f3565b611572565b3d915061163a565b6001600160a01b038481168652600660209081526040872054909450811692508215610e0e578060055416803b15610db55786813b156102a157604051630d0e30db60e41b8152918290600490829034905af180156117bc5761179a575b5060055460405163a9059cbb60e01b868201526001600160a01b038516602482015234604480830191909152815287959485946117489491939092611718929091166117136064836126d1565b61286f565b60405163d2395dcd60e01b8152336004820152346024820152604481019190915294859283919082906064820190565b03925af19384156102ab5793611767575b505090610d45602092612a08565b90809350813d8311611793575b61177e81836126d1565b8101031261037957610d456020925192611759565b503d611774565b92849392611718976117b061174894979561266f565b975092509293906116c6565b6040513d89823e3d90fd5b50346102a15760203660031901126102a157600435906007548210156102a15760206117f283612571565b905460405160039290921b1c6001600160a01b03168152f35b50346102a15761181a36612543565b6118259291926127a0565b60ff60095416610e4457428110610e32578115610e2057849061184785612c57565b156119aa576118e392936040519061185e82612699565b6002825260403660208401376005546001600160a01b03906118a190889083168061188887612707565b528361189387612714565b9b16809b5230903390612814565b60055460035460405163095ea7b360e01b81529083166001600160a01b0316600482015260248101899052966020918891908416908290899082906044820190565b03925af190811561199f5761191f968692611981575b506003541692604051968795869485936338ed173960e01b855233918c600487016127db565b03925af1908115610b9c579061193f918560209692610b79575050612714565b5191600080516020612cbb83398151915260405180610b6933954290888460809194939260a08201958252602082015260006040820152600060608201520152565b6119989060203d8111610bce57610bbe81836126d1565b50386118f9565b6040513d87823e3d90fd5b505060018060a01b03908184169081865260209360068552836040882054168015610e0e57611a188189936119e7868a958a600554163390612814565b60405163d2395dcd60e01b8152336004820152602481018790526044810191909152998a9283919082906064820190565b03925af1918215611229578192611b46575b60209750611a3787612a08565b611a418397612c57565b918195819785151580611b3e575b611a9b575b5050604080519485526020850196909652505092810193909352901560608301524260808301523391600080516020612cbb833981519152908060a081015b0390a3610b6d565b60249398508297506006908760409452528187205416815192838092631bb5e99360e31b82528760048301525afa908186918793611b1b575b50611afc575050611a93600080516020612cbb8339815191529394915b919594933880611a54565b611a93919650600080516020612cbb8339815191529495509591611af1565b909250611b37915060403d6040116110575761104681836126d1565b9138611ad4565b508415611a4f565b9150958481813d8311611b71575b611b5e81836126d1565b810103126109af57956020965191611a2a565b503d611b54565b50346102a157806003193601126102a157546040516001600160a01b039091168152602090f35b50346102a157806003193601126102a1576004546040516001600160a01b039091168152602090f35b50346102a157806003193601126102a157611be1612643565b600160ff1960095416176009556040514281527f786725cc28b379159ac609041d30797904a3bc3beda70ec73dffc6ad8768d60960203392a280f35b50346102a15760203660031901126102a1576040611c41611c3c61252d565b61292d565b82519182526001600160a01b03166020820152f35b50346102a157806003193601126102a1576003546040516001600160a01b039091168152602090f35b50346102a157806003193601126102a157611c98612643565b80546001600160a01b03198116825581906001600160a01b03167f8be0079c531659141344cd1fd0a4f28419497f9722a3daafe3b4186f6b6457e08280a380f35b50346102a157806003193601126102a1576020600754604051908152f35b50346102a157806003193601126102a157602060ff600954166040519015158152f35b50346102a15760203660031901126102a157611d3461252d565b611d3c612643565b6001600160a01b0390811690811561059f57600254826001600160601b0360a01b821617600255167f333c7678baf16017cf31e1d2f90143a62aab01a67a0807f6836a4304ceabb5558380a380f35b50346102a15760403660031901126102a157611da561252d565b6001600160a01b036024358181169290839003611ead5781600254163303611e9b57811690818452600860205260ff604085205416611e895781845260066020526040842080546001600160a01b0319168417905560075468010000000000000000811015611e7557806001611e1e9201600755612571565b819291549060031b9184831b921b1916179055808352600860205260408320600160ff198254161790557ff8e444c42a5a7ea760a42d30d8fa8ccd8915208c2fb7dfe353501d7322d2e1326020604051428152a380f35b634e487b7160e01b85526041600452602485fd5b604051633ea7ffd960e11b8152600490fd5b604051630636a15760e11b8152600490fd5b8380fd5b50346102a157806003193601126102a157611eca612643565b60ff19600954166009556040514281527fc6f88918b3d6174312d93d433873bebafd6cd3ff5aed6ed05dc3dd904b7af4a860203392a280f35b50346102a157611f1236612543565b611f1d9291926127a0565b60ff60095416610e4457428110610e32578115610e20578490611f3f85612c57565b1561200c57611fcf929360405190611f5682612699565b600282526040366020840137611f6b82612707565b6001600160a01b03978816908190526005549097908116611f8b84612714565b52611f988730338b612814565b60035460405163095ea7b360e01b81529082166001600160a01b031660048201526024810188905295602090879081906044820190565b0381888c5af190811561199f57610b0d96869261198157506003541692604051968795869485936338ed173960e01b855233918c600487016127db565b505060018060a01b03908184169081865260209060068252836040882054168015610e0e57612075818997612044858795338a612814565b604051637272bdcf60e11b8152336004820152602481018690526044810191909152998a9283919082906064820190565b03925af1801561199f578590612192575b6020975061209387612a08565b61209d8197612c57565b95819581971594856120ef575b50506040805193845260208401969096525050928301939093529115156060820152426080820152339190600080516020612cdb833981519152908060a08101611a93565b602493985082975060069087604094525281872054168151928380926320689fe560e01b82528660048301525afa90818691879361216f575b50612150575050611a93600080516020612cdb8339815191529394915b9195949338806120aa565b611a93919650600080516020612cdb8339815191529495509591612145565b90925061218b915060403d6040116110575761104681836126d1565b9138612128565b508187813d83116121b9575b6121a881836126d1565b810103126109b35760209651612086565b503d61219e565b50346102a1576020806003193601126103f5576121db61252d565b916121e583612c57565b8092829161221c575b606094604060018060a01b039485809316815260068452205416906040519415158552840152166040820152f35b6004805460055460405163e6a4390560e01b81526001600160a01b03898116948201949094529083166024820152969350829187916044918391165afa8015610d7757839061226e575b9194506121ee565b508085813d831161229c575b61228481836126d1565b81010312610d82576122976060956126f3565b612266565b503d61227a565b50346102a15760203660031901126102a15760206122c76122c261252d565b612c57565b6040519015158152f35b50346102a15760203660031901126102a1576122eb61252d565b6122f3612643565b6001600160a01b0390811690811561059f57600554826001600160601b0360a01b821617600555167f50139ab9391115e25270f9b542e15fd1cea5174f8b012edd814aebc582061e1b8380a380f35b50346102a15760203660031901126102a15760209060ff906040906001600160a01b0361236d61252d565b168152600884522054166040519015158152f35b50346102a15760403660031901126102a15761239b61252d565b6001600160a01b0390811680835260066020908152604084205490939290811691602435908315610e0e57604051630cad026760e01b81528593908781600481895afa8591816124e9575b50612452575050506040915060248251809481936320689fe560e01b835260048301525afa90818391849361242f575b50612425575050604051908152f35b61139192506128ed565b90925061244b915060403d6040116110575761104681836126d1565b9138612416565b9192911561248f5761137e94506040519261246c84612699565b600284526040368986013761248084612707565b528060055416610f4084612714565b5090506040915060248251809481936320689fe560e01b835260048301525afa9081839184936124c6575b506124255750506112fd565b9092506124e2915060403d6040116110575761104681836126d1565b91386124ba565b612501919250893d8b11610bce57610bbe81836126d1565b90386123e6565b9050346103f557816003193601126103f5576005546001600160a01b03168152602090f35b600435906001600160a01b038216820361037957565b6080906003190112610379576004356001600160a01b03811681036103795790602435906044359060643590565b6007548110156125a85760076000527fa66cc928b5edb82af9bd49922954155ab7b0942694bea4ce44661d9a8736c6880190600090565b634e487b7160e01b600052603260045260246000fd5b90815180825260208080930193019160005b8281106125de575050505090565b83516001600160a01b0316855293810193928101926001016125d0565b60005b83811061260e5750506000910152565b81810151838201526020016125fe565b90602091612637815180928185528580860191016125fb565b601f01601f1916010190565b6000546001600160a01b0316330361265757565b60405163118cdaa760e01b8152336004820152602490fd5b67ffffffffffffffff811161268357604052565b634e487b7160e01b600052604160045260246000fd5b6060810190811067ffffffffffffffff82111761268357604052565b6020810190811067ffffffffffffffff82111761268357604052565b90601f8019910116810190811067ffffffffffffffff82111761268357604052565b51906001600160a01b038216820361037957565b8051156125a85760200190565b8051600110156125a85760400190565b90602090818382031261037957825167ffffffffffffffff93848211610379570181601f82011215610379578051938411612683578360051b906040519461276e858401876126d1565b85528380860192820101928311610379578301905b828210612791575050505090565b81518152908301908301612783565b6002600154146127b1576002600155565b604051633ee5aeb560e01b8152600490fd5b90816020910312610379575180151581036103795790565b919260809361280092979695978452602084015260a0604084015260a08301906125be565b6001600160a01b0390951660608201520152565b6040516323b872dd60e01b60208201526001600160a01b03928316602482015292909116604483015260648083019390935291815260a081019181831067ffffffffffffffff8411176126835761286d9260405261286f565b565b906000602091828151910182855af1156128cb576000513d6128c257506001600160a01b0381163b155b6128a05750565b604051635274afe760e01b81526001600160a01b039091166004820152602490fd5b60011415612899565b6040513d6000823e3d90fd5b9190826040910312610379576020825192015190565b919082039182116128fa57565b634e487b7160e01b600052601160045260246000fd5b91908260409103126103795761292a6020835193016126f3565b90565b6001600160a01b039081166000908152600660205260408120549092911680156129a557604080516202eab760e01b815291829060049082905afa908184918593612983575b5061297e5750508190565b925090565b90925061299e915060403d811161087c5761086d81836126d1565b9138612973565b508190565b67ffffffffffffffff811161268357601f01601f191660200190565b81601f820112156103795780516129dc816129aa565b926129ea60405194856126d1565b818452602082840101116103795761292a91602080850191016125fb565b60018060a01b0380821690600092828452602093600685526040908382822054168015612c465786600491845192838092630cad026760e01b82525afa908115612c3c578291612c1f575b50612a61575b505050505050565b60048054600554845163e6a4390560e01b81526001600160a01b0387811694820194909452908716928316602482015294908616908886604481855afa958615612c155790899392918597612bd9575b5087871615612b02575b5050505091816060937f5ec1e9daf7affe04984801e0d07de6448f00139d72977b7c948bf698bd353f769593519781895288015242908701521693a3388080808080612a59565b85516364e329cb60e11b81526001600160a01b03918216600482015292166024830152929450918290604490829087905af1908115612bcd578391612b6e575b50918560607f5ec1e9daf7affe04984801e0d07de6448f00139d72977b7c948bf698bd353f7638612abb565b90508581813d8311612bc6575b612b8581836126d1565b81010312610d8257917f5ec1e9daf7affe04984801e0d07de6448f00139d72977b7c948bf698bd353f769391612bbc6060946126f3565b9193509193612b42565b503d612b7b565b505051903d90823e3d90fd5b84819394959298503d8311612c0e575b612bf381836126d1565b81010312611ead5790612c078993926126f3565b9538612ab1565b503d612be9565b85513d86823e3d90fd5b612c369150873d8911610bce57610bbe81836126d1565b38612a53565b83513d84823e3d90fd5b8251630cbdb7b360e41b8152600490fd5b6001600160a01b03908116600090815260066020526040902054168015610e0e57602060049160405192838092630cad026760e01b82525afa9081156128cb57600091612ca2575090565b61292a915060203d8111610bce57610bbe81836126d156fe715ca240e9739497cdc340055c2002ffafc9ac48ab005ea302dce878f8c10d0d56599a2a11a1c04b41b0daa47c64eed2f9fe350024644ebd2dcd37158529e7d6a26469706673582212204363ce02817a12325e7461be38f743b84860f56e7d4d93eecb90824031395a5364736f6c63430008140033",
  "linkReferences": {},
  "deployedLinkReferences": {}
}