{
  "_format": "hh-sol-artifact-1",
  "contractName": "StonkToken",
  "sourceName": "contracts/StonkToken.sol",
  "abi": [
    {
      "inputs": [
        {
          "internalType": "address",
          "name": "owner_",
          "type": "address"
        },
        {
          "internalType": "string",
          "name": "name_",
          "type": "string"
        },
        {
          "internalType": "string",
          "name": "symbol_",
          "type": "string"
        },
        {
          "internalType": "uint256",
          "name": "totalSupply_",
          "type": "uint256"
        },
        {
          "internalType": "address",
          "name": "vault_",
          "type": "address"
        }
      ],
      "stateMutability": "nonpayable",
      "type": "constructor"
    },
    {
      "inputs": [],
      "name": "CannotWithdrawThisToken",
      "type": "error"
    },
    {
      "inputs": [
        {
          "internalType": "address",
          "name": "spender",
          "type": "address"
        },
        {
          "internalType": "uint256",
          "name": "allowance",
          "type": "uint256"
        },
        {
          "internalType": "uint256",
          "name": "needed",
          "type": "uint256"
        }
      ],
      "name": "ERC20InsufficientAllowance",
      "type": "error"
    },
    {
      "inputs": [
        {
          "internalType": "address",
          "name": "sender",
          "type": "address"
        },
        {
          "internalType": "uint256",
          "name": "balance",
          "type": "uint256"
        },
        {
          "internalType": "uint256",
          "name": "needed",
          "type": "uint256"
        }
      ],
      "name": "ERC20InsufficientBalance",
      "type": "error"
    },
    {
      "inputs": [
        {
          "internalType": "address",
          "name": "approver",
          "type": "address"
        }
      ],
      "name": "ERC20InvalidApprover",
      "type": "error"
    },
    {
      "inputs": [
        {
          "internalType": "address",
          "name": "receiver",
          "type": "address"
        }
      ],
      "name": "ERC20InvalidReceiver",
      "type": "error"
    },
    {
      "inputs": [
        {
          "internalType": "address",
          "name": "sender",
          "type": "address"
        }
      ],
      "name": "ERC20InvalidSender",
      "type": "error"
    },
    {
      "inputs": [
        {
          "internalType": "address",
          "name": "spender",
          "type": "address"
        }
      ],
      "name": "ERC20InvalidSpender",
      "type": "error"
    },
    {
      "inputs": [],
      "name": "LiquidityPoolCannotBeAddressZero",
      "type": "error"
    },
    {
      "inputs": [],
      "name": "LiquidityPoolMustBeAContractAddress",
      "type": "error"
    },
    {
      "inputs": [],
      "name": "MarketClosedAfterHours",
      "type": "error"
    },
    {
      "inputs": [
        {
          "internalType": "string",
          "name": "holiday",
          "type": "string"
        }
      ],
      "name": "MarketClosedForHoliday",
      "type": "error"
    },
    {
      "inputs": [],
      "name": "MarketClosedForWeekend",
      "type": "error"
    },
    {
      "inputs": [],
      "name": "MaxWalletLimitExceeded",
      "type": "error"
    },
    {
      "inputs": [],
      "name": "MaxWalletLimitTooHigh",
      "type": "error"
    },
    {
      "inputs": [
        {
          "internalType": "address",
          "name": "owner",
          "type": "address"
        }
      ],
      "name": "OwnableInvalidOwner",
      "type": "error"
    },
    {
      "inputs": [
        {
          "internalType": "address",
          "name": "account",
          "type": "address"
        }
      ],
      "name": "OwnableUnauthorizedAccount",
      "type": "error"
    },
    {
      "inputs": [
        {
          "internalType": "address",
          "name": "token",
          "type": "address"
        }
      ],
      "name": "SafeERC20FailedOperation",
      "type": "error"
    },
    {
      "inputs": [],
      "name": "TransferFailed",
      "type": "error"
    },
    {
      "anonymous": false,
      "inputs": [
        {
          "indexed": true,
          "internalType": "address",
          "name": "owner",
          "type": "address"
        },
        {
          "indexed": true,
          "internalType": "address",
          "name": "spender",
          "type": "address"
        },
        {
          "indexed": false,
          "internalType": "uint256",
          "name": "value",
          "type": "uint256"
        }
      ],
      "name": "Approval",
      "type": "event"
    },
    {
      "anonymous": false,
      "inputs": [
        {
          "indexed": false,
          "internalType": "uint256",
          "name": "identifier",
          "type": "uint256"
        }
      ],
      "name": "ExternalCallError",
      "type": "event"
    },
    {
      "anonymous": false,
      "inputs": [
        {
          "indexed": true,
          "internalType": "address",
          "name": "pool",
          "type": "address"
        }
      ],
      "name": "LiquidityPoolAdded",
      "type": "event"
    },
    {
      "anonymous": false,
      "inputs": [
        {
          "indexed": true,
          "internalType": "address",
          "name": "pool",
          "type": "address"
        }
      ],
      "name": "LiquidityPoolRemoved",
      "type": "event"
    },
    {
      "anonymous": false,
      "inputs": [
        {
          "indexed": false,
          "internalType": "enum IStonkToken.MarketState",
          "name": "state",
          "type": "uint8"
        },
        {
          "indexed": false,
          "internalType": "string",
          "name": "reason",
          "type": "string"
        }
      ],
      "name": "MarketClosed",
      "type": "event"
    },
    {
      "anonymous": false,
      "inputs": [
        {
          "indexed": true,
          "internalType": "address",
          "name": "firstTrader",
          "type": "address"
        }
      ],
      "name": "MarketOpened",
      "type": "event"
    },
    {
      "anonymous": false,
      "inputs": [
        {
          "indexed": true,
          "internalType": "address",
          "name": "account",
          "type": "address"
        }
      ],
      "name": "MaxWalletExemptionAdded",
      "type": "event"
    },
    {
      "anonymous": false,
      "inputs": [
        {
          "indexed": true,
          "internalType": "address",
          "name": "account",
          "type": "address"
        }
      ],
      "name": "MaxWalletExemptionRemoved",
      "type": "event"
    },
    {
      "anonymous": false,
      "inputs": [
        {
          "indexed": false,
          "internalType": "bool",
          "name": "enabled",
          "type": "bool"
        }
      ],
      "name": "MaxWalletLimitToggled",
      "type": "event"
    },
    {
      "anonymous": false,
      "inputs": [
        {
          "indexed": false,
          "internalType": "uint256",
          "name": "oldLimit",
          "type": "uint256"
        },
        {
          "indexed": false,
          "internalType": "uint256",
          "name": "newLimit",
          "type": "uint256"
        }
      ],
      "name": "MaxWalletLimitUpdated",
      "type": "event"
    },
    {
      "anonymous": false,
      "inputs": [
        {
          "indexed": true,
          "internalType": "address",
          "name": "previousOwner",
          "type": "address"
        },
        {
          "indexed": true,
          "internalType": "address",
          "name": "newOwner",
          "type": "address"
        }
      ],
      "name": "OwnershipTransferred",
      "type": "event"
    },
    {
      "anonymous": false,
      "inputs": [
        {
          "indexed": true,
          "internalType": "address",
          "name": "account",
          "type": "address"
        }
      ],
      "name": "TimelockExemptionAdded",
      "type": "event"
    },
    {
      "anonymous": false,
      "inputs": [
        {
          "indexed": true,
          "internalType": "address",
          "name": "account",
          "type": "address"
        }
      ],
      "name": "TimelockExemptionRemoved",
      "type": "event"
    },
    {
      "anonymous": false,
      "inputs": [
        {
          "indexed": true,
          "internalType": "address",
          "name": "from",
          "type": "address"
        },
        {
          "indexed": true,
          "internalType": "address",
          "name": "to",
          "type": "address"
        },
        {
          "indexed": false,
          "internalType": "uint256",
          "name": "value",
          "type": "uint256"
        }
      ],
      "name": "Transfer",
      "type": "event"
    },
    {
      "inputs": [],
      "name": "MAX_WALLET_LIMIT_BASIS_POINTS",
      "outputs": [
        {
          "internalType": "uint256",
          "name": "",
          "type": "uint256"
        }
      ],
      "stateMutability": "view",
      "type": "function"
    },
    {
      "inputs": [
        {
          "internalType": "address",
          "name": "pool",
          "type": "address"
        }
      ],
      "name": "addLiquidityPool",
      "outputs": [],
      "stateMutability": "nonpayable",
      "type": "function"
    },
    {
      "inputs": [
        {
          "internalType": "address",
          "name": "account",
          "type": "address"
        }
      ],
      "name": "addMaxWalletExemption",
      "outputs": [],
      "stateMutability": "nonpayable",
      "type": "function"
    },
    {
      "inputs": [
        {
          "internalType": "address",
          "name": "account",
          "type": "address"
        }
      ],
      "name": "addTimelockExemption",
      "outputs": [],
      "stateMutability": "nonpayable",
      "type": "function"
    },
    {
      "inputs": [
        {
          "internalType": "address",
          "name": "owner",
          "type": "address"
        },
        {
          "internalType": "address",
          "name": "spender",
          "type": "address"
        }
      ],
      "name": "allowance",
      "outputs": [
        {
          "internalType": "uint256",
          "name": "",
          "type": "uint256"
        }
      ],
      "stateMutability": "view",
      "type": "function"
    },
    {
      "inputs": [
        {
          "internalType": "address",
          "name": "spender",
          "type": "address"
        },
        {
          "internalType": "uint256",
          "name": "value",
          "type": "uint256"
        }
      ],
      "name": "approve",
      "outputs": [
        {
          "internalType": "bool",
          "name": "",
          "type": "bool"
        }
      ],
      "stateMutability": "nonpayable",
      "type": "function"
    },
    {
      "inputs": [
        {
          "internalType": "address",
          "name": "account",
          "type": "address"
        }
      ],
      "name": "balanceOf",
      "outputs": [
        {
          "internalType": "uint256",
          "name": "",
          "type": "uint256"
        }
      ],
      "stateMutability": "view",
      "type": "function"
    },
    {
      "inputs": [
        {
          "internalType": "uint256",
          "name": "value",
          "type": "uint256"
        }
      ],
      "name": "burn",
      "outputs": [],
      "stateMutability": "nonpayable",
      "type": "function"
    },
    {
      "inputs": [
        {
          "internalType": "address",
          "name": "account",
          "type": "address"
        },
        {
          "internalType": "uint256",
          "name": "value",
          "type": "uint256"
        }
      ],
      "name": "burnFrom",
      "outputs": [],
      "stateMutability": "nonpayable",
      "type": "function"
    },
    {
      "inputs": [],
      "name": "decimals",
      "outputs": [
        {
          "internalType": "uint8",
          "name": "",
          "type": "uint8"
        }
      ],
      "stateMutability": "view",
      "type": "function"
    },
    {
      "inputs": [],
      "name": "getCurrentHoliday",
      "outputs": [
        {
          "internalType": "string",
          "name": "",
          "type": "string"
        }
      ],
      "stateMutability": "view",
      "type": "function"
    },
    {
      "inputs": [],
      "name": "getLiquidityPools",
      "outputs": [
        {
          "internalType": "address[]",
          "name": "",
          "type": "address[]"
        }
      ],
      "stateMutability": "view",
      "type": "function"
    },
    {
      "inputs": [],
      "name": "getMarketState",
      "outputs": [
        {
          "internalType": "enum IStonkToken.MarketState",
          "name": "",
          "type": "uint8"
        }
      ],
      "stateMutability": "view",
      "type": "function"
    },
    {
      "inputs": [],
      "name": "getMaxWalletAmount",
      "outputs": [
        {
          "internalType": "uint256",
          "name": "",
          "type": "uint256"
        }
      ],
      "stateMutability": "view",
      "type": "function"
    },
    {
      "inputs": [],
      "name": "getMaxWalletExemptions",
      "outputs": [
        {
          "internalType": "address[]",
          "name": "",
          "type": "address[]"
        }
      ],
      "stateMutability": "view",
      "type": "function"
    },
    {
      "inputs": [],
      "name": "getTimelockExemptions",
      "outputs": [
        {
          "internalType": "address[]",
          "name": "",
          "type": "address[]"
        }
      ],
      "stateMutability": "view",
      "type": "function"
    },
    {
      "inputs": [
        {
          "internalType": "address",
          "name": "account",
          "type": "address"
        }
      ],
      "name": "isExemptFromMaxWallet",
      "outputs": [
        {
          "internalType": "bool",
          "name": "",
          "type": "bool"
        }
      ],
      "stateMutability": "view",
      "type": "function"
    },
    {
      "inputs": [
        {
          "internalType": "address",
          "name": "account",
          "type": "address"
        }
      ],
      "name": "isExemptFromTimelock",
      "outputs": [
        {
          "internalType": "bool",
          "name": "",
          "type": "bool"
        }
      ],
      "stateMutability": "view",
      "type": "function"
    },
    {
      "inputs": [
        {
          "internalType": "address",
          "name": "account",
          "type": "address"
        }
      ],
      "name": "isLiquidityPool",
      "outputs": [
        {
          "internalType": "bool",
          "name": "",
          "type": "bool"
        }
      ],
      "stateMutability": "view",
      "type": "function"
    },
    {
      "inputs": [],
      "name": "isMarketOpen",
      "outputs": [
        {
          "internalType": "bool",
          "name": "",
          "type": "bool"
        }
      ],
      "stateMutability": "view",
      "type": "function"
    },
    {
      "inputs": [],
      "name": "maxWalletLimitBasisPoints",
      "outputs": [
        {
          "internalType": "uint256",
          "name": "",
          "type": "uint256"
        }
      ],
      "stateMutability": "view",
      "type": "function"
    },
    {
      "inputs": [],
      "name": "maxWalletLimitEnabled",
      "outputs": [
        {
          "internalType": "bool",
          "name": "",
          "type": "bool"
        }
      ],
      "stateMutability": "view",
      "type": "function"
    },
    {
      "inputs": [],
      "name": "name",
      "outputs": [
        {
          "internalType": "string",
          "name": "",
          "type": "string"
        }
      ],
      "stateMutability": "view",
      "type": "function"
    },
    {
      "inputs": [],
      "name": "owner",
      "outputs": [
        {
          "internalType": "address",
          "name": "",
          "type": "address"
        }
      ],
      "stateMutability": "view",
      "type": "function"
    },
    {
      "inputs": [
        {
          "internalType": "address",
          "name": "pool",
          "type": "address"
        }
      ],
      "name": "removeLiquidityPool",
      "outputs": [],
      "stateMutability": "nonpayable",
      "type": "function"
    },
    {
      "inputs": [
        {
          "internalType": "address",
          "name": "account",
          "type": "address"
        }
      ],
      "name": "removeMaxWalletExemption",
      "outputs": [],
      "stateMutability": "nonpayable",
      "type": "function"
    },
    {
      "inputs": [
        {
          "internalType": "address",
          "name": "account",
          "type": "address"
        }
      ],
      "name": "removeTimelockExemption",
      "outputs": [],
      "stateMutability": "nonpayable",
      "type": "function"
    },
    {
      "inputs": [],
      "name": "renounceOwnership",
      "outputs": [],
      "stateMutability": "nonpayable",
      "type": "function"
    },
    {
      "inputs": [
        {
          "internalType": "uint256",
          "name": "newLimitBasisPoints",
          "type": "uint256"
        }
      ],
      "name": "setMaxWalletLimit",
      "outputs": [],
      "stateMutability": "nonpayable",
      "type": "function"
    },
    {
      "inputs": [],
      "name": "symbol",
      "outputs": [
        {
          "internalType": "string",
          "name": "",
          "type": "string"
        }
      ],
      "stateMutability": "view",
      "type": "function"
    },
    {
      "inputs": [],
      "name": "toggleMaxWalletLimit",
      "outputs": [],
      "stateMutability": "nonpayable",
      "type": "function"
    },
    {
      "inputs": [],
      "name": "totalSupply",
      "outputs": [
        {
          "internalType": "uint256",
          "name": "",
          "type": "uint256"
        }
      ],
      "stateMutability": "view",
      "type": "function"
    },
    {
      "inputs": [
        {
          "internalType": "address",
          "name": "to",
          "type": "address"
        },
        {
          "internalType": "uint256",
          "name": "amount",
          "type": "uint256"
        }
      ],
      "name": "transfer",
      "outputs": [
        {
          "internalType": "bool",
          "name": "",
          "type": "bool"
        }
      ],
      "stateMutability": "nonpayable",
      "type": "function"
    },
    {
      "inputs": [
        {
          "internalType": "address",
          "name": "from",
          "type": "address"
        },
        {
          "internalType": "address",
          "name": "to",
          "type": "address"
        },
        {
          "internalType": "uint256",
          "name": "amount",
          "type": "uint256"
        }
      ],
      "name": "transferFrom",
      "outputs": [
        {
          "internalType": "bool",
          "name": "",
          "type": "bool"
        }
      ],
      "stateMutability": "nonpayable",
      "type": "function"
    },
    {
      "inputs": [
        {
          "internalType": "address",
          "name": "newOwner",
          "type": "address"
        }
      ],
      "name": "transferOwnership",
      "outputs": [],
      "stateMutability": "nonpayable",
      "type": "function"
    },
    {
      "inputs": [],
      "name": "vault",
      "outputs": [
        {
          "internalType": "address",
          "name": "",
          "type": "address"
        }
      ],
      "stateMutability": "view",
      "type": "function"
    },
    {
      "inputs": [
        {
          "internalType": "address",
          "name": "token",
          "type": "address"
        },
        {
          "internalType": "uint256",
          "name": "amount",
          "type": "uint256"
        }
      ],
      "name": "withdrawERC20",
      "outputs": [],
      "stateMutability": "nonpayable",
      "type": "function"
    },
    {
      "inputs": [
        {
          "internalType": "uint256",
          "name": "amount",
          "type": "uint256"
        }
      ],
      "name": "withdrawETH",
      "outputs": [],
      "stateMutability": "nonpayable",
      "type": "function"
    },
    {
      "stateMutability": "payable",
      "type": "receive"
    }
  ],
  "bytecode": "0x604060808152346200043f5762002bd3803803806200001e8162000444565b928339810160a0828203126200043f5762000039826200046a565b916020918282015160018060401b03908181116200043f57826200005f9185016200047f565b9186840151908282116200043f576200007a9185016200047f565b916200008e6080606086015195016200046a565b9181518181116200033f576003908154906001948583811c9316801562000434575b8a8410146200041e578190601f93848111620003c8575b508a90848311600114620003615760009262000355575b505060001982851b1c191690851b1782555b85519283116200033f5760049586548581811c9116801562000334575b8a8210146200031f57828111620002d4575b508891841160011462000269579383949184926000956200025d575b50501b92600019911b1c19161782555b6001600160a01b0394851694851562000246576005549160018060a01b031996808885161760055582895194167f8be0079c531659141344cd1fd0a4f28419497f9722a3daafe3b4186f6b6457e0600080a316809560065416176006558415620002325750600254908282018092116200021d575060025560008381528083528481208054830190558451918252917fddf252ad1be2c89b69c2b068fc378daa952ba7f163c4a11628f55a4df523b3ef91a36006805460ff60a01b1916905560c8600755516126e19081620004f28239f35b601190634e487b7160e01b6000525260246000fd5b600060249263ec442f0560e01b8352820152fd5b8651631e4fbdf760e01b8152600081850152602490fd5b0151935038806200013b565b9190601f1984169287600052848a6000209460005b8c89838310620002bc5750505010620002a1575b50505050811b0182556200014b565b01519060f884600019921b161c191690553880808062000292565b8686015189559097019694850194889350016200027e565b87600052896000208380870160051c8201928c881062000315575b0160051c019086905b828110620003085750506200011f565b60008155018690620002f8565b92508192620002ef565b602288634e487b7160e01b6000525260246000fd5b90607f16906200010d565b634e487b7160e01b600052604160045260246000fd5b015190503880620000de565b60008681528c8120899550929190601f198516908e5b828210620003b0575050841162000397575b505050811b018255620000f0565b015160001983871b60f8161c1916905538808062000389565b8385015186558b979095019493840193018e62000377565b909150846000528a6000208480850160051c8201928d861062000414575b918991869594930160051c01915b82811062000404575050620000c7565b60008155859450899101620003f4565b92508192620003e6565b634e487b7160e01b600052602260045260246000fd5b92607f1692620000b0565b600080fd5b6040519190601f01601f191682016001600160401b038111838210176200033f57604052565b51906001600160a01b03821682036200043f57565b919080601f840112156200043f5782516001600160401b0381116200033f57602090620004b5601f8201601f1916830162000444565b928184528282870101116200043f5760005b818110620004dd57508260009394955001015290565b8581018301518482018401528201620004c756fe6080604081815260049182361015610022575b505050361561002057600080fd5b005b600092833560e01c91826306fdde0314610e6057508163095ea7b314610db657816309c95a1b14610d9257816318160ddd14610d7357816321a9d82a14610d4c57816323b872dd14610d05578163247165b714610ccb5781632e7908e414610cac578163313ce56714610c9057816342966c6814610c72578163593b99e314610c1657816370a0823114610bdf578163715018a614610b82578163728d41c914610b1357816379cc679014610ae05781637a49c3b014610a665781637f45c4c3146109ec5781638da5cb5b146109c357816395d89b41146108c4578163a0cde18d1461089b578163a1db9782146107be578163a9059cbb14610783578163ae22107f14610727578163b6d51c15146106ba578163c77f6cc61461065e578163d29b710314610624578163d4ce85f3146105e0578163d8165743146105a0578163d98040c914610518578163dd62ed3e146104cf578163e6d4d75c14610470578163e85455d714610436578163ee6a934c146103ad578163eff201bd14610390578163f14210a614610306578163f2fde38b14610276578163f5664c45146101ff575063fbfa77cf146101d45780610012565b346101fb57816003193601126101fb5760065490516001600160a01b039091168152602090f35b5080fd5b9050346102725760203660031901126102725761021a610f9e565b610222611013565b6001600160a01b031691821561026557505061023d81611291565b507f62d21812a383819d08d8ed6516ba6dfa7ba3ae019746b71f17c67a38481a80a18280a280f35b5163b47cdee560e01b8152fd5b8280fd5b90503461027257602036600319011261027257610291610f9e565b9061029a611013565b6001600160a01b039182169283156102f0575050600554826bffffffffffffffffffffffff60a01b821617600555167f8be0079c531659141344cd1fd0a4f28419497f9722a3daafe3b4186f6b6457e08380a380f35b51631e4fbdf760e01b8152908101849052602490fd5b9190503461027257602036600319011261027257610322611013565b828080808535335af13d1561038b573d67ffffffffffffffff811161037857825190610358601f8201601f19166020018361108e565b81528460203d92013e5b1561036b578280f35b516312171d8360e31b8152fd5b634e487b7160e01b855260418452602485fd5b610362565b5050346101fb57816003193601126101fb57602090516103e88152f35b905034610272576020366003190112610272576103c8610f9e565b916103d1611013565b6001600160a01b038316928315610428573b1561041b5750506103f381611244565b507fb893f883ef734b712208a877459424ee509832c57e0461fb1ac99ed4d42f2d898280a280f35b51630f9da0c760e41b8152fd5b505163b47cdee560e01b8152fd5b5050346101fb5760203660031901126101fb5760209181906001600160a01b0361045e610f9e565b16815260098452205415159051908152f35b83346104cc5760203660031901126104cc5761048a610f9e565b610492611013565b6001600160a01b03166104a4816111c7565b507ffc9dbe314ed9f975da84bf7665838b1f60db2efccc75299784a49cbe0752f1af8280a280f35b80fd5b5050346101fb57806003193601126101fb57806020926104ed610f9e565b6104f5610fb9565b6001600160a01b0391821683526001865283832091168252845220549051908152f35b8284346104cc57806003193601126104cc578151918291600a54808552602080950194600a83527fc65a7bb8d6351c1cf70c95a316cc6a92839c986682d98bc35f958f4883f9d2a892905b82821061058957610585868661057b828b038361108e565b5191829182610fcf565b0390f35b835487529586019560019384019390910190610563565b8383346101fb57816003193601126101fb576105ba6110b0565b905191838210156105cd57602083838152f35b634e487b7160e01b815260218452602490fd5b905082346104cc57806003193601126104cc576105fb6110b0565b9180831015610611576020836003865191148152f35b634e487b7160e01b825260219052602490fd5b5050346101fb5760203660031901126101fb5760209181906001600160a01b0361064c610f9e565b168152600d8452205415159051908152f35b83346104cc5760203660031901126104cc57610678610f9e565b610680611013565b6001600160a01b0316610692816114a4565b507f23d60777ebe8928281accb2b7cec3b8daea87dcd3dd3af91a937fea6d89815078280a280f35b5050346101fb57816003193601126101fb5760207f332d7bea063a0938b953d43a65a2561e65e6a2ab7cce108c3543e7ffc78ed089916106f8611013565b60ff6006548160a01b828260a01c161560a01b16908260a01b1916179182600655519160a01c1615158152a180f35b83346104cc5760203660031901126104cc57610741610f9e565b610749611013565b6001600160a01b031661075b816113fb565b507f59c3fbcae88f30e9b0e35c132a7f68c53231dffa4722f197c7ecb0ee013eee608280a280f35b5050346101fb57806003193601126101fb576020906107b76107a3610f9e565b602435906107b18282611684565b3361158a565b5160018152f35b919050346102725780600319360112610272576107d9610f9e565b6107e1611013565b6001600160a01b03169030821461088c578051602081019063a9059cbb60e01b82523360248201526024356044820152604481526080810181811067ffffffffffffffff8211176108795783525160209186919082865af1156108705783513d6108675750813b155b610852578380f35b51635274afe760e01b81529182015260249150fd5b6001141561084a565b513d84823e3d90fd5b634e487b7160e01b875260418652602487fd5b5163992501b360e01b81529050fd5b5050346101fb57816003193601126101fb57610585906108b9611cf7565b905191829182610f55565b8383346101fb57816003193601126101fb57805191809380549160019083821c928285169485156109b9575b60209586861081146109a657858952908115610982575060011461092a575b6105858787610920828c038361108e565b5191829182610f55565b81529295507f8a35acfbc15ff81a39ae7d344fd709f28e8600b4aa8c65c6b64bfe7fe36bd19b5b82841061096f5750505082610585946109209282010194868061090f565b8054868501880152928601928101610951565b60ff19168887015250505050151560051b830101925061092082610585868061090f565b634e487b7160e01b845260228352602484fd5b93607f16936108f0565b5050346101fb57816003193601126101fb5760055490516001600160a01b039091168152602090f35b8284346104cc57806003193601126104cc578151918291600854808552602080950194600883527ff3f7a9fe364faab93b216da50a3214154f22a0a2b415b23a84c8169e8b636ee392905b828210610a4f57610585868661057b828b038361108e565b835487529586019560019384019390910190610a37565b8284346104cc57806003193601126104cc578151918291600c54808552602080950194600c83527fdf6966c971051c3d54ec59162606531493a51404a002842f56009d7e5cf4a8c792905b828210610ac957610585868661057b828b038361108e565b835487529586019560019384019390910190610ab1565b5050346101fb573660031901126104cc57610b10610afc610f9e565b60243590610b0b8233836116f5565b6117c8565b80f35b90503461027257602036600319011261027257803590610b31611013565b6103e88211610b745750907f50e1fb16091eadb369c37f99d26adca8dbd16d539d94bbc1764068b72dfe104391600754908060075582519182526020820152a180f35b82516368d4a02760e11b8152fd5b83346104cc57806003193601126104cc57610b9b611013565b600580546001600160a01b0319811690915581906001600160a01b03167f8be0079c531659141344cd1fd0a4f28419497f9722a3daafe3b4186f6b6457e08280a380f35b5050346101fb5760203660031901126101fb5760209181906001600160a01b03610c07610f9e565b16815280845220549051908152f35b83346104cc5760203660031901126104cc57610c30610f9e565b610c38611013565b6001600160a01b0316610c4a81611311565b507fde039579c013ddaaba1072c1705a38783af193b3cd968748799ceffa63222dfb8280a280f35b8390346101fb5760203660031901126101fb57610b109035336117c8565b5050346101fb57816003193601126101fb576020905160128152f35b5050346101fb57816003193601126101fb576020906007549051908152f35b5050346101fb5760203660031901126101fb5760209181906001600160a01b03610cf3610f9e565b168152600b8452205415159051908152f35b5050346101fb5760603660031901126101fb576020906107b7610d26610f9e565b610d2e610fb9565b60443591610d3c8383611684565b610d478333836116f5565b61158a565b5050346101fb57816003193601126101fb5760209060ff60065460a01c1690519015158152f35b5050346101fb57816003193601126101fb576020906002549051908152f35b5050346101fb57816003193601126101fb57602090610daf611560565b9051908152f35b905034610272578160031936011261027257610dd0610f9e565b602435903315610e49576001600160a01b0316918215610e3257508083602095338152600187528181208582528752205582519081527f8c5be1e5ebec7d5bd14f71427d1e84f3dd0314c0f7b2291e5b200ac8c7c3b925843392a35160018152f35b8351634a1406b160e11b8152908101859052602490fd5b835163e602df0560e01b8152808401869052602490fd5b92915034610f515783600319360112610f5157600354600181811c9186908281168015610f47575b6020958686108214610f345750848852908115610f125750600114610eb9575b6105858686610920828b038361108e565b929550600383527fc2575a0e9e593c00f959f8c92f12db2869c3395a3b0502d05e2516446f71f85b5b828410610eff575050508261058594610920928201019438610ea8565b8054868501880152928601928101610ee2565b60ff191687860152505050151560051b83010192506109208261058538610ea8565b634e487b7160e01b845260229052602483fd5b93607f1693610e88565b8380fd5b6020808252825181830181905290939260005b828110610f8a57505060409293506000838284010152601f8019910116010190565b818101860151848201604001528501610f68565b600435906001600160a01b0382168203610fb457565b600080fd5b602435906001600160a01b0382168203610fb457565b6020908160408183019282815285518094520193019160005b828110610ff6575050505090565b83516001600160a01b031685529381019392810192600101610fe8565b6005546001600160a01b0316330361102757565b60405163118cdaa760e01b8152336004820152602490fd5b610180810190811067ffffffffffffffff82111761105c57604052565b634e487b7160e01b600052604160045260246000fd5b6040810190811067ffffffffffffffff82111761105c57604052565b90601f8019910116810190811067ffffffffffffffff82111761105c57604052565b6110b8611867565b6110c181611bf4565b611106576110ce8161256b565b80159081156110fb575b506110f5576110e690611ba1565b156110f057600390565b600290565b50600190565b6006915014386110d8565b50600090565b600a5481101561114357600a6000527fc65a7bb8d6351c1cf70c95a316cc6a92839c986682d98bc35f958f4883f9d2a80190600090565b634e487b7160e01b600052603260045260246000fd5b6008548110156111435760086000527ff3f7a9fe364faab93b216da50a3214154f22a0a2b415b23a84c8169e8b636ee30190600090565b600c5481101561114357600c6000527fdf6966c971051c3d54ec59162606531493a51404a002842f56009d7e5cf4a8c70190600090565b6000818152600b602052604081205461123f57600a54600160401b81101561122b57908261121761120084600160409601600a5561110c565b819391549060031b91821b91600019901b19161790565b9055600a54928152600b6020522055600190565b634e487b7160e01b82526041600452602482fd5b905090565b60008181526009602052604081205461123f57600854600160401b81101561122b57908261127d61120084600160409601600855611159565b905560085492815260096020522055600190565b6000818152600d602052604081205461123f57600c54600160401b81101561122b5790826112ca61120084600160409601600c55611190565b9055600c54928152600d6020522055600190565b6101dc198101919082116112ee57565b634e487b7160e01b600052601160045260246000fd5b919082039182116112ee57565b6000818152600d602052604081205490919080156113f657600019908082018181116113e257600c54908382019182116113ce5781810361139a575b505050600c5480156113865781019061136582611190565b909182549160031b1b19169055600c558152600d6020526040812055600190565b634e487b7160e01b84526031600452602484fd5b6113b86113a961120093611190565b90549060031b1c928392611190565b90558452600d602052604084205538808061134d565b634e487b7160e01b86526011600452602486fd5b634e487b7160e01b85526011600452602485fd5b505090565b60008181526009602052604081205490919080156113f657600019908082018181116113e257600854908382019182116113ce57818103611470575b50505060085480156113865781019061144f82611159565b909182549160031b1b19169055600855815260096020526040812055600190565b61148e61147f61120093611159565b90549060031b1c928392611159565b9055845260096020526040842055388080611437565b6000818152600b602052604081205490919080156113f657600019908082018181116113e257600a54908382019182116113ce57818103611519575b505050600a548015611386578101906114f88261110c565b909182549160031b1b19169055600a558152600b6020526040812055600190565b6115376115286112009361110c565b90549060031b1c92839261110c565b90558452600b60205260408420553880806114e0565b818102929181159184041417156112ee57565b60ff60065460a01c1615611584576127106115806002546007549061154d565b0490565b60001990565b916001600160a01b0380841692831561164f57169283156116365760009083825281602052604082205490838210611604575091604082827fddf252ad1be2c89b69c2b068fc378daa952ba7f163c4a11628f55a4df523b3ef958760209652828652038282205586815220818154019055604051908152a3565b60405163391434e360e21b81526001600160a01b03919091166004820152602481019190915260448101839052606490fd5b60405163ec442f0560e01b815260006004820152602490fd5b604051634b637e8f60e11b815260006004820152602490fd5b90611c2082018092116112ee57565b919082018092116112ee57565b60ff60065460a01c16156116f1576001600160a01b03166000908152600d60205260409020546116ee576116c2906000602052604060002054611677565b6127106116d46002546007549061154d565b04106116dc57565b60405163af1a8f1960e01b8152600490fd5b50565b5050565b9160018060a01b038093169160009383855260016020526040938486209183169182875260205284862054926000198410611734575b50505050505050565b848410611798575080156117805781156117685785526001602052838520908552602052039120553880808080808061172b565b8451634a1406b160e11b815260048101879052602490fd5b845163e602df0560e01b815260048101879052602490fd5b8551637dc7a0d960e11b81526001600160a01b039190911660048201526024810184905260448101859052606490fd5b906001600160a01b03821690811561164f57600092828452836020526040842054908282106118355750817fddf252ad1be2c89b69c2b068fc378daa952ba7f163c4a11628f55a4df523b3ef926020928587528684520360408620558060025403600255604051908152a3565b60405163391434e360e21b81526001600160a01b03919091166004820152602481019190915260448101829052606490fd5b611870426121db565b60006107b25b828110611b5d57506040519161188b8361103f565b601f8084526020840190601c8252806040860152601e918260608701528160808701528260a08701528160c08701528160e08701526101009083828801526101209280848901526101409785898201526101609082828201526118ed88612583565b9384611b53575b506001905b60038210611b0b57505061190c8861256b565b60009080611aed575050600e955b600019968088019081116112ee5762015180998a8202918083048c14901517156112ee576119509161194b91611677565b611668565b996000986107b2905b808210611aa757505083604051976119708961103f565b8189528360208a0198601c8a528360408c01528160608c01528360808c01528160a08c01528360c08c01528360e08c01528a0152880152860152840152611a9d575b506001905b600b8210611a5b5750506119ca8261256b565b60009080611a345750506001905b81019081116112ee578281029281840414901517156112ee576119fe9161194b91611677565b904210159081611a2a575b5015611a1f57611a1c6138405b42611304565b90565b611a1c614650611a16565b9050421038611a09565b6008039060088211611a475750906119d8565b634e487b7160e01b81526011600452602490fd5b90928284018481116112ee57611a7190836122a7565b5190858202918083048714901517156112ee57611a9791611a9191611677565b936122b8565b906119b7565b601d9052386119b2565b9099611ab28b612583565b15611ad5576301e2850081018091116112ee57611acf909a6122b8565b90611959565b6301e1338081018091116112ee57611acf909a6122b8565b600e0390600e8211611a475760078201809211611a4757509561191a565b90986000198a018a81116112ee57611b2390836122a7565b519062015180918281029281840414901517156112ee57611b4d91611b4791611677565b996122b8565b906118f9565b601d9052386118f4565b90611b6782612583565b15611b89576301e2850081018091116112ee57611b8490916122b8565b611876565b6301e1338081018091116112ee57611b8490916122b8565b6018610e10820406600981108015611be9575b611be2576009149081611bd1575b50611bcc57600190565b600090565b601e9150603c809104061038611bc2565b5050600090565b506010811015611bb4565b611bfd906122c7565b600192918084148080611cee575b611cd3576007821480611ce4575b611cd357600c821480611cda575b611cd35780611cc2575b611c89576002811480611cb1575b611c89576005811480611ca0575b611c89576009811480611c8f575b611c8957600b81149283611c77575b505050611a1c5750600090565b611c819350612193565b388080611c6a565b50505090565b50611c9b82828561215a565b611c5b565b50611cac828285611fd2565b611c4d565b50611cbd828285611f85565b611c3f565b50611cce828285611f85565b611c31565b5050505090565b5060198314611c27565b5060048314611c19565b50848314611c0b565b611d07611d02611867565b6122c7565b90600181148080611f7b575b611f4d576007821480611f43575b611f1357600c821480611f09575b611edc5780611ecb575b611e8f576002811480611e7e575b611e51576005811480611e40575b611e15576009811480611e04575b611ddc57600b81149283611dca575b505050611da257604051611d8581611072565b600d81526c4e6f74206120486f6c6964617960981b602082015290565b604051611dae81611072565b600c81526b5468616e6b73676976696e6760a01b602082015290565b611dd49350612193565b388080611d72565b505050604051611deb81611072565b60098152684c61626f722044617960b81b602082015290565b50611e1082828561215a565b611d63565b505050604051611e2481611072565b600c81526b4d656d6f7269616c2044617960a01b602082015290565b50611e4c828285611fd2565b611d55565b505050604051611e6081611072565b600e81526d507265736964656e74732044617960901b602082015290565b50611e8a828285611f85565b611d47565b505050604051611e9e81611072565b601a81527f4d617274696e204c7574686572204b696e67204a722e20446179000000000000602082015290565b50611ed7828285611f85565b611d39565b50505050604051611eec81611072565b600d81526c4368726973746d61732044617960981b602082015290565b5060198314611d2f565b50505050604051611f2381611072565b601081526f496e646570656e64656e63652044617960801b602082015290565b5060048314611d21565b50505050604051611f5d81611072565b600e81526d4e6577205965617227732044617960901b602082015290565b5060018314611d13565b611f9791611f929161244a565b61256b565b600060018211611fbe5750600203600281116112ee57905b600e82018092116112ee571490565b906009039060098211611a47575090611faf565b611fdc82826125cc565b916000916107b25b818110612116575060405190611ff98261103f565b612053601f918284526020840192601c8452806040860152601e6060860152806080860152601e60a08601528060c08601528060e0860152601e61010086015280610120860152601e610140860152610160850152612583565b61210c575b50906001915b8183106120c85750505060001990818301908382116112ee5762015180918281029281840414901517156112ee5761209991611f9291611677565b90600090826120b5575050506120b190600690611304565b1490565b8201918211611a4757506120b191611304565b90919260001984018481116112ee576120e190836122a7565b519062015180918281029281840414901517156112ee5761210591611a9191611677565b919061205e565b601d905238612058565b9261212084612583565b15612142576301e2850081018091116112ee5761213d90936122b8565b611fe4565b6301e1338081018091116112ee5761213d90936122b8565b61216791611f929161244a565b6000600182116121815750600203600281116112ee571490565b906009039060098211611a4757501490565b6121a091611f929161244a565b6000600482116121c75750600503600581116112ee57905b601582018092116112ee571490565b90600c0390600c8211611a475750906121b8565b6000906107b26301e187e08204808201809211612293578193612205612200846125a1565b6112de565b928211611a47576301e133809180830292830403611a47576201518092838102938185041490151715611a4757509061224091939293611677565b82811161224d5750905090565b60001982019182116112ee5761226282612583565b1561227e576301e284ff1981019081116112ee57905b90612240565b6301e1337f1981019081116112ee5790612278565b634e487b7160e01b84526011600452602484fd5b90600c8110156111435760051b0190565b60001981146112ee5760010190565b9060009060006122d6846121db565b936122e3612200866125a1565b6107b11986019190868311612293576301e133809280840293840403612293576201518092838202918083048514901517156113e25761232d929161232791611677565b90611304565b6040519061233a8261103f565b610180368337601f80835261234e88612583565b1561243e57601d60208401525b806040840152601e6060840152806080840152601e60a08401528060c08401528060e0840152601e61010084015280610120840152601e61014084015261016083015283906001925b600c8411156123ca575b506123b99250611304565b049060018201809211611a47575090565b9091600019840184811161242a576123e290836122a7565b51908582029180830487149015171561242a57836124008284611677565b1161241a5761241291611a9191611677565b9291906123a4565b92975050506123b99195386123ae565b634e487b7160e01b87526011600452602487fd5b601c602084015261235b565b906000916107b25b8181106125275750604051906124678261103f565b6124c1601f918284526020840192601c8452806040860152601e6060860152806080860152601e60a08601528060c08601528060e0860152601e61010086015280610120860152601e610140860152610160850152612583565b61251d575b50906001915b8183106124d95750505090565b90919260001984018481116112ee576124f290836122a7565b519062015180918281029281840414901517156112ee5761251691611a9191611677565b91906124cc565b601d9052386124c6565b9261253184612583565b15612553576301e2850081018091116112ee5761254e90936122b8565b612452565b6301e1338081018091116112ee5761254e90936122b8565b620151809004600481018091116112ee576007900690565b6003811661110657606481066110f5576101909006611bcc57600190565b60001981019081116112ee57806101906125c46064611a1c94048360021c611304565b910490611677565b906001811480156126a1575b8015612697575b801561268d575b8015612683575b8015612679575b801561266f575b15612607575050601f90565b600481148015612665575b801561265b575b8015612651575b1561262c575050601e90565b6002146126395750600090565b61264290612583565b1561264c57601d90565b601c90565b50600b8114612620565b5060098114612619565b5060068114612612565b50600c81146125fb565b50600a81146125f4565b50600881146125ed565b50600781146125e6565b50600581146125df565b50600381146125d856fea26469706673582212207655dab85c8b86fe53af02e42b472fb570f8d4d99314ced753ef57bb4c77c39464736f6c63430008140033",
  "linkReferences": {},
  "deployedLinkReferences": {}
}