{
  "_format": "hh-sol-artifact-1",
  "contractName": "StonkToken",
  "sourceName": "contracts/StonkToken.sol",
  "abi": [
    {
      "inputs": [
        {
          "internalType": "address",
          "name": "owner_",
          "type": "address"
        },
        {
          "internalType": "string",
          "name": "name_",
          "type": "string"
        },
        {
          "internalType": "string",
          "name": "symbol_",
          "type": "string"
        },
        {
          "internalType": "uint256",
          "name": "totalSupply_",
          "type": "uint256"
        },
        {
          "internalType": "address",
          "name": "vault_",
          "type": "address"
        },
        {
          "components": [
            {
              "internalType": "uint16",
              "name": "projectBuyTaxBasisPoints",
              "type": "uint16"
            },
            {
              "internalType": "uint16",
              "name": "projectSellTaxBasisPoints",
              "type": "uint16"
            },
            {
              "internalType": "uint16",
              "name": "taxSwapThresholdBasisPoints",
              "type": "uint16"
            },
            {
              "internalType": "address",
              "name": "projectTaxRecipient",
              "type": "address"
            }
          ],
          "internalType": "struct IStonkToken.TaxParameters",
          "name": "taxParams_",
          "type": "tuple"
        }
      ],
      "stateMutability": "nonpayable",
      "type": "constructor"
    },
    {
      "inputs": [],
      "name": "CannotWithdrawThisToken",
      "type": "error"
    },
    {
      "inputs": [
        {
          "internalType": "address",
          "name": "spender",
          "type": "address"
        },
        {
          "internalType": "uint256",
          "name": "allowance",
          "type": "uint256"
        },
        {
          "internalType": "uint256",
          "name": "needed",
          "type": "uint256"
        }
      ],
      "name": "ERC20InsufficientAllowance",
      "type": "error"
    },
    {
      "inputs": [
        {
          "internalType": "address",
          "name": "sender",
          "type": "address"
        },
        {
          "internalType": "uint256",
          "name": "balance",
          "type": "uint256"
        },
        {
          "internalType": "uint256",
          "name": "needed",
          "type": "uint256"
        }
      ],
      "name": "ERC20InsufficientBalance",
      "type": "error"
    },
    {
      "inputs": [
        {
          "internalType": "address",
          "name": "approver",
          "type": "address"
        }
      ],
      "name": "ERC20InvalidApprover",
      "type": "error"
    },
    {
      "inputs": [
        {
          "internalType": "address",
          "name": "receiver",
          "type": "address"
        }
      ],
      "name": "ERC20InvalidReceiver",
      "type": "error"
    },
    {
      "inputs": [
        {
          "internalType": "address",
          "name": "sender",
          "type": "address"
        }
      ],
      "name": "ERC20InvalidSender",
      "type": "error"
    },
    {
      "inputs": [
        {
          "internalType": "address",
          "name": "spender",
          "type": "address"
        }
      ],
      "name": "ERC20InvalidSpender",
      "type": "error"
    },
    {
      "inputs": [],
      "name": "LiquidityPoolCannotBeAddressZero",
      "type": "error"
    },
    {
      "inputs": [],
      "name": "LiquidityPoolMustBeAContractAddress",
      "type": "error"
    },
    {
      "inputs": [],
      "name": "MarketClosedAfterHours",
      "type": "error"
    },
    {
      "inputs": [
        {
          "internalType": "string",
          "name": "holiday",
          "type": "string"
        }
      ],
      "name": "MarketClosedForHoliday",
      "type": "error"
    },
    {
      "inputs": [],
      "name": "MarketClosedForWeekend",
      "type": "error"
    },
    {
      "inputs": [
        {
          "internalType": "address",
          "name": "owner",
          "type": "address"
        }
      ],
      "name": "OwnableInvalidOwner",
      "type": "error"
    },
    {
      "inputs": [
        {
          "internalType": "address",
          "name": "account",
          "type": "address"
        }
      ],
      "name": "OwnableUnauthorizedAccount",
      "type": "error"
    },
    {
      "inputs": [
        {
          "internalType": "address",
          "name": "token",
          "type": "address"
        }
      ],
      "name": "SafeERC20FailedOperation",
      "type": "error"
    },
    {
      "inputs": [],
      "name": "TransferFailed",
      "type": "error"
    },
    {
      "anonymous": false,
      "inputs": [
        {
          "indexed": true,
          "internalType": "address",
          "name": "owner",
          "type": "address"
        },
        {
          "indexed": true,
          "internalType": "address",
          "name": "spender",
          "type": "address"
        },
        {
          "indexed": false,
          "internalType": "uint256",
          "name": "value",
          "type": "uint256"
        }
      ],
      "name": "Approval",
      "type": "event"
    },
    {
      "anonymous": false,
      "inputs": [
        {
          "indexed": false,
          "internalType": "uint256",
          "name": "oldThreshold",
          "type": "uint256"
        },
        {
          "indexed": false,
          "internalType": "uint256",
          "name": "newThreshold",
          "type": "uint256"
        }
      ],
      "name": "AutoSwapThresholdUpdated",
      "type": "event"
    },
    {
      "anonymous": false,
      "inputs": [
        {
          "indexed": false,
          "internalType": "uint256",
          "name": "identifier",
          "type": "uint256"
        }
      ],
      "name": "ExternalCallError",
      "type": "event"
    },
    {
      "anonymous": false,
      "inputs": [
        {
          "indexed": true,
          "internalType": "address",
          "name": "pool",
          "type": "address"
        }
      ],
      "name": "LiquidityPoolAdded",
      "type": "event"
    },
    {
      "anonymous": false,
      "inputs": [
        {
          "indexed": true,
          "internalType": "address",
          "name": "pool",
          "type": "address"
        }
      ],
      "name": "LiquidityPoolRemoved",
      "type": "event"
    },
    {
      "anonymous": false,
      "inputs": [
        {
          "indexed": false,
          "internalType": "enum IStonkToken.MarketState",
          "name": "state",
          "type": "uint8"
        },
        {
          "indexed": false,
          "internalType": "string",
          "name": "reason",
          "type": "string"
        }
      ],
      "name": "MarketClosed",
      "type": "event"
    },
    {
      "anonymous": false,
      "inputs": [
        {
          "indexed": true,
          "internalType": "address",
          "name": "firstTrader",
          "type": "address"
        }
      ],
      "name": "MarketOpened",
      "type": "event"
    },
    {
      "anonymous": false,
      "inputs": [
        {
          "indexed": true,
          "internalType": "address",
          "name": "previousOwner",
          "type": "address"
        },
        {
          "indexed": true,
          "internalType": "address",
          "name": "newOwner",
          "type": "address"
        }
      ],
      "name": "OwnershipTransferred",
      "type": "event"
    },
    {
      "anonymous": false,
      "inputs": [
        {
          "indexed": false,
          "internalType": "uint16",
          "name": "oldBuyTax",
          "type": "uint16"
        },
        {
          "indexed": false,
          "internalType": "uint16",
          "name": "newBuyTax",
          "type": "uint16"
        },
        {
          "indexed": false,
          "internalType": "uint16",
          "name": "oldSellTax",
          "type": "uint16"
        },
        {
          "indexed": false,
          "internalType": "uint16",
          "name": "newSellTax",
          "type": "uint16"
        }
      ],
      "name": "ProjectTaxBasisPointsChanged",
      "type": "event"
    },
    {
      "anonymous": false,
      "inputs": [
        {
          "indexed": true,
          "internalType": "address",
          "name": "newRecipient",
          "type": "address"
        }
      ],
      "name": "ProjectTaxRecipientUpdated",
      "type": "event"
    },
    {
      "anonymous": false,
      "inputs": [
        {
          "indexed": true,
          "internalType": "address",
          "name": "account",
          "type": "address"
        }
      ],
      "name": "TimelockExemptionAdded",
      "type": "event"
    },
    {
      "anonymous": false,
      "inputs": [
        {
          "indexed": true,
          "internalType": "address",
          "name": "account",
          "type": "address"
        }
      ],
      "name": "TimelockExemptionRemoved",
      "type": "event"
    },
    {
      "anonymous": false,
      "inputs": [
        {
          "indexed": true,
          "internalType": "address",
          "name": "from",
          "type": "address"
        },
        {
          "indexed": true,
          "internalType": "address",
          "name": "to",
          "type": "address"
        },
        {
          "indexed": false,
          "internalType": "uint256",
          "name": "value",
          "type": "uint256"
        }
      ],
      "name": "Transfer",
      "type": "event"
    },
    {
      "inputs": [
        {
          "internalType": "address",
          "name": "pool",
          "type": "address"
        }
      ],
      "name": "addLiquidityPool",
      "outputs": [],
      "stateMutability": "nonpayable",
      "type": "function"
    },
    {
      "inputs": [
        {
          "internalType": "address",
          "name": "account",
          "type": "address"
        }
      ],
      "name": "addTimelockExemption",
      "outputs": [],
      "stateMutability": "nonpayable",
      "type": "function"
    },
    {
      "inputs": [
        {
          "internalType": "address",
          "name": "owner",
          "type": "address"
        },
        {
          "internalType": "address",
          "name": "spender",
          "type": "address"
        }
      ],
      "name": "allowance",
      "outputs": [
        {
          "internalType": "uint256",
          "name": "",
          "type": "uint256"
        }
      ],
      "stateMutability": "view",
      "type": "function"
    },
    {
      "inputs": [
        {
          "internalType": "address",
          "name": "spender",
          "type": "address"
        },
        {
          "internalType": "uint256",
          "name": "value",
          "type": "uint256"
        }
      ],
      "name": "approve",
      "outputs": [
        {
          "internalType": "bool",
          "name": "",
          "type": "bool"
        }
      ],
      "stateMutability": "nonpayable",
      "type": "function"
    },
    {
      "inputs": [
        {
          "internalType": "address",
          "name": "account",
          "type": "address"
        }
      ],
      "name": "balanceOf",
      "outputs": [
        {
          "internalType": "uint256",
          "name": "",
          "type": "uint256"
        }
      ],
      "stateMutability": "view",
      "type": "function"
    },
    {
      "inputs": [
        {
          "internalType": "uint256",
          "name": "value",
          "type": "uint256"
        }
      ],
      "name": "burn",
      "outputs": [],
      "stateMutability": "nonpayable",
      "type": "function"
    },
    {
      "inputs": [
        {
          "internalType": "address",
          "name": "account",
          "type": "address"
        },
        {
          "internalType": "uint256",
          "name": "value",
          "type": "uint256"
        }
      ],
      "name": "burnFrom",
      "outputs": [],
      "stateMutability": "nonpayable",
      "type": "function"
    },
    {
      "inputs": [],
      "name": "decimals",
      "outputs": [
        {
          "internalType": "uint8",
          "name": "",
          "type": "uint8"
        }
      ],
      "stateMutability": "view",
      "type": "function"
    },
    {
      "inputs": [],
      "name": "distributeTaxTokens",
      "outputs": [],
      "stateMutability": "nonpayable",
      "type": "function"
    },
    {
      "inputs": [],
      "name": "getCurrentHoliday",
      "outputs": [
        {
          "internalType": "string",
          "name": "",
          "type": "string"
        }
      ],
      "stateMutability": "view",
      "type": "function"
    },
    {
      "inputs": [],
      "name": "getLiquidityPools",
      "outputs": [
        {
          "internalType": "address[]",
          "name": "",
          "type": "address[]"
        }
      ],
      "stateMutability": "view",
      "type": "function"
    },
    {
      "inputs": [],
      "name": "getMarketState",
      "outputs": [
        {
          "internalType": "enum IStonkToken.MarketState",
          "name": "",
          "type": "uint8"
        }
      ],
      "stateMutability": "view",
      "type": "function"
    },
    {
      "inputs": [],
      "name": "getTimelockExemptions",
      "outputs": [
        {
          "internalType": "address[]",
          "name": "",
          "type": "address[]"
        }
      ],
      "stateMutability": "view",
      "type": "function"
    },
    {
      "inputs": [
        {
          "internalType": "address",
          "name": "account",
          "type": "address"
        }
      ],
      "name": "isExemptFromTimelock",
      "outputs": [
        {
          "internalType": "bool",
          "name": "",
          "type": "bool"
        }
      ],
      "stateMutability": "view",
      "type": "function"
    },
    {
      "inputs": [
        {
          "internalType": "address",
          "name": "account",
          "type": "address"
        }
      ],
      "name": "isLiquidityPool",
      "outputs": [
        {
          "internalType": "bool",
          "name": "",
          "type": "bool"
        }
      ],
      "stateMutability": "view",
      "type": "function"
    },
    {
      "inputs": [],
      "name": "isMarketOpen",
      "outputs": [
        {
          "internalType": "bool",
          "name": "",
          "type": "bool"
        }
      ],
      "stateMutability": "view",
      "type": "function"
    },
    {
      "inputs": [],
      "name": "name",
      "outputs": [
        {
          "internalType": "string",
          "name": "",
          "type": "string"
        }
      ],
      "stateMutability": "view",
      "type": "function"
    },
    {
      "inputs": [],
      "name": "owner",
      "outputs": [
        {
          "internalType": "address",
          "name": "",
          "type": "address"
        }
      ],
      "stateMutability": "view",
      "type": "function"
    },
    {
      "inputs": [],
      "name": "projectBuyTaxBasisPoints",
      "outputs": [
        {
          "internalType": "uint16",
          "name": "",
          "type": "uint16"
        }
      ],
      "stateMutability": "view",
      "type": "function"
    },
    {
      "inputs": [],
      "name": "projectSellTaxBasisPoints",
      "outputs": [
        {
          "internalType": "uint16",
          "name": "",
          "type": "uint16"
        }
      ],
      "stateMutability": "view",
      "type": "function"
    },
    {
      "inputs": [],
      "name": "projectTaxPendingSwap",
      "outputs": [
        {
          "internalType": "uint128",
          "name": "",
          "type": "uint128"
        }
      ],
      "stateMutability": "view",
      "type": "function"
    },
    {
      "inputs": [],
      "name": "projectTaxRecipient",
      "outputs": [
        {
          "internalType": "address",
          "name": "",
          "type": "address"
        }
      ],
      "stateMutability": "view",
      "type": "function"
    },
    {
      "inputs": [
        {
          "internalType": "address",
          "name": "pool",
          "type": "address"
        }
      ],
      "name": "removeLiquidityPool",
      "outputs": [],
      "stateMutability": "nonpayable",
      "type": "function"
    },
    {
      "inputs": [
        {
          "internalType": "address",
          "name": "account",
          "type": "address"
        }
      ],
      "name": "removeTimelockExemption",
      "outputs": [],
      "stateMutability": "nonpayable",
      "type": "function"
    },
    {
      "inputs": [],
      "name": "renounceOwnership",
      "outputs": [],
      "stateMutability": "nonpayable",
      "type": "function"
    },
    {
      "inputs": [
        {
          "internalType": "uint16",
          "name": "newBuyTax",
          "type": "uint16"
        },
        {
          "internalType": "uint16",
          "name": "newSellTax",
          "type": "uint16"
        }
      ],
      "name": "setProjectTaxRates",
      "outputs": [],
      "stateMutability": "nonpayable",
      "type": "function"
    },
    {
      "inputs": [
        {
          "internalType": "address",
          "name": "recipient",
          "type": "address"
        }
      ],
      "name": "setProjectTaxRecipient",
      "outputs": [],
      "stateMutability": "nonpayable",
      "type": "function"
    },
    {
      "inputs": [
        {
          "internalType": "uint16",
          "name": "threshold",
          "type": "uint16"
        }
      ],
      "name": "setSwapThresholdBasisPoints",
      "outputs": [],
      "stateMutability": "nonpayable",
      "type": "function"
    },
    {
      "inputs": [],
      "name": "swapThresholdBasisPoints",
      "outputs": [
        {
          "internalType": "uint16",
          "name": "",
          "type": "uint16"
        }
      ],
      "stateMutability": "view",
      "type": "function"
    },
    {
      "inputs": [],
      "name": "symbol",
      "outputs": [
        {
          "internalType": "string",
          "name": "",
          "type": "string"
        }
      ],
      "stateMutability": "view",
      "type": "function"
    },
    {
      "inputs": [],
      "name": "totalBuyTaxBasisPoints",
      "outputs": [
        {
          "internalType": "uint256",
          "name": "",
          "type": "uint256"
        }
      ],
      "stateMutability": "view",
      "type": "function"
    },
    {
      "inputs": [],
      "name": "totalSellTaxBasisPoints",
      "outputs": [
        {
          "internalType": "uint256",
          "name": "",
          "type": "uint256"
        }
      ],
      "stateMutability": "view",
      "type": "function"
    },
    {
      "inputs": [],
      "name": "totalSupply",
      "outputs": [
        {
          "internalType": "uint256",
          "name": "",
          "type": "uint256"
        }
      ],
      "stateMutability": "view",
      "type": "function"
    },
    {
      "inputs": [
        {
          "internalType": "address",
          "name": "to",
          "type": "address"
        },
        {
          "internalType": "uint256",
          "name": "amount",
          "type": "uint256"
        }
      ],
      "name": "transfer",
      "outputs": [
        {
          "internalType": "bool",
          "name": "",
          "type": "bool"
        }
      ],
      "stateMutability": "nonpayable",
      "type": "function"
    },
    {
      "inputs": [
        {
          "internalType": "address",
          "name": "from",
          "type": "address"
        },
        {
          "internalType": "address",
          "name": "to",
          "type": "address"
        },
        {
          "internalType": "uint256",
          "name": "amount",
          "type": "uint256"
        }
      ],
      "name": "transferFrom",
      "outputs": [
        {
          "internalType": "bool",
          "name": "",
          "type": "bool"
        }
      ],
      "stateMutability": "nonpayable",
      "type": "function"
    },
    {
      "inputs": [
        {
          "internalType": "address",
          "name": "newOwner",
          "type": "address"
        }
      ],
      "name": "transferOwnership",
      "outputs": [],
      "stateMutability": "nonpayable",
      "type": "function"
    },
    {
      "inputs": [],
      "name": "vault",
      "outputs": [
        {
          "internalType": "address",
          "name": "",
          "type": "address"
        }
      ],
      "stateMutability": "view",
      "type": "function"
    },
    {
      "inputs": [
        {
          "internalType": "address",
          "name": "token",
          "type": "address"
        },
        {
          "internalType": "uint256",
          "name": "amount",
          "type": "uint256"
        }
      ],
      "name": "withdrawERC20",
      "outputs": [],
      "stateMutability": "nonpayable",
      "type": "function"
    },
    {
      "inputs": [
        {
          "internalType": "uint256",
          "name": "amount",
          "type": "uint256"
        }
      ],
      "name": "withdrawETH",
      "outputs": [],
      "stateMutability": "nonpayable",
      "type": "function"
    },
    {
      "stateMutability": "payable",
      "type": "receive"
    }
  ],
  "bytecode": "0x60406080815234620005175762002cf4803803806200001e816200051c565b928339810181810391610120831262000517576200003c8162000542565b60208083015190926001600160401b0392918381116200051757856200006491830162000557565b94878201519084821162000517576200007f91830162000557565b9160608201519360806200009581850162000542565b98609f1901126200051757885196608088018881108382111762000408578a52620000c360a08501620005c9565b8852620000d360c08501620005c9565b87890152620000fa610100620000ec60e08701620005c9565b958c8b019687520162000542565b9160608901928352815181811162000408576003908154906001948583811c931680156200050c575b8c841014620004f65781908c601f948581116200049d575b50508c908483116001146200042a576000926200041e575b505060001982851b1c191690851b1782555b8751928311620004085760049788548581811c91168015620003fd575b8c821014620003e85780838d92116200039b575b50508a9184116001146200032e5793839491849260009562000322575b50501b92600019911b1c19161784555b6001600160a01b039182169283156200030b57600580546001600160a01b0319808216871783558c51929b92969095949392620002369286929083167f8be0079c531659141344cd1fd0a4f28419497f9722a3daafe3b4186f6b6457e0600080a316998a866008541617600855620005d9565b8a54915167ffff0000000000ff60a01b1990921690151560a01b60ff60a01b161760d09190911b61ffff60d01b16178955516006805490931691161790558415620002f7575060025490828201809211620002e2575060025560008381528083528581208054830190558551918252917fddf252ad1be2c89b69c2b068fc378daa952ba7f163c4a11628f55a4df523b3ef91a3805460ff60a81b19169055516126b690816200063e8239f35b601190634e487b7160e01b6000525260246000fd5b600060249263ec442f0560e01b8352820152fd5b8951631e4fbdf760e01b8152600081870152602490fd5b015193503880620001b3565b9190601f1984169289600052848c600020948d6000905b8983831062000382575050501062000367575b50505050811b018455620001c3565b01519060f884600019921b161c191690553880808062000358565b8686015189559097019694850194889350018e62000345565b8a60005283826000209181880160051c8301938810620003de575b0160051c019086905b828110620003d157508c915062000196565b60008155018690620003bf565b92508192620003b6565b60228a634e487b7160e01b6000525260246000fd5b90607f169062000182565b634e487b7160e01b600052604160045260246000fd5b01519050388062000153565b879350908d91601f1984168760005283600020936000905b8282106200047b575050841162000462575b505050811b01825562000165565b015160001983871b60f8161c1916905538808062000454565b91929395968291958786015181550195019301908f918a969594939262000442565b909192508560005284826000209181860160051c8301938610620004ec575b918991869594930160051c01915b828110620004dc57508e91506200013b565b60008155859450899101620004ca565b92508192620004bc565b634e487b7160e01b600052602260045260246000fd5b92607f169262000123565b600080fd5b6040519190601f01601f191682016001600160401b038111838210176200040857604052565b51906001600160a01b03821682036200051757565b919080601f84011215620005175782516001600160401b03811162000408576020906200058d601f8201601f191683016200051c565b92818452828287010111620005175760005b818110620005b557508260009394955001015290565b85810183015184820184015282016200059f565b519061ffff821682036200051757565b80519061ffff8083161590816200062d575b5015620005f9575050600090565b60055490602061ffff60c01b91015160c01b169161ffff60b01b9060b01b169063ffffffff60b01b19161717600555600190565b90506020820151161538620005eb56fe6080604081815260049182361015610022575b505050361561002057600080fd5b005b600092833560e01c918263038272b614610f925750816306fdde0314610e9d578163095ea7b314610df357816318160ddd14610dd457816323b872dd14610d53578163247165b714610d195781632ead095514610cbd578163313ce56714610ca1578163326b3b8b14610c2957816342966c6814610c0b5781634bed5ad214610be557816370a0823114610bae578163715018a614610b5157816379cc679014610b1e5781637f45c4c314610aa45781638da5cb5b14610a7b578163936b2934146109d057816395d89b41146108d15781639808751d14610869578163a0cde18d14610840578163a1db978214610763578163a45cae0214610328578163a9059cbb146106f4578163ae22107f14610698578163b0d7509714610670578163b2c5c9eb1461064a578163c77f6cc6146105ee578163d4ce85f3146105aa578163d81657431461056a578163d98040c9146104e2578163dd62ed3e14610499578163e6d4d75c1461043a578163e85455d714610400578163ea8b2424146103d7578163ee6a934c1461034e578163eeae0f9714610328578163f14210a61461029e578163f2fde38b1461020a575063fbfa77cf146101df5780610012565b3461020657816003193601126102065760085490516001600160a01b039091168152602090f35b5080fd5b90503461029a57602036600319011261029a57610225610ffe565b9061022e611084565b6001600160a01b03918216928315610284575050600554826bffffffffffffffffffffffff60a01b821617600555167f8be0079c531659141344cd1fd0a4f28419497f9722a3daafe3b4186f6b6457e08380a380f35b51631e4fbdf760e01b8152908101849052602490fd5b8280fd5b9190503461029a57602036600319011261029a576102ba611084565b828080808535335af13d15610323573d67ffffffffffffffff8111610310578251906102f0601f8201601f1916602001836110ff565b81528460203d92013e5b15610303578280f35b516312171d8360e31b8152fd5b634e487b7160e01b855260418452602485fd5b6102fa565b50503461020657816003193601126102065760209061ffff60055460b01c169051908152f35b90503461029a57602036600319011261029a57610369610ffe565b91610372611084565b6001600160a01b0383169283156103c9573b156103bc5750506103948161127e565b507fb893f883ef734b712208a877459424ee509832c57e0461fb1ac99ed4d42f2d898280a280f35b51630f9da0c760e41b8152fd5b505163b47cdee560e01b8152fd5b50503461020657816003193601126102065760065490516001600160a01b039091168152602090f35b5050346102065760203660031901126102065760209181906001600160a01b03610428610ffe565b168152600a8452205415159051908152f35b833461049657602036600319011261049657610454610ffe565b61045c611084565b6001600160a01b031661046e81611201565b507ffc9dbe314ed9f975da84bf7665838b1f60db2efccc75299784a49cbe0752f1af8280a280f35b80fd5b505034610206578060031936011261020657806020926104b7610ffe565b6104bf611019565b6001600160a01b0391821683526001865283832091168252845220549051908152f35b8284346104965780600319360112610496578151918291600b54808552602080950194600b83527f0175b7a638427703f0dbe7bb9bbf987a2551717b34e79f33b5b1008d1fa01db992905b8282106105535761054f8686610545828b03836110ff565b5191829182611040565b0390f35b83548752958601956001938401939091019061052d565b838334610206578160031936011261020657610584611121565b9051918382101561059757602083838152f35b634e487b7160e01b815260218452602490fd5b905082346104965780600319360112610496576105c5611121565b91808310156105db576020836003865191148152f35b634e487b7160e01b825260219052602490fd5b833461049657602036600319011261049657610608610ffe565b610610611084565b6001600160a01b0316610622816113e8565b507f23d60777ebe8928281accb2b7cec3b8daea87dcd3dd3af91a937fea6d89815078280a280f35b50503461020657816003193601126102065760209061ffff60055460c01c169051908152f35b5050346102065781600319360112610206576020906001600160801b03600754169051908152f35b8334610496576020366003190112610496576106b2610ffe565b6106ba611084565b6001600160a01b03166106cc816112fe565b507f59c3fbcae88f30e9b0e35c132a7f68c53231dffa4722f197c7ecb0ee013eee608280a280f35b50503461020657806003193601126102065761074360209261073c610717610ffe565b91338152600a86528480822054159182159261074a575b50506024359083339161165e565b9033611564565b5160018152f35b6001600160a01b0385168152205415159050843861072e565b9190503461029a578060031936011261029a5761077e610ffe565b610786611084565b6001600160a01b031690308214610831578051602081019063a9059cbb60e01b82523360248201526024356044820152604481526080810181811067ffffffffffffffff82111761081e5783525160209186919082865af1156108155783513d61080c5750813b155b6107f7578380f35b51635274afe760e01b81529182015260249150fd5b600114156107ef565b513d84823e3d90fd5b634e487b7160e01b875260418652602487fd5b5163992501b360e01b81529050fd5b50503461020657816003193601126102065761054f9061085e611ccc565b905191829182610fb5565b833461049657602036600319011261049657610883610ffe565b61088b611084565b600680546001600160a01b0319166001600160a01b039290921691821790557fa4eea51cd2f21eac6612ba054a363ae2fd59698fc258ab414313cd73f69f2b858280a280f35b838334610206578160031936011261020657805191809380549160019083821c928285169485156109c6575b60209586861081146109b35785895290811561098f5750600114610937575b61054f878761092d828c03836110ff565b5191829182610fb5565b81529295507f8a35acfbc15ff81a39ae7d344fd709f28e8600b4aa8c65c6b64bfe7fe36bd19b5b82841061097c575050508261054f9461092d9282010194868061091c565b805486850188015292860192810161095e565b60ff19168887015250505050151560051b830101925061092d8261054f868061091c565b634e487b7160e01b845260228352602484fd5b93607f16936108fd565b5050346102065780600319360112610206576109ea61102f565b6024359061ffff9283831690818403610a77577f4b05569be7121baf443b738742a05e619022a6ee1ea8a7163ac268f5f163ccef94608094610a2a611084565b6005549061ffff60c01b9060c01b1661ffff60b01b8660b01b1663ffffffff60b01b198316171760055581835195818360b01c16875216602086015260c01c16908301526060820152a180f35b8580fd5b50503461020657816003193601126102065760055490516001600160a01b039091168152602090f35b8284346104965780600319360112610496578151918291600954808552602080950194600983527f6e1540171b6c0c960b71a7020d9f60077f6af931a8bbf590da0223dacf75c7af92905b828210610b075761054f8686610545828b03836110ff565b835487529586019560019384019390910190610aef565b5050346102065736600319011261049657610b4e610b3a610ffe565b60243590610b49823383611491565b61179d565b80f35b8334610496578060031936011261049657610b6a611084565b600580546001600160a01b0319811690915581906001600160a01b03167f8be0079c531659141344cd1fd0a4f28419497f9722a3daafe3b4186f6b6457e08280a380f35b5050346102065760203660031901126102065760209181906001600160a01b03610bd6610ffe565b16815280845220549051908152f35b50503461020657816003193601126102065760209061ffff60055460d01c169051908152f35b83903461020657602036600319011261020657610b4e90353361179d565b505034610206576020366003190112610206577fe4351c45b53ffb7ebad0b66cc0f1a3dfe2963c099421eeaded141104df39206a90610c6661102f565b610c6e611084565b60055461ffff60d01b8260d01b1661ffff60d01b1982161760055582519161ffff809260d01c168352166020820152a180f35b5050346102065781600319360112610206576020905160128152f35b83346104965780600319360112610496576007546001600160801b03811680610ce4578280f35b6fffffffffffffffffffffffffffffffff19909116600755600654610d1391906001600160a01b031630611564565b81808280f35b5050346102065760203660031901126102065760209181906001600160a01b03610d41610ffe565b168152600c8452205415159051908152f35b50503461020657606036600319011261020657610743602092610d74610ffe565b90610dbc610d80611019565b91838360443592610d92843385611491565b6001600160a01b038381168252600a8b5289822054158015928b929091610dc2575b50505061165e565b91611564565b84168152205415159050883880610db4565b5050346102065781600319360112610206576020906002549051908152f35b90503461029a578160031936011261029a57610e0d610ffe565b602435903315610e86576001600160a01b0316918215610e6f57508083602095338152600187528181208582528752205582519081527f8c5be1e5ebec7d5bd14f71427d1e84f3dd0314c0f7b2291e5b200ac8c7c3b925843392a35160018152f35b8351634a1406b160e11b8152908101859052602490fd5b835163e602df0560e01b8152808401869052602490fd5b9190503461029a578260031936011261029a57805191836003549060019082821c928281168015610f88575b6020958686108214610f755750848852908115610f535750600114610efa575b61054f868661092d828b03836110ff565b929550600383527fc2575a0e9e593c00f959f8c92f12db2869c3395a3b0502d05e2516446f71f85b5b828410610f40575050508261054f9461092d928201019438610ee9565b8054868501880152928601928101610f23565b60ff191687860152505050151560051b830101925061092d8261054f38610ee9565b634e487b7160e01b845260229052602483fd5b93607f1693610ec9565b84903461020657816003193601126102065760209061ffff60055460c01c168152f35b6020808252825181830181905290939260005b828110610fea57505060409293506000838284010152601f8019910116010190565b818101860151848201604001528501610fc8565b600435906001600160a01b038216820361101457565b600080fd5b602435906001600160a01b038216820361101457565b6004359061ffff8216820361101457565b6020908160408183019282815285518094520193019160005b828110611067575050505090565b83516001600160a01b031685529381019392810192600101611059565b6005546001600160a01b0316330361109857565b60405163118cdaa760e01b8152336004820152602490fd5b610180810190811067ffffffffffffffff8211176110cd57604052565b634e487b7160e01b600052604160045260246000fd5b6040810190811067ffffffffffffffff8211176110cd57604052565b90601f8019910116810190811067ffffffffffffffff8211176110cd57604052565b61112961183c565b61113281611bc9565b6111775761113f81612540565b801590811561116c575b506111665761115790611b76565b1561116157600390565b600290565b50600190565b600691501438611149565b50600090565b600b548110156111b457600b6000527f0175b7a638427703f0dbe7bb9bbf987a2551717b34e79f33b5b1008d1fa01db90190600090565b634e487b7160e01b600052603260045260246000fd5b6009548110156111b45760096000527f6e1540171b6c0c960b71a7020d9f60077f6af931a8bbf590da0223dacf75c7af0190600090565b6000818152600c602052604081205461127957600b54600160401b81101561126557908261125161123a84600160409601600b5561117d565b819391549060031b91821b91600019901b19161790565b9055600b54928152600c6020522055600190565b634e487b7160e01b82526041600452602482fd5b905090565b6000818152600a602052604081205461127957600954600160401b8110156112655790826112b761123a846001604096016009556111ca565b9055600954928152600a6020522055600190565b6101dc198101919082116112db57565b634e487b7160e01b600052601160045260246000fd5b919082039182116112db57565b6000818152600a602052604081205490919080156113e357600019908082018181116113cf57600954908382019182116113bb57818103611387575b505050600954801561137357810190611352826111ca565b909182549160031b1b191690556009558152600a6020526040812055600190565b634e487b7160e01b84526031600452602484fd5b6113a561139661123a936111ca565b90549060031b1c9283926111ca565b90558452600a602052604084205538808061133a565b634e487b7160e01b86526011600452602486fd5b634e487b7160e01b85526011600452602485fd5b505090565b6000818152600c602052604081205490919080156113e357600019908082018181116113cf57600b54908382019182116113bb5781810361145d575b505050600b5480156113735781019061143c8261117d565b909182549160031b1b19169055600b558152600c6020526040812055600190565b61147b61146c61123a9361117d565b90549060031b1c92839261117d565b90558452600c6020526040842055388080611424565b9160018060a01b0380931691600093838552600160205260409384862091831691828752602052848620549260001984106114d0575b50505050505050565b8484106115345750801561151c578115611504578552600160205283852090855260205203912055388080808080806114c7565b8451634a1406b160e11b815260048101879052602490fd5b845163e602df0560e01b815260048101879052602490fd5b8551637dc7a0d960e11b81526001600160a01b039190911660048201526024810184905260448101859052606490fd5b916001600160a01b03808416928315611629571692831561161057600090838252816020526040822054908382106115de575091604082827fddf252ad1be2c89b69c2b068fc378daa952ba7f163c4a11628f55a4df523b3ef958760209652828652038282205586815220818154019055604051908152a3565b60405163391434e360e21b81526001600160a01b03919091166004820152602481019190915260448101839052606490fd5b60405163ec442f0560e01b815260006004820152602490fd5b604051634b637e8f60e11b815260006004820152602490fd5b90611c2082018092116112db57565b919082018092116112db57565b919280926005549060ff8260a01c1615908115611794575b508015611787575b61177f576001600160a01b039283166000908152600a602052604080822054948716825281205490939015159015158061176f575b156117105750506127109061ffff60055460c01c160204906007546001600160801b038084168183160116906001600160801b0319161760075501915b826116fc575b50905090565b82611708913090611564565b0380386116f6565b9294928061175f575b611725575b50506116f0565b61271092945061ffff9060b01c1602046007546001600160801b038083168183160116906001600160801b0319161760075591388061171e565b5061ffff8160b01c161515611719565b5061ffff8260c01c1615156116b3565b509250505090565b5060ff8160a81c1661167e565b90501538611676565b906001600160a01b038216908115611629576000928284528360205260408420549082821061180a5750817fddf252ad1be2c89b69c2b068fc378daa952ba7f163c4a11628f55a4df523b3ef926020928587528684520360408620558060025403600255604051908152a3565b60405163391434e360e21b81526001600160a01b03919091166004820152602481019190915260448101829052606490fd5b611845426121b0565b60006107b25b828110611b32575060405191611860836110b0565b601f8084526020840190601c8252806040860152601e918260608701528160808701528260a08701528160c08701528160e08701526101009083828801526101209280848901526101409785898201526101609082828201526118c288612558565b9384611b28575b506001905b60038210611ae05750506118e188612540565b60009080611ac2575050600e955b600019968088019081116112db5762015180998a8202918083048c14901517156112db576119259161192091611651565b611642565b996000986107b2905b808210611a7c5750508360405197611945896110b0565b8189528360208a0198601c8a528360408c01528160608c01528360808c01528160a08c01528360c08c01528360e08c01528a0152880152860152840152611a72575b506001905b600b8210611a3057505061199f82612540565b60009080611a095750506001905b81019081116112db578281029281840414901517156112db576119d39161192091611651565b9042101590816119ff575b50156119f4576119f16138405b426112f1565b90565b6119f16146506119eb565b90504210386119de565b6008039060088211611a1c5750906119ad565b634e487b7160e01b81526011600452602490fd5b90928284018481116112db57611a46908361227c565b5190858202918083048714901517156112db57611a6c91611a6691611651565b9361228d565b9061198c565b601d905238611987565b9099611a878b612558565b15611aaa576301e2850081018091116112db57611aa4909a61228d565b9061192e565b6301e1338081018091116112db57611aa4909a61228d565b600e0390600e8211611a1c5760078201809211611a1c5750956118ef565b90986000198a018a81116112db57611af8908361227c565b519062015180918281029281840414901517156112db57611b2291611b1c91611651565b9961228d565b906118ce565b601d9052386118c9565b90611b3c82612558565b15611b5e576301e2850081018091116112db57611b59909161228d565b61184b565b6301e1338081018091116112db57611b59909161228d565b6018610e10820406600981108015611bbe575b611bb7576009149081611ba6575b50611ba157600190565b600090565b601e9150603c809104061038611b97565b5050600090565b506010811015611b89565b611bd29061229c565b600192918084148080611cc3575b611ca8576007821480611cb9575b611ca857600c821480611caf575b611ca85780611c97575b611c5e576002811480611c86575b611c5e576005811480611c75575b611c5e576009811480611c64575b611c5e57600b81149283611c4c575b5050506119f15750600090565b611c569350612168565b388080611c3f565b50505090565b50611c7082828561212f565b611c30565b50611c81828285611fa7565b611c22565b50611c92828285611f5a565b611c14565b50611ca3828285611f5a565b611c06565b5050505090565b5060198314611bfc565b5060048314611bee565b50848314611be0565b611cdc611cd761183c565b61229c565b90600181148080611f50575b611f22576007821480611f18575b611ee857600c821480611ede575b611eb15780611ea0575b611e64576002811480611e53575b611e26576005811480611e15575b611dea576009811480611dd9575b611db157600b81149283611d9f575b505050611d7757604051611d5a816110e3565b600d81526c4e6f74206120486f6c6964617960981b602082015290565b604051611d83816110e3565b600c81526b5468616e6b73676976696e6760a01b602082015290565b611da99350612168565b388080611d47565b505050604051611dc0816110e3565b60098152684c61626f722044617960b81b602082015290565b50611de582828561212f565b611d38565b505050604051611df9816110e3565b600c81526b4d656d6f7269616c2044617960a01b602082015290565b50611e21828285611fa7565b611d2a565b505050604051611e35816110e3565b600e81526d507265736964656e74732044617960901b602082015290565b50611e5f828285611f5a565b611d1c565b505050604051611e73816110e3565b601a81527f4d617274696e204c7574686572204b696e67204a722e20446179000000000000602082015290565b50611eac828285611f5a565b611d0e565b50505050604051611ec1816110e3565b600d81526c4368726973746d61732044617960981b602082015290565b5060198314611d04565b50505050604051611ef8816110e3565b601081526f496e646570656e64656e63652044617960801b602082015290565b5060048314611cf6565b50505050604051611f32816110e3565b600e81526d4e6577205965617227732044617960901b602082015290565b5060018314611ce8565b611f6c91611f679161241f565b612540565b600060018211611f935750600203600281116112db57905b600e82018092116112db571490565b906009039060098211611a1c575090611f84565b611fb182826125a1565b916000916107b25b8181106120eb575060405190611fce826110b0565b612028601f918284526020840192601c8452806040860152601e6060860152806080860152601e60a08601528060c08601528060e0860152601e61010086015280610120860152601e610140860152610160850152612558565b6120e1575b50906001915b81831061209d5750505060001990818301908382116112db5762015180918281029281840414901517156112db5761206e91611f6791611651565b906000908261208a57505050612086906006906112f1565b1490565b8201918211611a1c5750612086916112f1565b90919260001984018481116112db576120b6908361227c565b519062015180918281029281840414901517156112db576120da91611a6691611651565b9190612033565b601d90523861202d565b926120f584612558565b15612117576301e2850081018091116112db57612112909361228d565b611fb9565b6301e1338081018091116112db57612112909361228d565b61213c91611f679161241f565b6000600182116121565750600203600281116112db571490565b906009039060098211611a1c57501490565b61217591611f679161241f565b60006004821161219c5750600503600581116112db57905b601582018092116112db571490565b90600c0390600c8211611a1c57509061218d565b6000906107b26301e187e082048082018092116122685781936121da6121d584612576565b6112cb565b928211611a1c576301e133809180830292830403611a1c576201518092838102938185041490151715611a1c57509061221591939293611651565b8281116122225750905090565b60001982019182116112db5761223782612558565b15612253576301e284ff1981019081116112db57905b90612215565b6301e1337f1981019081116112db579061224d565b634e487b7160e01b84526011600452602484fd5b90600c8110156111b45760051b0190565b60001981146112db5760010190565b9060009060006122ab846121b0565b936122b86121d586612576565b6107b11986019190868311612268576301e133809280840293840403612268576201518092838202918083048514901517156113cf5761230292916122fc91611651565b906112f1565b6040519061230f826110b0565b610180368337601f80835261232388612558565b1561241357601d60208401525b806040840152601e6060840152806080840152601e60a08401528060c08401528060e0840152601e61010084015280610120840152601e61014084015261016083015283906001925b600c84111561239f575b5061238e92506112f1565b049060018201809211611a1c575090565b909160001984018481116123ff576123b7908361227c565b5190858202918083048714901517156123ff57836123d58284611651565b116123ef576123e791611a6691611651565b929190612379565b929750505061238e919538612383565b634e487b7160e01b87526011600452602487fd5b601c6020840152612330565b906000916107b25b8181106124fc57506040519061243c826110b0565b612496601f918284526020840192601c8452806040860152601e6060860152806080860152601e60a08601528060c08601528060e0860152601e61010086015280610120860152601e610140860152610160850152612558565b6124f2575b50906001915b8183106124ae5750505090565b90919260001984018481116112db576124c7908361227c565b519062015180918281029281840414901517156112db576124eb91611a6691611651565b91906124a1565b601d90523861249b565b9261250684612558565b15612528576301e2850081018091116112db57612523909361228d565b612427565b6301e1338081018091116112db57612523909361228d565b620151809004600481018091116112db576007900690565b600381166111775760648106611166576101909006611ba157600190565b60001981019081116112db578061019061259960646119f194048360021c6112f1565b910490611651565b90600181148015612676575b801561266c575b8015612662575b8015612658575b801561264e575b8015612644575b156125dc575050601f90565b60048114801561263a575b8015612630575b8015612626575b15612601575050601e90565b60021461260e5750600090565b61261790612558565b1561262157601d90565b601c90565b50600b81146125f5565b50600981146125ee565b50600681146125e7565b50600c81146125d0565b50600a81146125c9565b50600881146125c2565b50600781146125bb565b50600581146125b4565b50600381146125ad56fea264697066735822122077f7f5ac363ccb8d7ad641c12eb8c998e1e5e96c8667dd465919e317708e4d6664736f6c63430008140033",
  "linkReferences": {},
  "deployedLinkReferences": {}
}