{
  "_format": "hh-sol-artifact-1",
  "contractName": "StonkToken",
  "sourceName": "contracts/StonkToken.sol",
  "abi": [
    {
      "inputs": [
        {
          "internalType": "address",
          "name": "owner_",
          "type": "address"
        },
        {
          "internalType": "string",
          "name": "name_",
          "type": "string"
        },
        {
          "internalType": "string",
          "name": "symbol_",
          "type": "string"
        },
        {
          "internalType": "uint256",
          "name": "totalSupply_",
          "type": "uint256"
        },
        {
          "internalType": "address",
          "name": "vault_",
          "type": "address"
        },
        {
          "components": [
            {
              "internalType": "uint16",
              "name": "projectBuyTaxBasisPoints",
              "type": "uint16"
            },
            {
              "internalType": "uint16",
              "name": "projectSellTaxBasisPoints",
              "type": "uint16"
            },
            {
              "internalType": "uint16",
              "name": "taxSwapThresholdBasisPoints",
              "type": "uint16"
            },
            {
              "internalType": "address",
              "name": "projectTaxRecipient",
              "type": "address"
            }
          ],
          "internalType": "struct IStonkToken.TaxParameters",
          "name": "taxParams_",
          "type": "tuple"
        }
      ],
      "stateMutability": "nonpayable",
      "type": "constructor"
    },
    {
      "inputs": [],
      "name": "CannotWithdrawThisToken",
      "type": "error"
    },
    {
      "inputs": [
        {
          "internalType": "address",
          "name": "spender",
          "type": "address"
        },
        {
          "internalType": "uint256",
          "name": "allowance",
          "type": "uint256"
        },
        {
          "internalType": "uint256",
          "name": "needed",
          "type": "uint256"
        }
      ],
      "name": "ERC20InsufficientAllowance",
      "type": "error"
    },
    {
      "inputs": [
        {
          "internalType": "address",
          "name": "sender",
          "type": "address"
        },
        {
          "internalType": "uint256",
          "name": "balance",
          "type": "uint256"
        },
        {
          "internalType": "uint256",
          "name": "needed",
          "type": "uint256"
        }
      ],
      "name": "ERC20InsufficientBalance",
      "type": "error"
    },
    {
      "inputs": [
        {
          "internalType": "address",
          "name": "approver",
          "type": "address"
        }
      ],
      "name": "ERC20InvalidApprover",
      "type": "error"
    },
    {
      "inputs": [
        {
          "internalType": "address",
          "name": "receiver",
          "type": "address"
        }
      ],
      "name": "ERC20InvalidReceiver",
      "type": "error"
    },
    {
      "inputs": [
        {
          "internalType": "address",
          "name": "sender",
          "type": "address"
        }
      ],
      "name": "ERC20InvalidSender",
      "type": "error"
    },
    {
      "inputs": [
        {
          "internalType": "address",
          "name": "spender",
          "type": "address"
        }
      ],
      "name": "ERC20InvalidSpender",
      "type": "error"
    },
    {
      "inputs": [],
      "name": "LiquidityPoolCannotBeAddressZero",
      "type": "error"
    },
    {
      "inputs": [],
      "name": "LiquidityPoolMustBeAContractAddress",
      "type": "error"
    },
    {
      "inputs": [],
      "name": "MarketClosedAfterHours",
      "type": "error"
    },
    {
      "inputs": [
        {
          "internalType": "string",
          "name": "holiday",
          "type": "string"
        }
      ],
      "name": "MarketClosedForHoliday",
      "type": "error"
    },
    {
      "inputs": [],
      "name": "MarketClosedForWeekend",
      "type": "error"
    },
    {
      "inputs": [
        {
          "internalType": "address",
          "name": "owner",
          "type": "address"
        }
      ],
      "name": "OwnableInvalidOwner",
      "type": "error"
    },
    {
      "inputs": [
        {
          "internalType": "address",
          "name": "account",
          "type": "address"
        }
      ],
      "name": "OwnableUnauthorizedAccount",
      "type": "error"
    },
    {
      "inputs": [
        {
          "internalType": "address",
          "name": "token",
          "type": "address"
        }
      ],
      "name": "SafeERC20FailedOperation",
      "type": "error"
    },
    {
      "inputs": [],
      "name": "TransferFailed",
      "type": "error"
    },
    {
      "anonymous": false,
      "inputs": [
        {
          "indexed": true,
          "internalType": "address",
          "name": "owner",
          "type": "address"
        },
        {
          "indexed": true,
          "internalType": "address",
          "name": "spender",
          "type": "address"
        },
        {
          "indexed": false,
          "internalType": "uint256",
          "name": "value",
          "type": "uint256"
        }
      ],
      "name": "Approval",
      "type": "event"
    },
    {
      "anonymous": false,
      "inputs": [
        {
          "indexed": false,
          "internalType": "uint256",
          "name": "oldThreshold",
          "type": "uint256"
        },
        {
          "indexed": false,
          "internalType": "uint256",
          "name": "newThreshold",
          "type": "uint256"
        }
      ],
      "name": "AutoSwapThresholdUpdated",
      "type": "event"
    },
    {
      "anonymous": false,
      "inputs": [
        {
          "indexed": false,
          "internalType": "uint256",
          "name": "identifier",
          "type": "uint256"
        }
      ],
      "name": "ExternalCallError",
      "type": "event"
    },
    {
      "anonymous": false,
      "inputs": [
        {
          "indexed": true,
          "internalType": "address",
          "name": "pool",
          "type": "address"
        }
      ],
      "name": "LiquidityPoolAdded",
      "type": "event"
    },
    {
      "anonymous": false,
      "inputs": [
        {
          "indexed": true,
          "internalType": "address",
          "name": "pool",
          "type": "address"
        }
      ],
      "name": "LiquidityPoolRemoved",
      "type": "event"
    },
    {
      "anonymous": false,
      "inputs": [
        {
          "indexed": false,
          "internalType": "enum IStonkToken.MarketState",
          "name": "state",
          "type": "uint8"
        },
        {
          "indexed": false,
          "internalType": "string",
          "name": "reason",
          "type": "string"
        }
      ],
      "name": "MarketClosed",
      "type": "event"
    },
    {
      "anonymous": false,
      "inputs": [
        {
          "indexed": true,
          "internalType": "address",
          "name": "firstTrader",
          "type": "address"
        }
      ],
      "name": "MarketOpened",
      "type": "event"
    },
    {
      "anonymous": false,
      "inputs": [
        {
          "indexed": true,
          "internalType": "address",
          "name": "previousOwner",
          "type": "address"
        },
        {
          "indexed": true,
          "internalType": "address",
          "name": "newOwner",
          "type": "address"
        }
      ],
      "name": "OwnershipTransferred",
      "type": "event"
    },
    {
      "anonymous": false,
      "inputs": [
        {
          "indexed": false,
          "internalType": "uint16",
          "name": "oldBuyTax",
          "type": "uint16"
        },
        {
          "indexed": false,
          "internalType": "uint16",
          "name": "newBuyTax",
          "type": "uint16"
        },
        {
          "indexed": false,
          "internalType": "uint16",
          "name": "oldSellTax",
          "type": "uint16"
        },
        {
          "indexed": false,
          "internalType": "uint16",
          "name": "newSellTax",
          "type": "uint16"
        }
      ],
      "name": "ProjectTaxBasisPointsChanged",
      "type": "event"
    },
    {
      "anonymous": false,
      "inputs": [
        {
          "indexed": true,
          "internalType": "address",
          "name": "newRecipient",
          "type": "address"
        }
      ],
      "name": "ProjectTaxRecipientUpdated",
      "type": "event"
    },
    {
      "anonymous": false,
      "inputs": [
        {
          "indexed": true,
          "internalType": "address",
          "name": "account",
          "type": "address"
        }
      ],
      "name": "TimelockExemptionAdded",
      "type": "event"
    },
    {
      "anonymous": false,
      "inputs": [
        {
          "indexed": true,
          "internalType": "address",
          "name": "account",
          "type": "address"
        }
      ],
      "name": "TimelockExemptionRemoved",
      "type": "event"
    },
    {
      "anonymous": false,
      "inputs": [
        {
          "indexed": true,
          "internalType": "address",
          "name": "from",
          "type": "address"
        },
        {
          "indexed": true,
          "internalType": "address",
          "name": "to",
          "type": "address"
        },
        {
          "indexed": false,
          "internalType": "uint256",
          "name": "value",
          "type": "uint256"
        }
      ],
      "name": "Transfer",
      "type": "event"
    },
    {
      "inputs": [
        {
          "internalType": "address",
          "name": "pool",
          "type": "address"
        }
      ],
      "name": "addLiquidityPool",
      "outputs": [],
      "stateMutability": "nonpayable",
      "type": "function"
    },
    {
      "inputs": [
        {
          "internalType": "address",
          "name": "account",
          "type": "address"
        }
      ],
      "name": "addTimelockExemption",
      "outputs": [],
      "stateMutability": "nonpayable",
      "type": "function"
    },
    {
      "inputs": [
        {
          "internalType": "address",
          "name": "owner",
          "type": "address"
        },
        {
          "internalType": "address",
          "name": "spender",
          "type": "address"
        }
      ],
      "name": "allowance",
      "outputs": [
        {
          "internalType": "uint256",
          "name": "",
          "type": "uint256"
        }
      ],
      "stateMutability": "view",
      "type": "function"
    },
    {
      "inputs": [
        {
          "internalType": "address",
          "name": "spender",
          "type": "address"
        },
        {
          "internalType": "uint256",
          "name": "value",
          "type": "uint256"
        }
      ],
      "name": "approve",
      "outputs": [
        {
          "internalType": "bool",
          "name": "",
          "type": "bool"
        }
      ],
      "stateMutability": "nonpayable",
      "type": "function"
    },
    {
      "inputs": [
        {
          "internalType": "address",
          "name": "account",
          "type": "address"
        }
      ],
      "name": "balanceOf",
      "outputs": [
        {
          "internalType": "uint256",
          "name": "",
          "type": "uint256"
        }
      ],
      "stateMutability": "view",
      "type": "function"
    },
    {
      "inputs": [
        {
          "internalType": "uint256",
          "name": "value",
          "type": "uint256"
        }
      ],
      "name": "burn",
      "outputs": [],
      "stateMutability": "nonpayable",
      "type": "function"
    },
    {
      "inputs": [
        {
          "internalType": "address",
          "name": "account",
          "type": "address"
        },
        {
          "internalType": "uint256",
          "name": "value",
          "type": "uint256"
        }
      ],
      "name": "burnFrom",
      "outputs": [],
      "stateMutability": "nonpayable",
      "type": "function"
    },
    {
      "inputs": [],
      "name": "decimals",
      "outputs": [
        {
          "internalType": "uint8",
          "name": "",
          "type": "uint8"
        }
      ],
      "stateMutability": "view",
      "type": "function"
    },
    {
      "inputs": [],
      "name": "distributeTaxTokens",
      "outputs": [],
      "stateMutability": "nonpayable",
      "type": "function"
    },
    {
      "inputs": [],
      "name": "fundedDate",
      "outputs": [
        {
          "internalType": "uint32",
          "name": "",
          "type": "uint32"
        }
      ],
      "stateMutability": "view",
      "type": "function"
    },
    {
      "inputs": [],
      "name": "getCurrentHoliday",
      "outputs": [
        {
          "internalType": "string",
          "name": "",
          "type": "string"
        }
      ],
      "stateMutability": "view",
      "type": "function"
    },
    {
      "inputs": [],
      "name": "getLiquidityPools",
      "outputs": [
        {
          "internalType": "address[]",
          "name": "",
          "type": "address[]"
        }
      ],
      "stateMutability": "view",
      "type": "function"
    },
    {
      "inputs": [],
      "name": "getMarketState",
      "outputs": [
        {
          "internalType": "enum IStonkToken.MarketState",
          "name": "",
          "type": "uint8"
        }
      ],
      "stateMutability": "view",
      "type": "function"
    },
    {
      "inputs": [],
      "name": "getTimelockExemptions",
      "outputs": [
        {
          "internalType": "address[]",
          "name": "",
          "type": "address[]"
        }
      ],
      "stateMutability": "view",
      "type": "function"
    },
    {
      "inputs": [
        {
          "internalType": "address",
          "name": "account",
          "type": "address"
        }
      ],
      "name": "isExemptFromTimelock",
      "outputs": [
        {
          "internalType": "bool",
          "name": "",
          "type": "bool"
        }
      ],
      "stateMutability": "view",
      "type": "function"
    },
    {
      "inputs": [
        {
          "internalType": "address",
          "name": "account",
          "type": "address"
        }
      ],
      "name": "isLiquidityPool",
      "outputs": [
        {
          "internalType": "bool",
          "name": "",
          "type": "bool"
        }
      ],
      "stateMutability": "view",
      "type": "function"
    },
    {
      "inputs": [],
      "name": "isMarketOpen",
      "outputs": [
        {
          "internalType": "bool",
          "name": "",
          "type": "bool"
        }
      ],
      "stateMutability": "view",
      "type": "function"
    },
    {
      "inputs": [],
      "name": "name",
      "outputs": [
        {
          "internalType": "string",
          "name": "",
          "type": "string"
        }
      ],
      "stateMutability": "view",
      "type": "function"
    },
    {
      "inputs": [],
      "name": "owner",
      "outputs": [
        {
          "internalType": "address",
          "name": "",
          "type": "address"
        }
      ],
      "stateMutability": "view",
      "type": "function"
    },
    {
      "inputs": [],
      "name": "projectBuyTaxBasisPoints",
      "outputs": [
        {
          "internalType": "uint16",
          "name": "",
          "type": "uint16"
        }
      ],
      "stateMutability": "view",
      "type": "function"
    },
    {
      "inputs": [],
      "name": "projectSellTaxBasisPoints",
      "outputs": [
        {
          "internalType": "uint16",
          "name": "",
          "type": "uint16"
        }
      ],
      "stateMutability": "view",
      "type": "function"
    },
    {
      "inputs": [],
      "name": "projectTaxPendingSwap",
      "outputs": [
        {
          "internalType": "uint128",
          "name": "",
          "type": "uint128"
        }
      ],
      "stateMutability": "view",
      "type": "function"
    },
    {
      "inputs": [],
      "name": "projectTaxRecipient",
      "outputs": [
        {
          "internalType": "address",
          "name": "",
          "type": "address"
        }
      ],
      "stateMutability": "view",
      "type": "function"
    },
    {
      "inputs": [
        {
          "internalType": "address",
          "name": "pool",
          "type": "address"
        }
      ],
      "name": "removeLiquidityPool",
      "outputs": [],
      "stateMutability": "nonpayable",
      "type": "function"
    },
    {
      "inputs": [
        {
          "internalType": "address",
          "name": "account",
          "type": "address"
        }
      ],
      "name": "removeTimelockExemption",
      "outputs": [],
      "stateMutability": "nonpayable",
      "type": "function"
    },
    {
      "inputs": [],
      "name": "renounceOwnership",
      "outputs": [],
      "stateMutability": "nonpayable",
      "type": "function"
    },
    {
      "inputs": [
        {
          "internalType": "uint16",
          "name": "newBuyTax",
          "type": "uint16"
        },
        {
          "internalType": "uint16",
          "name": "newSellTax",
          "type": "uint16"
        }
      ],
      "name": "setProjectTaxRates",
      "outputs": [],
      "stateMutability": "nonpayable",
      "type": "function"
    },
    {
      "inputs": [
        {
          "internalType": "address",
          "name": "recipient",
          "type": "address"
        }
      ],
      "name": "setProjectTaxRecipient",
      "outputs": [],
      "stateMutability": "nonpayable",
      "type": "function"
    },
    {
      "inputs": [
        {
          "internalType": "uint16",
          "name": "threshold",
          "type": "uint16"
        }
      ],
      "name": "setSwapThresholdBasisPoints",
      "outputs": [],
      "stateMutability": "nonpayable",
      "type": "function"
    },
    {
      "inputs": [],
      "name": "swapThresholdBasisPoints",
      "outputs": [
        {
          "internalType": "uint16",
          "name": "",
          "type": "uint16"
        }
      ],
      "stateMutability": "view",
      "type": "function"
    },
    {
      "inputs": [],
      "name": "symbol",
      "outputs": [
        {
          "internalType": "string",
          "name": "",
          "type": "string"
        }
      ],
      "stateMutability": "view",
      "type": "function"
    },
    {
      "inputs": [],
      "name": "totalBuyTaxBasisPoints",
      "outputs": [
        {
          "internalType": "uint256",
          "name": "",
          "type": "uint256"
        }
      ],
      "stateMutability": "view",
      "type": "function"
    },
    {
      "inputs": [],
      "name": "totalSellTaxBasisPoints",
      "outputs": [
        {
          "internalType": "uint256",
          "name": "",
          "type": "uint256"
        }
      ],
      "stateMutability": "view",
      "type": "function"
    },
    {
      "inputs": [],
      "name": "totalSupply",
      "outputs": [
        {
          "internalType": "uint256",
          "name": "",
          "type": "uint256"
        }
      ],
      "stateMutability": "view",
      "type": "function"
    },
    {
      "inputs": [
        {
          "internalType": "address",
          "name": "to",
          "type": "address"
        },
        {
          "internalType": "uint256",
          "name": "amount",
          "type": "uint256"
        }
      ],
      "name": "transfer",
      "outputs": [
        {
          "internalType": "bool",
          "name": "",
          "type": "bool"
        }
      ],
      "stateMutability": "nonpayable",
      "type": "function"
    },
    {
      "inputs": [
        {
          "internalType": "address",
          "name": "from",
          "type": "address"
        },
        {
          "internalType": "address",
          "name": "to",
          "type": "address"
        },
        {
          "internalType": "uint256",
          "name": "amount",
          "type": "uint256"
        }
      ],
      "name": "transferFrom",
      "outputs": [
        {
          "internalType": "bool",
          "name": "",
          "type": "bool"
        }
      ],
      "stateMutability": "nonpayable",
      "type": "function"
    },
    {
      "inputs": [
        {
          "internalType": "address",
          "name": "newOwner",
          "type": "address"
        }
      ],
      "name": "transferOwnership",
      "outputs": [],
      "stateMutability": "nonpayable",
      "type": "function"
    },
    {
      "inputs": [],
      "name": "vault",
      "outputs": [
        {
          "internalType": "address",
          "name": "",
          "type": "address"
        }
      ],
      "stateMutability": "view",
      "type": "function"
    },
    {
      "inputs": [
        {
          "internalType": "address",
          "name": "token",
          "type": "address"
        },
        {
          "internalType": "uint256",
          "name": "amount",
          "type": "uint256"
        }
      ],
      "name": "withdrawERC20",
      "outputs": [],
      "stateMutability": "nonpayable",
      "type": "function"
    },
    {
      "inputs": [
        {
          "internalType": "uint256",
          "name": "amount",
          "type": "uint256"
        }
      ],
      "name": "withdrawETH",
      "outputs": [],
      "stateMutability": "nonpayable",
      "type": "function"
    },
    {
      "stateMutability": "payable",
      "type": "receive"
    }
  ],
  "bytecode": "0x60806040523480156200001157600080fd5b5060405162002d7538038062002d758339810160408190526200003491620004a7565b85858560036200004583826200063f565b5060046200005482826200063f565b5050506001600160a01b0381166200008757604051631e4fbdf760e01b8152600060048201526024015b60405180910390fd5b620000928162000145565b50600880546001600160a01b0319166001600160a01b038416179055620000b98162000197565b60058054604084015161ffff16600160f01b026001600160f01b03931515600160a01b0293909316600160ff60a01b01600160f01b03909116179190911790556060810151600680546001600160a01b039092166001600160a01b03199092169190911790556200012b82846200020a565b50506005805460ff60a81b19169055506200073392505050565b600580546001600160a01b038381166001600160a01b0319831681179093556040519116919082907f8be0079c531659141344cd1fd0a4f28419497f9722a3daafe3b4186f6b6457e090600090a35050565b805160009061ffff16158015620001b45750602082015161ffff16155b15620001c257506000919050565b5080516005805460209093015161ffff908116600160e01b0261ffff60e01b1991909316600160d01b021663ffffffff60d01b1990931692909217179055600190565b919050565b6001600160a01b038216620002365760405163ec442f0560e01b8152600060048201526024016200007e565b620002446000838362000248565b5050565b6001600160a01b038316620002775780600260008282546200026b91906200070b565b90915550620002eb9050565b6001600160a01b03831660009081526020819052604090205481811015620002cc5760405163391434e360e21b81526001600160a01b038516600482015260248101829052604481018390526064016200007e565b6001600160a01b03841660009081526020819052604090209082900390555b6001600160a01b038216620003095760028054829003905562000328565b6001600160a01b03821660009081526020819052604090208054820190555b816001600160a01b0316836001600160a01b03167fddf252ad1be2c89b69c2b068fc378daa952ba7f163c4a11628f55a4df523b3ef836040516200036e91815260200190565b60405180910390a3505050565b80516001600160a01b03811681146200020557600080fd5b634e487b7160e01b600052604160045260246000fd5b604051608081016001600160401b0381118282101715620003ce57620003ce62000393565b60405290565b604051601f8201601f191681016001600160401b0381118282101715620003ff57620003ff62000393565b604052919050565b600082601f8301126200041957600080fd5b81516001600160401b0381111562000435576200043562000393565b60206200044b601f8301601f19168201620003d4565b82815285828487010111156200046057600080fd5b60005b838110156200048057858101830151828201840152820162000463565b506000928101909101919091529392505050565b805161ffff811681146200020557600080fd5b600080600080600080868803610120811215620004c357600080fd5b620004ce886200037b565b60208901519097506001600160401b0380821115620004ec57600080fd5b620004fa8b838c0162000407565b975060408a01519150808211156200051157600080fd5b50620005208a828b0162000407565b9550506060880151935062000538608089016200037b565b92506080609f19820112156200054d57600080fd5b5062000558620003a9565b6200056660a0890162000494565b81526200057660c0890162000494565b60208201526200058960e0890162000494565b60408201526200059d61010089016200037b565b6060820152809150509295509295509295565b600181811c90821680620005c557607f821691505b602082108103620005e657634e487b7160e01b600052602260045260246000fd5b50919050565b601f8211156200063a57600081815260208120601f850160051c81016020861015620006155750805b601f850160051c820191505b81811015620006365782815560010162000621565b5050505b505050565b81516001600160401b038111156200065b576200065b62000393565b62000673816200066c8454620005b0565b84620005ec565b602080601f831160018114620006ab5760008415620006925750858301515b600019600386901b1c1916600185901b17855562000636565b600085815260208120601f198616915b82811015620006dc57888601518255948401946001909101908401620006bb565b5085821015620006fb5787850151600019600388901b60f8161c191681555b5050505050600190811b01905550565b808201808211156200072d57634e487b7160e01b600052601160045260246000fd5b92915050565b61263280620007436000396000f3fe60806040526004361061023f5760003560e01c8063a0cde18d1161012e578063d98040c9116100ab578063ee6a934c1161006f578063ee6a934c14610719578063eeae0f9714610739578063f14210a614610759578063f2fde38b14610779578063fbfa77cf1461079957600080fd5b8063d98040c91461065e578063dd62ed3e14610673578063e6d4d75c146106b9578063e85455d7146106d9578063ea8b2424146106f957600080fd5b8063b0d75097116100f2578063b0d75097146105ad578063b2c5c9eb146105e5578063c77f6cc614610607578063d4ce85f314610627578063d81657431461063c57600080fd5b8063a0cde18d14610516578063a1db97821461052b578063a45cae021461054b578063a9059cbb1461056d578063ae22107f1461058d57600080fd5b806342966c68116101bc5780637f45c4c3116101805780637f45c4c31461046d5780638da5cb5b1461048f578063936b2934146104c157806395d89b41146104e15780639808751d146104f657600080fd5b806342966c68146103ad5780634bed5ad2146103cd57806370a0823114610402578063715018a61461043857806379cc67901461044d57600080fd5b806323b872dd1161020357806323b872dd1461031a578063247165b71461033a5780632ead09551461035a578063313ce56714610371578063326b3b8b1461038d57600080fd5b8063038272b61461024b57806306fdde031461027a578063095ea7b31461029c57806310b828c9146102cc57806318160ddd1461030557600080fd5b3661024657005b600080fd5b34801561025757600080fd5b50600554600160e01b900461ffff165b6040519081526020015b60405180910390f35b34801561028657600080fd5b5061028f6107b9565b60405161027191906122d3565b3480156102a857600080fd5b506102bc6102b736600461233d565b61084b565b6040519015158152602001610271565b3480156102d857600080fd5b506005546102f090600160b01b900463ffffffff1681565b60405163ffffffff9091168152602001610271565b34801561031157600080fd5b50600254610267565b34801561032657600080fd5b506102bc610335366004612367565b610865565b34801561034657600080fd5b506102bc6103553660046123a3565b6108aa565b34801561036657600080fd5b5061036f6108b7565b005b34801561037d57600080fd5b5060405160128152602001610271565b34801561039957600080fd5b5061036f6103a83660046123d0565b610902565b3480156103b957600080fd5b5061036f6103c83660046123eb565b61097b565b3480156103d957600080fd5b506005546103ef90600160f01b900461ffff1681565b60405161ffff9091168152602001610271565b34801561040e57600080fd5b5061026761041d3660046123a3565b6001600160a01b031660009081526020819052604090205490565b34801561044457600080fd5b5061036f610985565b34801561045957600080fd5b5061036f61046836600461233d565b610997565b34801561047957600080fd5b506104826109b0565b6040516102719190612404565b34801561049b57600080fd5b506005546001600160a01b03165b6040516001600160a01b039091168152602001610271565b3480156104cd57600080fd5b5061036f6104dc366004612451565b6109c1565b3480156104ed57600080fd5b5061028f610a5f565b34801561050257600080fd5b5061036f6105113660046123a3565b610a6e565b34801561052257600080fd5b5061028f610ac0565b34801561053757600080fd5b5061036f61054636600461233d565b610aca565b34801561055757600080fd5b506005546103ef90600160d01b900461ffff1681565b34801561057957600080fd5b506102bc61058836600461233d565b610b0f565b34801561059957600080fd5b5061036f6105a83660046123a3565b610b2a565b3480156105b957600080fd5b506007546105cd906001600160801b031681565b6040516001600160801b039091168152602001610271565b3480156105f157600080fd5b506005546103ef90600160e01b900461ffff1681565b34801561061357600080fd5b5061036f6106223660046123a3565b610b75565b34801561063357600080fd5b506102bc610bc0565b34801561064857600080fd5b50610651610be3565b604051610271919061249a565b34801561066a57600080fd5b50610482610c39565b34801561067f57600080fd5b5061026761068e3660046124c2565b6001600160a01b03918216600090815260016020908152604080832093909416825291909152205490565b3480156106c557600080fd5b5061036f6106d43660046123a3565b610c45565b3480156106e557600080fd5b506102bc6106f43660046123a3565b610c90565b34801561070557600080fd5b506006546104a9906001600160a01b031681565b34801561072557600080fd5b5061036f6107343660046123a3565b610c9d565b34801561074557600080fd5b50600554600160d01b900461ffff16610267565b34801561076557600080fd5b5061036f6107743660046123eb565b610d3a565b34801561078557600080fd5b5061036f6107943660046123a3565b610dab565b3480156107a557600080fd5b506008546104a9906001600160a01b031681565b6060600380546107c8906124ec565b80601f01602080910402602001604051908101604052809291908181526020018280546107f4906124ec565b80156108415780601f1061081657610100808354040283529160200191610841565b820191906000526020600020905b81548152906001019060200180831161082457829003601f168201915b5050505050905090565b600033610859818585610deb565b60019150505b92915050565b600061087033610dfd565b3361087c858285610ebb565b61089f85858561088b89610c90565b8061089a575061089a88610c90565b610f3a565b506001949350505050565b600061085f600b83610f5c565b6007546001600160801b03161561090057600780546001600160801b031981169091556006546001600160801b03909116906108fe9030906001600160a01b031683610f81565b505b565b61090a610fe0565b6005805461ffff838116600160f01b9081026001600160f01b038416179093556040519290910416907fe4351c45b53ffb7ebad0b66cc0f1a3dfe2963c099421eeaded141104df39206a9061096f908390859091825261ffff16602082015260400190565b60405180910390a15050565b6108fe338261100d565b61098d610fe0565b6109006000611043565b6109a2823383610ebb565b6109ac828261100d565b5050565b60606109bc6009611095565b905090565b6109c9610fe0565b6005805461ffff838116600160e01b81810261ffff60e01b19888516600160d01b8181029290921663ffffffff60d01b1988161792909217909655604080519686048516808852602088019290925291909404909216918401829052606084015290917f4b05569be7121baf443b738742a05e619022a6ee1ea8a7163ac268f5f163ccef9060800160405180910390a150505050565b6060600480546107c8906124ec565b610a76610fe0565b600680546001600160a01b0319166001600160a01b0383169081179091556040517fa4eea51cd2f21eac6612ba054a363ae2fd59698fc258ab414313cd73f69f2b8590600090a250565b60606109bc6110a2565b610ad2610fe0565b306001600160a01b03831603610afb5760405163992501b360e01b815260040160405180910390fd5b6109ac6001600160a01b0383163383611340565b6000610b1a33610dfd565b3361085981858561088b83610c90565b610b32610fe0565b610b3d600982611392565b506040516001600160a01b038216907f59c3fbcae88f30e9b0e35c132a7f68c53231dffa4722f197c7ecb0ee013eee6090600090a250565b610b7d610fe0565b610b88600b82611392565b506040516001600160a01b038216907f23d60777ebe8928281accb2b7cec3b8daea87dcd3dd3af91a937fea6d898150790600090a250565b60006003610bcc610be3565b6003811115610bdd57610bdd612484565b14905090565b600080610bee6113a7565b9050610bf9816113de565b15610c0657600091505090565b610c0f8161151c565b15610c1c57600191505090565b610c258161153b565b610c3157600291505090565b600391505090565b60606109bc600b611095565b610c4d610fe0565b610c58600b8261159e565b506040516001600160a01b038216907ffc9dbe314ed9f975da84bf7665838b1f60db2efccc75299784a49cbe0752f1af90600090a250565b600061085f600983610f5c565b610ca5610fe0565b6001600160a01b038116610ccc5760405163b47cdee560e01b815260040160405180910390fd5b806001600160a01b03163b600003610cf757604051630f9da0c760e41b815260040160405180910390fd5b610d0260098261159e565b506040516001600160a01b038216907fb893f883ef734b712208a877459424ee509832c57e0461fb1ac99ed4d42f2d8990600090a250565b610d42610fe0565b604051600090339083908381818185875af1925050503d8060008114610d84576040519150601f19603f3d011682016040523d82523d6000602084013e610d89565b606091505b50509050806109ac576040516312171d8360e31b815260040160405180910390fd5b610db3610fe0565b6001600160a01b038116610de257604051631e4fbdf760e01b8152600060048201526024015b60405180910390fd5b6108fe81611043565b610df883838360016115b3565b505050565b610e08600b82610f5c565b15610e105750565b6000610e1a610be3565b90506000816003811115610e3057610e30612484565b03610e5757610e3d610ac0565b604051630968ed3960e11b8152600401610dd991906122d3565b6001816003811115610e6b57610e6b612484565b03610e89576040516371a3793b60e01b815260040160405180910390fd5b6002816003811115610e9d57610e9d612484565b036109ac5760405163110cfbe760e21b815260040160405180910390fd5b6001600160a01b03838116600090815260016020908152604080832093861683529290522054600019811015610f345781811015610f2557604051637dc7a0d960e11b81526001600160a01b03841660048201526024810182905260448101839052606401610dd9565b610f34848484840360006115b3565b50505050565b6000610f4882858786611688565b9050610f55858583610f81565b5050505050565b6001600160a01b038116600090815260018301602052604081205415155b9392505050565b6001600160a01b038316610fab57604051634b637e8f60e11b815260006004820152602401610dd9565b6001600160a01b038216610fd55760405163ec442f0560e01b815260006004820152602401610dd9565b610df88383836117ac565b6005546001600160a01b031633146109005760405163118cdaa760e01b8152336004820152602401610dd9565b6001600160a01b03821661103757604051634b637e8f60e11b815260006004820152602401610dd9565b6109ac826000836117ac565b600580546001600160a01b038381166001600160a01b0319831681179093556040519116919082907f8be0079c531659141344cd1fd0a4f28419497f9722a3daafe3b4186f6b6457e090600090a35050565b60606000610f7a836118d6565b606060006110ae6113a7565b905060008060006110be84611932565b9250925092508160011480156110d45750806001145b15611109576040518060400160405280600e81526020016d4e6577205965617227732044617960901b81525094505050505090565b8160071480156111195750806004145b15611150576040518060400160405280601081526020016f496e646570656e64656e63652044617960801b81525094505050505090565b81600c1480156111605750806019145b15611194576040518060400160405280600d81526020016c4368726973746d61732044617960981b81525094505050505090565b8160011480156111aa57506111aa838383611ad4565b156111ee576040518060400160405280601a81526020017f4d617274696e204c7574686572204b696e67204a722e2044617900000000000081525094505050505090565b8160021480156112045750611204838383611ad4565b15611239576040518060400160405280600e81526020016d507265736964656e74732044617960901b81525094505050505090565b81600514801561124f575061124f838383611b35565b15611282576040518060400160405280600c81526020016b4d656d6f7269616c2044617960a01b81525094505050505090565b8160091480156112985750611298838383611b85565b156112c857604051806040016040528060098152602001684c61626f722044617960b81b81525094505050505090565b81600b1480156112de57506112de838383611bd6565b15611311576040518060400160405280600c81526020016b5468616e6b73676976696e6760a01b81525094505050505090565b6040518060400160405280600d81526020016c4e6f74206120486f6c6964617960981b81525094505050505090565b604080516001600160a01b038416602482015260448082018490528251808303909101815260649091019091526020810180516001600160e01b031663a9059cbb60e01b179052610df8908490611c29565b6000610f7a836001600160a01b038416611c9a565b60006113b1611d8d565b6113c7576113c2610e10600561253c565b6113d4565b6113d4610e10600461253c565b6109bc9042612553565b6000806000806113ed85611932565b9250925092508160011480156114035750806001145b1561141357506001949350505050565b8160071480156114235750806004145b1561143357506001949350505050565b81600c1480156114435750806019145b1561145357506001949350505050565b8160011480156114695750611469838383611ad4565b1561147957506001949350505050565b81600214801561148f575061148f838383611ad4565b1561149f57506001949350505050565b8160051480156114b557506114b5838383611b35565b156114c557506001949350505050565b8160091480156114db57506114db838383611b85565b156114eb57506001949350505050565b81600b1480156115015750611501838383611bd6565b1561151157506001949350505050565b506000949350505050565b60008061152883611dcc565b9050801580610f7a575060061492915050565b60008061154783611df2565b9050600061155484611e02565b90506009821080611566575060108210155b15611575575060009392505050565b6009821480156115855750601e81105b15611594575060009392505050565b5060019392505050565b6000610f7a836001600160a01b038416611e10565b6001600160a01b0384166115dd5760405163e602df0560e01b815260006004820152602401610dd9565b6001600160a01b03831661160757604051634a1406b160e11b815260006004820152602401610dd9565b6001600160a01b0380851660009081526001602090815260408083209387168352929052208290558015610f3457826001600160a01b0316846001600160a01b03167f8c5be1e5ebec7d5bd14f71427d1e84f3dd0314c0f7b2291e5b200ac8c7c3b9258460405161167a91815260200190565b60405180910390a350505050565b6005548190600160a01b900460ff1680156116a05750845b80156116b65750600554600160a81b900460ff16155b156117a45760006116c685610c90565b80156116de5750600554600160e01b900461ffff1615155b1561172657600554600780546001600160801b0380821661271061ffff600160e01b90960495909516880294909404938401166001600160801b03199091161790550161178b565b61172f84610c90565b80156117475750600554600160d01b900461ffff1615155b1561178b57600554600780546001600160801b0380821661271061ffff600160d01b90960495909516880294909404938401166001600160801b0319909116179055015b80156117a25761179c843083610f81565b80820391505b505b949350505050565b6001600160a01b0383166117d75780600260008282546117cc919061257c565b909155506118499050565b6001600160a01b0383166000908152602081905260409020548181101561182a5760405163391434e360e21b81526001600160a01b03851660048201526024810182905260448101839052606401610dd9565b6001600160a01b03841660009081526020819052604090209082900390555b6001600160a01b03821661186557600280548290039055611884565b6001600160a01b03821660009081526020819052604090208054820190555b816001600160a01b0316836001600160a01b03167fddf252ad1be2c89b69c2b068fc378daa952ba7f163c4a11628f55a4df523b3ef836040516118c991815260200190565b60405180910390a3505050565b60608160000180548060200260200160405190810160405280929190818152602001828054801561192657602002820191906000526020600020905b815481526020019060010190808311611912575b50505050509050919050565b600080600061194084611e5f565b92506000806119506107b2611f40565b61195986611f40565b6119639190612553565b90506119716107b286612553565b61197f906301e1338061253c565b611989908361257c565b9150611998816201518061253c565b6119a2908361257c565b915060006119b08388612553565b90506119ba6122b4565b601f81526119c787611f85565b156119d857601d60208201526119e0565b601c60208201525b601f60408201819052601e606083018190526080830182905260a0830181905260c0830182905260e0830182905261010083018190526101208301829052610140830152610160820152600060015b600c8111611aa357600083611a45600184612553565b600c8110611a5557611a5561258f565b6020020151611a67906201518061253c565b905084611a74848361257c565b1115611a835781985050611aa3565b611a8d818461257c565b9250508080611a9b906125a5565b915050611a2f565b5062015180611ab28285612553565b611abc91906125be565b611ac790600161257c565b9799969850505050505050565b600080611ae385856001611fd8565b90506000611af082611dcc565b905060006001821115611b0d57611b08826009612553565b611b18565b611b18826002612553565b90506000611b2782600e61257c565b909514979650505050505050565b600080611b42858561212a565b90506000611b51868684611fd8565b90506000611b5e82611dcc565b905060008115611b7857611b73600183612553565b611b7b565b60065b611b279085612553565b600080611b9485856001611fd8565b90506000611ba182611dcc565b905060006001821115611bbe57611bb9826009612553565b611bc9565b611bc9826002612553565b9094149695505050505050565b600080611be585856001611fd8565b90506000611bf282611dcc565b905060006004821115611c0f57611c0a82600c612553565b611c1a565b611c1a826005612553565b90506000611b2782601561257c565b600080602060008451602086016000885af180611c4c576040513d6000823e3d81fd5b50506000513d91508115611c64578060011415611c71565b6001600160a01b0384163b155b15610f3457604051635274afe760e01b81526001600160a01b0385166004820152602401610dd9565b60008181526001830160205260408120548015611d83576000611cbe600183612553565b8554909150600090611cd290600190612553565b9050808214611d37576000866000018281548110611cf257611cf261258f565b9060005260206000200154905080876000018481548110611d1557611d1561258f565b6000918252602080832090910192909255918252600188019052604090208390555b8554869080611d4857611d486125d2565b60019003818190600052602060002001600090559055856001016000868152602001908152602001600020600090556001935050505061085f565b600091505061085f565b600080611d9942611e5f565b90506000611da6826121e0565b90506000611db38361226d565b9050814210158015611dc457508042105b935050505090565b60006007611ddd62015180846125be565b611de890600461257c565b61085f91906125e8565b60006018611de8610e10846125be565b6000603c611de881846125be565b6000818152600183016020526040812054611e575750815460018181018455600084815260208082209093018490558454848252828601909352604090209190915561085f565b50600061085f565b6000806107b281611e746301e187e0866125be565b611e7e908361257c565b9150611e8b6107b2611f40565b611e9483611f40565b611e9e9190612553565b9050611eac6107b283612553565b611eba906301e1338061253c565b611ec4908461257c565b9250611ed3816201518061253c565b611edd908461257c565b92505b84831115611f3857611efb611ef6600184612553565b611f85565b15611f1557611f0e6301e2850084612553565b9250611f26565b611f236301e1338084612553565b92505b611f31600183612553565b9150611ee0565b509392505050565b6000611f4d600183612553565b9150611f5b610190836125be565b611f666064846125be565b611f716004856125be565b611f7b9190612553565b61085f919061257c565b6000611f926004836125e8565b15611f9f57506000919050565b611faa6064836125e8565b15611fb757506001919050565b611fc3610190836125e8565b15611fd057506000919050565b506001919050565b6000806107b25b8581101561202d57611ff081611f85565b1561200a576120036301e285008361257c565b915061201b565b6120186301e133808361257c565b91505b80612025816125a5565b915050611fdf565b506000604051806101800160405280601f8152602001601c8152602001601f8152602001601e8152602001601f8152602001601e8152602001601f8152602001601f8152602001601e8152602001601f8152602001601e8152602001601f815250905061209986611f85565b156120a657601d60208201525b60015b858110156120fd57816120bd600183612553565b600c81106120cd576120cd61258f565b60200201516120df906201518061253c565b6120e9908461257c565b9250806120f5816125a5565b9150506120a9565b50612109600185612553565b612116906201518061253c565b612120908361257c565b9695505050505050565b6000816001148061213b5750816003145b806121465750816005145b806121515750816007145b8061215c5750816008145b80612167575081600a145b80612172575081600c145b1561217f5750601f61085f565b816004148061218e5750816006145b806121995750816009145b806121a4575081600b145b156121b15750601e61085f565b816002036121d7576121c283611f85565b156121cf5750601d61085f565b50601c61085f565b50600092915050565b6000806121f08360036001611fd8565b905060006121fd82611dcc565b90506000816000036122115750600e61222a565b61221c82600e612553565b61222790600761257c565b90505b612237610e10600261253c565b62015180612246600184612553565b612250919061253c565b61225a908561257c565b612264919061257c565b95945050505050565b60008061227d83600b6001611fd8565b9050600061228a82611dcc565b9050600081156122a45761229f826008612553565b612227565b506001612237610e10600261253c565b604051806101800160405280600c906020820280368337509192915050565b600060208083528351808285015260005b81811015612300578581018301518582016040015282016122e4565b506000604082860101526040601f19601f8301168501019250505092915050565b80356001600160a01b038116811461233857600080fd5b919050565b6000806040838503121561235057600080fd5b61235983612321565b946020939093013593505050565b60008060006060848603121561237c57600080fd5b61238584612321565b925061239360208501612321565b9150604084013590509250925092565b6000602082840312156123b557600080fd5b610f7a82612321565b803561ffff8116811461233857600080fd5b6000602082840312156123e257600080fd5b610f7a826123be565b6000602082840312156123fd57600080fd5b5035919050565b6020808252825182820181905260009190848201906040850190845b818110156124455783516001600160a01b031683529284019291840191600101612420565b50909695505050505050565b6000806040838503121561246457600080fd5b61246d836123be565b915061247b602084016123be565b90509250929050565b634e487b7160e01b600052602160045260246000fd5b60208101600483106124bc57634e487b7160e01b600052602160045260246000fd5b91905290565b600080604083850312156124d557600080fd5b6124de83612321565b915061247b60208401612321565b600181811c9082168061250057607f821691505b60208210810361252057634e487b7160e01b600052602260045260246000fd5b50919050565b634e487b7160e01b600052601160045260246000fd5b808202811582820484141761085f5761085f612526565b8181038181111561085f5761085f612526565b634e487b7160e01b600052601260045260246000fd5b8082018082111561085f5761085f612526565b634e487b7160e01b600052603260045260246000fd5b6000600182016125b7576125b7612526565b5060010190565b6000826125cd576125cd612566565b500490565b634e487b7160e01b600052603160045260246000fd5b6000826125f7576125f7612566565b50069056fea2646970667358221220a722eb964cc2fb3d1a2640e3c0f53fd4fdf41c0d5910722cfbdba2ac5bad174a64736f6c63430008140033",
  "linkReferences": {},
  "deployedLinkReferences": {}
}