{
  "_format": "hh-sol-artifact-1",
  "contractName": "StonkTokenFactory",
  "sourceName": "contracts/StonkTokenFactory.sol",
  "abi": [
    {
      "inputs": [
        {
          "internalType": "address",
          "name": "_treasury",
          "type": "address"
        },
        {
          "internalType": "uint256",
          "name": "_feePrice",
          "type": "uint256"
        },
        {
          "internalType": "address",
          "name": "_uniswapFactory",
          "type": "address"
        },
        {
          "internalType": "address",
          "name": "_uniswapRouter",
          "type": "address"
        },
        {
          "internalType": "address",
          "name": "_assetToken",
          "type": "address"
        },
        {
          "internalType": "uint256",
          "name": "_bondingCurveFeeBasisPoints",
          "type": "uint256"
        }
      ],
      "stateMutability": "nonpayable",
      "type": "constructor"
    },
    {
      "inputs": [],
      "name": "ArraysLengthMismatch",
      "type": "error"
    },
    {
      "inputs": [],
      "name": "ContractPaused",
      "type": "error"
    },
    {
      "inputs": [],
      "name": "FeeTooHigh",
      "type": "error"
    },
    {
      "inputs": [],
      "name": "InsufficientFee",
      "type": "error"
    },
    {
      "inputs": [
        {
          "internalType": "address",
          "name": "owner",
          "type": "address"
        }
      ],
      "name": "OwnableInvalidOwner",
      "type": "error"
    },
    {
      "inputs": [
        {
          "internalType": "address",
          "name": "account",
          "type": "address"
        }
      ],
      "name": "OwnableUnauthorizedAccount",
      "type": "error"
    },
    {
      "inputs": [],
      "name": "TokenNotFound",
      "type": "error"
    },
    {
      "inputs": [],
      "name": "ZeroAddress",
      "type": "error"
    },
    {
      "anonymous": false,
      "inputs": [
        {
          "indexed": true,
          "internalType": "uint256",
          "name": "oldFee",
          "type": "uint256"
        },
        {
          "indexed": true,
          "internalType": "uint256",
          "name": "newFee",
          "type": "uint256"
        }
      ],
      "name": "BondingCurveFeeUpdated",
      "type": "event"
    },
    {
      "anonymous": false,
      "inputs": [
        {
          "indexed": true,
          "internalType": "address",
          "name": "token",
          "type": "address"
        },
        {
          "indexed": true,
          "internalType": "uint256",
          "name": "amount",
          "type": "uint256"
        },
        {
          "indexed": true,
          "internalType": "address",
          "name": "treasury",
          "type": "address"
        }
      ],
      "name": "FeeCollected",
      "type": "event"
    },
    {
      "anonymous": false,
      "inputs": [
        {
          "indexed": true,
          "internalType": "uint256",
          "name": "oldPrice",
          "type": "uint256"
        },
        {
          "indexed": true,
          "internalType": "uint256",
          "name": "newPrice",
          "type": "uint256"
        }
      ],
      "name": "FeePriceUpdated",
      "type": "event"
    },
    {
      "anonymous": false,
      "inputs": [
        {
          "indexed": true,
          "internalType": "address",
          "name": "previousOwner",
          "type": "address"
        },
        {
          "indexed": true,
          "internalType": "address",
          "name": "newOwner",
          "type": "address"
        }
      ],
      "name": "OwnershipTransferred",
      "type": "event"
    },
    {
      "anonymous": false,
      "inputs": [
        {
          "indexed": true,
          "internalType": "address",
          "name": "account",
          "type": "address"
        }
      ],
      "name": "Paused",
      "type": "event"
    },
    {
      "anonymous": false,
      "inputs": [
        {
          "indexed": true,
          "internalType": "address",
          "name": "tokenAddress",
          "type": "address"
        },
        {
          "indexed": true,
          "internalType": "address",
          "name": "bondingCurveAddress",
          "type": "address"
        },
        {
          "indexed": false,
          "internalType": "string",
          "name": "name",
          "type": "string"
        },
        {
          "indexed": false,
          "internalType": "string",
          "name": "symbol",
          "type": "string"
        },
        {
          "indexed": false,
          "internalType": "uint256",
          "name": "initialSupply",
          "type": "uint256"
        },
        {
          "indexed": true,
          "internalType": "address",
          "name": "owner",
          "type": "address"
        },
        {
          "indexed": false,
          "internalType": "uint256",
          "name": "deploymentFee",
          "type": "uint256"
        }
      ],
      "name": "TokenDeployed",
      "type": "event"
    },
    {
      "anonymous": false,
      "inputs": [
        {
          "indexed": true,
          "internalType": "address",
          "name": "tokenAddress",
          "type": "address"
        },
        {
          "indexed": true,
          "internalType": "address",
          "name": "bondingCurveAddress",
          "type": "address"
        }
      ],
      "name": "TokenGraduated",
      "type": "event"
    },
    {
      "anonymous": false,
      "inputs": [
        {
          "indexed": true,
          "internalType": "address",
          "name": "tokenAddress",
          "type": "address"
        },
        {
          "indexed": false,
          "internalType": "bool",
          "name": "isBondingCurve",
          "type": "bool"
        },
        {
          "indexed": false,
          "internalType": "bool",
          "name": "isUniswap",
          "type": "bool"
        }
      ],
      "name": "TokenTradingStateChanged",
      "type": "event"
    },
    {
      "anonymous": false,
      "inputs": [
        {
          "indexed": true,
          "internalType": "address",
          "name": "oldRouter",
          "type": "address"
        },
        {
          "indexed": true,
          "internalType": "address",
          "name": "newRouter",
          "type": "address"
        }
      ],
      "name": "TradingRouterUpdated",
      "type": "event"
    },
    {
      "anonymous": false,
      "inputs": [
        {
          "indexed": true,
          "internalType": "address",
          "name": "oldTreasury",
          "type": "address"
        },
        {
          "indexed": true,
          "internalType": "address",
          "name": "newTreasury",
          "type": "address"
        }
      ],
      "name": "TreasuryUpdated",
      "type": "event"
    },
    {
      "anonymous": false,
      "inputs": [
        {
          "indexed": true,
          "internalType": "address",
          "name": "account",
          "type": "address"
        }
      ],
      "name": "Unpaused",
      "type": "event"
    },
    {
      "inputs": [],
      "name": "ASSET_RATE",
      "outputs": [
        {
          "internalType": "uint256",
          "name": "",
          "type": "uint256"
        }
      ],
      "stateMutability": "view",
      "type": "function"
    },
    {
      "inputs": [],
      "name": "BONDING_CURVE_K",
      "outputs": [
        {
          "internalType": "uint256",
          "name": "",
          "type": "uint256"
        }
      ],
      "stateMutability": "view",
      "type": "function"
    },
    {
      "inputs": [],
      "name": "GRADUATION_THRESHOLD",
      "outputs": [
        {
          "internalType": "uint256",
          "name": "",
          "type": "uint256"
        }
      ],
      "stateMutability": "view",
      "type": "function"
    },
    {
      "inputs": [],
      "name": "assetToken",
      "outputs": [
        {
          "internalType": "contract IERC20",
          "name": "",
          "type": "address"
        }
      ],
      "stateMutability": "view",
      "type": "function"
    },
    {
      "inputs": [
        {
          "internalType": "address[]",
          "name": "tokens",
          "type": "address[]"
        },
        {
          "internalType": "address[]",
          "name": "pools",
          "type": "address[]"
        }
      ],
      "name": "batchAddLiquidityPools",
      "outputs": [],
      "stateMutability": "nonpayable",
      "type": "function"
    },
    {
      "inputs": [
        {
          "internalType": "address[]",
          "name": "tokens",
          "type": "address[]"
        },
        {
          "internalType": "uint16[]",
          "name": "buyTaxes",
          "type": "uint16[]"
        },
        {
          "internalType": "uint16[]",
          "name": "sellTaxes",
          "type": "uint16[]"
        }
      ],
      "name": "batchSetTaxRates",
      "outputs": [],
      "stateMutability": "nonpayable",
      "type": "function"
    },
    {
      "inputs": [],
      "name": "bondingCurveFeeBasisPoints",
      "outputs": [
        {
          "internalType": "uint256",
          "name": "",
          "type": "uint256"
        }
      ],
      "stateMutability": "view",
      "type": "function"
    },
    {
      "inputs": [
        {
          "internalType": "uint256",
          "name": "tradeAmount",
          "type": "uint256"
        }
      ],
      "name": "calculateBondingCurveFee",
      "outputs": [
        {
          "internalType": "uint256",
          "name": "",
          "type": "uint256"
        }
      ],
      "stateMutability": "view",
      "type": "function"
    },
    {
      "inputs": [
        {
          "internalType": "string",
          "name": "name",
          "type": "string"
        },
        {
          "internalType": "string",
          "name": "symbol",
          "type": "string"
        },
        {
          "internalType": "address",
          "name": "projectTaxRecipient",
          "type": "address"
        },
        {
          "internalType": "uint16",
          "name": "projectBuyTaxBasisPoints",
          "type": "uint16"
        },
        {
          "internalType": "uint16",
          "name": "projectSellTaxBasisPoints",
          "type": "uint16"
        },
        {
          "internalType": "uint16",
          "name": "taxSwapThresholdBasisPoints",
          "type": "uint16"
        }
      ],
      "name": "deployToken",
      "outputs": [
        {
          "internalType": "address",
          "name": "tokenAddress",
          "type": "address"
        },
        {
          "internalType": "address",
          "name": "bondingCurveAddress",
          "type": "address"
        }
      ],
      "stateMutability": "payable",
      "type": "function"
    },
    {
      "inputs": [],
      "name": "feePrice",
      "outputs": [
        {
          "internalType": "uint256",
          "name": "",
          "type": "uint256"
        }
      ],
      "stateMutability": "view",
      "type": "function"
    },
    {
      "inputs": [],
      "name": "getBondingCurveFeeInfo",
      "outputs": [
        {
          "internalType": "uint256",
          "name": "feeBasisPoints",
          "type": "uint256"
        },
        {
          "internalType": "address",
          "name": "feeTreasury",
          "type": "address"
        }
      ],
      "stateMutability": "view",
      "type": "function"
    },
    {
      "inputs": [],
      "name": "getFactoryInfo",
      "outputs": [
        {
          "internalType": "address",
          "name": "treasury_",
          "type": "address"
        },
        {
          "internalType": "uint256",
          "name": "feePrice_",
          "type": "uint256"
        },
        {
          "internalType": "uint256",
          "name": "globalTokenSupply_",
          "type": "uint256"
        },
        {
          "internalType": "uint256",
          "name": "bondingCurveFeeBasisPoints_",
          "type": "uint256"
        },
        {
          "internalType": "bool",
          "name": "paused_",
          "type": "bool"
        },
        {
          "internalType": "address",
          "name": "tradingRouter_",
          "type": "address"
        }
      ],
      "stateMutability": "view",
      "type": "function"
    },
    {
      "inputs": [],
      "name": "globalTokenSupply",
      "outputs": [
        {
          "internalType": "uint256",
          "name": "",
          "type": "uint256"
        }
      ],
      "stateMutability": "view",
      "type": "function"
    },
    {
      "inputs": [],
      "name": "owner",
      "outputs": [
        {
          "internalType": "address",
          "name": "",
          "type": "address"
        }
      ],
      "stateMutability": "view",
      "type": "function"
    },
    {
      "inputs": [],
      "name": "pause",
      "outputs": [],
      "stateMutability": "nonpayable",
      "type": "function"
    },
    {
      "inputs": [],
      "name": "paused",
      "outputs": [
        {
          "internalType": "bool",
          "name": "",
          "type": "bool"
        }
      ],
      "stateMutability": "view",
      "type": "function"
    },
    {
      "inputs": [],
      "name": "renounceOwnership",
      "outputs": [],
      "stateMutability": "nonpayable",
      "type": "function"
    },
    {
      "inputs": [
        {
          "internalType": "uint256",
          "name": "_newFeeBasisPoints",
          "type": "uint256"
        }
      ],
      "name": "setBondingCurveFee",
      "outputs": [],
      "stateMutability": "nonpayable",
      "type": "function"
    },
    {
      "inputs": [
        {
          "internalType": "uint256",
          "name": "_newFeePrice",
          "type": "uint256"
        }
      ],
      "name": "setFeePrice",
      "outputs": [],
      "stateMutability": "nonpayable",
      "type": "function"
    },
    {
      "inputs": [
        {
          "internalType": "address",
          "name": "_tradingRouter",
          "type": "address"
        }
      ],
      "name": "setTradingRouter",
      "outputs": [],
      "stateMutability": "nonpayable",
      "type": "function"
    },
    {
      "inputs": [
        {
          "internalType": "address",
          "name": "_newTreasury",
          "type": "address"
        }
      ],
      "name": "setTreasury",
      "outputs": [],
      "stateMutability": "nonpayable",
      "type": "function"
    },
    {
      "inputs": [],
      "name": "tradingRouter",
      "outputs": [
        {
          "internalType": "contract StonkTradingRouter",
          "name": "",
          "type": "address"
        }
      ],
      "stateMutability": "view",
      "type": "function"
    },
    {
      "inputs": [
        {
          "internalType": "address",
          "name": "newOwner",
          "type": "address"
        }
      ],
      "name": "transferOwnership",
      "outputs": [],
      "stateMutability": "nonpayable",
      "type": "function"
    },
    {
      "inputs": [],
      "name": "treasury",
      "outputs": [
        {
          "internalType": "address",
          "name": "",
          "type": "address"
        }
      ],
      "stateMutability": "view",
      "type": "function"
    },
    {
      "inputs": [],
      "name": "uniswapFactory",
      "outputs": [
        {
          "internalType": "contract IUniswapV2Factory",
          "name": "",
          "type": "address"
        }
      ],
      "stateMutability": "view",
      "type": "function"
    },
    {
      "inputs": [],
      "name": "uniswapRouter",
      "outputs": [
        {
          "internalType": "contract IUniswapV2Router02",
          "name": "",
          "type": "address"
        }
      ],
      "stateMutability": "view",
      "type": "function"
    },
    {
      "inputs": [],
      "name": "unpause",
      "outputs": [],
      "stateMutability": "nonpayable",
      "type": "function"
    }
  ],
  "bytecode": "0x60e03461015a57601f6200564d38819003918201601f19168301916001600160401b0383118484101761015f5780849260c09460405283398101031261015a5761004881610175565b60208201519161005a60408201610175565b9161006760608301610175565b60a061007560808501610175565b930151933315610141576000549060018060a01b03199533878416176000556040519760018060a01b03978880978196823391167f8be0079c531659141344cd1fd0a4f28419497f9722a3daafe3b4186f6b6457e0600080a3169060015416176001556002556b033b2e3c9fd0803ce8000000600355600455166080521660a0521660c05260ff19600554166005556154c390816200018a82396080518181816105440152610a0a015260a0518181816107bc0152610a32015260c0518181816109d60152610fe60152f35b604051631e4fbdf760e01b815260006004820152602490fd5b600080fd5b634e487b7160e01b600052604160045260246000fd5b51906001600160a01b038216820361015a5756fe60808060405260043610156200001457600080fd5b60003560e01c9081631083f7611462000fd15750806314f7ef8e1462000fb1578063245ccdb71462000f6357806339c589361462000e015780633f4ba83a1462000db2578063453d198114620008b857806354ad971814620008985780635c975abb146200087357806361d027b31462000848578063715018a614620007eb578063735de9f714620007a4578063766db99b1462000670578063782be8dd14620006155780638370851614620005c55780638456cb5914620005735780638bdb2afa146200052c5780638da5cb5b1462000501578063a0dadbbe14620004d2578063c02f12c1146200043d578063d6a81c30146200041a578063e130cb7614620003eb578063f0f44260146200032a578063f2fde38b1462000295578063f5389ada14620001ca578063f8b855c214620001ab578063f8d5ce9a146200018b5763fcfc0c09146200016457600080fd5b34620001865760003660031901126200018657602060405164174876e8008152f35b600080fd5b346200018657600036600319011262000186576020600454604051908152f35b3462000186576000366003190112620001865760206040516127108152f35b34620001865760203660031901126200018657620001e76200107a565b620001f162001091565b6001600160a01b038116908115620002505760058054610100600160a81b03191660089290921b610100600160a81b031691909117905560007ff1ba5894ed548af69116fee1e5508cd32d33621c66db0ede1cf04c09744f79c18180a3005b60405162461bcd60e51b815260206004820152601d60248201527f526f757465722063616e6e6f74206265207a65726f20616464726573730000006044820152606490fd5b34620001865760203660031901126200018657620002b26200107a565b620002bc62001091565b6001600160a01b039081169081156200031157600054826bffffffffffffffffffffffff60a01b821617600055167f8be0079c531659141344cd1fd0a4f28419497f9722a3daafe3b4186f6b6457e0600080a3005b604051631e4fbdf760e01b815260006004820152602490fd5b34620001865760203660031901126200018657620003476200107a565b6200035162001091565b6001600160a01b03908116908115620003a657600154826bffffffffffffffffffffffff60a01b821617600155167f4ab5be82436d353e61ca18726e984e561f5c1cc7c6d38b29d2553c790434705a600080a3005b60405162461bcd60e51b815260206004820152601f60248201527f54726561737572792063616e6e6f74206265207a65726f2061646472657373006044820152606490fd5b3462000186576000366003190112620001865760055460405160089190911c6001600160a01b03168152602090f35b3462000186576000366003190112620001865760206040516502ba7def30008152f35b346200018657602036600319011262000186576004356200045d62001091565b6103e881116200049557600454816004557f99cf0e4386899fa2e6cbc0f117bfdc92d1280bc5065087f77dd6a28af1d89595600080a3005b60405162461bcd60e51b81526020600482015260156024820152744665652063616e6e6f74206578636565642031302560581b6044820152606490fd5b34620001865760003660031901126200018657604060045460018060a01b036001541682519182526020820152f35b346200018657600036600319011262000186576000546040516001600160a01b039091168152602090f35b346200018657600036600319011262000186576040517f00000000000000000000000000000000000000000000000000000000000000006001600160a01b03168152602090f35b346200018657600036600319011262000186576200059062001091565b600160ff196005541617600555337f62e78cea01bee320cd4e420270b5ea74000d11b0c9f74754ebdbfc544b05a258600080a2005b3462000186576020366003190112620001865760043560045490818102918183041490151715620005ff5760209061271060405191048152f35b634e487b7160e01b600052601160045260246000fd5b3462000186576000366003190112620001865760c060018060a01b03806001541690600254600354600454906005549260405195865260208601526040850152606084015260ff81161515608084015260081c1660a0820152f35b3462000186576040366003190112620001865767ffffffffffffffff6004358181116200018657620006a790369060040162001015565b909160249081359081116200018657620006c690369060040162001015565b929093620006d362001091565b60ff600554166200079257620006eb84831462001111565b60005b828110620006f857005b6001600160a01b039081620007196200071383878762001167565b6200118e565b16916200072c6200071383898b62001167565b90833b15620001865786600092836040519687948593633b9aa4d360e21b85521660048401525af191821562000786576200076e9262000774575b5062001157565b620006ee565b6200077f90620010df565b8762000767565b6040513d6000823e3d90fd5b60405163ab35696f60e01b8152600490fd5b346200018657600036600319011262000186576040517f00000000000000000000000000000000000000000000000000000000000000006001600160a01b03168152602090f35b346200018657600036600319011262000186576200080862001091565b600080546001600160a01b0319811682556001600160a01b03167f8be0079c531659141344cd1fd0a4f28419497f9722a3daafe3b4186f6b6457e08280a3005b346200018657600036600319011262000186576001546040516001600160a01b039091168152602090f35b34620001865760003660031901126200018657602060ff600554166040519015158152f35b346200018657600036600319011262000186576020600254604051908152f35b60c0366003190112620001865760043567ffffffffffffffff81116200018657620008e890369060040162001049565b9060243567ffffffffffffffff811162000186576200090c90369060040162001049565b9092604435929091906001600160a01b0384168403620001865760643561ffff8116810362000186576084359061ffff82168203620001865760a4359561ffff87168703620001865760ff60055416620007925760025480341062000d7a576001546000918291829182916001600160a01b031682821562000d70575bf115620007865760025480341162000d39575b5060045460018060a01b036001541660405191826114cb81011067ffffffffffffffff6114cb8501111762000d23576114cb620011b484397f00000000000000000000000000000000000000000000000000000000000000006001600160a01b039081166114cb85019081527f0000000000000000000000000000000000000000000000000000000000000000821660208201527f0000000000000000000000000000000000000000000000000000000000000000909116604082015260006060820181905264174876e800608083015261271060a083015260c082019290925260e081019290925290829003610100019190f0968715620007865761ffff9081600354956000606060405162000ab381620010f4565b8281528260208201528260408201520152816040519662000ad488620010f4565b16865216602085015216604083015260018060a01b031660608201526040519182612e0f81011067ffffffffffffffff612e0f8501111762000d23578291612e0f6200267f843933612e0f84015262000b5d62000b45610120806020612e0f88010152612e0f8601018988620010be565b612e0f850181036040612e0f87010152878b620010be565b6060612e0f8501818101949094526001600160a01b038a81166080860152835161ffff90811660a08701526020850151811660c087015260408501511660e08601529201519091166101009092019190915203906000f0801562000786576001600160a01b03908116959085163b156200018657604051631352746960e11b815260048101879052600081602481836001600160a01b038b165af18015620007865762000d11575b5060055460081c6001600160a01b0316908162000caa575b62000c5191506003549362000c426002549460405197608089526080890191620010be565b918683036020880152620010be565b9160408401526060830152837fec4ba8fe6b3094c6c906ce33775fb0bf21e4616efb0409a7378be18aa03add7833938060018060a01b038716940390a4604080516001600160a01b039384168152919092166020820152f35b813b156200018657604051634739f7e560e01b81526001600160a01b03888116600483015287166024820152916000908390604490829084905af1918215620007865762000c519262000cff575b5062000c1d565b62000d0a90620010df565b8762000cf8565b62000d1c90620010df565b8662000c05565b634e487b7160e01b600052604160045260246000fd5b80340390348211620005ff57600080809381938290341462000d66575b3390f1156200078657886200099c565b506108fc62000d56565b506108fc62000989565b60405162461bcd60e51b815260206004820152601060248201526f496e73756666696369656e742066656560801b6044820152606490fd5b3462000186576000366003190112620001865762000dcf62001091565b60ff1960055416600555337f5db9ee0a495bf2e6ff9c91a7834c1ba4fdd244a5e8aa4e537bd38aeae4b073aa600080a2005b3462000186576060366003190112620001865767ffffffffffffffff600435818111620001865762000e3890369060040162001015565b916024928335828111620001865762000e5690369060040162001015565b6044939193918235908111620001865762000e7690369060040162001015565b95909362000e8362001091565b60ff6005541662000792578281148062000f59575b62000ea39062001111565b60005b81811062000eb057005b6001600160a01b0362000ec96200071383858762001167565b169062000ee262000edc82878b62001167565b620011a3565b62000ef362000edc838c8b62001167565b90833b1562000186576040516324daca4d60e21b815261ffff91821660048201529116818c01529160009083908890829084905af1918215620007865762000f419262000f47575062001157565b62000ea6565b62000f5290620010df565b8a62000767565b5080871462000e98565b3462000186576020366003190112620001865760043562000f8362001091565b600254816002557f0b0221ed2a319436fb121d3bb917464986dfb897d0c1cade9a2d5eeefe945da5600080a3005b346200018657600036600319011262000186576020600354604051908152f35b346200018657600036600319011262000186577f00000000000000000000000000000000000000000000000000000000000000006001600160a01b03168152602090f35b9181601f84011215620001865782359167ffffffffffffffff831162000186576020808501948460051b0101116200018657565b9181601f84011215620001865782359167ffffffffffffffff83116200018657602083818601950101116200018657565b600435906001600160a01b03821682036200018657565b6000546001600160a01b03163303620010a657565b60405163118cdaa760e01b8152336004820152602490fd5b908060209392818452848401376000828201840152601f01601f1916010190565b67ffffffffffffffff811162000d2357604052565b6080810190811067ffffffffffffffff82111762000d2357604052565b156200111957565b60405162461bcd60e51b8152602060048201526016602482015275082e4e4c2f2e640d8cadccee8d040dad2e6dac2e8c6d60531b6044820152606490fd5b6000198114620005ff5760010190565b9190811015620011785760051b0190565b634e487b7160e01b600052603260045260246000fd5b356001600160a01b0381168103620001865790565b3561ffff8116810362000186579056fe6080346200017057601f620014cb38819003918201601f19168301916001600160401b0383118484101762000175578084926101009460405283398101031262000170576200004e816200018b565b906200005d602082016200018b565b6200006b604083016200018b565b926200007a606084016200018b565b9060808401519360a0810151906200009a60e060c083015192016200018b565b91331562000157576000549660018060a01b03199733898216176000556040519960018060a01b0380998180998195823391167f8be0079c531659141344cd1fd0a4f28419497f9722a3daafe3b4186f6b6457e0600080a360018055168c6002541617600255168a6003541617600355168860045416176004556006556007556009551683600a541617600a5560ff196008541660085516908162000147575b61132a8381620001a18239f35b600554161760055538806200013a565b604051631e4fbdf760e01b815260006004820152602490fd5b600080fd5b634e487b7160e01b600052604160045260246000fd5b51906001600160a01b0382168203620001705756fe6080604081815260048036101561001557600080fd5b600092833560e01c90816202eab714610b47575080630422e87d14610b275780630cad0267146108df5780631083f76114610afe578063145f101914610ade57806320689fe514610ac057806321b77d63146108b957806326a4e8d214610a3b5780633c502e1814610a1d57806361d027b3146109f4578063715018a61461099a578063735de9f71461097357806384e568b0146109545780638b0bc501146109545780638bdb2afa1461092b5780638da5cb5b146109035780639e5f2602146108df578063a932492f146108be578063aaf5eb68146108b9578063b7c3f62214610890578063b8606eef14610871578063d2395dcd146104ac578063ddaf4c9814610460578063e1f1c4a714610443578063e4e57b9e146102dd578063e8e6ed69146102be578063eb91d37e146101df5763f2fde38b1461015657600080fd5b346101db5760203660031901126101db5761016f610b9c565b90610178610bdc565b6001600160a01b039182169283156101c557505082546001600160a01b0319811683178455167f8be0079c531659141344cd1fd0a4f28419497f9722a3daafe3b4186f6b6457e08380a380f35b51631e4fbdf760e01b8152908101849052602490fd5b8280fd5b5091346102bb57806003193601126102bb5760055482516370a0823160e01b815230858201529190602090839060249082906001600160a01b03165afa9182156102af578192610278575b50610236600754610c76565b90670de0b6b3a7640000918281029281840414901517156102655760208461025e8585610c9e565b9051908152f35b634e487b7160e01b815260118552602490fd5b9091506020813d82116102a7575b8161029360209383610c08565b810103126102a35751903861022a565b5080fd5b3d9150610286565b508251903d90823e3d90fd5b80fd5b5050346102a357816003193601126102a3576020906007549051908152f35b50346101db576102ec36610bb2565b6102f7949194610eae565b60ff600854166104335784156104235761031085610d8c565b60095490929080156104175761271061032c6103349286610c63565b048094610c40565b918210610408579161039d917f6db63bebf1e6540277744df32846ebdb98385b1a73f2d5de49b28348add63f5095949360018060a01b039561037b83878960025416610e1b565b836103a7575b5051968752602087015260408601529116929081906060820190565b0390a26001805580f35b6103bb84886002541689600a541690610e1b565b7fbde344b6f67c3bf7e0ecbbf22b04267d5d3ae0aa1909c0000b812f6b14ce45b9608088600a54169284519087825285602083015285820152631cd95b1b60e21b6060820152a238610381565b5163428637bb60e11b81528490fd5b50610334878094610c40565b815163162908e360e11b81528490fd5b815163e6a0d45f60e01b81528490fd5b5050346102a357816003193601126102a357602090516127108152f35b508290346102a35760203660031901126102a35761047e9035610cb5565b600954909181156104a557506104976127109183610c63565b045b82519182526020820152f35b9050610499565b50346101db576104bb36610bb2565b90926104c5610eae565b60ff60085416610863578315610855576104de84610cb5565b600954909290801561084d576104f76127109185610c63565b04935b6105048585610ca8565b82811161083d5760018060a01b0392836005541697895197886370a0823160e01b9a8b8252308983015281602460209c8d935afa908115610833578d91610802575b508660025416908d8d51918d8352308b8401528c83602481875afa9283156107f5578692936107b6575b50670de0b6b3a76400009161058491610c40565b106107a65761059786620f424092610ca8565b106107965791818a828f8f979596846105ee9c9b9a9861073b575b5050600554885163a9059cbb60e01b81526001600160a01b038b16818f0190815260208101949094529b8c93918c169284929091839160400190565b03925af190811561072f578b9a61064e610656978d60249c7f0d1a0d5e3d583a0e92588799dd06e50fd78c07daf05f0cc06d7b848b1ca445f196610701575b5050519283928b8b1696846040919493926060820195825260208201520152565b0390a2610c40565b806106ec575b5050600254169486519586938492835230908301525afa9283156106e3575083926106b5575b50506006541115806106a8575b61069b575b6001805580f35b6106a3610ef0565b610694565b5060ff600854161561068f565b90809250813d83116106dc575b6106cc8183610c08565b810103126102a357513880610682565b503d6106c2565b513d85823e3d90fd5b6106fa918360025416610e1b565b388061065c565b8161072092903d10610728575b6107188183610c08565b810190610e03565b508d3861062d565b503d61070e565b8e8651903d90823e3d90fd5b61074a918c600a541690610e1b565b89600a54167fbde344b6f67c3bf7e0ecbbf22b04267d5d3ae0aa1909c0000b812f6b14ce45b960808a518781528b8782015260038c8201526262757960e81b6060820152a238846105b2565b8b51639a845eb760e01b81528890fd5b8c51637222ae5760e11b81528990fd5b8d809294508193503d83116107ee575b6107d08183610c08565b810103126107ea5751908490670de0b6b3a7640000610570565b8e80fd5b503d6107c6565b50508d51903d90823e3d90fd5b90508981813d831161082c575b6108198183610c08565b81010312610828575138610546565b8c80fd5b503d61080f565b8c513d8f823e3d90fd5b875163428637bb60e11b81528490fd5b5086936104fa565b845163162908e360e11b8152fd5b845163e6a0d45f60e01b8152fd5b5050346102a357816003193601126102a3576020906009549051908152f35b5050346102a357816003193601126102a35760055490516001600160a01b039091168152602090f35b610b74565b5050346102a357816003193601126102a357602090516502ba7def30008152f35b5050346102a357816003193601126102a35760209060ff6008541690519015158152f35b5050346102a357816003193601126102a357905490516001600160a01b039091168152602090f35b5050346102a357816003193601126102a35760035490516001600160a01b039091168152602090f35b5050346102a357816003193601126102a3576020906006549051908152f35b50346101db57826003193601126101db575490516001600160a01b03909116815260209150f35b83346102bb57806003193601126102bb576109b3610bdc565b80546001600160a01b03198116825581906001600160a01b03167f8be0079c531659141344cd1fd0a4f28419497f9722a3daafe3b4186f6b6457e08280a380f35b5050346102a357816003193601126102a357600a5490516001600160a01b039091168152602090f35b5050346102a357816003193601126102a35760209051620f42408152f35b5090346101db5760203660031901126101db57610a56610b9c565b610a5e610bdc565b600554926001600160a01b0392838516610ab35750501680916bffffffffffffffffffffffff60a01b16176005557fd82cad5fdc98633445b90f806f2e1a61a5409f92187ee9cd87f1da18c90692668280a280f35b516371168e4f60e11b8152fd5b508290346102a35760203660031901126102a35761047e9035610d8c565b5091346102bb5760203660031901126102bb575061025e60209235610cb5565b5050346102a357816003193601126102a35760025490516001600160a01b039091168152602090f35b5091346102bb5760203660031901126102bb575061025e60209235610d8c565b839085346102bb57806003193601126102bb5750600954600a549082526001600160a01b03166020820152f35b34610b97576000366003190112610b97576020604051670de0b6b3a76400008152f35b600080fd5b600435906001600160a01b0382168203610b9757565b6060906003190112610b97576004356001600160a01b0381168103610b9757906024359060443590565b6000546001600160a01b03163303610bf057565b60405163118cdaa760e01b8152336004820152602490fd5b90601f8019910116810190811067ffffffffffffffff821117610c2a57604052565b634e487b7160e01b600052604160045260246000fd5b91908203918211610c4d57565b634e487b7160e01b600052601160045260246000fd5b81810292918115918404141715610c4d57565b8015610c8857666a94d74f4300000490565b634e487b7160e01b600052601260045260246000fd5b8115610c88570490565b91908201809211610c4d57565b6005546040516370a0823160e01b815230600482015290602090829060249082906001600160a01b03165afa908115610d8057600091610d4f575b50610cfb8282610c40565b91610d07600754610c76565b92670de0b6b3a76400009384810290808204861490151715610c4d57610d3d610d4392610d37610d4b9684610c9e565b92610c9e565b90610ca8565b60011c610c63565b0490565b906020823d8211610d78575b81610d6860209383610c08565b810103126102bb57505138610cf0565b3d9150610d5b565b6040513d6000823e3d90fd5b6005546040516370a0823160e01b815230600482015290602090829060249082906001600160a01b03165afa908115610d8057600091610dd2575b50610cfb8282610ca8565b906020823d8211610dfb575b81610deb60209383610c08565b810103126102bb57505138610dc7565b3d9150610dde565b90816020910312610b9757518015158103610b975790565b60405163a9059cbb60e01b60208083019182526001600160a01b039490941660248301526044808301959095529381529092600091610e5b606482610c08565b519082855af115610d80576000513d610ea557506001600160a01b0381163b155b610e835750565b604051635274afe760e01b81526001600160a01b039091166004820152602490fd5b60011415610e7c565b600260015414610ebf576002600155565b604051633ee5aeb560e01b8152600490fd5b90816020910312610b9757516001600160a01b0381168103610b975790565b60085460ff81166112f15760ff19166001176008556003546005546002546040805163e6a4390560e01b81526001600160a01b0393841660048083018290529385166024830181905291956020949291908616908588604481855afa9788156111ab576000986112d2575b5086881615611245575b50505083600554168251916370a0823160e01b9182845230828501528584602481845afa9384156111ab57600094611216575b50858760025416936024875180968193825230878301525afa9283156111ab576000936111e7575b50831515806111de575b611004575b50505050505080600554169116907f806ef27e0c58d1db68e3780cb50bde63b59139693b61ab9fdff83126acc3a9a0600080a3565b868254169086865180928160008161103f8b63095ea7b360e01b998a84528b840160209093929193604081019460018060a01b031681520152565b03925af180156111d35761108c92889286926111b6575b5089600254169060008b875416918a519687958694859384528a840160209093929193604081019460018060a01b031681520152565b03925af180156111ab5761118e575b50858154169086600554169087600254169261038442018042116111795791600061010492606095948a51978896879562e8e33760e81b875286015260248501528960448501528860648501528960848501528860a48501523060c485015260e48401525af1801561116e57611143575b507f38f8a0c92f4c5b0b6877f878cb4c0c8d348a47b76d716c8e78f425043df9515b938351928352820152a1388080808080610fcf565b606090813d8111611167575b6111598183610c08565b81010312610b97573861110c565b503d61114f565b84513d6000823e3d90fd5b601183634e487b7160e01b6000525260246000fd5b6111a490863d8811610728576107188183610c08565b503861109b565b85513d6000823e3d90fd5b6111cc90843d8611610728576107188183610c08565b5038611056565b86513d6000823e3d90fd5b50821515610fca565b90928682813d831161120f575b6111fe8183610c08565b810103126102bb5750519138610fc0565b503d6111f4565b90938682813d831161123e575b61122d8183610c08565b810103126102bb5750519238610f98565b503d611223565b84516364e329cb60e11b81526001600160a01b0391821685820190815293909116602084015292965084918391908290600090829060400103925af19081156112c75760009161129a575b5093388080610f65565b6112ba9150833d85116112c0575b6112b28183610c08565b810190610ed1565b38611290565b503d6112a8565b82513d6000823e3d90fd5b6112ea919850863d88116112c0576112b28183610c08565b9638610f5b565b5056fea26469706673582212208fedf0a525324d7cc637e377188686ab6a9618890a123dbdf2d049288fd9e47e64736f6c6343000814003360406080815234620005175762002e0f803803806200001e816200051c565b928339810181810391610120831262000517576200003c8162000542565b60208083015190926001600160401b0392918381116200051757856200006491830162000557565b94878201519084821162000517576200007f91830162000557565b9160608201519360806200009581850162000542565b98609f1901126200051757885196608088018881108382111762000408578a52620000c360a08501620005c9565b8852620000d360c08501620005c9565b87890152620000fa610100620000ec60e08701620005c9565b958c8b019687520162000542565b9160608901928352815181811162000408576003908154906001948583811c931680156200050c575b8c841014620004f65781908c601f948581116200049d575b50508c908483116001146200042a576000926200041e575b505060001982851b1c191690851b1782555b8751928311620004085760049788548581811c91168015620003fd575b8c821014620003e85780838d92116200039b575b50508a9184116001146200032e5793839491849260009562000322575b50501b92600019911b1c19161784555b6001600160a01b039182169283156200030b57600580546001600160a01b0319808216871783558c51929b92969095949392620002369286929083167f8be0079c531659141344cd1fd0a4f28419497f9722a3daafe3b4186f6b6457e0600080a316998a866008541617600855620005d9565b8a54915167ffff0000000000ff60a01b1990921690151560a01b60ff60a01b161760d09190911b61ffff60d01b16178955516006805490931691161790558415620002f7575060025490828201809211620002e2575060025560008381528083528581208054830190558551918252917fddf252ad1be2c89b69c2b068fc378daa952ba7f163c4a11628f55a4df523b3ef91a3805460ff60a81b19169055516127d190816200063e8239f35b601190634e487b7160e01b6000525260246000fd5b600060249263ec442f0560e01b8352820152fd5b8951631e4fbdf760e01b8152600081870152602490fd5b015193503880620001b3565b9190601f1984169289600052848c600020948d6000905b8983831062000382575050501062000367575b50505050811b018455620001c3565b01519060f884600019921b161c191690553880808062000358565b8686015189559097019694850194889350018e62000345565b8a60005283826000209181880160051c8301938810620003de575b0160051c019086905b828110620003d157508c915062000196565b60008155018690620003bf565b92508192620003b6565b60228a634e487b7160e01b6000525260246000fd5b90607f169062000182565b634e487b7160e01b600052604160045260246000fd5b01519050388062000153565b879350908d91601f1984168760005283600020936000905b8282106200047b575050841162000462575b505050811b01825562000165565b015160001983871b60f8161c1916905538808062000454565b91929395968291958786015181550195019301908f918a969594939262000442565b909192508560005284826000209181860160051c8301938610620004ec575b918991869594930160051c01915b828110620004dc57508e91506200013b565b60008155859450899101620004ca565b92508192620004bc565b634e487b7160e01b600052602260045260246000fd5b92607f169262000123565b600080fd5b6040519190601f01601f191682016001600160401b038111838210176200040857604052565b51906001600160a01b03821682036200051757565b919080601f84011215620005175782516001600160401b03811162000408576020906200058d601f8201601f191683016200051c565b92818452828287010111620005175760005b818110620005b557508260009394955001015290565b85810183015184820184015282016200059f565b519061ffff821682036200051757565b80519061ffff8083161590816200062d575b5015620005f9575050600090565b60055490602061ffff60c01b91015160c01b169161ffff60b01b9060b01b169063ffffffff60b01b19161717600555600190565b90506020820151161538620005eb56fe6080604081815260049182361015610022575b505050361561002057600080fd5b005b600092833560e01c918263038272b614610f925750816306fdde0314610e9d578163095ea7b314610df357816318160ddd14610dd457816323b872dd14610d53578163247165b714610d195781632ead095514610cbd578163313ce56714610ca1578163326b3b8b14610c2957816342966c6814610c0b5781634bed5ad214610be557816370a0823114610bae578163715018a614610b5157816379cc679014610b1e5781637f45c4c314610aa45781638da5cb5b14610a7b578163936b2934146109d057816395d89b41146108d15781639808751d14610869578163a0cde18d14610840578163a1db978214610763578163a45cae0214610328578163a9059cbb146106f4578163ae22107f14610698578163b0d7509714610670578163b2c5c9eb1461064a578163c77f6cc6146105ee578163d4ce85f3146105aa578163d81657431461056a578163d98040c9146104e2578163dd62ed3e14610499578163e6d4d75c1461043a578163e85455d714610400578163ea8b2424146103d7578163ee6a934c1461034e578163eeae0f9714610328578163f14210a61461029e578163f2fde38b1461020a575063fbfa77cf146101df5780610012565b3461020657816003193601126102065760085490516001600160a01b039091168152602090f35b5080fd5b90503461029a57602036600319011261029a57610225610ffe565b9061022e611084565b6001600160a01b03918216928315610284575050600554826bffffffffffffffffffffffff60a01b821617600555167f8be0079c531659141344cd1fd0a4f28419497f9722a3daafe3b4186f6b6457e08380a380f35b51631e4fbdf760e01b8152908101849052602490fd5b8280fd5b9190503461029a57602036600319011261029a576102ba611084565b828080808535335af13d15610323573d67ffffffffffffffff8111610310578251906102f0601f8201601f1916602001836110ff565b81528460203d92013e5b15610303578280f35b516312171d8360e31b8152fd5b634e487b7160e01b855260418452602485fd5b6102fa565b50503461020657816003193601126102065760209061ffff60055460b01c169051908152f35b90503461029a57602036600319011261029a57610369610ffe565b91610372611084565b6001600160a01b0383169283156103c9573b156103bc5750506103948161127e565b507fb893f883ef734b712208a877459424ee509832c57e0461fb1ac99ed4d42f2d898280a280f35b51630f9da0c760e41b8152fd5b505163b47cdee560e01b8152fd5b50503461020657816003193601126102065760065490516001600160a01b039091168152602090f35b5050346102065760203660031901126102065760209181906001600160a01b03610428610ffe565b168152600a8452205415159051908152f35b833461049657602036600319011261049657610454610ffe565b61045c611084565b6001600160a01b031661046e81611201565b507ffc9dbe314ed9f975da84bf7665838b1f60db2efccc75299784a49cbe0752f1af8280a280f35b80fd5b505034610206578060031936011261020657806020926104b7610ffe565b6104bf611019565b6001600160a01b0391821683526001865283832091168252845220549051908152f35b8284346104965780600319360112610496578151918291600b54808552602080950194600b83527f0175b7a638427703f0dbe7bb9bbf987a2551717b34e79f33b5b1008d1fa01db992905b8282106105535761054f8686610545828b03836110ff565b5191829182611040565b0390f35b83548752958601956001938401939091019061052d565b838334610206578160031936011261020657610584611121565b9051918382101561059757602083838152f35b634e487b7160e01b815260218452602490fd5b905082346104965780600319360112610496576105c5611121565b91808310156105db576020836003865191148152f35b634e487b7160e01b825260219052602490fd5b833461049657602036600319011261049657610608610ffe565b610610611084565b6001600160a01b0316610622816113e8565b507f23d60777ebe8928281accb2b7cec3b8daea87dcd3dd3af91a937fea6d89815078280a280f35b50503461020657816003193601126102065760209061ffff60055460c01c169051908152f35b5050346102065781600319360112610206576020906001600160801b03600754169051908152f35b8334610496576020366003190112610496576106b2610ffe565b6106ba611084565b6001600160a01b03166106cc816112fe565b507f59c3fbcae88f30e9b0e35c132a7f68c53231dffa4722f197c7ecb0ee013eee608280a280f35b50503461020657806003193601126102065761074360209261073c610717610ffe565b91338152600a86528480822054159182159261074a575b50506024359083339161165e565b9033611564565b5160018152f35b6001600160a01b0385168152205415159050843861072e565b9190503461029a578060031936011261029a5761077e610ffe565b610786611084565b6001600160a01b031690308214610831578051602081019063a9059cbb60e01b82523360248201526024356044820152604481526080810181811067ffffffffffffffff82111761081e5783525160209186919082865af1156108155783513d61080c5750813b155b6107f7578380f35b51635274afe760e01b81529182015260249150fd5b600114156107ef565b513d84823e3d90fd5b634e487b7160e01b875260418652602487fd5b5163992501b360e01b81529050fd5b50503461020657816003193601126102065761054f9061085e611ccc565b905191829182610fb5565b833461049657602036600319011261049657610883610ffe565b61088b611084565b600680546001600160a01b0319166001600160a01b039290921691821790557fa4eea51cd2f21eac6612ba054a363ae2fd59698fc258ab414313cd73f69f2b858280a280f35b838334610206578160031936011261020657805191809380549160019083821c928285169485156109c6575b60209586861081146109b35785895290811561098f5750600114610937575b61054f878761092d828c03836110ff565b5191829182610fb5565b81529295507f8a35acfbc15ff81a39ae7d344fd709f28e8600b4aa8c65c6b64bfe7fe36bd19b5b82841061097c575050508261054f9461092d9282010194868061091c565b805486850188015292860192810161095e565b60ff19168887015250505050151560051b830101925061092d8261054f868061091c565b634e487b7160e01b845260228352602484fd5b93607f16936108fd565b5050346102065780600319360112610206576109ea61102f565b6024359061ffff9283831690818403610a77577f4b05569be7121baf443b738742a05e619022a6ee1ea8a7163ac268f5f163ccef94608094610a2a611084565b6005549061ffff60c01b9060c01b1661ffff60b01b8660b01b1663ffffffff60b01b198316171760055581835195818360b01c16875216602086015260c01c16908301526060820152a180f35b8580fd5b50503461020657816003193601126102065760055490516001600160a01b039091168152602090f35b8284346104965780600319360112610496578151918291600954808552602080950194600983527f6e1540171b6c0c960b71a7020d9f60077f6af931a8bbf590da0223dacf75c7af92905b828210610b075761054f8686610545828b03836110ff565b835487529586019560019384019390910190610aef565b5050346102065736600319011261049657610b4e610b3a610ffe565b60243590610b49823383611491565b61179d565b80f35b8334610496578060031936011261049657610b6a611084565b600580546001600160a01b0319811690915581906001600160a01b03167f8be0079c531659141344cd1fd0a4f28419497f9722a3daafe3b4186f6b6457e08280a380f35b5050346102065760203660031901126102065760209181906001600160a01b03610bd6610ffe565b16815280845220549051908152f35b50503461020657816003193601126102065760209061ffff60055460d01c169051908152f35b83903461020657602036600319011261020657610b4e90353361179d565b505034610206576020366003190112610206577fe4351c45b53ffb7ebad0b66cc0f1a3dfe2963c099421eeaded141104df39206a90610c6661102f565b610c6e611084565b60055461ffff60d01b8260d01b1661ffff60d01b1982161760055582519161ffff809260d01c168352166020820152a180f35b5050346102065781600319360112610206576020905160128152f35b83346104965780600319360112610496576007546001600160801b03811680610ce4578280f35b6fffffffffffffffffffffffffffffffff19909116600755600654610d1391906001600160a01b031630611564565b81808280f35b5050346102065760203660031901126102065760209181906001600160a01b03610d41610ffe565b168152600c8452205415159051908152f35b50503461020657606036600319011261020657610743602092610d74610ffe565b90610dbc610d80611019565b91838360443592610d92843385611491565b6001600160a01b038381168252600a8b5289822054158015928b929091610dc2575b50505061165e565b91611564565b84168152205415159050883880610db4565b5050346102065781600319360112610206576020906002549051908152f35b90503461029a578160031936011261029a57610e0d610ffe565b602435903315610e86576001600160a01b0316918215610e6f57508083602095338152600187528181208582528752205582519081527f8c5be1e5ebec7d5bd14f71427d1e84f3dd0314c0f7b2291e5b200ac8c7c3b925843392a35160018152f35b8351634a1406b160e11b8152908101859052602490fd5b835163e602df0560e01b8152808401869052602490fd5b9190503461029a578260031936011261029a57805191836003549060019082821c928281168015610f88575b6020958686108214610f755750848852908115610f535750600114610efa575b61054f868661092d828b03836110ff565b929550600383527fc2575a0e9e593c00f959f8c92f12db2869c3395a3b0502d05e2516446f71f85b5b828410610f40575050508261054f9461092d928201019438610ee9565b8054868501880152928601928101610f23565b60ff191687860152505050151560051b830101925061092d8261054f38610ee9565b634e487b7160e01b845260229052602483fd5b93607f1693610ec9565b84903461020657816003193601126102065760209061ffff60055460c01c168152f35b6020808252825181830181905290939260005b828110610fea57505060409293506000838284010152601f8019910116010190565b818101860151848201604001528501610fc8565b600435906001600160a01b038216820361101457565b600080fd5b602435906001600160a01b038216820361101457565b6004359061ffff8216820361101457565b6020908160408183019282815285518094520193019160005b828110611067575050505090565b83516001600160a01b031685529381019392810192600101611059565b6005546001600160a01b0316330361109857565b60405163118cdaa760e01b8152336004820152602490fd5b610180810190811067ffffffffffffffff8211176110cd57604052565b634e487b7160e01b600052604160045260246000fd5b6040810190811067ffffffffffffffff8211176110cd57604052565b90601f8019910116810190811067ffffffffffffffff8211176110cd57604052565b61112961183c565b61113281611bc9565b6111775761113f8161265b565b801590811561116c575b506111665761115790611b76565b1561116157600390565b600290565b50600190565b600691501438611149565b50600090565b600b548110156111b457600b6000527f0175b7a638427703f0dbe7bb9bbf987a2551717b34e79f33b5b1008d1fa01db90190600090565b634e487b7160e01b600052603260045260246000fd5b6009548110156111b45760096000527f6e1540171b6c0c960b71a7020d9f60077f6af931a8bbf590da0223dacf75c7af0190600090565b6000818152600c602052604081205461127957600b54600160401b81101561126557908261125161123a84600160409601600b5561117d565b819391549060031b91821b91600019901b19161790565b9055600b54928152600c6020522055600190565b634e487b7160e01b82526041600452602482fd5b905090565b6000818152600a602052604081205461127957600954600160401b8110156112655790826112b761123a846001604096016009556111ca565b9055600954928152600a6020522055600190565b6101dc198101919082116112db57565b634e487b7160e01b600052601160045260246000fd5b919082039182116112db57565b6000818152600a602052604081205490919080156113e357600019908082018181116113cf57600954908382019182116113bb57818103611387575b505050600954801561137357810190611352826111ca565b909182549160031b1b191690556009558152600a6020526040812055600190565b634e487b7160e01b84526031600452602484fd5b6113a561139661123a936111ca565b90549060031b1c9283926111ca565b90558452600a602052604084205538808061133a565b634e487b7160e01b86526011600452602486fd5b634e487b7160e01b85526011600452602485fd5b505090565b6000818152600c602052604081205490919080156113e357600019908082018181116113cf57600b54908382019182116113bb5781810361145d575b505050600b5480156113735781019061143c8261117d565b909182549160031b1b19169055600b558152600c6020526040812055600190565b61147b61146c61123a9361117d565b90549060031b1c92839261117d565b90558452600c6020526040842055388080611424565b9160018060a01b0380931691600093838552600160205260409384862091831691828752602052848620549260001984106114d0575b50505050505050565b8484106115345750801561151c578115611504578552600160205283852090855260205203912055388080808080806114c7565b8451634a1406b160e11b815260048101879052602490fd5b845163e602df0560e01b815260048101879052602490fd5b8551637dc7a0d960e11b81526001600160a01b039190911660048201526024810184905260448101859052606490fd5b916001600160a01b03808416928315611629571692831561161057600090838252816020526040822054908382106115de575091604082827fddf252ad1be2c89b69c2b068fc378daa952ba7f163c4a11628f55a4df523b3ef958760209652828652038282205586815220818154019055604051908152a3565b60405163391434e360e21b81526001600160a01b03919091166004820152602481019190915260448101839052606490fd5b60405163ec442f0560e01b815260006004820152602490fd5b604051634b637e8f60e11b815260006004820152602490fd5b90611c2082018092116112db57565b919082018092116112db57565b919280926005549060ff8260a01c1615908115611794575b508015611787575b61177f576001600160a01b039283166000908152600a602052604080822054948716825281205490939015159015158061176f575b156117105750506127109061ffff60055460c01c160204906007546001600160801b038084168183160116906001600160801b0319161760075501915b826116fc575b50905090565b82611708913090611564565b0380386116f6565b9294928061175f575b611725575b50506116f0565b61271092945061ffff9060b01c1602046007546001600160801b038083168183160116906001600160801b0319161760075591388061171e565b5061ffff8160b01c161515611719565b5061ffff8260c01c1615156116b3565b509250505090565b5060ff8160a81c1661167e565b90501538611676565b906001600160a01b038216908115611629576000928284528360205260408420549082821061180a5750817fddf252ad1be2c89b69c2b068fc378daa952ba7f163c4a11628f55a4df523b3ef926020928587528684520360408620558060025403600255604051908152a3565b60405163391434e360e21b81526001600160a01b03919091166004820152602481019190915260448101829052606490fd5b611845426122cb565b60006107b25b828110611b32575060405191611860836110b0565b601f8084526020840190601c8252806040860152601e918260608701528160808701528260a08701528160c08701528160e08701526101009083828801526101209280848901526101409785898201526101609082828201526118c288612673565b9384611b28575b506001905b60038210611ae05750506118e18861265b565b60009080611ac2575050600e955b600019968088019081116112db5762015180998a8202918083048c14901517156112db576119259161192091611651565b611642565b996000986107b2905b808210611a7c5750508360405197611945896110b0565b8189528360208a0198601c8a528360408c01528160608c01528360808c01528160a08c01528360c08c01528360e08c01528a0152880152860152840152611a72575b506001905b600b8210611a3057505061199f8261265b565b60009080611a095750506001905b81019081116112db578281029281840414901517156112db576119d39161192091611651565b9042101590816119ff575b50156119f4576119f16138405b426112f1565b90565b6119f16146506119eb565b90504210386119de565b6008039060088211611a1c5750906119ad565b634e487b7160e01b81526011600452602490fd5b90928284018481116112db57611a469083612397565b5190858202918083048714901517156112db57611a6c91611a6691611651565b936123a8565b9061198c565b601d905238611987565b9099611a878b612673565b15611aaa576301e2850081018091116112db57611aa4909a6123a8565b9061192e565b6301e1338081018091116112db57611aa4909a6123a8565b600e0390600e8211611a1c5760078201809211611a1c5750956118ef565b90986000198a018a81116112db57611af89083612397565b519062015180918281029281840414901517156112db57611b2291611b1c91611651565b996123a8565b906118ce565b601d9052386118c9565b90611b3c82612673565b15611b5e576301e2850081018091116112db57611b5990916123a8565b61184b565b6301e1338081018091116112db57611b5990916123a8565b6018610e10820406600981108015611bbe575b611bb7576009149081611ba6575b50611ba157600190565b600090565b601e9150603c809104061038611b97565b5050600090565b506010811015611b89565b611bd2906123b7565b600192918084148080611cc3575b611ca8576007821480611cb9575b611ca857600c821480611caf575b611ca85780611c97575b611c5e576002811480611c86575b611c5e576005811480611c75575b611c5e576009811480611c64575b611c5e57600b81149283611c4c575b5050506119f15750600090565b611c569350612283565b388080611c3f565b50505090565b50611c7082828561224a565b611c30565b50611c818282856120bd565b611c22565b50611c92828285611f5a565b611c14565b50611ca3828285611f5a565b611c06565b5050505090565b5060198314611bfc565b5060048314611bee565b50848314611be0565b611cdc611cd761183c565b6123b7565b90600181148080611f50575b611f22576007821480611f18575b611ee857600c821480611ede575b611eb15780611ea0575b611e64576002811480611e53575b611e26576005811480611e15575b611dea576009811480611dd9575b611db157600b81149283611d9f575b505050611d7757604051611d5a816110e3565b600d81526c4e6f74206120486f6c6964617960981b602082015290565b604051611d83816110e3565b600c81526b5468616e6b73676976696e6760a01b602082015290565b611da99350612283565b388080611d47565b505050604051611dc0816110e3565b60098152684c61626f722044617960b81b602082015290565b50611de582828561224a565b611d38565b505050604051611df9816110e3565b600c81526b4d656d6f7269616c2044617960a01b602082015290565b50611e218282856120bd565b611d2a565b505050604051611e35816110e3565b600e81526d507265736964656e74732044617960901b602082015290565b50611e5f828285611f5a565b611d1c565b505050604051611e73816110e3565b601a81527f4d617274696e204c7574686572204b696e67204a722e20446179000000000000602082015290565b50611eac828285611f5a565b611d0e565b50505050604051611ec1816110e3565b600d81526c4368726973746d61732044617960981b602082015290565b5060198314611d04565b50505050604051611ef8816110e3565b601081526f496e646570656e64656e63652044617960801b602082015290565b5060048314611cf6565b50505050604051611f32816110e3565b600e81526d4e6577205965617227732044617960901b602082015290565b5060018314611ce8565b906000916107b25b818110612079575060405190611f77826110b0565b611fd1601f918284526020840192601c8452806040860152601e6060860152806080860152601e60a08601528060c08601528060e0860152601e61010086015280610120860152601e610140860152610160850152612673565b61206f575b5091906001925b81841061202b575050611ff0915061265b565b6000600182116120175750600203600281116112db57905b600e82018092116112db571490565b906009039060098211611a1c575090612008565b909160001984018481116112db576120439083612397565b519062015180918281029281840414901517156112db5761206791611a6691611651565b929190611fdd565b601d905238611fd6565b9261208384612673565b156120a5576301e2850081018091116112db576120a090936123a8565b611f62565b6301e1338081018091116112db576120a090936123a8565b6120c782826126bc565b916000916107b25b8181106122065750604051906120e4826110b0565b61213e601f918284526020840192601c8452806040860152601e6060860152806080860152601e60a08601528060c08601528060e0860152601e61010086015280610120860152601e610140860152610160850152612673565b6121fc575b50906001915b8183106121b85750505060001990818301908382116112db5762015180918281029281840414901517156112db576121899161218491611651565b61265b565b90600090826121a5575050506121a1906006906112f1565b1490565b8201918211611a1c57506121a1916112f1565b90919260001984018481116112db576121d19083612397565b519062015180918281029281840414901517156112db576121f591611a6691611651565b9190612149565b601d905238612143565b9261221084612673565b15612232576301e2850081018091116112db5761222d90936123a8565b6120cf565b6301e1338081018091116112db5761222d90936123a8565b612257916121849161253a565b6000600182116122715750600203600281116112db571490565b906009039060098211611a1c57501490565b612290916121849161253a565b6000600482116122b75750600503600581116112db57905b601582018092116112db571490565b90600c0390600c8211611a1c5750906122a8565b6000906107b26301e187e082048082018092116123835781936122f56122f084612691565b6112cb565b928211611a1c576301e133809180830292830403611a1c576201518092838102938185041490151715611a1c57509061233091939293611651565b82811161233d5750905090565b60001982019182116112db5761235282612673565b1561236e576301e284ff1981019081116112db57905b90612330565b6301e1337f1981019081116112db5790612368565b634e487b7160e01b84526011600452602484fd5b90600c8110156111b45760051b0190565b60001981146112db5760010190565b9060009060006123c6846122cb565b936123d36122f086612691565b6107b11986019190868311612383576301e133809280840293840403612383576201518092838202918083048514901517156113cf5761241d929161241791611651565b906112f1565b6040519061242a826110b0565b610180368337601f80835261243e88612673565b1561252e57601d60208401525b806040840152601e6060840152806080840152601e60a08401528060c08401528060e0840152601e61010084015280610120840152601e61014084015261016083015283906001925b600c8411156124ba575b506124a992506112f1565b049060018201809211611a1c575090565b9091600019840184811161251a576124d29083612397565b51908582029180830487149015171561251a57836124f08284611651565b1161250a5761250291611a6691611651565b929190612494565b92975050506124a991953861249e565b634e487b7160e01b87526011600452602487fd5b601c602084015261244b565b906000916107b25b818110612617575060405190612557826110b0565b6125b1601f918284526020840192601c8452806040860152601e6060860152806080860152601e60a08601528060c08601528060e0860152601e61010086015280610120860152601e610140860152610160850152612673565b61260d575b50906001915b8183106125c95750505090565b90919260001984018481116112db576125e29083612397565b519062015180918281029281840414901517156112db5761260691611a6691611651565b91906125bc565b601d9052386125b6565b9261262184612673565b15612643576301e2850081018091116112db5761263e90936123a8565b612542565b6301e1338081018091116112db5761263e90936123a8565b620151809004600481018091116112db576007900690565b600381166111775760648106611166576101909006611ba157600190565b60001981019081116112db57806101906126b460646119f194048360021c6112f1565b910490611651565b90600181148015612791575b8015612787575b801561277d575b8015612773575b8015612769575b801561275f575b156126f7575050601f90565b600481148015612755575b801561274b575b8015612741575b1561271c575050601e90565b6002146127295750600090565b61273290612673565b1561273c57601d90565b601c90565b50600b8114612710565b5060098114612709565b5060068114612702565b50600c81146126eb565b50600a81146126e4565b50600881146126dd565b50600781146126d6565b50600581146126cf565b50600381146126c856fea264697066735822122077f7f5ac363ccb8d7ad641c12eb8c998e1e5e96c8667dd465919e317708e4d6664736f6c63430008140033a264697066735822122061725585c80b7868480b43e32a2899074894b26d53dbcba3b1b591ab4988cd1664736f6c63430008140033",
  "linkReferences": {},
  "deployedLinkReferences": {}
}