{
  "_format": "hh-sol-artifact-1",
  "contractName": "StonkTokenFactory",
  "sourceName": "contracts/StonkTokenFactory.sol",
  "abi": [
    {
      "inputs": [
        {
          "internalType": "address",
          "name": "_treasury",
          "type": "address"
        },
        {
          "internalType": "uint256",
          "name": "_feePrice",
          "type": "uint256"
        },
        {
          "internalType": "address",
          "name": "_uniswapFactory",
          "type": "address"
        },
        {
          "internalType": "address",
          "name": "_uniswapRouter",
          "type": "address"
        },
        {
          "internalType": "address",
          "name": "_assetToken",
          "type": "address"
        },
        {
          "internalType": "uint256",
          "name": "_bondingCurveFeeBasisPoints",
          "type": "uint256"
        }
      ],
      "stateMutability": "nonpayable",
      "type": "constructor"
    },
    {
      "inputs": [],
      "name": "ArraysLengthMismatch",
      "type": "error"
    },
    {
      "inputs": [],
      "name": "ContractPaused",
      "type": "error"
    },
    {
      "inputs": [],
      "name": "FeeTooHigh",
      "type": "error"
    },
    {
      "inputs": [],
      "name": "InsufficientFee",
      "type": "error"
    },
    {
      "inputs": [
        {
          "internalType": "address",
          "name": "owner",
          "type": "address"
        }
      ],
      "name": "OwnableInvalidOwner",
      "type": "error"
    },
    {
      "inputs": [
        {
          "internalType": "address",
          "name": "account",
          "type": "address"
        }
      ],
      "name": "OwnableUnauthorizedAccount",
      "type": "error"
    },
    {
      "inputs": [],
      "name": "TokenNotFound",
      "type": "error"
    },
    {
      "inputs": [],
      "name": "TransferFailed",
      "type": "error"
    },
    {
      "inputs": [],
      "name": "ZeroAddress",
      "type": "error"
    },
    {
      "anonymous": false,
      "inputs": [
        {
          "indexed": true,
          "internalType": "uint256",
          "name": "oldFee",
          "type": "uint256"
        },
        {
          "indexed": true,
          "internalType": "uint256",
          "name": "newFee",
          "type": "uint256"
        }
      ],
      "name": "BondingCurveFeeUpdated",
      "type": "event"
    },
    {
      "anonymous": false,
      "inputs": [
        {
          "indexed": true,
          "internalType": "address",
          "name": "token",
          "type": "address"
        },
        {
          "indexed": true,
          "internalType": "uint256",
          "name": "amount",
          "type": "uint256"
        },
        {
          "indexed": true,
          "internalType": "address",
          "name": "treasury",
          "type": "address"
        }
      ],
      "name": "FeeCollected",
      "type": "event"
    },
    {
      "anonymous": false,
      "inputs": [
        {
          "indexed": true,
          "internalType": "uint256",
          "name": "oldPrice",
          "type": "uint256"
        },
        {
          "indexed": true,
          "internalType": "uint256",
          "name": "newPrice",
          "type": "uint256"
        }
      ],
      "name": "FeePriceUpdated",
      "type": "event"
    },
    {
      "anonymous": false,
      "inputs": [
        {
          "indexed": true,
          "internalType": "address",
          "name": "previousOwner",
          "type": "address"
        },
        {
          "indexed": true,
          "internalType": "address",
          "name": "newOwner",
          "type": "address"
        }
      ],
      "name": "OwnershipTransferred",
      "type": "event"
    },
    {
      "anonymous": false,
      "inputs": [
        {
          "indexed": true,
          "internalType": "address",
          "name": "account",
          "type": "address"
        }
      ],
      "name": "Paused",
      "type": "event"
    },
    {
      "anonymous": false,
      "inputs": [
        {
          "indexed": true,
          "internalType": "address",
          "name": "tokenAddress",
          "type": "address"
        },
        {
          "indexed": true,
          "internalType": "address",
          "name": "bondingCurveAddress",
          "type": "address"
        },
        {
          "indexed": false,
          "internalType": "string",
          "name": "name",
          "type": "string"
        },
        {
          "indexed": false,
          "internalType": "string",
          "name": "symbol",
          "type": "string"
        },
        {
          "indexed": false,
          "internalType": "uint256",
          "name": "initialSupply",
          "type": "uint256"
        },
        {
          "indexed": true,
          "internalType": "address",
          "name": "owner",
          "type": "address"
        },
        {
          "indexed": false,
          "internalType": "uint256",
          "name": "deploymentFee",
          "type": "uint256"
        }
      ],
      "name": "TokenDeployed",
      "type": "event"
    },
    {
      "anonymous": false,
      "inputs": [
        {
          "indexed": true,
          "internalType": "address",
          "name": "tokenAddress",
          "type": "address"
        },
        {
          "indexed": true,
          "internalType": "address",
          "name": "bondingCurveAddress",
          "type": "address"
        }
      ],
      "name": "TokenGraduated",
      "type": "event"
    },
    {
      "anonymous": false,
      "inputs": [
        {
          "indexed": true,
          "internalType": "address",
          "name": "tokenAddress",
          "type": "address"
        },
        {
          "indexed": false,
          "internalType": "bool",
          "name": "isBondingCurve",
          "type": "bool"
        },
        {
          "indexed": false,
          "internalType": "bool",
          "name": "isUniswap",
          "type": "bool"
        }
      ],
      "name": "TokenTradingStateChanged",
      "type": "event"
    },
    {
      "anonymous": false,
      "inputs": [
        {
          "indexed": true,
          "internalType": "address",
          "name": "oldRouter",
          "type": "address"
        },
        {
          "indexed": true,
          "internalType": "address",
          "name": "newRouter",
          "type": "address"
        }
      ],
      "name": "TradingRouterUpdated",
      "type": "event"
    },
    {
      "anonymous": false,
      "inputs": [
        {
          "indexed": true,
          "internalType": "address",
          "name": "oldTreasury",
          "type": "address"
        },
        {
          "indexed": true,
          "internalType": "address",
          "name": "newTreasury",
          "type": "address"
        }
      ],
      "name": "TreasuryUpdated",
      "type": "event"
    },
    {
      "anonymous": false,
      "inputs": [
        {
          "indexed": true,
          "internalType": "address",
          "name": "account",
          "type": "address"
        }
      ],
      "name": "Unpaused",
      "type": "event"
    },
    {
      "inputs": [],
      "name": "ASSET_RATE",
      "outputs": [
        {
          "internalType": "uint256",
          "name": "",
          "type": "uint256"
        }
      ],
      "stateMutability": "view",
      "type": "function"
    },
    {
      "inputs": [],
      "name": "BONDING_CURVE_K",
      "outputs": [
        {
          "internalType": "uint256",
          "name": "",
          "type": "uint256"
        }
      ],
      "stateMutability": "view",
      "type": "function"
    },
    {
      "inputs": [],
      "name": "GRADUATION_THRESHOLD",
      "outputs": [
        {
          "internalType": "uint256",
          "name": "",
          "type": "uint256"
        }
      ],
      "stateMutability": "view",
      "type": "function"
    },
    {
      "inputs": [],
      "name": "assetToken",
      "outputs": [
        {
          "internalType": "contract IERC20",
          "name": "",
          "type": "address"
        }
      ],
      "stateMutability": "view",
      "type": "function"
    },
    {
      "inputs": [
        {
          "internalType": "address[]",
          "name": "tokens",
          "type": "address[]"
        },
        {
          "internalType": "address[]",
          "name": "pools",
          "type": "address[]"
        }
      ],
      "name": "batchAddLiquidityPools",
      "outputs": [],
      "stateMutability": "nonpayable",
      "type": "function"
    },
    {
      "inputs": [],
      "name": "bondingCurveFeeBasisPoints",
      "outputs": [
        {
          "internalType": "uint256",
          "name": "",
          "type": "uint256"
        }
      ],
      "stateMutability": "view",
      "type": "function"
    },
    {
      "inputs": [
        {
          "internalType": "uint256",
          "name": "tradeAmount",
          "type": "uint256"
        }
      ],
      "name": "calculateBondingCurveFee",
      "outputs": [
        {
          "internalType": "uint256",
          "name": "",
          "type": "uint256"
        }
      ],
      "stateMutability": "view",
      "type": "function"
    },
    {
      "inputs": [
        {
          "internalType": "string",
          "name": "name",
          "type": "string"
        },
        {
          "internalType": "string",
          "name": "symbol",
          "type": "string"
        }
      ],
      "name": "deployToken",
      "outputs": [
        {
          "internalType": "address",
          "name": "tokenAddress",
          "type": "address"
        },
        {
          "internalType": "address",
          "name": "bondingCurveAddress",
          "type": "address"
        }
      ],
      "stateMutability": "payable",
      "type": "function"
    },
    {
      "inputs": [],
      "name": "feePrice",
      "outputs": [
        {
          "internalType": "uint256",
          "name": "",
          "type": "uint256"
        }
      ],
      "stateMutability": "view",
      "type": "function"
    },
    {
      "inputs": [],
      "name": "getBondingCurveFeeInfo",
      "outputs": [
        {
          "internalType": "uint256",
          "name": "feeBasisPoints",
          "type": "uint256"
        },
        {
          "internalType": "address",
          "name": "feeTreasury",
          "type": "address"
        }
      ],
      "stateMutability": "view",
      "type": "function"
    },
    {
      "inputs": [],
      "name": "getFactoryInfo",
      "outputs": [
        {
          "internalType": "address",
          "name": "treasury_",
          "type": "address"
        },
        {
          "internalType": "uint256",
          "name": "feePrice_",
          "type": "uint256"
        },
        {
          "internalType": "uint256",
          "name": "globalTokenSupply_",
          "type": "uint256"
        },
        {
          "internalType": "uint256",
          "name": "bondingCurveFeeBasisPoints_",
          "type": "uint256"
        },
        {
          "internalType": "bool",
          "name": "paused_",
          "type": "bool"
        },
        {
          "internalType": "address",
          "name": "tradingRouter_",
          "type": "address"
        }
      ],
      "stateMutability": "view",
      "type": "function"
    },
    {
      "inputs": [],
      "name": "globalTokenSupply",
      "outputs": [
        {
          "internalType": "uint256",
          "name": "",
          "type": "uint256"
        }
      ],
      "stateMutability": "view",
      "type": "function"
    },
    {
      "inputs": [],
      "name": "owner",
      "outputs": [
        {
          "internalType": "address",
          "name": "",
          "type": "address"
        }
      ],
      "stateMutability": "view",
      "type": "function"
    },
    {
      "inputs": [],
      "name": "pause",
      "outputs": [],
      "stateMutability": "nonpayable",
      "type": "function"
    },
    {
      "inputs": [],
      "name": "paused",
      "outputs": [
        {
          "internalType": "bool",
          "name": "",
          "type": "bool"
        }
      ],
      "stateMutability": "view",
      "type": "function"
    },
    {
      "inputs": [],
      "name": "renounceOwnership",
      "outputs": [],
      "stateMutability": "nonpayable",
      "type": "function"
    },
    {
      "inputs": [
        {
          "internalType": "uint256",
          "name": "_newFeeBasisPoints",
          "type": "uint256"
        }
      ],
      "name": "setBondingCurveFee",
      "outputs": [],
      "stateMutability": "nonpayable",
      "type": "function"
    },
    {
      "inputs": [
        {
          "internalType": "uint256",
          "name": "_newFeePrice",
          "type": "uint256"
        }
      ],
      "name": "setFeePrice",
      "outputs": [],
      "stateMutability": "nonpayable",
      "type": "function"
    },
    {
      "inputs": [
        {
          "internalType": "address",
          "name": "_tradingRouter",
          "type": "address"
        }
      ],
      "name": "setTradingRouter",
      "outputs": [],
      "stateMutability": "nonpayable",
      "type": "function"
    },
    {
      "inputs": [
        {
          "internalType": "address",
          "name": "_newTreasury",
          "type": "address"
        }
      ],
      "name": "setTreasury",
      "outputs": [],
      "stateMutability": "nonpayable",
      "type": "function"
    },
    {
      "inputs": [],
      "name": "tradingRouter",
      "outputs": [
        {
          "internalType": "contract StonkTradingRouter",
          "name": "",
          "type": "address"
        }
      ],
      "stateMutability": "view",
      "type": "function"
    },
    {
      "inputs": [
        {
          "internalType": "address",
          "name": "newOwner",
          "type": "address"
        }
      ],
      "name": "transferOwnership",
      "outputs": [],
      "stateMutability": "nonpayable",
      "type": "function"
    },
    {
      "inputs": [],
      "name": "treasury",
      "outputs": [
        {
          "internalType": "address",
          "name": "",
          "type": "address"
        }
      ],
      "stateMutability": "view",
      "type": "function"
    },
    {
      "inputs": [],
      "name": "uniswapFactory",
      "outputs": [
        {
          "internalType": "contract IUniswapV2Factory",
          "name": "",
          "type": "address"
        }
      ],
      "stateMutability": "view",
      "type": "function"
    },
    {
      "inputs": [],
      "name": "uniswapRouter",
      "outputs": [
        {
          "internalType": "contract IUniswapV2Router02",
          "name": "",
          "type": "address"
        }
      ],
      "stateMutability": "view",
      "type": "function"
    },
    {
      "inputs": [],
      "name": "unpause",
      "outputs": [],
      "stateMutability": "nonpayable",
      "type": "function"
    }
  ],
  "bytecode": "0x60e03461015a57601f6200603a38819003918201601f19168301916001600160401b0383118484101761015f5780849260c09460405283398101031261015a5761004881610175565b60208201519161005a60408201610175565b9161006760608301610175565b60a061007560808501610175565b930151933315610141576000549060018060a01b03199533878416176000556040519760018060a01b03978880978196823391167f8be0079c531659141344cd1fd0a4f28419497f9722a3daafe3b4186f6b6457e0600080a3169060015416176001556002556b033b2e3c9fd0803ce8000000600355600455166080521660a0521660c05260ff1960055416600555615eb090816200018a82396080518181816104b401526109e0015260a0518181816107570152610a08015260c0518181816109bb0152610d140152f35b604051631e4fbdf760e01b815260006004820152602490fd5b600080fd5b634e487b7160e01b600052604160045260246000fd5b51906001600160a01b038216820361015a5756fe60806040818152600491823610156200001757600080fd5b600092833560e01c9182631083f7611462000cfe5750816314f7ef8e1462000cdd5781631d12b93814620008f3578163245ccdb714620008a55781633f4ba83a146200085657816354ad971814620008355781635c975abb146200080f57816361d027b314620007e4578163715018a61462000786578163735de9f71462000740578163766db99b14620005de578163782be8dd14620005825781638370851614620005355781638456cb5914620004e35781638bdb2afa146200049d5781638da5cb5b1462000473578163a0dadbbe1462000441578163c02f12c114620003db578163d6a81c3014620003b5578163e130cb761462000386578163f0f442601462000302578163f2fde38b1462000267578163f5389ada14620001c9578163f8b855c214620001aa578163f8d5ce9a1462000186575063fcfc0c09146200015e57600080fd5b346200018257816003193601126200018257602090516801158e460913d000008152f35b5080fd5b905034620001a65782600319360112620001a65760209250549051908152f35b8280fd5b5050346200018257816003193601126200018257602090516127108152f35b905034620001a6576020366003190112620001a65780356001600160a01b0381169290919083830362000263576200020062000dad565b83156200025657505060058054610100600160a81b03191660089290921b610100600160a81b0316919091179055817ff1ba5894ed548af69116fee1e5508cd32d33621c66db0ede1cf04c09744f79c18180a380f35b5163d92e233d60e01b8152fd5b8480fd5b91905034620001a6576020366003190112620001a6576001600160a01b038235818116939192908490036200026357620002a062000dad565b8315620002ec575050600054826bffffffffffffffffffffffff60a01b821617600055167f8be0079c531659141344cd1fd0a4f28419497f9722a3daafe3b4186f6b6457e0600080a380f35b51631e4fbdf760e01b8152908101849052602490fd5b91905034620001a6576020366003190112620001a6576001600160a01b0382358181169391929084900362000263576200033b62000dad565b831562000256575050600154826bffffffffffffffffffffffff60a01b821617600155167f4ab5be82436d353e61ca18726e984e561f5c1cc7c6d38b29d2553c790434705a8380a380f35b5050346200018257816003193601126200018257600554905160089190911c6001600160a01b03168152602090f35b50503462000182578160031936011262000182576020905168a2a15d09519be000008152f35b905034620001a6576020366003190112620001a657803591620003fd62000dad565b6103e8831162000434575081815491557f99cf0e4386899fa2e6cbc0f117bfdc92d1280bc5065087f77dd6a28af1d895958380a380f35b5163cd4e616760e01b8152fd5b905082346200047057806003193601126200047057505460015482519182526001600160a01b03166020820152f35b80fd5b5050346200018257816003193601126200018257905490516001600160a01b039091168152602090f35b5050346200018257816003193601126200018257517f00000000000000000000000000000000000000000000000000000000000000006001600160a01b03168152602090f35b833462000470578060031936011262000470576200050062000dad565b600160ff196005541617600555337f62e78cea01bee320cd4e420270b5ea74000d11b0c9f74754ebdbfc544b05a2588280a280f35b9050823462000470576020366003190112620004705781548235818102939181159185041417156200056f57602083612710865191048152f35b634e487b7160e01b825260119052602490fd5b905034620001a65782600319360112620001a65760c0925060018060a01b0390816001541692600254916003549054916005549381519687526020870152850152606084015260ff81161515608084015260081c1660a0820152f35b91905034620001a65780600319360112620001a65767ffffffffffffffff918035838111620002635762000616903690830162000d79565b909260249485359081116200073c5762000634903690850162000d79565b6200064193919362000dad565b60ff600554166200072c578082036200071c57875b82811062000662578880f35b886001600160a01b0380620006836200067d85888d62000e74565b62000e9b565b1690620006966200067d85878b62000e74565b90823b1562000718578751633b9aa4d360e21b81529116818a015290829082908c90829084905af180156200070e57620006f2575b50506000198114620006e05760010162000656565b634e487b7160e01b8952601186528789fd5b620006fd9062000dda565b6200070a578838620006cb565b8880fd5b86513d84823e3d90fd5b8380fd5b82516307e11acb60e51b81528590fd5b825163ab35696f60e01b81528590fd5b8680fd5b5050346200018257816003193601126200018257517f00000000000000000000000000000000000000000000000000000000000000006001600160a01b03168152602090f35b83346200047057806003193601126200047057620007a362000dad565b600080546001600160a01b0319811682556001600160a01b03167f8be0079c531659141344cd1fd0a4f28419497f9722a3daafe3b4186f6b6457e08280a380f35b505034620001825781600319360112620001825760015490516001600160a01b039091168152602090f35b505034620001825781600319360112620001825760209060ff6005541690519015158152f35b50503462000182578160031936011262000182576020906002549051908152f35b833462000470578060031936011262000470576200087362000dad565b60ff1960055416600555337f5db9ee0a495bf2e6ff9c91a7834c1ba4fdd244a5e8aa4e537bd38aeae4b073aa8280a280f35b83903462000182576020366003190112620001825735620008c562000dad565b600254816002557f0b0221ed2a319436fb121d3bb917464986dfb897d0c1cade9a2d5eeefe945da58380a380f35b90508282600319360112620004705767ffffffffffffffff928235848111620001a65762000925903690850162000d43565b602493919335868111620001a65762000942903690870162000d43565b9260ff6005541662000ccd576002549687341062000cc0578180808060018060a01b039b8c600154165af16200097762000e05565b501562000c9f5760025480341162000c75575b50805460015487519161209d808401928c1691908d84118585101762000c6257916101009391859362000eb185398d7f00000000000000000000000000000000000000000000000000000000000000001683528d7f00000000000000000000000000000000000000000000000000000000000000001660208401528d7f0000000000000000000000000000000000000000000000000000000000000000168c8401528760608401526801158e460913d00000608084015261271060a084015260c083015260e082015203019083f080156200070e576003548751918a169a612f2d8084019182118483101762000c4f57608084939262000ab68f938e62000aa79162002f4e893933845260a060208501528c60a085019162000e53565b828103838f01528c8b62000e53565b9360608201520152039083f080156200070e57881697893b15620001a6578651631352746960e11b81528281018a90528381602481838f5af1801562000c4557918a9593918c97959362000c2f575b5060055460081c16908162000ba5575b5050509062000ba19662000b717fec4ba8fe6b3094c6c906ce33775fb0bf21e4616efb0409a7378be18aa03add78936003549762000b62600254948b519660808852608088019162000e53565b91858303602087015262000e53565b958783015260608201528033950390a4516001600160a01b03928316815292909116602083015281906040820190565b0390f35b91939550809294503b15620001a6578651634739f7e560e01b81526001600160a01b03808b169282019283528b16602083015291839183919082908490829060400103925af180156200070e57918893918a959362000c06575b8062000b15565b8193969798955062000c1b9192945062000dda565b620004705792869184899497969562000bff565b62000c3d9093919362000dda565b918c62000b05565b88513d86823e3d90fd5b634e487b7160e01b865260418552602486fd5b634e487b7160e01b875260418652602487fd5b340334811162000cad578280808093335af162000c9162000e05565b501562000c9f57896200098a565b85516312171d8360e31b8152fd5b634e487b7160e01b835260118252602483fd5b855162976f7560e21b8152fd5b845163ab35696f60e01b81528790fd5b50503462000182578160031936011262000182576020906003549051908152f35b84903462000182578160031936011262000182577f00000000000000000000000000000000000000000000000000000000000000006001600160a01b03168152602090f35b9181601f8401121562000d745782359167ffffffffffffffff831162000d74576020838186019501011162000d7457565b600080fd5b9181601f8401121562000d745782359167ffffffffffffffff831162000d74576020808501948460051b01011162000d7457565b6000546001600160a01b0316330362000dc257565b60405163118cdaa760e01b8152336004820152602490fd5b67ffffffffffffffff811162000def57604052565b634e487b7160e01b600052604160045260246000fd5b3d1562000e4e5767ffffffffffffffff903d82811162000def5760405192601f8201601f19908116603f011684019081118482101762000def5760405282523d6000602084013e565b606090565b908060209392818452848401376000828201840152601f01601f1916010190565b919081101562000e855760051b0190565b634e487b7160e01b600052603260045260246000fd5b356001600160a01b038116810362000d74579056fe6080604090808252346200023957610100816200209d80380380916200002682856200023e565b83398101031262000239576200003c8162000278565b906200004b6020820162000278565b916200005984830162000278565b92620000686060840162000278565b60808401519360a0810151906200008760e060c0830151920162000278565b913315620002215760008054336001600160a01b0319808316821784558c51939b90996001600160a01b0399919491939092908a167f8be0079c531659141344cd1fd0a4f28419497f9722a3daafe3b4186f6b6457e08e80a36001805584156200021257509187809695949392818094168b6002541617600255168960035416176003551687600454161760045587600655600755600b551683600c541617600c5560ff19600854166008551690816200014b575b8451611d6e90816200032f8239f35b8160249260209260055416176005558551928380926370a0823160e01b82523060048301525afa92831562000207578093620001c8575b50508115620001b75790620001a481620001a4620001aa9482600a556200028d565b620002fb565b600955388080806200013c565b82516323d359a360e01b8152600490fd5b909192506020823d8211620001fe575b81620001e7602093836200023e565b81010312620001fb57505190388062000182565b80fd5b3d9150620001d8565b8451903d90823e3d90fd5b6379bced3560e01b8152600490fd5b8851631e4fbdf760e01b815260006004820152602490fd5b600080fd5b601f909101601f19168101906001600160401b038211908210176200026257604052565b634e487b7160e01b600052604160045260246000fd5b51906001600160a01b03821682036200023957565b600019600282098160011b90818082109103818114620002f1570360031115620002de57600360027faaaaaaaaaaaaaaaaaaaaaaaaaaaaaaaaaaaaaaaaaaaaaaaaaaaaaaaaaaaaaaab930990030290565b634e487b7160005260116020526024601cfd5b5050600391500490565b600019828209918082029283808210910381811462000327570360011115620002de5760019109900390565b505050509056fe6080604081815260048036101561001557600080fd5b600092833560e01c90816202eab714610ed1575080630422e87d14610eb15780630cad026714610b645780631083f76114610e88578063145f101914610e6857806320689fe514610e0a57806321b77d6314610cdf57806326a4e8d214610ce45780633c502e1814610cdf5780634e6fd6c414610cc257806361d027b314610c99578063715018a614610c3f578063735de9f714610c1857806384e568b014610bf95780638b0bc50114610bf95780638b1dd58914610bd95780638bdb2afa14610bb05780638da5cb5b14610b885780639e5f260214610b64578063a932492f14610b40578063aaf5eb6814610b1d578063b7c3f62214610af4578063b8606eef14610ad5578063d2395dcd146106c0578063ddaf4c981461051e578063e1f1c4a714610501578063e4e57b9e14610317578063e8e6ed69146102f8578063eb13a7d2146102d5578063eb91d37e146102005763f2fde38b1461017757600080fd5b346101fc5760203660031901126101fc57610190610f25565b90610199610f65565b6001600160a01b039182169283156101e657505082546001600160a01b0319811683178455167f8be0079c531659141344cd1fd0a4f28419497f9722a3daafe3b4186f6b6457e08380a380f35b51631e4fbdf760e01b8152908101849052602490fd5b8280fd5b50346101fc57826003193601126101fc5761021961137e565b60055482516370a0823160e01b8152308382015290602090829060249082906001600160a01b03165afa9384156102ca578094610291575b50508215610283575061027c8261027661026f60209560095461111f565b918061125e565b90610fc9565b9051908152f35b90516323d359a360e01b8152fd5b909193506020823d82116102c2575b816102ad60209383610f91565b810103126102bf575051913880610251565b80fd5b3d91506102a0565b8351903d90823e3d90fd5b5050346102f457816003193601126102f457602090600a549051908152f35b5080fd5b5050346102f457816003193601126102f4576020906007549051908152f35b509190346102f45761032836610f3b565b939091610333611775565b60ff600854166104f15782156104e15760055484516370a0823160e01b815230818901526020976001600160a01b03949290919089908290602490829089165afa9081156104d75790869184916104a4575b506103966103bd9261039c9261123b565b87611798565b600b549093811561049b57506103b5612710918561125e565b04809361123b565b96871061048d578291610420916103fb8987967f6db63bebf1e6540277744df32846ebdb98385b1a73f2d5de49b28348add63f5098600254166116e2565b8161042d575b5086519586526020860188905260408601529116929081906060820190565b0390a26001805551908152f35b61044182866002541687600c5416906116e2565b7fbde344b6f67c3bf7e0ecbbf22b04267d5d3ae0aa1909c0000b812f6b14ce45b960808b87600c5416938b8051928784528301528b820152631cd95b1b60e21b6060820152a238610401565b855163428637bb60e11b8152fd5b9050809361123b565b8092508a8092503d83116104d0575b6104bd8183610f91565b810103126101fc57518590610396610385565b503d6104b3565b87513d85823e3d90fd5b835163162908e360e11b81528690fd5b835163e6a0d45f60e01b81528690fd5b5050346102f457816003193601126102f457602090516127108152f35b5091346102bf576020806003193601126102f457833560ff600854166106b05761054661137e565b60055484516370a0823160e01b81523087820152908390829060249082906001600160a01b03165afa9081156106a6578491610675575b5080156106655760095491806105c4575050509080929350915b600b549081156105bc57506105af612710918461125e565b04905b8351928352820152f35b9050906105b2565b8181106105db57855163162908e360e11b81528790fd5b61026f6105f06105f79284999697989961123b565b928061125e565b6001600160ff1b0393908481168103610652576106179060011b84611086565b938216820361063f575061063992916106339160011b90611086565b9061123b565b91610597565b634e487b7160e01b865260119052602485fd5b634e487b7160e01b875260118252602487fd5b84516323d359a360e01b81528690fd5b90508281813d831161069f575b61068c8183610f91565b8101031261069b57513861057d565b8380fd5b503d610682565b85513d86823e3d90fd5b5050505163e6a0d45f60e01b8152fd5b5090346101fc576106d036610f3b565b92919490936106dd611775565b60ff60085416610ac7578415610ab9576106f68561145a565b938410610aab57600b548015610aa357610713612710918761125e565b04905b610720828761123b565b60018060a01b0390816005541693865180996370a0823160e01b96878352308784015282602460209d8e935afa918215610a99578892610a66575b5084600254169189519088825230888301528c82602481875afa918215610a5c57908c9392918b92610a24575b5061079c662386f26fc1000094859261123b565b10610a1457906107ab9161139a565b10610a045781806109a9575b5050600554875163a9059cbb60e01b81526001600160a01b038c16868201908152602081018b905290918b91839187169082908b90829060400103925af1801561099f579a6108517f0d1a0d5e3d583a0e92588799dd06e50fd78c07daf05f0cc06d7b848b1ca445f1938c879460249b9c9d9e9f610971575b50508b5193849316958d846040919493926060820195825260208201520152565b0390a287816002541687519586809287825230878301525afa9384156109675790889291869561092f575b50602490600554169387519485938492835230908301525afa9283156109245780936108f2575b505060065411908115916108e2575b50806108d5575b6108c8575b6001805551908152f35b6108d06117df565b6108be565b5060ff60085416156108b9565b9050600a5460011c1015386108b2565b909192508582813d831161091d575b61090b8183610f91565b810103126102bf5750519038806108a3565b503d610901565b8451903d90823e3d90fd5b838193949296503d8311610960575b6109488183610f91565b8101031261095c575192879190602461087c565b8480fd5b503d61093e565b86513d87823e3d90fd5b8161099092903d10610998575b6109888183610f91565b8101906116ca565b508d38610830565b503d61097e565b88513d89823e3d90fd5b6109b89185600c5416906116e2565b82600c54167fbde344b6f67c3bf7e0ecbbf22b04267d5d3ae0aa1909c0000b812f6b14ce45b9608089518481528a8d82015260038b8201526262757960e81b6060820152a238816107b7565b8751639a845eb760e01b81528590fd5b8a51637222ae5760e11b81528890fd5b8e80929495508193503d8311610a55575b610a3f8183610f91565b81010312610a5157518b929138610788565b8980fd5b503d610a35565b8b513d8c823e3d90fd5b9091508a81813d8311610a92575b610a7e8183610f91565b81010312610a8e5751903861075b565b8780fd5b503d610a74565b89513d8a823e3d90fd5b508190610716565b825163428637bb60e11b8152fd5b825163162908e360e11b8152fd5b825163e6a0d45f60e01b8152fd5b5050346102f457816003193601126102f457602090600b549051908152f35b5050346102f457816003193601126102f45760055490516001600160a01b039091168152602090f35b5050346102f457816003193601126102f45760209051670de0b6b3a76400008152f35b5050346102f457816003193601126102f4576020905168a2a15d09519be000008152f35b5050346102f457816003193601126102f45760209060ff6008541690519015158152f35b5050346102f457816003193601126102f457905490516001600160a01b039091168152602090f35b5050346102f457816003193601126102f45760035490516001600160a01b039091168152602090f35b5091346102bf5760203660031901126102bf575061027c6020923561145a565b5050346102f457816003193601126102f4576020906006549051908152f35b50346101fc57826003193601126101fc575490516001600160a01b03909116815260209150f35b83346102bf57806003193601126102bf57610c58610f65565b80546001600160a01b03198116825581906001600160a01b03167f8be0079c531659141344cd1fd0a4f28419497f9722a3daafe3b4186f6b6457e08280a380f35b5050346102f457816003193601126102f457600c5490516001600160a01b039091168152602090f35b5050346102f457816003193601126102f4576020905161dead8152f35b610efe565b508290346102f45760203660031901126102f457610d00610f25565b92610d09610f65565b600554936001600160a01b0390818616610dfb5794602091602495961680916bffffffffffffffffffffffff60a01b1617600555825194858281937fd82cad5fdc98633445b90f806f2e1a61a5409f92187ee9cd87f1da18c90692668a80a26370a0823160e01b825230878301525afa928315610df1578493610dbe575b508215610db15783610dab8480600a55610da681610da6600654610fe9565b611055565b60095580f35b516323d359a360e01b8152fd5b9092506020813d8211610de9575b81610dd960209383610f91565b8101031261069b57519184610d87565b3d9150610dcc565b81513d86823e3d90fd5b5050516371168e4f60e11b8152fd5b508290346102f45760203660031901126102f45760ff60085416610ac757610e3a90610e3461137e565b356113a7565b600b5490918115610e615750610e53612710918361125e565b045b82519182526020820152f35b9050610e55565b5091346102bf5760203660031901126102bf575061027c60209235611271565b5050346102f457816003193601126102f45760025490516001600160a01b039091168152602090f35b5091346102bf5760203660031901126102bf575061027c602092356113a7565b839085346102bf57806003193601126102bf5750600b54600c549082526001600160a01b03166020820152f35b34610f20576000366003190112610f20576020604051662386f26fc100008152f35b600080fd5b600435906001600160a01b0382168203610f2057565b6060906003190112610f20576004356001600160a01b0381168103610f2057906024359060443590565b6000546001600160a01b03163303610f7957565b60405163118cdaa760e01b8152336004820152602490fd5b90601f8019910116810190811067ffffffffffffffff821117610fb357604052565b634e487b7160e01b600052604160045260246000fd5b8115610fd3570490565b634e487b7160e01b600052601260045260246000fd5b600019600282098160011b9081808210910381811461104b57036003111561103857600360027faaaaaaaaaaaaaaaaaaaaaaaaaaaaaaaaaaaaaaaaaaaaaaaaaaaaaaaaaaaaaaab930990030290565b634e487b7160005260116020526024601cfd5b5050600391500490565b600019828209918082029283808210910381811461107f5703600111156110385760019109900390565b5050505090565b600019600182099181808410930392808403931461111157828111156110f957806001830981600003821680920460028082600302188083028203028083028203028083028203028083028203028083028203028092029003029360018380600003040190848311900302920304170290565b634e487b71600052156003026011186020526024601cfd5b9061111c9250610fc9565b90565b670de0b6b3a76400009160001983830992808302928380861095039480860395146111b7578483111561119e579082910981600003821680920460028082600302188083028203028083028203028083028203028083028203028083028203028092029003029360018380600003040190848311900302920304170290565b82634e487b71600052156003026011186020526024601cfd5b50509061111c9250610fc9565b909160001983830992808302928380861095039480860395146111b7578483111561119e579082910981600003821680920460028082600302188083028203028083028203028083028203028083028203028083028203028092029003029360018380600003040190848311900302920304170290565b9190820391821161124857565b634e487b7160e01b600052601160045260246000fd5b8181029291811591840414171561124857565b61127961137e565b6005546040516370a0823160e01b815230600482015290602090829060249082906001600160a01b03165afa90811561137257600091611341575b50801561132f5781156113285780821015611316576112dc61026f6105f0600954948461123b565b6001600160ff1b0391908281168103611248576112fc9060011b84611086565b91811681036112485761111c926106339160011b90611086565b60405163162908e360e11b8152600490fd5b5050600090565b6040516323d359a360e01b8152600490fd5b906020823d821161136a575b8161135a60209383610f91565b810103126102bf575051386112b4565b3d915061134d565b6040513d6000823e3d90fd5b6009541561138857565b6040516321c4e35760e21b8152600490fd5b9190820180921161124857565b6113af61137e565b6005546040516370a0823160e01b815230600482015290602090829060249082906001600160a01b03165afa90811561137257600091611429575b50801561132f5781156113285761140a61026f6105f0600954948461139a565b6001600160ff1b03918083168103611248576112fc9060011b84611086565b906020823d8211611452575b8161144260209383610f91565b810103126102bf575051386113ea565b3d9150611435565b60ff600854166115985760249061146f61137e565b6005546040516370a0823160e01b81523060048201529260209184919082906001600160a01b03165afa91821561137257600092611565575b50811561132f57600b546114d491906000811561155d57506114cd612710918361125e565b049061123b565b8015611328576114f1600954916114eb848061125e565b90611055565b8060011b90808204600214901517156112485761151a61151f91611514846115aa565b9361139a565b6115aa565b90811561132f5761153a9161153491846111c4565b8261123b565b9080821015611547575090565b662386f26fc0ffff198101915081116112485790565b90509061123b565b90916020823d8211611590575b8161157f60209383610f91565b810103126102bf57505190386114a8565b3d9150611572565b60405163e6a0d45f60e01b8152600490fd5b6001808211156116c657611667908083600160801b8110156116b4575b80600160401b60049210156116a7575b64010000000081101561169a575b6201000081101561168d575b610100811015611681575b6010811015611675575b101561166e575b600302811c61161c8185610fc9565b01811c6116298185610fc9565b01811c6116368185610fc9565b01811c6116438185610fc9565b01811c6116508185610fc9565b01811c61165d8185610fc9565b01901c8092610fc9565b8111900390565b811b61160d565b811c9160021b91611606565b60081c91811b916115fc565b60101c9160081b916115f1565b60201c9160101b916115e5565b60401c9160201b916115d7565b50600160401b9050608084901c6115c7565b5090565b90816020910312610f2057518015158103610f205790565b60405163a9059cbb60e01b60208083019182526001600160a01b039490941660248301526044808301959095529381529092600091611722606482610f91565b519082855af115611372576000513d61176c57506001600160a01b0381163b155b61174a5750565b604051635274afe760e01b81526001600160a01b039091166004820152602490fd5b60011415611743565b600260015414611786576002600155565b604051633ee5aeb560e01b8152600490fd5b906117a161137e565b801561132f5781156113285761140a61026f6105f0600954948461139a565b90816020910312610f2057516001600160a01b0381168103610f205790565b60085460ff8116611d355760ff19166001176008556003546005546002546040805163e6a4390560e01b81526001600160a01b039384166004808301829052938516602483018190529195602094939291908616908588604481855afa978815611b3557600098611d16575b5086881615611c94575b505060055482516370a0823160e01b8082523082870152602495935091871686828781845afa918215611c8957908691600093611c57575b50878960025416875193848092888252308a8301525afa918215611b6f57600092611c28575b5082151580611c1f575b6118f9575b505050505050505080600554169116907f806ef27e0c58d1db68e3780cb50bde63b59139693b61ab9fdff83126acc3a9a0600080a3565b61191b61191561190b8560095461111f565b610276868061125e565b8361111f565b92662386f26fc100008401808511611c0b5791818a92889411611bd3575b508254885163095ea7b360e01b808252918d166001600160a01b03169481019485526020850187905290939092918391829060009082906040015b03925af18015611bc8576119c1928a928592611bab575b508b600254169060008d8a5416918b519687958694859384528d840160209093929193604081019460018060a01b031681520152565b03925af18015611b6f57611b8e575b50878454168860055416908960025416610384420190814211611b7a578760006060948c9694610104948d51988997889662e8e33760e81b88528701528501528960448501528860648501528960848501528860a48501523060c485015260e48401525af18015611b6f5790869291611b40575b508151928352878301527f38f8a0c92f4c5b0b6877f878cb4c0c8d348a47b76d716c8e78f425043df9515b91a185600554168351918252308383015285828681845afa918215611b3557600092611b06575b5081611aa4575b80806118c2565b8592600060449261dead948751988996879563a9059cbb60e01b87528601528401525af1908115611afc5750611ade575b80808080611a9d565b81611af492903d10610998576109888183610f91565b503880611ad5565b513d6000823e3d90fd5b90918682813d8311611b2e575b611b1d8183610f91565b810103126102bf5750519038611a96565b503d611b13565b84513d6000823e3d90fd5b6060809293503d8111611b68575b611b588183610f91565b81010312610f2057849038611a44565b503d611b4e565b86513d6000823e3d90fd5b89601189634e487b7160e01b600052526000fd5b611ba490883d8a11610998576109888183610f91565b50386119d0565b611bc190843d8611610998576109888183610f91565b503861198b565b87513d6000823e3d90fd5b9250935050662386f26fc0ffff198101908111611bf7579184908890611974611939565b86601186634e487b7160e01b600052526000fd5b88601188634e487b7160e01b600052526000fd5b508115156118bd565b90918882813d8311611c50575b611c3f8183610f91565b810103126102bf57505190386118b3565b503d611c35565b9150918782813d8311611c82575b611c6f8183610f91565b810103126102bf5750859051913861188d565b503d611c65565b85513d6000823e3d90fd5b83516364e329cb60e11b81526001600160a01b0391821686820190815293909116602084015292965084918391908290600090829060400103925af1908115611c8957600091611ce9575b5093388080611855565b611d099150833d8511611d0f575b611d018183610f91565b8101906117c0565b38611cdf565b503d611cf7565b611d2e919850863d8811611d0f57611d018183610f91565b963861184b565b5056fea26469706673582212202f3be12df185e86451ab9202ac516153793bd4474492ad72236b30adc9f26b5264736f6c63430008140033604060808152346200043f5762002f2d803803806200001e8162000444565b928339810160a0828203126200043f5762000039826200046a565b916020918282015160018060401b03908181116200043f57826200005f9185016200047f565b9186840151908282116200043f576200007a9185016200047f565b916200008e6080606086015195016200046a565b9181518181116200033f576003908154906001948583811c9316801562000434575b8a8410146200041e578190601f93848111620003c8575b508a90848311600114620003615760009262000355575b505060001982851b1c191690851b1782555b85519283116200033f5760049586548581811c9116801562000334575b8a8210146200031f57828111620002d4575b508891841160011462000269579383949184926000956200025d575b50501b92600019911b1c19161782555b6001600160a01b0394851694851562000246576005549160018060a01b031996808885161760055582895194167f8be0079c531659141344cd1fd0a4f28419497f9722a3daafe3b4186f6b6457e0600080a316809560065416176006558415620002325750600254908282018092116200021d575060025560008381528083528481208054830190558451918252917fddf252ad1be2c89b69c2b068fc378daa952ba7f163c4a11628f55a4df523b3ef91a36006805460ff60a01b1916905560c860075551612a3b9081620004f28239f35b601190634e487b7160e01b6000525260246000fd5b600060249263ec442f0560e01b8352820152fd5b8651631e4fbdf760e01b8152600081850152602490fd5b0151935038806200013b565b9190601f1984169287600052848a6000209460005b8c89838310620002bc5750505010620002a1575b50505050811b0182556200014b565b01519060f884600019921b161c191690553880808062000292565b8686015189559097019694850194889350016200027e565b87600052896000208380870160051c8201928c881062000315575b0160051c019086905b828110620003085750506200011f565b60008155018690620002f8565b92508192620002ef565b602288634e487b7160e01b6000525260246000fd5b90607f16906200010d565b634e487b7160e01b600052604160045260246000fd5b015190503880620000de565b60008681528c8120899550929190601f198516908e5b828210620003b0575050841162000397575b505050811b018255620000f0565b015160001983871b60f8161c1916905538808062000389565b8385015186558b979095019493840193018e62000377565b909150846000528a6000208480850160051c8201928d861062000414575b918991869594930160051c01915b82811062000404575050620000c7565b60008155859450899101620003f4565b92508192620003e6565b634e487b7160e01b600052602260045260246000fd5b92607f1692620000b0565b600080fd5b6040519190601f01601f191682016001600160401b038111838210176200033f57604052565b51906001600160a01b03821682036200043f57565b919080601f840112156200043f5782516001600160401b0381116200033f57602090620004b5601f8201601f1916830162000444565b928184528282870101116200043f5760005b818110620004dd57508260009394955001015290565b8581018301518482018401528201620004c756fe6080604081815260049182361015610022575b505050361561002057600080fd5b005b600092833560e01c91826306fdde0314610e7257508163095ea7b314610dc857816309c95a1b14610da457816318160ddd14610d8557816321a9d82a14610d5e57816323b872dd14610d0e578163247165b714610cd45781632e7908e414610cb5578163313ce56714610c9957816342966c6814610c7b578163593b99e314610c1f57816370a0823114610be8578163715018a614610b8b578163728d41c914610b1c57816379cc679014610ae95781637a49c3b014610a6f5781637f45c4c3146109f55781638da5cb5b146109cc57816395d89b41146108cd578163a0cde18d146108a4578163a1db9782146107c7578163a9059cbb14610783578163ae22107f14610727578163b6d51c15146106ba578163c77f6cc61461065e578163d29b710314610624578163d4ce85f3146105e0578163d8165743146105a0578163d98040c914610518578163dd62ed3e146104cf578163e6d4d75c14610470578163e85455d714610436578163ee6a934c146103ad578163eff201bd14610390578163f14210a614610306578163f2fde38b14610276578163f5664c45146101ff575063fbfa77cf146101d45780610012565b346101fb57816003193601126101fb5760065490516001600160a01b039091168152602090f35b5080fd5b9050346102725760203660031901126102725761021a610fb0565b610222611025565b6001600160a01b031691821561026557505061023d816112a3565b507f62d21812a383819d08d8ed6516ba6dfa7ba3ae019746b71f17c67a38481a80a18280a280f35b5163b47cdee560e01b8152fd5b8280fd5b90503461027257602036600319011261027257610291610fb0565b9061029a611025565b6001600160a01b039182169283156102f0575050600554826bffffffffffffffffffffffff60a01b821617600555167f8be0079c531659141344cd1fd0a4f28419497f9722a3daafe3b4186f6b6457e08380a380f35b51631e4fbdf760e01b8152908101849052602490fd5b9190503461027257602036600319011261027257610322611025565b828080808535335af13d1561038b573d67ffffffffffffffff811161037857825190610358601f8201601f1916602001836110a0565b81528460203d92013e5b1561036b578280f35b516312171d8360e31b8152fd5b634e487b7160e01b855260418452602485fd5b610362565b5050346101fb57816003193601126101fb57602090516103e88152f35b905034610272576020366003190112610272576103c8610fb0565b916103d1611025565b6001600160a01b038316928315610428573b1561041b5750506103f381611256565b507fb893f883ef734b712208a877459424ee509832c57e0461fb1ac99ed4d42f2d898280a280f35b51630f9da0c760e41b8152fd5b505163b47cdee560e01b8152fd5b5050346101fb5760203660031901126101fb5760209181906001600160a01b0361045e610fb0565b16815260098452205415159051908152f35b83346104cc5760203660031901126104cc5761048a610fb0565b610492611025565b6001600160a01b03166104a4816111d9565b507ffc9dbe314ed9f975da84bf7665838b1f60db2efccc75299784a49cbe0752f1af8280a280f35b80fd5b5050346101fb57806003193601126101fb57806020926104ed610fb0565b6104f5610fcb565b6001600160a01b0391821683526001865283832091168252845220549051908152f35b8284346104cc57806003193601126104cc578151918291600a54808552602080950194600a83527fc65a7bb8d6351c1cf70c95a316cc6a92839c986682d98bc35f958f4883f9d2a892905b82821061058957610585868661057b828b03836110a0565b5191829182610fe1565b0390f35b835487529586019560019384019390910190610563565b8383346101fb57816003193601126101fb576105ba6110c2565b905191838210156105cd57602083838152f35b634e487b7160e01b815260218452602490fd5b905082346104cc57806003193601126104cc576105fb6110c2565b9180831015610611576020836003865191148152f35b634e487b7160e01b825260219052602490fd5b5050346101fb5760203660031901126101fb5760209181906001600160a01b0361064c610fb0565b168152600d8452205415159051908152f35b83346104cc5760203660031901126104cc57610678610fb0565b610680611025565b6001600160a01b0316610692816114c7565b507f23d60777ebe8928281accb2b7cec3b8daea87dcd3dd3af91a937fea6d89815078280a280f35b5050346101fb57816003193601126101fb5760207f332d7bea063a0938b953d43a65a2561e65e6a2ab7cce108c3543e7ffc78ed089916106f8611025565b60ff6006548160a01b828260a01c161560a01b16908260a01b1916179182600655519160a01c1615158152a180f35b83346104cc5760203660031901126104cc57610741610fb0565b610749611025565b6001600160a01b031661075b8161141e565b507f59c3fbcae88f30e9b0e35c132a7f68c53231dffa4722f197c7ecb0ee013eee608280a280f35b5050346101fb57806003193601126101fb576020906107c06107a3610fb0565b602435906107b0336116ab565b6107ba828261174e565b336115ad565b5160018152f35b919050346102725780600319360112610272576107e2610fb0565b6107ea611025565b6001600160a01b031690308214610895578051602081019063a9059cbb60e01b82523360248201526024356044820152604481526080810181811067ffffffffffffffff8211176108825783525160209186919082865af1156108795783513d6108705750813b155b61085b578380f35b51635274afe760e01b81529182015260249150fd5b60011415610853565b513d84823e3d90fd5b634e487b7160e01b875260418652602487fd5b5163992501b360e01b81529050fd5b5050346101fb57816003193601126101fb57610585906108c2611e40565b905191829182610f67565b8383346101fb57816003193601126101fb57805191809380549160019083821c928285169485156109c2575b60209586861081146109af5785895290811561098b5750600114610933575b6105858787610929828c03836110a0565b5191829182610f67565b81529295507f8a35acfbc15ff81a39ae7d344fd709f28e8600b4aa8c65c6b64bfe7fe36bd19b5b82841061097857505050826105859461092992820101948680610918565b805486850188015292860192810161095a565b60ff19168887015250505050151560051b8301019250610929826105858680610918565b634e487b7160e01b845260228352602484fd5b93607f16936108f9565b5050346101fb57816003193601126101fb5760055490516001600160a01b039091168152602090f35b8284346104cc57806003193601126104cc578151918291600854808552602080950194600883527ff3f7a9fe364faab93b216da50a3214154f22a0a2b415b23a84c8169e8b636ee392905b828210610a5857610585868661057b828b03836110a0565b835487529586019560019384019390910190610a40565b8284346104cc57806003193601126104cc578151918291600c54808552602080950194600c83527fdf6966c971051c3d54ec59162606531493a51404a002842f56009d7e5cf4a8c792905b828210610ad257610585868661057b828b03836110a0565b835487529586019560019384019390910190610aba565b5050346101fb573660031901126104cc57610b19610b05610fb0565b60243590610b148233836117bf565b611892565b80f35b90503461027257602036600319011261027257803590610b3a611025565b6103e88211610b7d5750907f50e1fb16091eadb369c37f99d26adca8dbd16d539d94bbc1764068b72dfe104391600754908060075582519182526020820152a180f35b82516368d4a02760e11b8152fd5b83346104cc57806003193601126104cc57610ba4611025565b600580546001600160a01b0319811690915581906001600160a01b03167f8be0079c531659141344cd1fd0a4f28419497f9722a3daafe3b4186f6b6457e08280a380f35b5050346101fb5760203660031901126101fb5760209181906001600160a01b03610c10610fb0565b16815280845220549051908152f35b83346104cc5760203660031901126104cc57610c39610fb0565b610c41611025565b6001600160a01b0316610c5381611334565b507fde039579c013ddaaba1072c1705a38783af193b3cd968748799ceffa63222dfb8280a280f35b8390346101fb5760203660031901126101fb57610b19903533611892565b5050346101fb57816003193601126101fb576020905160128152f35b5050346101fb57816003193601126101fb576020906007549051908152f35b5050346101fb5760203660031901126101fb5760209181906001600160a01b03610cfc610fb0565b168152600b8452205415159051908152f35b5050346101fb5760603660031901126101fb576020906107c0610d2f610fb0565b610d37610fcb565b60443591610d44336116ab565b610d4e838361174e565b610d598333836117bf565b6115ad565b5050346101fb57816003193601126101fb5760209060ff60065460a01c1690519015158152f35b5050346101fb57816003193601126101fb576020906002549051908152f35b5050346101fb57816003193601126101fb57602090610dc1611583565b9051908152f35b905034610272578160031936011261027257610de2610fb0565b602435903315610e5b576001600160a01b0316918215610e4457508083602095338152600187528181208582528752205582519081527f8c5be1e5ebec7d5bd14f71427d1e84f3dd0314c0f7b2291e5b200ac8c7c3b925843392a35160018152f35b8351634a1406b160e11b8152908101859052602490fd5b835163e602df0560e01b8152808401869052602490fd5b92915034610f635783600319360112610f6357600354600181811c9186908281168015610f59575b6020958686108214610f465750848852908115610f245750600114610ecb575b6105858686610929828b03836110a0565b929550600383527fc2575a0e9e593c00f959f8c92f12db2869c3395a3b0502d05e2516446f71f85b5b828410610f11575050508261058594610929928201019438610eba565b8054868501880152928601928101610ef4565b60ff191687860152505050151560051b83010192506109298261058538610eba565b634e487b7160e01b845260229052602483fd5b93607f1693610e9a565b8380fd5b6020808252825181830181905290939260005b828110610f9c57505060409293506000838284010152601f8019910116010190565b818101860151848201604001528501610f7a565b600435906001600160a01b0382168203610fc657565b600080fd5b602435906001600160a01b0382168203610fc657565b6020908160408183019282815285518094520193019160005b828110611008575050505090565b83516001600160a01b031685529381019392810192600101610ffa565b6005546001600160a01b0316330361103957565b60405163118cdaa760e01b8152336004820152602490fd5b610180810190811067ffffffffffffffff82111761106e57604052565b634e487b7160e01b600052604160045260246000fd5b6040810190811067ffffffffffffffff82111761106e57604052565b90601f8019910116810190811067ffffffffffffffff82111761106e57604052565b6110ca611931565b6110d381611cbe565b611118576110e0816128c5565b801590811561110d575b50611107576110f890611c6b565b1561110257600390565b600290565b50600190565b6006915014386110ea565b50600090565b600a5481101561115557600a6000527fc65a7bb8d6351c1cf70c95a316cc6a92839c986682d98bc35f958f4883f9d2a80190600090565b634e487b7160e01b600052603260045260246000fd5b6008548110156111555760086000527ff3f7a9fe364faab93b216da50a3214154f22a0a2b415b23a84c8169e8b636ee30190600090565b600c5481101561115557600c6000527fdf6966c971051c3d54ec59162606531493a51404a002842f56009d7e5cf4a8c70190600090565b6000818152600b602052604081205461125157600a54600160401b81101561123d57908261122961121284600160409601600a5561111e565b819391549060031b91821b91600019901b19161790565b9055600a54928152600b6020522055600190565b634e487b7160e01b82526041600452602482fd5b905090565b60008181526009602052604081205461125157600854600160401b81101561123d57908261128f6112128460016040960160085561116b565b905560085492815260096020522055600190565b6000818152600d602052604081205461125157600c54600160401b81101561123d5790826112dc61121284600160409601600c556111a2565b9055600c54928152600d6020522055600190565b6202a2ff1981019190821161130157565b634e487b7160e01b600052601160045260246000fd5b6101dc1981019190821161130157565b9190820391821161130157565b6000818152600d60205260408120549091908015611419576000199080820181811161140557600c54908382019182116113f1578181036113bd575b505050600c5480156113a957810190611388826111a2565b909182549160031b1b19169055600c558152600d6020526040812055600190565b634e487b7160e01b84526031600452602484fd5b6113db6113cc611212936111a2565b90549060031b1c9283926111a2565b90558452600d6020526040842055388080611370565b634e487b7160e01b86526011600452602486fd5b634e487b7160e01b85526011600452602485fd5b505090565b6000818152600960205260408120549091908015611419576000199080820181811161140557600854908382019182116113f157818103611493575b50505060085480156113a9578101906114728261116b565b909182549160031b1b19169055600855815260096020526040812055600190565b6114b16114a26112129361116b565b90549060031b1c92839261116b565b905584526009602052604084205538808061145a565b6000818152600b60205260408120549091908015611419576000199080820181811161140557600a54908382019182116113f15781810361153c575b505050600a5480156113a95781019061151b8261111e565b909182549160031b1b19169055600a558152600b6020526040812055600190565b61155a61154b6112129361111e565b90549060031b1c92839261111e565b90558452600b6020526040842055388080611503565b8181029291811591840414171561130157565b60ff60065460a01c16156115a7576127106115a360025460075490611570565b0490565b60001990565b916001600160a01b03808416928315611676571692831561165d5760009083825281602052604082205490838210611627575091604082827fddf252ad1be2c89b69c2b068fc378daa952ba7f163c4a11628f55a4df523b3ef958760209652828652038282205586815220818154019055604051908152a3565b60405163391434e360e21b81526001600160a01b03919091166004820152602481019190915260448101839052606490fd5b0390fd5b60405163ec442f0560e01b815260006004820152602490fd5b604051634b637e8f60e11b815260006004820152602490fd5b90611c20820180921161130157565b9190820180921161130157565b6001600160a01b03166000908152600b602052604090205461174c576116cf6110c2565b60048110156117365780611701576116596116e8611e40565b604051630968ed3960e11b815291829160048301610f67565b6001810361171b576040516371a3793b60e01b8152600490fd5b60021461172457565b60405163110cfbe760e21b8152600490fd5b634e487b7160e01b600052602160045260246000fd5b565b60ff60065460a01c16156117bb576001600160a01b03166000908152600d60205260409020546117b85761178c90600060205260406000205461169e565b61271061179e60025460075490611570565b04106117a657565b60405163af1a8f1960e01b8152600490fd5b50565b5050565b9160018060a01b0380931691600093838552600160205260409384862091831691828752602052848620549260001984106117fe575b50505050505050565b8484106118625750801561184a578115611832578552600160205283852090855260205203912055388080808080806117f5565b8451634a1406b160e11b815260048101879052602490fd5b845163e602df0560e01b815260048101879052602490fd5b8551637dc7a0d960e11b81526001600160a01b039190911660048201526024810184905260448101859052606490fd5b906001600160a01b03821690811561167657600092828452836020526040842054908282106118ff5750817fddf252ad1be2c89b69c2b068fc378daa952ba7f163c4a11628f55a4df523b3ef926020928587528684520360408620558060025403600255604051908152a3565b60405163391434e360e21b81526001600160a01b03919091166004820152602481019190915260448101829052606490fd5b61193a426123e6565b60006107b25b828110611c2757506040519161195583611051565b601f8084526020840190601c8252806040860152601e918260608701528160808701528260a08701528160c08701528160e08701526101009083828801526101209280848901526101409785898201526101609082828201526119b7886128dd565b9384611c1d575b506001905b60038210611bd55750506119d6886128c5565b60009080611bb7575050600e955b600019968088019081116113015762015180998a8202918083048c149015171561130157611a1a91611a159161169e565b61168f565b996000986107b2905b808210611b715750508360405197611a3a89611051565b8189528360208a0198601c8a528360408c01528160608c01528360808c01528160a08c01528360c08c01528360e08c01528a0152880152860152840152611b67575b506001905b600b8210611b25575050611a94826128c5565b60009080611afe5750506001905b81019081116113015782810292818404149015171561130157611ac891611a159161169e565b904210159081611af4575b5015611ae957611ae66138405b42611327565b90565b611ae6614650611ae0565b9050421038611ad3565b6008039060088211611b11575090611aa2565b634e487b7160e01b81526011600452602490fd5b909282840184811161130157611b3b90836124b2565b51908582029180830487149015171561130157611b6191611b5b9161169e565b936124c3565b90611a81565b601d905238611a7c565b9099611b7c8b6128dd565b15611b9f576301e28500810180911161130157611b99909a6124c3565b90611a23565b6301e13380810180911161130157611b99909a6124c3565b600e0390600e8211611b115760078201809211611b115750956119e4565b90986000198a018a811161130157611bed90836124b2565b5190620151809182810292818404149015171561130157611c1791611c119161169e565b996124c3565b906119c3565b601d9052386119be565b90611c31826128dd565b15611c53576301e28500810180911161130157611c4e90916124c3565b611940565b6301e13380810180911161130157611c4e90916124c3565b6018610e10820406600981108015611cb3575b611cac576009149081611c9b575b50611c9657600190565b600090565b601e9150603c809104061038611c8c565b5050600090565b506010811015611c7e565b611cc7906124d2565b600192908284148080611e37575b611e1c576007841480611e2d575b611e1c57600c841480611e23575b611e1c5780611e0b575b611db7576002831480611dfa575b611db7576005831480611de9575b611db7576009831480611dd8575b611db757600b831480611dc7575b611db7576006831480611dbd575b611db757600383148015611dad575b611d5e575b50505050600090565b611d77611d72611d6d84612193565b6112f0565b6124d2565b93919091149384611da3575b505082611d99575b5050611ae657808080611d55565b1490503880611d8b565b1492503880611d83565b5060048314611d50565b50505090565b5060138114611d41565b50611dd381848461239e565b611d33565b50611de4818484612365565b611d25565b50611df581848461231d565b611d17565b50611e068184846122d0565b611d09565b50611e178184846122d0565b611cfb565b5050505090565b5060198214611cf1565b5060048214611ce3565b50848214611cd5565b611e4b611d72611931565b600182939214808091612189575b61215b576007841480612151575b61212157600c841480612117575b6120ea57806120d9575b61209d57600283148061208c575b61205f57600583148061204e575b612023576009831480612012575b611fea57600b831480611fd9575b611fae576006831480611fa4575b611f7b57600383148015611f71575b611f05575b505050604051611ee881611084565b600d81526c4e6f74206120486f6c6964617960981b602082015290565b611f14611d72611d6d84612193565b93919091149384611f67575b505082611f5d575b5050611f3657388080611ed9565b604051611f4281611084565b600b81526a476f6f642046726964617960a81b602082015290565b1490503880611f28565b1492503880611f20565b5060048314611ed4565b505050604051611f8a81611084565b600a815269094eadccae8cacadce8d60b31b602082015290565b5060138114611ec5565b505050604051611fbd81611084565b600c81526b5468616e6b73676976696e6760a01b602082015290565b50611fe581848461239e565b611eb7565b505050604051611ff981611084565b60098152684c61626f722044617960b81b602082015290565b5061201e818484612365565b611ea9565b50505060405161203281611084565b600c81526b4d656d6f7269616c2044617960a01b602082015290565b5061205a81848461231d565b611e9b565b50505060405161206e81611084565b600e81526d507265736964656e74732044617960901b602082015290565b506120988184846122d0565b611e8d565b5050506040516120ac81611084565b601a81527f4d617274696e204c7574686572204b696e67204a722e20446179000000000000602082015290565b506120e58184846122d0565b611e7f565b505050506040516120fa81611084565b600d81526c4368726973746d61732044617960981b602082015290565b5060198214611e75565b5050505060405161213181611084565b601081526f496e646570656e64656e63652044617960801b602082015290565b5060048214611e67565b5050505060405161216b81611084565b600e81526d4e6577205965617227732044617960901b602082015290565b5060018214611e59565b6013810690606481049160648206600884018085116113015760196121b9910485611327565b600181018091116113015782601302601381048403611301576121eb60036121f09304916121eb888060021c9261169e565b611327565b600f810180911161130157601e600691069460011b166020018060201161130157816121eb866121eb61223794600360079716946002600160ff1b039060011c169061169e565b069083600b02600b81048503611301576122509161169e565b8160160290601682048303611301576101c39161226c9161169e565b04612277828561169e565b81600702916007830403611301578161228f91611327565b9360728501809511611301576122a8926121eb9161169e565b6072810180911161130157601f9006906001820180921161130157601f611ae6930490612776565b6122e2916122dd91612655565b6128c5565b60006001821161230957506002036002811161130157905b600e8201809211611301571490565b906009039060098211611b115750906122fa565b6122dd6123369161232e8482612926565b938491612776565b60008161234f57505061234b90600690611327565b1490565b6000198201918211611b11575061234b91611327565b612372916122dd91612655565b60006001821161238c575060020360028111611301571490565b906009039060098211611b1157501490565b6123ab916122dd91612655565b6000600482116123d257506005036005811161130157905b60158201809211611301571490565b90600c0390600c8211611b115750906123c3565b6000906107b26301e187e0820480820180921161249e57819361241061240b846128fb565b611317565b928211611b11576301e133809180830292830403611b11576201518092838102938185041490151715611b1157509061244b9193929361169e565b8281116124585750905090565b60001982019182116113015761246d826128dd565b15612489576301e284ff19810190811161130157905b9061244b565b6301e1337f1981019081116113015790612483565b634e487b7160e01b84526011600452602484fd5b90600c8110156111555760051b0190565b60001981146113015760010190565b9060009060006124e1846123e6565b936124ee61240b866128fb565b6107b1198601919086831161249e576301e13380928084029384040361249e576201518092838202918083048514901517156114055761253892916125329161169e565b90611327565b6040519061254582611051565b610180368337601f808352612559886128dd565b1561264957601d60208401525b806040840152601e6060840152806080840152601e60a08401528060c08401528060e0840152601e61010084015280610120840152601e61014084015261016083015283906001925b600c8411156125d5575b506125c49250611327565b049060018201809211611b11575090565b90916000198401848111612635576125ed90836124b2565b519085820291808304871490151715612635578361260b828461169e565b116126255761261d91611b5b9161169e565b9291906125af565b92975050506125c49195386125b9565b634e487b7160e01b87526011600452602487fd5b601c6020840152612566565b906000916107b25b81811061273257506040519061267282611051565b6126cc601f918284526020840192601c8452806040860152601e6060860152806080860152601e60a08601528060c08601528060e0860152601e61010086015280610120860152601e6101408601526101608501526128dd565b612728575b50906001915b8183106126e45750505090565b9091926000198401848111611301576126fd90836124b2565b519062015180918281029281840414901517156113015761272191611b5b9161169e565b91906126d7565b601d9052386126d1565b9261273c846128dd565b1561275e576301e2850081018091116113015761275990936124c3565b61265d565b6301e1338081018091116113015761275990936124c3565b91906000926107b25b81811061288157506040519061279482611051565b6127ee601f918284526020840192601c8452806040860152601e6060860152806080860152601e60a08601528060c08601528060e0860152601e61010086015280610120860152601e6101408601526101608501526128dd565b612877575b50906001915b81831061282d57505050600019810190811161130157620151809081810291818304149015171561130157611ae69161169e565b90919360001985018581116113015761284690836124b2565b51906201518091828102928184041490151715611301576128709161286a9161169e565b946124c3565b91906127f9565b601d9052386127f3565b9361288b856128dd565b156128ad576301e285008101809111611301576128a890946124c3565b61277f565b6301e133808101809111611301576128a890946124c3565b62015180900460048101809111611301576007900690565b600381166111185760648106611107576101909006611c9657600190565b6000198101908111611301578061019061291e6064611ae694048360021c611327565b91049061169e565b906001811480156129fb575b80156129f1575b80156129e7575b80156129dd575b80156129d3575b80156129c9575b15612961575050601f90565b6004811480156129bf575b80156129b5575b80156129ab575b15612986575050601e90565b6002146129935750600090565b61299c906128dd565b156129a657601d90565b601c90565b50600b811461297a565b5060098114612973565b506006811461296c565b50600c8114612955565b50600a811461294e565b5060088114612947565b5060078114612940565b5060058114612939565b506003811461293256fea26469706673582212209d3864041221586776d0283edc36191b196227e38284a9e1859c077858af3dd864736f6c63430008140033a2646970667358221220fefd185ea3d5277aeaedbb3114ee7e16b90bf8750f93b455434b82e84fba79ed64736f6c63430008140033",
  "linkReferences": {},
  "deployedLinkReferences": {}
}