{
  "_format": "hh-sol-artifact-1",
  "contractName": "StonkToken",
  "sourceName": "contracts/StonkToken.sol",
  "abi": [
    {
      "inputs": [
        {
          "internalType": "address",
          "name": "owner_",
          "type": "address"
        },
        {
          "internalType": "string",
          "name": "name_",
          "type": "string"
        },
        {
          "internalType": "string",
          "name": "symbol_",
          "type": "string"
        },
        {
          "internalType": "uint256",
          "name": "totalSupply_",
          "type": "uint256"
        },
        {
          "internalType": "address",
          "name": "vault_",
          "type": "address"
        }
      ],
      "stateMutability": "nonpayable",
      "type": "constructor"
    },
    {
      "inputs": [],
      "name": "CannotWithdrawThisToken",
      "type": "error"
    },
    {
      "inputs": [
        {
          "internalType": "address",
          "name": "spender",
          "type": "address"
        },
        {
          "internalType": "uint256",
          "name": "allowance",
          "type": "uint256"
        },
        {
          "internalType": "uint256",
          "name": "needed",
          "type": "uint256"
        }
      ],
      "name": "ERC20InsufficientAllowance",
      "type": "error"
    },
    {
      "inputs": [
        {
          "internalType": "address",
          "name": "sender",
          "type": "address"
        },
        {
          "internalType": "uint256",
          "name": "balance",
          "type": "uint256"
        },
        {
          "internalType": "uint256",
          "name": "needed",
          "type": "uint256"
        }
      ],
      "name": "ERC20InsufficientBalance",
      "type": "error"
    },
    {
      "inputs": [
        {
          "internalType": "address",
          "name": "approver",
          "type": "address"
        }
      ],
      "name": "ERC20InvalidApprover",
      "type": "error"
    },
    {
      "inputs": [
        {
          "internalType": "address",
          "name": "receiver",
          "type": "address"
        }
      ],
      "name": "ERC20InvalidReceiver",
      "type": "error"
    },
    {
      "inputs": [
        {
          "internalType": "address",
          "name": "sender",
          "type": "address"
        }
      ],
      "name": "ERC20InvalidSender",
      "type": "error"
    },
    {
      "inputs": [
        {
          "internalType": "address",
          "name": "spender",
          "type": "address"
        }
      ],
      "name": "ERC20InvalidSpender",
      "type": "error"
    },
    {
      "inputs": [],
      "name": "LiquidityPoolCannotBeAddressZero",
      "type": "error"
    },
    {
      "inputs": [],
      "name": "LiquidityPoolMustBeAContractAddress",
      "type": "error"
    },
    {
      "inputs": [],
      "name": "MarketClosedAfterHours",
      "type": "error"
    },
    {
      "inputs": [
        {
          "internalType": "string",
          "name": "holiday",
          "type": "string"
        }
      ],
      "name": "MarketClosedForHoliday",
      "type": "error"
    },
    {
      "inputs": [],
      "name": "MarketClosedForWeekend",
      "type": "error"
    },
    {
      "inputs": [],
      "name": "MaxWalletLimitExceeded",
      "type": "error"
    },
    {
      "inputs": [],
      "name": "MaxWalletLimitTooHigh",
      "type": "error"
    },
    {
      "inputs": [
        {
          "internalType": "address",
          "name": "owner",
          "type": "address"
        }
      ],
      "name": "OwnableInvalidOwner",
      "type": "error"
    },
    {
      "inputs": [
        {
          "internalType": "address",
          "name": "account",
          "type": "address"
        }
      ],
      "name": "OwnableUnauthorizedAccount",
      "type": "error"
    },
    {
      "inputs": [
        {
          "internalType": "address",
          "name": "token",
          "type": "address"
        }
      ],
      "name": "SafeERC20FailedOperation",
      "type": "error"
    },
    {
      "inputs": [],
      "name": "TransferFailed",
      "type": "error"
    },
    {
      "anonymous": false,
      "inputs": [
        {
          "indexed": true,
          "internalType": "address",
          "name": "owner",
          "type": "address"
        },
        {
          "indexed": true,
          "internalType": "address",
          "name": "spender",
          "type": "address"
        },
        {
          "indexed": false,
          "internalType": "uint256",
          "name": "value",
          "type": "uint256"
        }
      ],
      "name": "Approval",
      "type": "event"
    },
    {
      "anonymous": false,
      "inputs": [
        {
          "indexed": false,
          "internalType": "uint256",
          "name": "identifier",
          "type": "uint256"
        }
      ],
      "name": "ExternalCallError",
      "type": "event"
    },
    {
      "anonymous": false,
      "inputs": [
        {
          "indexed": true,
          "internalType": "address",
          "name": "pool",
          "type": "address"
        }
      ],
      "name": "LiquidityPoolAdded",
      "type": "event"
    },
    {
      "anonymous": false,
      "inputs": [
        {
          "indexed": true,
          "internalType": "address",
          "name": "pool",
          "type": "address"
        }
      ],
      "name": "LiquidityPoolRemoved",
      "type": "event"
    },
    {
      "anonymous": false,
      "inputs": [
        {
          "indexed": false,
          "internalType": "enum IStonkToken.MarketState",
          "name": "state",
          "type": "uint8"
        },
        {
          "indexed": false,
          "internalType": "string",
          "name": "reason",
          "type": "string"
        }
      ],
      "name": "MarketClosed",
      "type": "event"
    },
    {
      "anonymous": false,
      "inputs": [
        {
          "indexed": true,
          "internalType": "address",
          "name": "firstTrader",
          "type": "address"
        }
      ],
      "name": "MarketOpened",
      "type": "event"
    },
    {
      "anonymous": false,
      "inputs": [
        {
          "indexed": true,
          "internalType": "address",
          "name": "account",
          "type": "address"
        }
      ],
      "name": "MaxWalletExemptionAdded",
      "type": "event"
    },
    {
      "anonymous": false,
      "inputs": [
        {
          "indexed": true,
          "internalType": "address",
          "name": "account",
          "type": "address"
        }
      ],
      "name": "MaxWalletExemptionRemoved",
      "type": "event"
    },
    {
      "anonymous": false,
      "inputs": [
        {
          "indexed": false,
          "internalType": "bool",
          "name": "enabled",
          "type": "bool"
        }
      ],
      "name": "MaxWalletLimitToggled",
      "type": "event"
    },
    {
      "anonymous": false,
      "inputs": [
        {
          "indexed": false,
          "internalType": "uint256",
          "name": "oldLimit",
          "type": "uint256"
        },
        {
          "indexed": false,
          "internalType": "uint256",
          "name": "newLimit",
          "type": "uint256"
        }
      ],
      "name": "MaxWalletLimitUpdated",
      "type": "event"
    },
    {
      "anonymous": false,
      "inputs": [
        {
          "indexed": true,
          "internalType": "address",
          "name": "previousOwner",
          "type": "address"
        },
        {
          "indexed": true,
          "internalType": "address",
          "name": "newOwner",
          "type": "address"
        }
      ],
      "name": "OwnershipTransferred",
      "type": "event"
    },
    {
      "anonymous": false,
      "inputs": [
        {
          "indexed": true,
          "internalType": "address",
          "name": "account",
          "type": "address"
        }
      ],
      "name": "TimelockExemptionAdded",
      "type": "event"
    },
    {
      "anonymous": false,
      "inputs": [
        {
          "indexed": true,
          "internalType": "address",
          "name": "account",
          "type": "address"
        }
      ],
      "name": "TimelockExemptionRemoved",
      "type": "event"
    },
    {
      "anonymous": false,
      "inputs": [
        {
          "indexed": true,
          "internalType": "address",
          "name": "from",
          "type": "address"
        },
        {
          "indexed": true,
          "internalType": "address",
          "name": "to",
          "type": "address"
        },
        {
          "indexed": false,
          "internalType": "uint256",
          "name": "value",
          "type": "uint256"
        }
      ],
      "name": "Transfer",
      "type": "event"
    },
    {
      "inputs": [],
      "name": "MAX_WALLET_LIMIT_BASIS_POINTS",
      "outputs": [
        {
          "internalType": "uint256",
          "name": "",
          "type": "uint256"
        }
      ],
      "stateMutability": "view",
      "type": "function"
    },
    {
      "inputs": [
        {
          "internalType": "address",
          "name": "pool",
          "type": "address"
        }
      ],
      "name": "addLiquidityPool",
      "outputs": [],
      "stateMutability": "nonpayable",
      "type": "function"
    },
    {
      "inputs": [
        {
          "internalType": "address",
          "name": "account",
          "type": "address"
        }
      ],
      "name": "addMaxWalletExemption",
      "outputs": [],
      "stateMutability": "nonpayable",
      "type": "function"
    },
    {
      "inputs": [
        {
          "internalType": "address",
          "name": "account",
          "type": "address"
        }
      ],
      "name": "addTimelockExemption",
      "outputs": [],
      "stateMutability": "nonpayable",
      "type": "function"
    },
    {
      "inputs": [
        {
          "internalType": "address",
          "name": "owner",
          "type": "address"
        },
        {
          "internalType": "address",
          "name": "spender",
          "type": "address"
        }
      ],
      "name": "allowance",
      "outputs": [
        {
          "internalType": "uint256",
          "name": "",
          "type": "uint256"
        }
      ],
      "stateMutability": "view",
      "type": "function"
    },
    {
      "inputs": [
        {
          "internalType": "address",
          "name": "spender",
          "type": "address"
        },
        {
          "internalType": "uint256",
          "name": "value",
          "type": "uint256"
        }
      ],
      "name": "approve",
      "outputs": [
        {
          "internalType": "bool",
          "name": "",
          "type": "bool"
        }
      ],
      "stateMutability": "nonpayable",
      "type": "function"
    },
    {
      "inputs": [
        {
          "internalType": "address",
          "name": "account",
          "type": "address"
        }
      ],
      "name": "balanceOf",
      "outputs": [
        {
          "internalType": "uint256",
          "name": "",
          "type": "uint256"
        }
      ],
      "stateMutability": "view",
      "type": "function"
    },
    {
      "inputs": [
        {
          "internalType": "uint256",
          "name": "value",
          "type": "uint256"
        }
      ],
      "name": "burn",
      "outputs": [],
      "stateMutability": "nonpayable",
      "type": "function"
    },
    {
      "inputs": [
        {
          "internalType": "address",
          "name": "account",
          "type": "address"
        },
        {
          "internalType": "uint256",
          "name": "value",
          "type": "uint256"
        }
      ],
      "name": "burnFrom",
      "outputs": [],
      "stateMutability": "nonpayable",
      "type": "function"
    },
    {
      "inputs": [],
      "name": "decimals",
      "outputs": [
        {
          "internalType": "uint8",
          "name": "",
          "type": "uint8"
        }
      ],
      "stateMutability": "view",
      "type": "function"
    },
    {
      "inputs": [],
      "name": "getCurrentHoliday",
      "outputs": [
        {
          "internalType": "string",
          "name": "",
          "type": "string"
        }
      ],
      "stateMutability": "view",
      "type": "function"
    },
    {
      "inputs": [],
      "name": "getLiquidityPools",
      "outputs": [
        {
          "internalType": "address[]",
          "name": "",
          "type": "address[]"
        }
      ],
      "stateMutability": "view",
      "type": "function"
    },
    {
      "inputs": [],
      "name": "getMarketState",
      "outputs": [
        {
          "internalType": "enum IStonkToken.MarketState",
          "name": "",
          "type": "uint8"
        }
      ],
      "stateMutability": "view",
      "type": "function"
    },
    {
      "inputs": [],
      "name": "getMaxWalletAmount",
      "outputs": [
        {
          "internalType": "uint256",
          "name": "",
          "type": "uint256"
        }
      ],
      "stateMutability": "view",
      "type": "function"
    },
    {
      "inputs": [],
      "name": "getMaxWalletExemptions",
      "outputs": [
        {
          "internalType": "address[]",
          "name": "",
          "type": "address[]"
        }
      ],
      "stateMutability": "view",
      "type": "function"
    },
    {
      "inputs": [],
      "name": "getTimelockExemptions",
      "outputs": [
        {
          "internalType": "address[]",
          "name": "",
          "type": "address[]"
        }
      ],
      "stateMutability": "view",
      "type": "function"
    },
    {
      "inputs": [
        {
          "internalType": "address",
          "name": "account",
          "type": "address"
        }
      ],
      "name": "isExemptFromMaxWallet",
      "outputs": [
        {
          "internalType": "bool",
          "name": "",
          "type": "bool"
        }
      ],
      "stateMutability": "view",
      "type": "function"
    },
    {
      "inputs": [
        {
          "internalType": "address",
          "name": "account",
          "type": "address"
        }
      ],
      "name": "isExemptFromTimelock",
      "outputs": [
        {
          "internalType": "bool",
          "name": "",
          "type": "bool"
        }
      ],
      "stateMutability": "view",
      "type": "function"
    },
    {
      "inputs": [
        {
          "internalType": "address",
          "name": "account",
          "type": "address"
        }
      ],
      "name": "isLiquidityPool",
      "outputs": [
        {
          "internalType": "bool",
          "name": "",
          "type": "bool"
        }
      ],
      "stateMutability": "view",
      "type": "function"
    },
    {
      "inputs": [],
      "name": "isMarketOpen",
      "outputs": [
        {
          "internalType": "bool",
          "name": "",
          "type": "bool"
        }
      ],
      "stateMutability": "view",
      "type": "function"
    },
    {
      "inputs": [],
      "name": "maxWalletLimitBasisPoints",
      "outputs": [
        {
          "internalType": "uint256",
          "name": "",
          "type": "uint256"
        }
      ],
      "stateMutability": "view",
      "type": "function"
    },
    {
      "inputs": [],
      "name": "maxWalletLimitEnabled",
      "outputs": [
        {
          "internalType": "bool",
          "name": "",
          "type": "bool"
        }
      ],
      "stateMutability": "view",
      "type": "function"
    },
    {
      "inputs": [],
      "name": "name",
      "outputs": [
        {
          "internalType": "string",
          "name": "",
          "type": "string"
        }
      ],
      "stateMutability": "view",
      "type": "function"
    },
    {
      "inputs": [],
      "name": "owner",
      "outputs": [
        {
          "internalType": "address",
          "name": "",
          "type": "address"
        }
      ],
      "stateMutability": "view",
      "type": "function"
    },
    {
      "inputs": [
        {
          "internalType": "address",
          "name": "pool",
          "type": "address"
        }
      ],
      "name": "removeLiquidityPool",
      "outputs": [],
      "stateMutability": "nonpayable",
      "type": "function"
    },
    {
      "inputs": [
        {
          "internalType": "address",
          "name": "account",
          "type": "address"
        }
      ],
      "name": "removeMaxWalletExemption",
      "outputs": [],
      "stateMutability": "nonpayable",
      "type": "function"
    },
    {
      "inputs": [
        {
          "internalType": "address",
          "name": "account",
          "type": "address"
        }
      ],
      "name": "removeTimelockExemption",
      "outputs": [],
      "stateMutability": "nonpayable",
      "type": "function"
    },
    {
      "inputs": [],
      "name": "renounceOwnership",
      "outputs": [],
      "stateMutability": "nonpayable",
      "type": "function"
    },
    {
      "inputs": [
        {
          "internalType": "uint256",
          "name": "newLimitBasisPoints",
          "type": "uint256"
        }
      ],
      "name": "setMaxWalletLimit",
      "outputs": [],
      "stateMutability": "nonpayable",
      "type": "function"
    },
    {
      "inputs": [],
      "name": "symbol",
      "outputs": [
        {
          "internalType": "string",
          "name": "",
          "type": "string"
        }
      ],
      "stateMutability": "view",
      "type": "function"
    },
    {
      "inputs": [],
      "name": "toggleMaxWalletLimit",
      "outputs": [],
      "stateMutability": "nonpayable",
      "type": "function"
    },
    {
      "inputs": [],
      "name": "totalSupply",
      "outputs": [
        {
          "internalType": "uint256",
          "name": "",
          "type": "uint256"
        }
      ],
      "stateMutability": "view",
      "type": "function"
    },
    {
      "inputs": [
        {
          "internalType": "address",
          "name": "to",
          "type": "address"
        },
        {
          "internalType": "uint256",
          "name": "amount",
          "type": "uint256"
        }
      ],
      "name": "transfer",
      "outputs": [
        {
          "internalType": "bool",
          "name": "",
          "type": "bool"
        }
      ],
      "stateMutability": "nonpayable",
      "type": "function"
    },
    {
      "inputs": [
        {
          "internalType": "address",
          "name": "from",
          "type": "address"
        },
        {
          "internalType": "address",
          "name": "to",
          "type": "address"
        },
        {
          "internalType": "uint256",
          "name": "amount",
          "type": "uint256"
        }
      ],
      "name": "transferFrom",
      "outputs": [
        {
          "internalType": "bool",
          "name": "",
          "type": "bool"
        }
      ],
      "stateMutability": "nonpayable",
      "type": "function"
    },
    {
      "inputs": [
        {
          "internalType": "address",
          "name": "newOwner",
          "type": "address"
        }
      ],
      "name": "transferOwnership",
      "outputs": [],
      "stateMutability": "nonpayable",
      "type": "function"
    },
    {
      "inputs": [],
      "name": "vault",
      "outputs": [
        {
          "internalType": "address",
          "name": "",
          "type": "address"
        }
      ],
      "stateMutability": "view",
      "type": "function"
    },
    {
      "inputs": [
        {
          "internalType": "address",
          "name": "token",
          "type": "address"
        },
        {
          "internalType": "uint256",
          "name": "amount",
          "type": "uint256"
        }
      ],
      "name": "withdrawERC20",
      "outputs": [],
      "stateMutability": "nonpayable",
      "type": "function"
    },
    {
      "inputs": [
        {
          "internalType": "uint256",
          "name": "amount",
          "type": "uint256"
        }
      ],
      "name": "withdrawETH",
      "outputs": [],
      "stateMutability": "nonpayable",
      "type": "function"
    },
    {
      "stateMutability": "payable",
      "type": "receive"
    }
  ],
  "bytecode": "0x604060808152346200043f5762002f2d803803806200001e8162000444565b928339810160a0828203126200043f5762000039826200046a565b916020918282015160018060401b03908181116200043f57826200005f9185016200047f565b9186840151908282116200043f576200007a9185016200047f565b916200008e6080606086015195016200046a565b9181518181116200033f576003908154906001948583811c9316801562000434575b8a8410146200041e578190601f93848111620003c8575b508a90848311600114620003615760009262000355575b505060001982851b1c191690851b1782555b85519283116200033f5760049586548581811c9116801562000334575b8a8210146200031f57828111620002d4575b508891841160011462000269579383949184926000956200025d575b50501b92600019911b1c19161782555b6001600160a01b0394851694851562000246576005549160018060a01b031996808885161760055582895194167f8be0079c531659141344cd1fd0a4f28419497f9722a3daafe3b4186f6b6457e0600080a316809560065416176006558415620002325750600254908282018092116200021d575060025560008381528083528481208054830190558451918252917fddf252ad1be2c89b69c2b068fc378daa952ba7f163c4a11628f55a4df523b3ef91a36006805460ff60a01b1916905560c860075551612a3b9081620004f28239f35b601190634e487b7160e01b6000525260246000fd5b600060249263ec442f0560e01b8352820152fd5b8651631e4fbdf760e01b8152600081850152602490fd5b0151935038806200013b565b9190601f1984169287600052848a6000209460005b8c89838310620002bc5750505010620002a1575b50505050811b0182556200014b565b01519060f884600019921b161c191690553880808062000292565b8686015189559097019694850194889350016200027e565b87600052896000208380870160051c8201928c881062000315575b0160051c019086905b828110620003085750506200011f565b60008155018690620002f8565b92508192620002ef565b602288634e487b7160e01b6000525260246000fd5b90607f16906200010d565b634e487b7160e01b600052604160045260246000fd5b015190503880620000de565b60008681528c8120899550929190601f198516908e5b828210620003b0575050841162000397575b505050811b018255620000f0565b015160001983871b60f8161c1916905538808062000389565b8385015186558b979095019493840193018e62000377565b909150846000528a6000208480850160051c8201928d861062000414575b918991869594930160051c01915b82811062000404575050620000c7565b60008155859450899101620003f4565b92508192620003e6565b634e487b7160e01b600052602260045260246000fd5b92607f1692620000b0565b600080fd5b6040519190601f01601f191682016001600160401b038111838210176200033f57604052565b51906001600160a01b03821682036200043f57565b919080601f840112156200043f5782516001600160401b0381116200033f57602090620004b5601f8201601f1916830162000444565b928184528282870101116200043f5760005b818110620004dd57508260009394955001015290565b8581018301518482018401528201620004c756fe6080604081815260049182361015610022575b505050361561002057600080fd5b005b600092833560e01c91826306fdde0314610e7257508163095ea7b314610dc857816309c95a1b14610da457816318160ddd14610d8557816321a9d82a14610d5e57816323b872dd14610d0e578163247165b714610cd45781632e7908e414610cb5578163313ce56714610c9957816342966c6814610c7b578163593b99e314610c1f57816370a0823114610be8578163715018a614610b8b578163728d41c914610b1c57816379cc679014610ae95781637a49c3b014610a6f5781637f45c4c3146109f55781638da5cb5b146109cc57816395d89b41146108cd578163a0cde18d146108a4578163a1db9782146107c7578163a9059cbb14610783578163ae22107f14610727578163b6d51c15146106ba578163c77f6cc61461065e578163d29b710314610624578163d4ce85f3146105e0578163d8165743146105a0578163d98040c914610518578163dd62ed3e146104cf578163e6d4d75c14610470578163e85455d714610436578163ee6a934c146103ad578163eff201bd14610390578163f14210a614610306578163f2fde38b14610276578163f5664c45146101ff575063fbfa77cf146101d45780610012565b346101fb57816003193601126101fb5760065490516001600160a01b039091168152602090f35b5080fd5b9050346102725760203660031901126102725761021a610fb0565b610222611025565b6001600160a01b031691821561026557505061023d816112a3565b507f62d21812a383819d08d8ed6516ba6dfa7ba3ae019746b71f17c67a38481a80a18280a280f35b5163b47cdee560e01b8152fd5b8280fd5b90503461027257602036600319011261027257610291610fb0565b9061029a611025565b6001600160a01b039182169283156102f0575050600554826bffffffffffffffffffffffff60a01b821617600555167f8be0079c531659141344cd1fd0a4f28419497f9722a3daafe3b4186f6b6457e08380a380f35b51631e4fbdf760e01b8152908101849052602490fd5b9190503461027257602036600319011261027257610322611025565b828080808535335af13d1561038b573d67ffffffffffffffff811161037857825190610358601f8201601f1916602001836110a0565b81528460203d92013e5b1561036b578280f35b516312171d8360e31b8152fd5b634e487b7160e01b855260418452602485fd5b610362565b5050346101fb57816003193601126101fb57602090516103e88152f35b905034610272576020366003190112610272576103c8610fb0565b916103d1611025565b6001600160a01b038316928315610428573b1561041b5750506103f381611256565b507fb893f883ef734b712208a877459424ee509832c57e0461fb1ac99ed4d42f2d898280a280f35b51630f9da0c760e41b8152fd5b505163b47cdee560e01b8152fd5b5050346101fb5760203660031901126101fb5760209181906001600160a01b0361045e610fb0565b16815260098452205415159051908152f35b83346104cc5760203660031901126104cc5761048a610fb0565b610492611025565b6001600160a01b03166104a4816111d9565b507ffc9dbe314ed9f975da84bf7665838b1f60db2efccc75299784a49cbe0752f1af8280a280f35b80fd5b5050346101fb57806003193601126101fb57806020926104ed610fb0565b6104f5610fcb565b6001600160a01b0391821683526001865283832091168252845220549051908152f35b8284346104cc57806003193601126104cc578151918291600a54808552602080950194600a83527fc65a7bb8d6351c1cf70c95a316cc6a92839c986682d98bc35f958f4883f9d2a892905b82821061058957610585868661057b828b03836110a0565b5191829182610fe1565b0390f35b835487529586019560019384019390910190610563565b8383346101fb57816003193601126101fb576105ba6110c2565b905191838210156105cd57602083838152f35b634e487b7160e01b815260218452602490fd5b905082346104cc57806003193601126104cc576105fb6110c2565b9180831015610611576020836003865191148152f35b634e487b7160e01b825260219052602490fd5b5050346101fb5760203660031901126101fb5760209181906001600160a01b0361064c610fb0565b168152600d8452205415159051908152f35b83346104cc5760203660031901126104cc57610678610fb0565b610680611025565b6001600160a01b0316610692816114c7565b507f23d60777ebe8928281accb2b7cec3b8daea87dcd3dd3af91a937fea6d89815078280a280f35b5050346101fb57816003193601126101fb5760207f332d7bea063a0938b953d43a65a2561e65e6a2ab7cce108c3543e7ffc78ed089916106f8611025565b60ff6006548160a01b828260a01c161560a01b16908260a01b1916179182600655519160a01c1615158152a180f35b83346104cc5760203660031901126104cc57610741610fb0565b610749611025565b6001600160a01b031661075b8161141e565b507f59c3fbcae88f30e9b0e35c132a7f68c53231dffa4722f197c7ecb0ee013eee608280a280f35b5050346101fb57806003193601126101fb576020906107c06107a3610fb0565b602435906107b0336116ab565b6107ba828261174e565b336115ad565b5160018152f35b919050346102725780600319360112610272576107e2610fb0565b6107ea611025565b6001600160a01b031690308214610895578051602081019063a9059cbb60e01b82523360248201526024356044820152604481526080810181811067ffffffffffffffff8211176108825783525160209186919082865af1156108795783513d6108705750813b155b61085b578380f35b51635274afe760e01b81529182015260249150fd5b60011415610853565b513d84823e3d90fd5b634e487b7160e01b875260418652602487fd5b5163992501b360e01b81529050fd5b5050346101fb57816003193601126101fb57610585906108c2611e40565b905191829182610f67565b8383346101fb57816003193601126101fb57805191809380549160019083821c928285169485156109c2575b60209586861081146109af5785895290811561098b5750600114610933575b6105858787610929828c03836110a0565b5191829182610f67565b81529295507f8a35acfbc15ff81a39ae7d344fd709f28e8600b4aa8c65c6b64bfe7fe36bd19b5b82841061097857505050826105859461092992820101948680610918565b805486850188015292860192810161095a565b60ff19168887015250505050151560051b8301019250610929826105858680610918565b634e487b7160e01b845260228352602484fd5b93607f16936108f9565b5050346101fb57816003193601126101fb5760055490516001600160a01b039091168152602090f35b8284346104cc57806003193601126104cc578151918291600854808552602080950194600883527ff3f7a9fe364faab93b216da50a3214154f22a0a2b415b23a84c8169e8b636ee392905b828210610a5857610585868661057b828b03836110a0565b835487529586019560019384019390910190610a40565b8284346104cc57806003193601126104cc578151918291600c54808552602080950194600c83527fdf6966c971051c3d54ec59162606531493a51404a002842f56009d7e5cf4a8c792905b828210610ad257610585868661057b828b03836110a0565b835487529586019560019384019390910190610aba565b5050346101fb573660031901126104cc57610b19610b05610fb0565b60243590610b148233836117bf565b611892565b80f35b90503461027257602036600319011261027257803590610b3a611025565b6103e88211610b7d5750907f50e1fb16091eadb369c37f99d26adca8dbd16d539d94bbc1764068b72dfe104391600754908060075582519182526020820152a180f35b82516368d4a02760e11b8152fd5b83346104cc57806003193601126104cc57610ba4611025565b600580546001600160a01b0319811690915581906001600160a01b03167f8be0079c531659141344cd1fd0a4f28419497f9722a3daafe3b4186f6b6457e08280a380f35b5050346101fb5760203660031901126101fb5760209181906001600160a01b03610c10610fb0565b16815280845220549051908152f35b83346104cc5760203660031901126104cc57610c39610fb0565b610c41611025565b6001600160a01b0316610c5381611334565b507fde039579c013ddaaba1072c1705a38783af193b3cd968748799ceffa63222dfb8280a280f35b8390346101fb5760203660031901126101fb57610b19903533611892565b5050346101fb57816003193601126101fb576020905160128152f35b5050346101fb57816003193601126101fb576020906007549051908152f35b5050346101fb5760203660031901126101fb5760209181906001600160a01b03610cfc610fb0565b168152600b8452205415159051908152f35b5050346101fb5760603660031901126101fb576020906107c0610d2f610fb0565b610d37610fcb565b60443591610d44336116ab565b610d4e838361174e565b610d598333836117bf565b6115ad565b5050346101fb57816003193601126101fb5760209060ff60065460a01c1690519015158152f35b5050346101fb57816003193601126101fb576020906002549051908152f35b5050346101fb57816003193601126101fb57602090610dc1611583565b9051908152f35b905034610272578160031936011261027257610de2610fb0565b602435903315610e5b576001600160a01b0316918215610e4457508083602095338152600187528181208582528752205582519081527f8c5be1e5ebec7d5bd14f71427d1e84f3dd0314c0f7b2291e5b200ac8c7c3b925843392a35160018152f35b8351634a1406b160e11b8152908101859052602490fd5b835163e602df0560e01b8152808401869052602490fd5b92915034610f635783600319360112610f6357600354600181811c9186908281168015610f59575b6020958686108214610f465750848852908115610f245750600114610ecb575b6105858686610929828b03836110a0565b929550600383527fc2575a0e9e593c00f959f8c92f12db2869c3395a3b0502d05e2516446f71f85b5b828410610f11575050508261058594610929928201019438610eba565b8054868501880152928601928101610ef4565b60ff191687860152505050151560051b83010192506109298261058538610eba565b634e487b7160e01b845260229052602483fd5b93607f1693610e9a565b8380fd5b6020808252825181830181905290939260005b828110610f9c57505060409293506000838284010152601f8019910116010190565b818101860151848201604001528501610f7a565b600435906001600160a01b0382168203610fc657565b600080fd5b602435906001600160a01b0382168203610fc657565b6020908160408183019282815285518094520193019160005b828110611008575050505090565b83516001600160a01b031685529381019392810192600101610ffa565b6005546001600160a01b0316330361103957565b60405163118cdaa760e01b8152336004820152602490fd5b610180810190811067ffffffffffffffff82111761106e57604052565b634e487b7160e01b600052604160045260246000fd5b6040810190811067ffffffffffffffff82111761106e57604052565b90601f8019910116810190811067ffffffffffffffff82111761106e57604052565b6110ca611931565b6110d381611cbe565b611118576110e0816128c5565b801590811561110d575b50611107576110f890611c6b565b1561110257600390565b600290565b50600190565b6006915014386110ea565b50600090565b600a5481101561115557600a6000527fc65a7bb8d6351c1cf70c95a316cc6a92839c986682d98bc35f958f4883f9d2a80190600090565b634e487b7160e01b600052603260045260246000fd5b6008548110156111555760086000527ff3f7a9fe364faab93b216da50a3214154f22a0a2b415b23a84c8169e8b636ee30190600090565b600c5481101561115557600c6000527fdf6966c971051c3d54ec59162606531493a51404a002842f56009d7e5cf4a8c70190600090565b6000818152600b602052604081205461125157600a54600160401b81101561123d57908261122961121284600160409601600a5561111e565b819391549060031b91821b91600019901b19161790565b9055600a54928152600b6020522055600190565b634e487b7160e01b82526041600452602482fd5b905090565b60008181526009602052604081205461125157600854600160401b81101561123d57908261128f6112128460016040960160085561116b565b905560085492815260096020522055600190565b6000818152600d602052604081205461125157600c54600160401b81101561123d5790826112dc61121284600160409601600c556111a2565b9055600c54928152600d6020522055600190565b6202a2ff1981019190821161130157565b634e487b7160e01b600052601160045260246000fd5b6101dc1981019190821161130157565b9190820391821161130157565b6000818152600d60205260408120549091908015611419576000199080820181811161140557600c54908382019182116113f1578181036113bd575b505050600c5480156113a957810190611388826111a2565b909182549160031b1b19169055600c558152600d6020526040812055600190565b634e487b7160e01b84526031600452602484fd5b6113db6113cc611212936111a2565b90549060031b1c9283926111a2565b90558452600d6020526040842055388080611370565b634e487b7160e01b86526011600452602486fd5b634e487b7160e01b85526011600452602485fd5b505090565b6000818152600960205260408120549091908015611419576000199080820181811161140557600854908382019182116113f157818103611493575b50505060085480156113a9578101906114728261116b565b909182549160031b1b19169055600855815260096020526040812055600190565b6114b16114a26112129361116b565b90549060031b1c92839261116b565b905584526009602052604084205538808061145a565b6000818152600b60205260408120549091908015611419576000199080820181811161140557600a54908382019182116113f15781810361153c575b505050600a5480156113a95781019061151b8261111e565b909182549160031b1b19169055600a558152600b6020526040812055600190565b61155a61154b6112129361111e565b90549060031b1c92839261111e565b90558452600b6020526040842055388080611503565b8181029291811591840414171561130157565b60ff60065460a01c16156115a7576127106115a360025460075490611570565b0490565b60001990565b916001600160a01b03808416928315611676571692831561165d5760009083825281602052604082205490838210611627575091604082827fddf252ad1be2c89b69c2b068fc378daa952ba7f163c4a11628f55a4df523b3ef958760209652828652038282205586815220818154019055604051908152a3565b60405163391434e360e21b81526001600160a01b03919091166004820152602481019190915260448101839052606490fd5b0390fd5b60405163ec442f0560e01b815260006004820152602490fd5b604051634b637e8f60e11b815260006004820152602490fd5b90611c20820180921161130157565b9190820180921161130157565b6001600160a01b03166000908152600b602052604090205461174c576116cf6110c2565b60048110156117365780611701576116596116e8611e40565b604051630968ed3960e11b815291829160048301610f67565b6001810361171b576040516371a3793b60e01b8152600490fd5b60021461172457565b60405163110cfbe760e21b8152600490fd5b634e487b7160e01b600052602160045260246000fd5b565b60ff60065460a01c16156117bb576001600160a01b03166000908152600d60205260409020546117b85761178c90600060205260406000205461169e565b61271061179e60025460075490611570565b04106117a657565b60405163af1a8f1960e01b8152600490fd5b50565b5050565b9160018060a01b0380931691600093838552600160205260409384862091831691828752602052848620549260001984106117fe575b50505050505050565b8484106118625750801561184a578115611832578552600160205283852090855260205203912055388080808080806117f5565b8451634a1406b160e11b815260048101879052602490fd5b845163e602df0560e01b815260048101879052602490fd5b8551637dc7a0d960e11b81526001600160a01b039190911660048201526024810184905260448101859052606490fd5b906001600160a01b03821690811561167657600092828452836020526040842054908282106118ff5750817fddf252ad1be2c89b69c2b068fc378daa952ba7f163c4a11628f55a4df523b3ef926020928587528684520360408620558060025403600255604051908152a3565b60405163391434e360e21b81526001600160a01b03919091166004820152602481019190915260448101829052606490fd5b61193a426123e6565b60006107b25b828110611c2757506040519161195583611051565b601f8084526020840190601c8252806040860152601e918260608701528160808701528260a08701528160c08701528160e08701526101009083828801526101209280848901526101409785898201526101609082828201526119b7886128dd565b9384611c1d575b506001905b60038210611bd55750506119d6886128c5565b60009080611bb7575050600e955b600019968088019081116113015762015180998a8202918083048c149015171561130157611a1a91611a159161169e565b61168f565b996000986107b2905b808210611b715750508360405197611a3a89611051565b8189528360208a0198601c8a528360408c01528160608c01528360808c01528160a08c01528360c08c01528360e08c01528a0152880152860152840152611b67575b506001905b600b8210611b25575050611a94826128c5565b60009080611afe5750506001905b81019081116113015782810292818404149015171561130157611ac891611a159161169e565b904210159081611af4575b5015611ae957611ae66138405b42611327565b90565b611ae6614650611ae0565b9050421038611ad3565b6008039060088211611b11575090611aa2565b634e487b7160e01b81526011600452602490fd5b909282840184811161130157611b3b90836124b2565b51908582029180830487149015171561130157611b6191611b5b9161169e565b936124c3565b90611a81565b601d905238611a7c565b9099611b7c8b6128dd565b15611b9f576301e28500810180911161130157611b99909a6124c3565b90611a23565b6301e13380810180911161130157611b99909a6124c3565b600e0390600e8211611b115760078201809211611b115750956119e4565b90986000198a018a811161130157611bed90836124b2565b5190620151809182810292818404149015171561130157611c1791611c119161169e565b996124c3565b906119c3565b601d9052386119be565b90611c31826128dd565b15611c53576301e28500810180911161130157611c4e90916124c3565b611940565b6301e13380810180911161130157611c4e90916124c3565b6018610e10820406600981108015611cb3575b611cac576009149081611c9b575b50611c9657600190565b600090565b601e9150603c809104061038611c8c565b5050600090565b506010811015611c7e565b611cc7906124d2565b600192908284148080611e37575b611e1c576007841480611e2d575b611e1c57600c841480611e23575b611e1c5780611e0b575b611db7576002831480611dfa575b611db7576005831480611de9575b611db7576009831480611dd8575b611db757600b831480611dc7575b611db7576006831480611dbd575b611db757600383148015611dad575b611d5e575b50505050600090565b611d77611d72611d6d84612193565b6112f0565b6124d2565b93919091149384611da3575b505082611d99575b5050611ae657808080611d55565b1490503880611d8b565b1492503880611d83565b5060048314611d50565b50505090565b5060138114611d41565b50611dd381848461239e565b611d33565b50611de4818484612365565b611d25565b50611df581848461231d565b611d17565b50611e068184846122d0565b611d09565b50611e178184846122d0565b611cfb565b5050505090565b5060198214611cf1565b5060048214611ce3565b50848214611cd5565b611e4b611d72611931565b600182939214808091612189575b61215b576007841480612151575b61212157600c841480612117575b6120ea57806120d9575b61209d57600283148061208c575b61205f57600583148061204e575b612023576009831480612012575b611fea57600b831480611fd9575b611fae576006831480611fa4575b611f7b57600383148015611f71575b611f05575b505050604051611ee881611084565b600d81526c4e6f74206120486f6c6964617960981b602082015290565b611f14611d72611d6d84612193565b93919091149384611f67575b505082611f5d575b5050611f3657388080611ed9565b604051611f4281611084565b600b81526a476f6f642046726964617960a81b602082015290565b1490503880611f28565b1492503880611f20565b5060048314611ed4565b505050604051611f8a81611084565b600a815269094eadccae8cacadce8d60b31b602082015290565b5060138114611ec5565b505050604051611fbd81611084565b600c81526b5468616e6b73676976696e6760a01b602082015290565b50611fe581848461239e565b611eb7565b505050604051611ff981611084565b60098152684c61626f722044617960b81b602082015290565b5061201e818484612365565b611ea9565b50505060405161203281611084565b600c81526b4d656d6f7269616c2044617960a01b602082015290565b5061205a81848461231d565b611e9b565b50505060405161206e81611084565b600e81526d507265736964656e74732044617960901b602082015290565b506120988184846122d0565b611e8d565b5050506040516120ac81611084565b601a81527f4d617274696e204c7574686572204b696e67204a722e20446179000000000000602082015290565b506120e58184846122d0565b611e7f565b505050506040516120fa81611084565b600d81526c4368726973746d61732044617960981b602082015290565b5060198214611e75565b5050505060405161213181611084565b601081526f496e646570656e64656e63652044617960801b602082015290565b5060048214611e67565b5050505060405161216b81611084565b600e81526d4e6577205965617227732044617960901b602082015290565b5060018214611e59565b6013810690606481049160648206600884018085116113015760196121b9910485611327565b600181018091116113015782601302601381048403611301576121eb60036121f09304916121eb888060021c9261169e565b611327565b600f810180911161130157601e600691069460011b166020018060201161130157816121eb866121eb61223794600360079716946002600160ff1b039060011c169061169e565b069083600b02600b81048503611301576122509161169e565b8160160290601682048303611301576101c39161226c9161169e565b04612277828561169e565b81600702916007830403611301578161228f91611327565b9360728501809511611301576122a8926121eb9161169e565b6072810180911161130157601f9006906001820180921161130157601f611ae6930490612776565b6122e2916122dd91612655565b6128c5565b60006001821161230957506002036002811161130157905b600e8201809211611301571490565b906009039060098211611b115750906122fa565b6122dd6123369161232e8482612926565b938491612776565b60008161234f57505061234b90600690611327565b1490565b6000198201918211611b11575061234b91611327565b612372916122dd91612655565b60006001821161238c575060020360028111611301571490565b906009039060098211611b1157501490565b6123ab916122dd91612655565b6000600482116123d257506005036005811161130157905b60158201809211611301571490565b90600c0390600c8211611b115750906123c3565b6000906107b26301e187e0820480820180921161249e57819361241061240b846128fb565b611317565b928211611b11576301e133809180830292830403611b11576201518092838102938185041490151715611b1157509061244b9193929361169e565b8281116124585750905090565b60001982019182116113015761246d826128dd565b15612489576301e284ff19810190811161130157905b9061244b565b6301e1337f1981019081116113015790612483565b634e487b7160e01b84526011600452602484fd5b90600c8110156111555760051b0190565b60001981146113015760010190565b9060009060006124e1846123e6565b936124ee61240b866128fb565b6107b1198601919086831161249e576301e13380928084029384040361249e576201518092838202918083048514901517156114055761253892916125329161169e565b90611327565b6040519061254582611051565b610180368337601f808352612559886128dd565b1561264957601d60208401525b806040840152601e6060840152806080840152601e60a08401528060c08401528060e0840152601e61010084015280610120840152601e61014084015261016083015283906001925b600c8411156125d5575b506125c49250611327565b049060018201809211611b11575090565b90916000198401848111612635576125ed90836124b2565b519085820291808304871490151715612635578361260b828461169e565b116126255761261d91611b5b9161169e565b9291906125af565b92975050506125c49195386125b9565b634e487b7160e01b87526011600452602487fd5b601c6020840152612566565b906000916107b25b81811061273257506040519061267282611051565b6126cc601f918284526020840192601c8452806040860152601e6060860152806080860152601e60a08601528060c08601528060e0860152601e61010086015280610120860152601e6101408601526101608501526128dd565b612728575b50906001915b8183106126e45750505090565b9091926000198401848111611301576126fd90836124b2565b519062015180918281029281840414901517156113015761272191611b5b9161169e565b91906126d7565b601d9052386126d1565b9261273c846128dd565b1561275e576301e2850081018091116113015761275990936124c3565b61265d565b6301e1338081018091116113015761275990936124c3565b91906000926107b25b81811061288157506040519061279482611051565b6127ee601f918284526020840192601c8452806040860152601e6060860152806080860152601e60a08601528060c08601528060e0860152601e61010086015280610120860152601e6101408601526101608501526128dd565b612877575b50906001915b81831061282d57505050600019810190811161130157620151809081810291818304149015171561130157611ae69161169e565b90919360001985018581116113015761284690836124b2565b51906201518091828102928184041490151715611301576128709161286a9161169e565b946124c3565b91906127f9565b601d9052386127f3565b9361288b856128dd565b156128ad576301e285008101809111611301576128a890946124c3565b61277f565b6301e133808101809111611301576128a890946124c3565b62015180900460048101809111611301576007900690565b600381166111185760648106611107576101909006611c9657600190565b6000198101908111611301578061019061291e6064611ae694048360021c611327565b91049061169e565b906001811480156129fb575b80156129f1575b80156129e7575b80156129dd575b80156129d3575b80156129c9575b15612961575050601f90565b6004811480156129bf575b80156129b5575b80156129ab575b15612986575050601e90565b6002146129935750600090565b61299c906128dd565b156129a657601d90565b601c90565b50600b811461297a565b5060098114612973565b506006811461296c565b50600c8114612955565b50600a811461294e565b5060088114612947565b5060078114612940565b5060058114612939565b506003811461293256fea26469706673582212209d3864041221586776d0283edc36191b196227e38284a9e1859c077858af3dd864736f6c63430008140033",
  "linkReferences": {},
  "deployedLinkReferences": {}
}