{
  "_format": "hh-sol-artifact-1",
  "contractName": "StonkTokenFactory",
  "sourceName": "contracts/StonkTokenFactory.sol",
  "abi": [
    {
      "inputs": [
        {
          "internalType": "address",
          "name": "_treasury",
          "type": "address"
        },
        {
          "internalType": "uint256",
          "name": "_feePrice",
          "type": "uint256"
        },
        {
          "internalType": "address",
          "name": "_uniswapFactory",
          "type": "address"
        },
        {
          "internalType": "address",
          "name": "_uniswapRouter",
          "type": "address"
        },
        {
          "internalType": "address",
          "name": "_assetToken",
          "type": "address"
        }
      ],
      "stateMutability": "nonpayable",
      "type": "constructor"
    },
    {
      "inputs": [
        {
          "internalType": "address",
          "name": "owner",
          "type": "address"
        }
      ],
      "name": "OwnableInvalidOwner",
      "type": "error"
    },
    {
      "inputs": [
        {
          "internalType": "address",
          "name": "account",
          "type": "address"
        }
      ],
      "name": "OwnableUnauthorizedAccount",
      "type": "error"
    },
    {
      "anonymous": false,
      "inputs": [
        {
          "indexed": false,
          "internalType": "uint256",
          "name": "oldPrice",
          "type": "uint256"
        },
        {
          "indexed": false,
          "internalType": "uint256",
          "name": "newPrice",
          "type": "uint256"
        }
      ],
      "name": "FeePriceUpdated",
      "type": "event"
    },
    {
      "anonymous": false,
      "inputs": [
        {
          "indexed": true,
          "internalType": "address",
          "name": "previousOwner",
          "type": "address"
        },
        {
          "indexed": true,
          "internalType": "address",
          "name": "newOwner",
          "type": "address"
        }
      ],
      "name": "OwnershipTransferred",
      "type": "event"
    },
    {
      "anonymous": false,
      "inputs": [
        {
          "indexed": true,
          "internalType": "address",
          "name": "tokenAddress",
          "type": "address"
        },
        {
          "indexed": true,
          "internalType": "address",
          "name": "bondingCurveAddress",
          "type": "address"
        },
        {
          "indexed": false,
          "internalType": "string",
          "name": "name",
          "type": "string"
        },
        {
          "indexed": false,
          "internalType": "string",
          "name": "symbol",
          "type": "string"
        },
        {
          "indexed": false,
          "internalType": "uint256",
          "name": "initialSupply",
          "type": "uint256"
        },
        {
          "indexed": true,
          "internalType": "address",
          "name": "owner",
          "type": "address"
        }
      ],
      "name": "TokenDeployed",
      "type": "event"
    },
    {
      "anonymous": false,
      "inputs": [
        {
          "indexed": true,
          "internalType": "address",
          "name": "tokenAddress",
          "type": "address"
        },
        {
          "indexed": true,
          "internalType": "address",
          "name": "bondingCurveAddress",
          "type": "address"
        },
        {
          "indexed": false,
          "internalType": "uint256",
          "name": "timestamp",
          "type": "uint256"
        }
      ],
      "name": "TokenGraduated",
      "type": "event"
    },
    {
      "inputs": [],
      "name": "ASSET_RATE",
      "outputs": [
        {
          "internalType": "uint256",
          "name": "",
          "type": "uint256"
        }
      ],
      "stateMutability": "view",
      "type": "function"
    },
    {
      "inputs": [],
      "name": "BONDING_CURVE_K",
      "outputs": [
        {
          "internalType": "uint256",
          "name": "",
          "type": "uint256"
        }
      ],
      "stateMutability": "view",
      "type": "function"
    },
    {
      "inputs": [],
      "name": "GRADUATION_THRESHOLD",
      "outputs": [
        {
          "internalType": "uint256",
          "name": "",
          "type": "uint256"
        }
      ],
      "stateMutability": "view",
      "type": "function"
    },
    {
      "inputs": [],
      "name": "assetToken",
      "outputs": [
        {
          "internalType": "contract IERC20",
          "name": "",
          "type": "address"
        }
      ],
      "stateMutability": "view",
      "type": "function"
    },
    {
      "inputs": [
        {
          "internalType": "string",
          "name": "name",
          "type": "string"
        },
        {
          "internalType": "string",
          "name": "symbol",
          "type": "string"
        },
        {
          "internalType": "uint256",
          "name": "totalSupply",
          "type": "uint256"
        },
        {
          "internalType": "address",
          "name": "projectTaxRecipient",
          "type": "address"
        },
        {
          "internalType": "uint16",
          "name": "projectBuyTaxBasisPoints",
          "type": "uint16"
        },
        {
          "internalType": "uint16",
          "name": "projectSellTaxBasisPoints",
          "type": "uint16"
        },
        {
          "internalType": "uint16",
          "name": "taxSwapThresholdBasisPoints",
          "type": "uint16"
        }
      ],
      "name": "deployToken",
      "outputs": [
        {
          "internalType": "address",
          "name": "tokenAddress",
          "type": "address"
        },
        {
          "internalType": "address",
          "name": "bondingCurveAddress",
          "type": "address"
        }
      ],
      "stateMutability": "payable",
      "type": "function"
    },
    {
      "inputs": [
        {
          "internalType": "uint256",
          "name": "",
          "type": "uint256"
        }
      ],
      "name": "deployedTokens",
      "outputs": [
        {
          "internalType": "address",
          "name": "",
          "type": "address"
        }
      ],
      "stateMutability": "view",
      "type": "function"
    },
    {
      "inputs": [],
      "name": "feePrice",
      "outputs": [
        {
          "internalType": "uint256",
          "name": "",
          "type": "uint256"
        }
      ],
      "stateMutability": "view",
      "type": "function"
    },
    {
      "inputs": [],
      "name": "getDeployedTokens",
      "outputs": [
        {
          "internalType": "address[]",
          "name": "",
          "type": "address[]"
        }
      ],
      "stateMutability": "view",
      "type": "function"
    },
    {
      "inputs": [],
      "name": "getDeployedTokensCount",
      "outputs": [
        {
          "internalType": "uint256",
          "name": "",
          "type": "uint256"
        }
      ],
      "stateMutability": "view",
      "type": "function"
    },
    {
      "inputs": [
        {
          "internalType": "address",
          "name": "token",
          "type": "address"
        }
      ],
      "name": "getTokenInfo",
      "outputs": [
        {
          "components": [
            {
              "internalType": "address",
              "name": "token",
              "type": "address"
            },
            {
              "internalType": "address",
              "name": "bondingCurve",
              "type": "address"
            },
            {
              "internalType": "bool",
              "name": "isGraduated",
              "type": "bool"
            }
          ],
          "internalType": "struct StonkTokenFactory.TokenInfo",
          "name": "",
          "type": "tuple"
        }
      ],
      "stateMutability": "view",
      "type": "function"
    },
    {
      "inputs": [],
      "name": "owner",
      "outputs": [
        {
          "internalType": "address",
          "name": "",
          "type": "address"
        }
      ],
      "stateMutability": "view",
      "type": "function"
    },
    {
      "inputs": [],
      "name": "renounceOwnership",
      "outputs": [],
      "stateMutability": "nonpayable",
      "type": "function"
    },
    {
      "inputs": [
        {
          "internalType": "uint256",
          "name": "_newFeePrice",
          "type": "uint256"
        }
      ],
      "name": "setFeePrice",
      "outputs": [],
      "stateMutability": "nonpayable",
      "type": "function"
    },
    {
      "inputs": [
        {
          "internalType": "address",
          "name": "",
          "type": "address"
        }
      ],
      "name": "tokenInfo",
      "outputs": [
        {
          "internalType": "address",
          "name": "token",
          "type": "address"
        },
        {
          "internalType": "address",
          "name": "bondingCurve",
          "type": "address"
        },
        {
          "internalType": "bool",
          "name": "isGraduated",
          "type": "bool"
        }
      ],
      "stateMutability": "view",
      "type": "function"
    },
    {
      "inputs": [
        {
          "internalType": "address",
          "name": "newOwner",
          "type": "address"
        }
      ],
      "name": "transferOwnership",
      "outputs": [],
      "stateMutability": "nonpayable",
      "type": "function"
    },
    {
      "inputs": [],
      "name": "treasury",
      "outputs": [
        {
          "internalType": "address",
          "name": "",
          "type": "address"
        }
      ],
      "stateMutability": "view",
      "type": "function"
    },
    {
      "inputs": [],
      "name": "uniswapFactory",
      "outputs": [
        {
          "internalType": "contract IUniswapV2Factory",
          "name": "",
          "type": "address"
        }
      ],
      "stateMutability": "view",
      "type": "function"
    },
    {
      "inputs": [],
      "name": "uniswapRouter",
      "outputs": [
        {
          "internalType": "contract IUniswapV2Router02",
          "name": "",
          "type": "address"
        }
      ],
      "stateMutability": "view",
      "type": "function"
    }
  ],
  "bytecode": "0x60e06040523480156200001157600080fd5b5060405162004eeb38038062004eeb83398101604081905262000034916200010b565b33806200005b57604051631e4fbdf760e01b81526000600482015260240160405180910390fd5b62000066816200009e565b50600180546001600160a01b0319166001600160a01b03968716179055600293909355908316608052821660a0521660c05262000172565b600080546001600160a01b038381166001600160a01b0319831681178455604051919092169283917f8be0079c531659141344cd1fd0a4f28419497f9722a3daafe3b4186f6b6457e09190a35050565b80516001600160a01b03811681146200010657600080fd5b919050565b600080600080600060a086880312156200012457600080fd5b6200012f86620000ee565b9450602086015193506200014660408701620000ee565b92506200015660608701620000ee565b91506200016660808701620000ee565b90509295509295909350565b60805160a05160c051614d34620001b760003960008181610138015261066d01526000818161033701526106af01526000818161036d015261068e0152614d346000f3fe6080604052600436106200011f5760003560e01c8063735de9f711620000a1578063ec81aadb116200006c578063ec81aadb14620003cb578063f2fde38b14620003f0578063f5dab7111462000415578063f8b855c2146200048f578063fcfc0c0914620004a757600080fd5b8063735de9f714620003235780638bdb2afa14620003595780638da5cb5b146200038f578063d6a81c3014620003af57600080fd5b806340d9ebe111620000ee57806340d9ebe1146200027257806354ad971814620002aa57806361d027b314620002c2578063622ae7aa14620002e4578063715018a6146200030b57600080fd5b80631083f76114620001245780631f69565f1462000177578063245ccdb7146200022a57806325f1be1f1462000251575b600080fd5b3480156200013157600080fd5b506200015a7f000000000000000000000000000000000000000000000000000000000000000081565b6040516001600160a01b0390911681526020015b60405180910390f35b3480156200018457600080fd5b50620001f76200019636600462000ae0565b6040805160608082018352600080835260208084018290529284018190526001600160a01b03948516815260038352839020835191820184528054851682526001015493841691810191909152600160a01b90920460ff1615159082015290565b6040805182516001600160a01b03908116825260208085015190911690820152918101511515908201526060016200016e565b3480156200023757600080fd5b506200024f6200024936600462000b05565b620004c2565b005b3480156200025e57600080fd5b506004545b6040519081526020016200016e565b620002896200028336600462000bdd565b62000511565b604080516001600160a01b039384168152929091166020830152016200016e565b348015620002b757600080fd5b506200026360025481565b348015620002cf57600080fd5b506001546200015a906001600160a01b031681565b348015620002f157600080fd5b50620002fc6200093d565b6040516200016e919062000c9c565b3480156200031857600080fd5b506200024f620009a1565b3480156200033057600080fd5b506200015a7f000000000000000000000000000000000000000000000000000000000000000081565b3480156200036657600080fd5b506200015a7f000000000000000000000000000000000000000000000000000000000000000081565b3480156200039c57600080fd5b506000546001600160a01b03166200015a565b348015620003bc57600080fd5b50620002636502ba7def300081565b348015620003d857600080fd5b506200015a620003ea36600462000b05565b620009b9565b348015620003fd57600080fd5b506200024f6200040f36600462000ae0565b620009e4565b3480156200042257600080fd5b50620004666200043436600462000ae0565b600360205260009081526040902080546001909101546001600160a01b0391821691811690600160a01b900460ff1683565b604080516001600160a01b0394851681529390921660208401521515908201526060016200016e565b3480156200049c57600080fd5b506200026361271081565b348015620004b457600080fd5b506200026364174876e80081565b620004cc62000a28565b600280549082905560408051828152602081018490527f0b0221ed2a319436fb121d3bb917464986dfb897d0c1cade9a2d5eeefe945da5910160405180910390a15050565b6000806002543410156200055f5760405162461bcd60e51b815260206004820152601060248201526f496e73756666696369656e742066656560801b60448201526064015b60405180910390fd5b6001546002546040516001600160a01b039092169181156108fc0291906000818181858888f193505050501580156200059c573d6000803e3d6000fd5b50600254341115620005e85760025433906108fc90620005bd903462000ceb565b6040518115909202916000818181858888f19350505050158015620005e6573d6000803e3d6000fd5b505b600060405180608001604052808761ffff1681526020018661ffff1681526020018561ffff168152602001886001600160a01b031681525090506000338b8b8b3086604051620006389062000aa7565b620006499695949392919062000d5b565b604051809103906000f08015801562000666573d6000803e3d6000fd5b50905060007f00000000000000000000000000000000000000000000000000000000000000007f00000000000000000000000000000000000000000000000000000000000000007f00000000000000000000000000000000000000000000000000000000000000008464174876e800612710604051620006e69062000ab5565b6001600160a01b0396871681529486166020860152928516604085015293166060830152608082019290925260a081019190915260c001604051809103906000f0801580156200073a573d6000803e3d6000fd5b5060405163a9059cbb60e01b81526001600160a01b038083166004830152602482018d90529192509083169063a9059cbb906044016020604051808303816000875af11580156200078f573d6000803e3d6000fd5b505050506040513d601f19601f82011682018060405250810190620007b5919062000de6565b506040518060600160405280836001600160a01b03168152602001826001600160a01b031681526020016000151581525060036000846001600160a01b03166001600160a01b0316815260200190815260200160002060008201518160000160006101000a8154816001600160a01b0302191690836001600160a01b0316021790555060208201518160010160006101000a8154816001600160a01b0302191690836001600160a01b0316021790555060408201518160010160146101000a81548160ff0219169083151502179055509050506004829080600181540180825580915050600190039060005260206000200160009091909190916101000a8154816001600160a01b0302191690836001600160a01b03160217905550336001600160a01b0316816001600160a01b0316836001600160a01b03167f35fabcfc819a5e4f2df3a5067f7284f591cbffd46eb2b9a555aca3cea3ece5758f8f8f604051620009249392919062000e0a565b60405180910390a4909b909a5098505050505050505050565b606060048054806020026020016040519081016040528092919081815260200182805480156200099757602002820191906000526020600020905b81546001600160a01b0316815260019091019060200180831162000978575b5050505050905090565b620009ab62000a28565b620009b7600062000a57565b565b60048181548110620009ca57600080fd5b6000918252602090912001546001600160a01b0316905081565b620009ee62000a28565b6001600160a01b03811662000a1a57604051631e4fbdf760e01b81526000600482015260240162000556565b62000a258162000a57565b50565b6000546001600160a01b03163314620009b75760405163118cdaa760e01b815233600482015260240162000556565b600080546001600160a01b038381166001600160a01b0319831681178455604051919092169283917f8be0079c531659141344cd1fd0a4f28419497f9722a3daafe3b4186f6b6457e09190a35050565b612d758062000e4583390190565b6111458062003bba83390190565b80356001600160a01b038116811462000adb57600080fd5b919050565b60006020828403121562000af357600080fd5b62000afe8262000ac3565b9392505050565b60006020828403121562000b1857600080fd5b5035919050565b634e487b7160e01b600052604160045260246000fd5b600082601f83011262000b4757600080fd5b813567ffffffffffffffff8082111562000b655762000b6562000b1f565b604051601f8301601f19908116603f0116810190828211818310171562000b905762000b9062000b1f565b8160405283815286602085880101111562000baa57600080fd5b836020870160208301376000602085830101528094505050505092915050565b803561ffff8116811462000adb57600080fd5b600080600080600080600060e0888a03121562000bf957600080fd5b873567ffffffffffffffff8082111562000c1257600080fd5b62000c208b838c0162000b35565b985060208a013591508082111562000c3757600080fd5b5062000c468a828b0162000b35565b9650506040880135945062000c5e6060890162000ac3565b935062000c6e6080890162000bca565b925062000c7e60a0890162000bca565b915062000c8e60c0890162000bca565b905092959891949750929550565b6020808252825182820181905260009190848201906040850190845b8181101562000cdf5783516001600160a01b03168352928401929184019160010162000cb8565b50909695505050505050565b8181038181111562000d0d57634e487b7160e01b600052601160045260246000fd5b92915050565b6000815180845260005b8181101562000d3b5760208185018101518683018201520162000d1d565b506000602082860101526020601f19601f83011685010191505092915050565b6001600160a01b0387811682526101206020830181905260009162000d838483018a62000d13565b9150838203604085015262000d99828962000d13565b6060858101989098529581166080850152845161ffff90811660a08601526020860151811660c086015260408601511660e085015293909501519092166101009091015250949350505050565b60006020828403121562000df957600080fd5b8151801515811462000afe57600080fd5b60608152600062000e1f606083018662000d13565b828103602084015262000e33818662000d13565b91505082604083015294935050505056fe60806040523480156200001157600080fd5b5060405162002d7538038062002d758339810160408190526200003491620004a7565b85858560036200004583826200063f565b5060046200005482826200063f565b5050506001600160a01b0381166200008757604051631e4fbdf760e01b8152600060048201526024015b60405180910390fd5b620000928162000145565b50600880546001600160a01b0319166001600160a01b038416179055620000b98162000197565b60058054604084015161ffff16600160f01b026001600160f01b03931515600160a01b0293909316600160ff60a01b01600160f01b03909116179190911790556060810151600680546001600160a01b039092166001600160a01b03199092169190911790556200012b82846200020a565b50506005805460ff60a81b19169055506200073392505050565b600580546001600160a01b038381166001600160a01b0319831681179093556040519116919082907f8be0079c531659141344cd1fd0a4f28419497f9722a3daafe3b4186f6b6457e090600090a35050565b805160009061ffff16158015620001b45750602082015161ffff16155b15620001c257506000919050565b5080516005805460209093015161ffff908116600160e01b0261ffff60e01b1991909316600160d01b021663ffffffff60d01b1990931692909217179055600190565b919050565b6001600160a01b038216620002365760405163ec442f0560e01b8152600060048201526024016200007e565b620002446000838362000248565b5050565b6001600160a01b038316620002775780600260008282546200026b91906200070b565b90915550620002eb9050565b6001600160a01b03831660009081526020819052604090205481811015620002cc5760405163391434e360e21b81526001600160a01b038516600482015260248101829052604481018390526064016200007e565b6001600160a01b03841660009081526020819052604090209082900390555b6001600160a01b038216620003095760028054829003905562000328565b6001600160a01b03821660009081526020819052604090208054820190555b816001600160a01b0316836001600160a01b03167fddf252ad1be2c89b69c2b068fc378daa952ba7f163c4a11628f55a4df523b3ef836040516200036e91815260200190565b60405180910390a3505050565b80516001600160a01b03811681146200020557600080fd5b634e487b7160e01b600052604160045260246000fd5b604051608081016001600160401b0381118282101715620003ce57620003ce62000393565b60405290565b604051601f8201601f191681016001600160401b0381118282101715620003ff57620003ff62000393565b604052919050565b600082601f8301126200041957600080fd5b81516001600160401b0381111562000435576200043562000393565b60206200044b601f8301601f19168201620003d4565b82815285828487010111156200046057600080fd5b60005b838110156200048057858101830151828201840152820162000463565b506000928101909101919091529392505050565b805161ffff811681146200020557600080fd5b600080600080600080868803610120811215620004c357600080fd5b620004ce886200037b565b60208901519097506001600160401b0380821115620004ec57600080fd5b620004fa8b838c0162000407565b975060408a01519150808211156200051157600080fd5b50620005208a828b0162000407565b9550506060880151935062000538608089016200037b565b92506080609f19820112156200054d57600080fd5b5062000558620003a9565b6200056660a0890162000494565b81526200057660c0890162000494565b60208201526200058960e0890162000494565b60408201526200059d61010089016200037b565b6060820152809150509295509295509295565b600181811c90821680620005c557607f821691505b602082108103620005e657634e487b7160e01b600052602260045260246000fd5b50919050565b601f8211156200063a57600081815260208120601f850160051c81016020861015620006155750805b601f850160051c820191505b81811015620006365782815560010162000621565b5050505b505050565b81516001600160401b038111156200065b576200065b62000393565b62000673816200066c8454620005b0565b84620005ec565b602080601f831160018114620006ab5760008415620006925750858301515b600019600386901b1c1916600185901b17855562000636565b600085815260208120601f198616915b82811015620006dc57888601518255948401946001909101908401620006bb565b5085821015620006fb5787850151600019600388901b60f8161c191681555b5050505050600190811b01905550565b808201808211156200072d57634e487b7160e01b600052601160045260246000fd5b92915050565b61263280620007436000396000f3fe60806040526004361061023f5760003560e01c8063a0cde18d1161012e578063d98040c9116100ab578063ee6a934c1161006f578063ee6a934c14610719578063eeae0f9714610739578063f14210a614610759578063f2fde38b14610779578063fbfa77cf1461079957600080fd5b8063d98040c91461065e578063dd62ed3e14610673578063e6d4d75c146106b9578063e85455d7146106d9578063ea8b2424146106f957600080fd5b8063b0d75097116100f2578063b0d75097146105ad578063b2c5c9eb146105e5578063c77f6cc614610607578063d4ce85f314610627578063d81657431461063c57600080fd5b8063a0cde18d14610516578063a1db97821461052b578063a45cae021461054b578063a9059cbb1461056d578063ae22107f1461058d57600080fd5b806342966c68116101bc5780637f45c4c3116101805780637f45c4c31461046d5780638da5cb5b1461048f578063936b2934146104c157806395d89b41146104e15780639808751d146104f657600080fd5b806342966c68146103ad5780634bed5ad2146103cd57806370a0823114610402578063715018a61461043857806379cc67901461044d57600080fd5b806323b872dd1161020357806323b872dd1461031a578063247165b71461033a5780632ead09551461035a578063313ce56714610371578063326b3b8b1461038d57600080fd5b8063038272b61461024b57806306fdde031461027a578063095ea7b31461029c57806310b828c9146102cc57806318160ddd1461030557600080fd5b3661024657005b600080fd5b34801561025757600080fd5b50600554600160e01b900461ffff165b6040519081526020015b60405180910390f35b34801561028657600080fd5b5061028f6107b9565b60405161027191906122d3565b3480156102a857600080fd5b506102bc6102b736600461233d565b61084b565b6040519015158152602001610271565b3480156102d857600080fd5b506005546102f090600160b01b900463ffffffff1681565b60405163ffffffff9091168152602001610271565b34801561031157600080fd5b50600254610267565b34801561032657600080fd5b506102bc610335366004612367565b610865565b34801561034657600080fd5b506102bc6103553660046123a3565b6108aa565b34801561036657600080fd5b5061036f6108b7565b005b34801561037d57600080fd5b5060405160128152602001610271565b34801561039957600080fd5b5061036f6103a83660046123d0565b610902565b3480156103b957600080fd5b5061036f6103c83660046123eb565b61097b565b3480156103d957600080fd5b506005546103ef90600160f01b900461ffff1681565b60405161ffff9091168152602001610271565b34801561040e57600080fd5b5061026761041d3660046123a3565b6001600160a01b031660009081526020819052604090205490565b34801561044457600080fd5b5061036f610985565b34801561045957600080fd5b5061036f61046836600461233d565b610997565b34801561047957600080fd5b506104826109b0565b6040516102719190612404565b34801561049b57600080fd5b506005546001600160a01b03165b6040516001600160a01b039091168152602001610271565b3480156104cd57600080fd5b5061036f6104dc366004612451565b6109c1565b3480156104ed57600080fd5b5061028f610a5f565b34801561050257600080fd5b5061036f6105113660046123a3565b610a6e565b34801561052257600080fd5b5061028f610ac0565b34801561053757600080fd5b5061036f61054636600461233d565b610aca565b34801561055757600080fd5b506005546103ef90600160d01b900461ffff1681565b34801561057957600080fd5b506102bc61058836600461233d565b610b0f565b34801561059957600080fd5b5061036f6105a83660046123a3565b610b2a565b3480156105b957600080fd5b506007546105cd906001600160801b031681565b6040516001600160801b039091168152602001610271565b3480156105f157600080fd5b506005546103ef90600160e01b900461ffff1681565b34801561061357600080fd5b5061036f6106223660046123a3565b610b75565b34801561063357600080fd5b506102bc610bc0565b34801561064857600080fd5b50610651610be3565b604051610271919061249a565b34801561066a57600080fd5b50610482610c39565b34801561067f57600080fd5b5061026761068e3660046124c2565b6001600160a01b03918216600090815260016020908152604080832093909416825291909152205490565b3480156106c557600080fd5b5061036f6106d43660046123a3565b610c45565b3480156106e557600080fd5b506102bc6106f43660046123a3565b610c90565b34801561070557600080fd5b506006546104a9906001600160a01b031681565b34801561072557600080fd5b5061036f6107343660046123a3565b610c9d565b34801561074557600080fd5b50600554600160d01b900461ffff16610267565b34801561076557600080fd5b5061036f6107743660046123eb565b610d3a565b34801561078557600080fd5b5061036f6107943660046123a3565b610dab565b3480156107a557600080fd5b506008546104a9906001600160a01b031681565b6060600380546107c8906124ec565b80601f01602080910402602001604051908101604052809291908181526020018280546107f4906124ec565b80156108415780601f1061081657610100808354040283529160200191610841565b820191906000526020600020905b81548152906001019060200180831161082457829003601f168201915b5050505050905090565b600033610859818585610deb565b60019150505b92915050565b600061087033610dfd565b3361087c858285610ebb565b61089f85858561088b89610c90565b8061089a575061089a88610c90565b610f3a565b506001949350505050565b600061085f600b83610f5c565b6007546001600160801b03161561090057600780546001600160801b031981169091556006546001600160801b03909116906108fe9030906001600160a01b031683610f81565b505b565b61090a610fe0565b6005805461ffff838116600160f01b9081026001600160f01b038416179093556040519290910416907fe4351c45b53ffb7ebad0b66cc0f1a3dfe2963c099421eeaded141104df39206a9061096f908390859091825261ffff16602082015260400190565b60405180910390a15050565b6108fe338261100d565b61098d610fe0565b6109006000611043565b6109a2823383610ebb565b6109ac828261100d565b5050565b60606109bc6009611095565b905090565b6109c9610fe0565b6005805461ffff838116600160e01b81810261ffff60e01b19888516600160d01b8181029290921663ffffffff60d01b1988161792909217909655604080519686048516808852602088019290925291909404909216918401829052606084015290917f4b05569be7121baf443b738742a05e619022a6ee1ea8a7163ac268f5f163ccef9060800160405180910390a150505050565b6060600480546107c8906124ec565b610a76610fe0565b600680546001600160a01b0319166001600160a01b0383169081179091556040517fa4eea51cd2f21eac6612ba054a363ae2fd59698fc258ab414313cd73f69f2b8590600090a250565b60606109bc6110a2565b610ad2610fe0565b306001600160a01b03831603610afb5760405163992501b360e01b815260040160405180910390fd5b6109ac6001600160a01b0383163383611340565b6000610b1a33610dfd565b3361085981858561088b83610c90565b610b32610fe0565b610b3d600982611392565b506040516001600160a01b038216907f59c3fbcae88f30e9b0e35c132a7f68c53231dffa4722f197c7ecb0ee013eee6090600090a250565b610b7d610fe0565b610b88600b82611392565b506040516001600160a01b038216907f23d60777ebe8928281accb2b7cec3b8daea87dcd3dd3af91a937fea6d898150790600090a250565b60006003610bcc610be3565b6003811115610bdd57610bdd612484565b14905090565b600080610bee6113a7565b9050610bf9816113de565b15610c0657600091505090565b610c0f8161151c565b15610c1c57600191505090565b610c258161153b565b610c3157600291505090565b600391505090565b60606109bc600b611095565b610c4d610fe0565b610c58600b8261159e565b506040516001600160a01b038216907ffc9dbe314ed9f975da84bf7665838b1f60db2efccc75299784a49cbe0752f1af90600090a250565b600061085f600983610f5c565b610ca5610fe0565b6001600160a01b038116610ccc5760405163b47cdee560e01b815260040160405180910390fd5b806001600160a01b03163b600003610cf757604051630f9da0c760e41b815260040160405180910390fd5b610d0260098261159e565b506040516001600160a01b038216907fb893f883ef734b712208a877459424ee509832c57e0461fb1ac99ed4d42f2d8990600090a250565b610d42610fe0565b604051600090339083908381818185875af1925050503d8060008114610d84576040519150601f19603f3d011682016040523d82523d6000602084013e610d89565b606091505b50509050806109ac576040516312171d8360e31b815260040160405180910390fd5b610db3610fe0565b6001600160a01b038116610de257604051631e4fbdf760e01b8152600060048201526024015b60405180910390fd5b6108fe81611043565b610df883838360016115b3565b505050565b610e08600b82610f5c565b15610e105750565b6000610e1a610be3565b90506000816003811115610e3057610e30612484565b03610e5757610e3d610ac0565b604051630968ed3960e11b8152600401610dd991906122d3565b6001816003811115610e6b57610e6b612484565b03610e89576040516371a3793b60e01b815260040160405180910390fd5b6002816003811115610e9d57610e9d612484565b036109ac5760405163110cfbe760e21b815260040160405180910390fd5b6001600160a01b03838116600090815260016020908152604080832093861683529290522054600019811015610f345781811015610f2557604051637dc7a0d960e11b81526001600160a01b03841660048201526024810182905260448101839052606401610dd9565b610f34848484840360006115b3565b50505050565b6000610f4882858786611688565b9050610f55858583610f81565b5050505050565b6001600160a01b038116600090815260018301602052604081205415155b9392505050565b6001600160a01b038316610fab57604051634b637e8f60e11b815260006004820152602401610dd9565b6001600160a01b038216610fd55760405163ec442f0560e01b815260006004820152602401610dd9565b610df88383836117ac565b6005546001600160a01b031633146109005760405163118cdaa760e01b8152336004820152602401610dd9565b6001600160a01b03821661103757604051634b637e8f60e11b815260006004820152602401610dd9565b6109ac826000836117ac565b600580546001600160a01b038381166001600160a01b0319831681179093556040519116919082907f8be0079c531659141344cd1fd0a4f28419497f9722a3daafe3b4186f6b6457e090600090a35050565b60606000610f7a836118d6565b606060006110ae6113a7565b905060008060006110be84611932565b9250925092508160011480156110d45750806001145b15611109576040518060400160405280600e81526020016d4e6577205965617227732044617960901b81525094505050505090565b8160071480156111195750806004145b15611150576040518060400160405280601081526020016f496e646570656e64656e63652044617960801b81525094505050505090565b81600c1480156111605750806019145b15611194576040518060400160405280600d81526020016c4368726973746d61732044617960981b81525094505050505090565b8160011480156111aa57506111aa838383611ad4565b156111ee576040518060400160405280601a81526020017f4d617274696e204c7574686572204b696e67204a722e2044617900000000000081525094505050505090565b8160021480156112045750611204838383611ad4565b15611239576040518060400160405280600e81526020016d507265736964656e74732044617960901b81525094505050505090565b81600514801561124f575061124f838383611b35565b15611282576040518060400160405280600c81526020016b4d656d6f7269616c2044617960a01b81525094505050505090565b8160091480156112985750611298838383611b85565b156112c857604051806040016040528060098152602001684c61626f722044617960b81b81525094505050505090565b81600b1480156112de57506112de838383611bd6565b15611311576040518060400160405280600c81526020016b5468616e6b73676976696e6760a01b81525094505050505090565b6040518060400160405280600d81526020016c4e6f74206120486f6c6964617960981b81525094505050505090565b604080516001600160a01b038416602482015260448082018490528251808303909101815260649091019091526020810180516001600160e01b031663a9059cbb60e01b179052610df8908490611c29565b6000610f7a836001600160a01b038416611c9a565b60006113b1611d8d565b6113c7576113c2610e10600561253c565b6113d4565b6113d4610e10600461253c565b6109bc9042612553565b6000806000806113ed85611932565b9250925092508160011480156114035750806001145b1561141357506001949350505050565b8160071480156114235750806004145b1561143357506001949350505050565b81600c1480156114435750806019145b1561145357506001949350505050565b8160011480156114695750611469838383611ad4565b1561147957506001949350505050565b81600214801561148f575061148f838383611ad4565b1561149f57506001949350505050565b8160051480156114b557506114b5838383611b35565b156114c557506001949350505050565b8160091480156114db57506114db838383611b85565b156114eb57506001949350505050565b81600b1480156115015750611501838383611bd6565b1561151157506001949350505050565b506000949350505050565b60008061152883611dcc565b9050801580610f7a575060061492915050565b60008061154783611df2565b9050600061155484611e02565b90506009821080611566575060108210155b15611575575060009392505050565b6009821480156115855750601e81105b15611594575060009392505050565b5060019392505050565b6000610f7a836001600160a01b038416611e10565b6001600160a01b0384166115dd5760405163e602df0560e01b815260006004820152602401610dd9565b6001600160a01b03831661160757604051634a1406b160e11b815260006004820152602401610dd9565b6001600160a01b0380851660009081526001602090815260408083209387168352929052208290558015610f3457826001600160a01b0316846001600160a01b03167f8c5be1e5ebec7d5bd14f71427d1e84f3dd0314c0f7b2291e5b200ac8c7c3b9258460405161167a91815260200190565b60405180910390a350505050565b6005548190600160a01b900460ff1680156116a05750845b80156116b65750600554600160a81b900460ff16155b156117a45760006116c685610c90565b80156116de5750600554600160e01b900461ffff1615155b1561172657600554600780546001600160801b0380821661271061ffff600160e01b90960495909516880294909404938401166001600160801b03199091161790550161178b565b61172f84610c90565b80156117475750600554600160d01b900461ffff1615155b1561178b57600554600780546001600160801b0380821661271061ffff600160d01b90960495909516880294909404938401166001600160801b0319909116179055015b80156117a25761179c843083610f81565b80820391505b505b949350505050565b6001600160a01b0383166117d75780600260008282546117cc919061257c565b909155506118499050565b6001600160a01b0383166000908152602081905260409020548181101561182a5760405163391434e360e21b81526001600160a01b03851660048201526024810182905260448101839052606401610dd9565b6001600160a01b03841660009081526020819052604090209082900390555b6001600160a01b03821661186557600280548290039055611884565b6001600160a01b03821660009081526020819052604090208054820190555b816001600160a01b0316836001600160a01b03167fddf252ad1be2c89b69c2b068fc378daa952ba7f163c4a11628f55a4df523b3ef836040516118c991815260200190565b60405180910390a3505050565b60608160000180548060200260200160405190810160405280929190818152602001828054801561192657602002820191906000526020600020905b815481526020019060010190808311611912575b50505050509050919050565b600080600061194084611e5f565b92506000806119506107b2611f40565b61195986611f40565b6119639190612553565b90506119716107b286612553565b61197f906301e1338061253c565b611989908361257c565b9150611998816201518061253c565b6119a2908361257c565b915060006119b08388612553565b90506119ba6122b4565b601f81526119c787611f85565b156119d857601d60208201526119e0565b601c60208201525b601f60408201819052601e606083018190526080830182905260a0830181905260c0830182905260e0830182905261010083018190526101208301829052610140830152610160820152600060015b600c8111611aa357600083611a45600184612553565b600c8110611a5557611a5561258f565b6020020151611a67906201518061253c565b905084611a74848361257c565b1115611a835781985050611aa3565b611a8d818461257c565b9250508080611a9b906125a5565b915050611a2f565b5062015180611ab28285612553565b611abc91906125be565b611ac790600161257c565b9799969850505050505050565b600080611ae385856001611fd8565b90506000611af082611dcc565b905060006001821115611b0d57611b08826009612553565b611b18565b611b18826002612553565b90506000611b2782600e61257c565b909514979650505050505050565b600080611b42858561212a565b90506000611b51868684611fd8565b90506000611b5e82611dcc565b905060008115611b7857611b73600183612553565b611b7b565b60065b611b279085612553565b600080611b9485856001611fd8565b90506000611ba182611dcc565b905060006001821115611bbe57611bb9826009612553565b611bc9565b611bc9826002612553565b9094149695505050505050565b600080611be585856001611fd8565b90506000611bf282611dcc565b905060006004821115611c0f57611c0a82600c612553565b611c1a565b611c1a826005612553565b90506000611b2782601561257c565b600080602060008451602086016000885af180611c4c576040513d6000823e3d81fd5b50506000513d91508115611c64578060011415611c71565b6001600160a01b0384163b155b15610f3457604051635274afe760e01b81526001600160a01b0385166004820152602401610dd9565b60008181526001830160205260408120548015611d83576000611cbe600183612553565b8554909150600090611cd290600190612553565b9050808214611d37576000866000018281548110611cf257611cf261258f565b9060005260206000200154905080876000018481548110611d1557611d1561258f565b6000918252602080832090910192909255918252600188019052604090208390555b8554869080611d4857611d486125d2565b60019003818190600052602060002001600090559055856001016000868152602001908152602001600020600090556001935050505061085f565b600091505061085f565b600080611d9942611e5f565b90506000611da6826121e0565b90506000611db38361226d565b9050814210158015611dc457508042105b935050505090565b60006007611ddd62015180846125be565b611de890600461257c565b61085f91906125e8565b60006018611de8610e10846125be565b6000603c611de881846125be565b6000818152600183016020526040812054611e575750815460018181018455600084815260208082209093018490558454848252828601909352604090209190915561085f565b50600061085f565b6000806107b281611e746301e187e0866125be565b611e7e908361257c565b9150611e8b6107b2611f40565b611e9483611f40565b611e9e9190612553565b9050611eac6107b283612553565b611eba906301e1338061253c565b611ec4908461257c565b9250611ed3816201518061253c565b611edd908461257c565b92505b84831115611f3857611efb611ef6600184612553565b611f85565b15611f1557611f0e6301e2850084612553565b9250611f26565b611f236301e1338084612553565b92505b611f31600183612553565b9150611ee0565b509392505050565b6000611f4d600183612553565b9150611f5b610190836125be565b611f666064846125be565b611f716004856125be565b611f7b9190612553565b61085f919061257c565b6000611f926004836125e8565b15611f9f57506000919050565b611faa6064836125e8565b15611fb757506001919050565b611fc3610190836125e8565b15611fd057506000919050565b506001919050565b6000806107b25b8581101561202d57611ff081611f85565b1561200a576120036301e285008361257c565b915061201b565b6120186301e133808361257c565b91505b80612025816125a5565b915050611fdf565b506000604051806101800160405280601f8152602001601c8152602001601f8152602001601e8152602001601f8152602001601e8152602001601f8152602001601f8152602001601e8152602001601f8152602001601e8152602001601f815250905061209986611f85565b156120a657601d60208201525b60015b858110156120fd57816120bd600183612553565b600c81106120cd576120cd61258f565b60200201516120df906201518061253c565b6120e9908461257c565b9250806120f5816125a5565b9150506120a9565b50612109600185612553565b612116906201518061253c565b612120908361257c565b9695505050505050565b6000816001148061213b5750816003145b806121465750816005145b806121515750816007145b8061215c5750816008145b80612167575081600a145b80612172575081600c145b1561217f5750601f61085f565b816004148061218e5750816006145b806121995750816009145b806121a4575081600b145b156121b15750601e61085f565b816002036121d7576121c283611f85565b156121cf5750601d61085f565b50601c61085f565b50600092915050565b6000806121f08360036001611fd8565b905060006121fd82611dcc565b90506000816000036122115750600e61222a565b61221c82600e612553565b61222790600761257c565b90505b612237610e10600261253c565b62015180612246600184612553565b612250919061253c565b61225a908561257c565b612264919061257c565b95945050505050565b60008061227d83600b6001611fd8565b9050600061228a82611dcc565b9050600081156122a45761229f826008612553565b612227565b506001612237610e10600261253c565b604051806101800160405280600c906020820280368337509192915050565b600060208083528351808285015260005b81811015612300578581018301518582016040015282016122e4565b506000604082860101526040601f19601f8301168501019250505092915050565b80356001600160a01b038116811461233857600080fd5b919050565b6000806040838503121561235057600080fd5b61235983612321565b946020939093013593505050565b60008060006060848603121561237c57600080fd5b61238584612321565b925061239360208501612321565b9150604084013590509250925092565b6000602082840312156123b557600080fd5b610f7a82612321565b803561ffff8116811461233857600080fd5b6000602082840312156123e257600080fd5b610f7a826123be565b6000602082840312156123fd57600080fd5b5035919050565b6020808252825182820181905260009190848201906040850190845b818110156124455783516001600160a01b031683529284019291840191600101612420565b50909695505050505050565b6000806040838503121561246457600080fd5b61246d836123be565b915061247b602084016123be565b90509250929050565b634e487b7160e01b600052602160045260246000fd5b60208101600483106124bc57634e487b7160e01b600052602160045260246000fd5b91905290565b600080604083850312156124d557600080fd5b6124de83612321565b915061247b60208401612321565b600181811c9082168061250057607f821691505b60208210810361252057634e487b7160e01b600052602260045260246000fd5b50919050565b634e487b7160e01b600052601160045260246000fd5b808202811582820484141761085f5761085f612526565b8181038181111561085f5761085f612526565b634e487b7160e01b600052601260045260246000fd5b8082018082111561085f5761085f612526565b634e487b7160e01b600052603260045260246000fd5b6000600182016125b7576125b7612526565b5060010190565b6000826125cd576125cd612566565b500490565b634e487b7160e01b600052603160045260246000fd5b6000826125f7576125f7612566565b50069056fea2646970667358221220a722eb964cc2fb3d1a2640e3c0f53fd4fdf41c0d5910722cfbdba2ac5bad174a64736f6c6343000814003360806040523480156200001157600080fd5b50604051620011453803806200114583398101604081905262000034916200013f565b33806200005b57604051631e4fbdf760e01b81526000600482015260240160405180910390fd5b6200006681620000d2565b5060018055600280546001600160a01b039788166001600160a01b03199182161790915560038054968816968216969096179095556004805494871694861694909417909355600580549290951691909316179092556006556007556008805460ff19169055620001ae565b600080546001600160a01b038381166001600160a01b0319831681178455604051919092169283917f8be0079c531659141344cd1fd0a4f28419497f9722a3daafe3b4186f6b6457e09190a35050565b80516001600160a01b03811681146200013a57600080fd5b919050565b60008060008060008060c087890312156200015957600080fd5b620001648762000122565b9550620001746020880162000122565b9450620001846040880162000122565b9350620001946060880162000122565b92506080870151915060a087015190509295509295509295565b610f8780620001be6000396000f3fe608060405234801561001057600080fd5b50600436106101165760003560e01c80638da5cb5b116100a2578063b7c3f62211610071578063b7c3f6221461021c578063e8e6ed691461022f578063eb91d37e14610238578063ed9772b614610240578063f2fde38b1461025357600080fd5b80638da5cb5b146101e25780639e5f2602146101f3578063a932492f14610200578063aaf5eb681461020d57600080fd5b8063715018a6116100e9578063715018a614610196578063735de9f7146101a05780637975ce28146101b35780638b0bc501146101c65780638bdb2afa146101cf57600080fd5b80630422e87d1461011b5780630cad0267146101415780631083f76114610158578063145f101914610183575b600080fd5b61012e610129366004610ddc565b610266565b6040519081526020015b60405180910390f35b60085460ff165b6040519015158152602001610138565b60025461016b906001600160a01b031681565b6040516001600160a01b039091168152602001610138565b61012e610191366004610ddc565b610394565b61019e610413565b005b60045461016b906001600160a01b031681565b61019e6101c1366004610df5565b610427565b61012e60065481565b60035461016b906001600160a01b031681565b6000546001600160a01b031661016b565b6008546101489060ff1681565b61012e6502ba7def300081565b61012e670de0b6b3a764000081565b60055461016b906001600160a01b031681565b61012e60075481565b61012e6105fa565b61019e61024e366004610df5565b6106b6565b61019e610261366004610e2c565b610809565b6005546040516370a0823160e01b815230600482015260009182916001600160a01b03909116906370a0823190602401602060405180830381865afa1580156102b3573d6000803e3d6000fd5b505050506040513d601f19601f820116820180604052508101906102d79190610e50565b905060006102e58483610e7f565b905060006007546502ba7def30006127106103009190610e98565b61030a9190610eaf565b9050600083610321670de0b6b3a764000084610e98565b61032b9190610eaf565b9050600083610342670de0b6b3a764000085610e98565b61034c9190610eaf565b90506000600261035c8385610e7f565b6103669190610eaf565b90506000670de0b6b3a764000061037d8a84610e98565b6103879190610eaf565b9998505050505050505050565b6005546040516370a0823160e01b815230600482015260009182916001600160a01b03909116906370a0823190602401602060405180830381865afa1580156103e1573d6000803e3d6000fd5b505050506040513d601f19601f820116820180604052508101906104059190610e50565b905060006102e58483610ed1565b61041b61084c565b6104256000610879565b565b61042f6108c9565b60085460ff16156104535760405163e6a0d45f60e01b815260040160405180910390fd5b816000036104745760405163162908e360e11b815260040160405180910390fd5b600061047f83610394565b9050818111156104a25760405163428637bb60e11b815260040160405180910390fd5b6002546104ba906001600160a01b03163330846108f3565b60055460405163a9059cbb60e01b8152336004820152602481018590526001600160a01b039091169063a9059cbb906044016020604051808303816000875af115801561050b573d6000803e3d6000fd5b505050506040513d601f19601f8201168201806040525081019061052f9190610ee4565b506002546040516370a0823160e01b81523060048201526000916001600160a01b0316906370a0823190602401602060405180830381865afa158015610579573d6000803e3d6000fd5b505050506040513d601f19601f8201168201806040525081019061059d9190610e50565b905060065481106105b0576105b0610960565b604080518581526020810184905233917f8fafebcaf9d154343dad25669bfa277f4fbacd7ac6b0c4fed522580e040a0f33910160405180910390a250506105f660018055565b5050565b6005546040516370a0823160e01b815230600482015260009182916001600160a01b03909116906370a0823190602401602060405180830381865afa158015610647573d6000803e3d6000fd5b505050506040513d601f19601f8201168201806040525081019061066b9190610e50565b905060006007546502ba7def30006127106106869190610e98565b6106909190610eaf565b9050816106a5670de0b6b3a764000083610e98565b6106af9190610eaf565b9250505090565b6106be6108c9565b60085460ff16156106e25760405163e6a0d45f60e01b815260040160405180910390fd5b816000036107035760405163162908e360e11b815260040160405180910390fd5b600061070e83610266565b9050818110156107315760405163428637bb60e11b815260040160405180910390fd5b6005546040516323b872dd60e01b8152336004820152306024820152604481018590526001600160a01b03909116906323b872dd906064016020604051808303816000875af1158015610788573d6000803e3d6000fd5b505050506040513d601f19601f820116820180604052508101906107ac9190610ee4565b506002546107c4906001600160a01b03163383610d35565b604080518481526020810183905233917f2dcf9433d75db0d8b1c172641f85e319ffe4ad22e108a95d1847ceb906e5195d910160405180910390a2506105f660018055565b61081161084c565b6001600160a01b03811661084057604051631e4fbdf760e01b8152600060048201526024015b60405180910390fd5b61084981610879565b50565b6000546001600160a01b031633146104255760405163118cdaa760e01b8152336004820152602401610837565b600080546001600160a01b038381166001600160a01b0319831681178455604051919092169283917f8be0079c531659141344cd1fd0a4f28419497f9722a3daafe3b4186f6b6457e09190a35050565b6002600154036108ec57604051633ee5aeb560e01b815260040160405180910390fd5b6002600155565b6040516001600160a01b03848116602483015283811660448301526064820183905261095a9186918216906323b872dd906084015b604051602081830303815290604052915060e01b6020820180516001600160e01b038381831617835250505050610d6b565b50505050565b60085460ff161561096d57565b6008805460ff191660011790556003546005546002546040516364e329cb60e11b81526001600160a01b0392831660048201529082166024820152600092919091169063c9c65396906044016020604051808303816000875af11580156109d8573d6000803e3d6000fd5b505050506040513d601f19601f820116820180604052508101906109fc9190610f06565b6005546040516370a0823160e01b81523060048201529192506000916001600160a01b03909116906370a0823190602401602060405180830381865afa158015610a4a573d6000803e3d6000fd5b505050506040513d601f19601f82011682018060405250810190610a6e9190610e50565b6002546040516370a0823160e01b81523060048201529192506000916001600160a01b03909116906370a0823190602401602060405180830381865afa158015610abc573d6000803e3d6000fd5b505050506040513d601f19601f82011682018060405250810190610ae09190610e50565b6005546004805460405163095ea7b360e01b81526001600160a01b03918216928101929092526024820186905292935091169063095ea7b3906044016020604051808303816000875af1158015610b3b573d6000803e3d6000fd5b505050506040513d601f19601f82011682018060405250810190610b5f9190610ee4565b506002546004805460405163095ea7b360e01b81526001600160a01b0391821692810192909252602482018490529091169063095ea7b3906044016020604051808303816000875af1158015610bb9573d6000803e3d6000fd5b505050506040513d601f19601f82011682018060405250810190610bdd9190610ee4565b506004546005546002546001600160a01b039283169263e8e3370092811691168585818130610c0e42610384610e7f565b60405160e08a901b6001600160e01b03191681526001600160a01b039889166004820152968816602488015260448701959095526064860193909352608485019190915260a484015290921660c482015260e4810191909152610104016060604051808303816000875af1158015610c8a573d6000803e3d6000fd5b505050506040513d601f19601f82011682018060405250810190610cae9190610f23565b50506005546040514281526001600160a01b038681169350909116907fd746a893de4e12067ef4a3b08937ae3e7bd69f3872a69af45cb1ef5493d9aa529060200160405180910390a360408051838152602081018390527f38f8a0c92f4c5b0b6877f878cb4c0c8d348a47b76d716c8e78f425043df9515b910160405180910390a1505050565b6040516001600160a01b03838116602483015260448201839052610d6691859182169063a9059cbb90606401610928565b505050565b600080602060008451602086016000885af180610d8e576040513d6000823e3d81fd5b50506000513d91508115610da6578060011415610db3565b6001600160a01b0384163b155b1561095a57604051635274afe760e01b81526001600160a01b0385166004820152602401610837565b600060208284031215610dee57600080fd5b5035919050565b60008060408385031215610e0857600080fd5b50508035926020909101359150565b6001600160a01b038116811461084957600080fd5b600060208284031215610e3e57600080fd5b8135610e4981610e17565b9392505050565b600060208284031215610e6257600080fd5b5051919050565b634e487b7160e01b600052601160045260246000fd5b80820180821115610e9257610e92610e69565b92915050565b8082028115828204841417610e9257610e92610e69565b600082610ecc57634e487b7160e01b600052601260045260246000fd5b500490565b81810381811115610e9257610e92610e69565b600060208284031215610ef657600080fd5b81518015158114610e4957600080fd5b600060208284031215610f1857600080fd5b8151610e4981610e17565b600080600060608486031215610f3857600080fd5b835192506020840151915060408401519050925092509256fea2646970667358221220764315f2d0390c278d172bdcbb53c77901ef28eb4f36f9478ced8e518476ee9064736f6c63430008140033a26469706673582212201bcd696f333d480b031b8460bd7d9b305a7115075dbe3b297effea1081d4aae164736f6c63430008140033",
  "linkReferences": {},
  "deployedLinkReferences": {}
}